:1000000036C7000065C7000063C7000061C7000075
:100010005FC700005DC700005BC7000059C7000054
:1000200057C7000055C7000053C7000051C7000064
:100030004FC700004DC700004BC7000049C7000074
:1000400047C7000045C7000043C7000041C7000084
:100050003FC700003DC700003BC700000C94E20F03
:1000600037C700000C94B9080C94900831C7000001
:100070002FC700002DC700002BC7000029C70000B4
:1000800027C7000025C7000023C7000021C70000C4
:100090001FC700001DC700001BC7000019C70000D4
:1000A00017C7000015C7000013C7000011C70000E4
:1000B0000FC700000DC700000BC7000009C70000F4
:1000C00007C7000005C7000003C7000001C7000004
:1000D000FFC60000FDC60000FBC60000F9C6000018
:1000E000F7C600008D213B2F322232227D233B2F89
:1000F000BF25852485253B2F98262D273228322899
:100100008D21DD2B3B2F8D21A22708299B22A2299F
:10011000532ADD2B362B692C642D6F2E842ED5248B
:100120001E09210910091409180958092509290966
:100130002F09330937093D094109450958094B0978
:100140004F09530949113612651165117F11361295
:100150002A110D12A4113612B211B211CF11CF1102
:1001600049110D1236124911B2110D126511DF112C
:100170000D120D120D120D120D12F9110D120D129C
:100180001010205F000000000000000000000000D0
:10019000000000000000000000000000000000005F
:1001A000000000000000000007000F800F800F809B
:1001B0000F800F8007000700000000000700070005
:1001C0000700000000000E380E380E380E380630DA
:1001D000000000000000000000000000000000001F
:1001E0000000000000000C300C300C307FFE7FFE61
:1001F0000C300C300C300C307FFE7FFE0C300C309D
:100200000C3000000000024002400FF81FF81A40B6
:100210001A401FF00FF8025802581FF81FF0024052
:10022000024000000000000000000E100E300E70B2
:1002300000E001C0038007000E700C700870000021
:1002400000000000000000000F00198019801980D4
:100250000F000F080F9819F818F018E019F00F9810
:1002600000000000000000000700070007000E006B
:10027000000000000000000000000000000000007E
:10028000000000000000000000F001C00380070033
:100290000E000E000E000E000700038001C000F0EB
:1002A00000000000000000000F00038001C000E01B
:1002B000007000700070007000E001C003800F004B
:1002C000000000000000000001801188099007E094
:1002D00007E03FFC3FFC07E007E009901188018040
:1002E000000000000000000000000000018001800C
:1002F00001800FF00FF001800180018000000000FC
:1003000000000000000000000000000000000000ED
:1003100000000000000000000000070007000700C8
:100320000E000000000000000000000000000000BF
:1003300000001FF81FF8000000000000000000008F
:1003400000000000000000000000000000000000AD
:100350000000000000000000000007000700070088
:10036000000000000000000000020006000E001C5B
:100370000038007000E001C0038007000E001C0080
:1003800000000000000000000FF01C381C781CF872
:100390001CF81DB81DB81F381F381E381C380FF048
:1003A00000000000000000000180018003801F8029
:1003B0001F800380038003800380038003801FF07D
:1003C00000000000000000000FE01C701C38003826
:1003D000007000E001C0038007000E381C381FF8D1
:1003E00000000000000000000FE01C701C38003806
:1003F000007003C003C0007000381C381C700FE090
:10040000000000000000000000E001E003E006E062
:100410000CE018E01FF81FF800E000E000E003F82F
:1004200000000000000000001FF81C001C001C0061
:100430001C001FE01FF0007800381C381C700FE013
:10044000000000000000000003E007000E001C0098
:100450001C001FF01FF81C381C381C381C380FF00B
:1004600000000000000000001FFC1C1C1C1C1C1CC9
:10047000001C0038007000E001C00380038003808E
:1004800000000000000000000FF01C381C381C3871
:100490001F3807E007E01CF81C381C381C380FF028
:1004A00000000000000000000FF01C381C381C3851
:1004B0001C381FF80FF800380038007000E007C043
:1004C0000000000000000000000000000380038026
:1004D0000380000000000380038003800000000010
:1004E0000000000000000000000000000380038006
:1004F00003800000000003800380038007000000E9
:10050000000000000000007000E001C00380070050
:100510000E001C001C000E000700038001C000E05C
:1005200000700000000000000000000000003FFC20
:100530003FFC000000003FFC3FFC0000000000000A
:100540000000000000001C000E000700038001C036
:1005500000E00070007000E001C0038007000E00A2
:100560001C000000000003C00FF01E78183800388F
:10057000007000E001C001C00000000001C001C027
:1005800001C0000000000FF81C1C1C1C1C1C1C1CC3
:100590001CFC1CFC1CFC1CFC1C001C001C001FF098
:1005A00007F800000000000003C007E00E701C38D0
:1005B0001C381C381C381FF81C381C381C381C38D8
:1005C00000000000000000001FF00E380E380E384A
:1005D0000E380FF00FF00E380E380E380E381FF0B0
:1005E000000000000000000007F00E381C381C005E
:1005F0001C001C001C001C001C001C380E3807F0DE
:1006000000000000000000001FE00E700E380E38E1
:100610000E380E380E380E380E380E380E701FE0B9
:1006200000000000000000001FF80E180E080E0069
:100630000E300FF00FF00E300E000E080E181FF8DF
:1006400000000000000000001FF80E180E080E0049
:100650000E300FF00FF00E300E000E000E001F00D7
:10066000000000000000000007F00E381C381C38A5
:100670001C001C001C001CF81C381C380E3807F825
:1006800000000000000000001C701C701C701C703A
:100690001C701FF01FF01C701C701C701C701C70F4
:1006A00000000000000000000FE0038003800380D2
:1006B00003800380038003800380038003800FE0B6
:1006C000000000000000000001FC007000700070DD
:1006D00000700070007038703870387038700FE03B
:1006E00000000000000000001E380E380E700EE002
:1006F0000FC00F800F800FC00EE00E700E381E3836
:1007000000000000000000001F000E000E000E00A0
:100710000E000E000E000E000E080E180E381FF808
:1007200000000000000000001C1C1E3C1F7C1FFC81
:100730001FFC1DDC1C9C1C1C1C1C1C1C1C1C1C1CD5
:1007400000000000000000001C1C1C1C1E1C1F1CC4
:100750001F9C1DDC1CFC1C7C1C3C1C1C1C1C1C1C35
:10076000000000000000000003E007F00E381C1C31
:100770001C1C1C1C1C1C1C1C1C1C0E3807F003E041
:1007800000000000000000001FF00E380E380E3888
:100790000E380FF00FF00E000E000E000E001F00BE
:1007A000000000000000000003E00F780E381C1C61
:1007B0001C1C1C1C1C1C1C7C1CFC0FF80FF800389B
:1007C00000FC0000000000001FF00E380E380E384C
:1007D0000E380FF00FF00E700E380E380E381E382F
:1007E00000000000000000000FF01C381C381C380E
:1007F0001C000FE007F000381C381C381C380FF0C4
:1008000000000000000000001FFC19CC11C401C052
:1008100001C001C001C001C001C001C001C007F09A
:1008200000000000000000001C701C701C701C7098
:100830001C701C701C701C701C701C701C700FE0F5
:1008400000000000000000001C701C701C701C7078
:100850001C701C701C701C701C700EE007C00380A4
:1008600000000000000000001C1C1C1C1C1C1C1CA8
:100870001C1C1C9C1C9C1C9C0FF80FF8077007701C
:1008800000000000000000001C701C701C700EE0D6
:1008900007C00380038007C00EE01C701C701C7032
:1008A00000000000000000001C701C701C701C7018
:1008B0001C700EE007C003800380038003800FE0FC
:1008C00000000000000000001FF81C3818381070ED
:1008D00000E001C0038007000E081C181C381FF838
:1008E000000000000000000007F0070007000700FC
:1008F000070007000700070007000700070007F0D0
:100900000000000000000000100018001C000E0095
:100910000700038001C000E000700038001C0007E1
:10092000000000000000000007F000700070007080
:10093000007000700070007000700070007007F0B0
:10094000000000000000018003C007E00E701C38AA
:100950000000000000000000000000000000000097
:100960000000000000000000000000000000000087
:100970000000000000000000000000000000000077
:100980007FFF7FFF000000001C001C000700070025
:100990000000000000000000000000000000000057
:1009A0000000000000000000000000000000000047
:1009B0000FE0007000700FF01C701C701C700FD8DE
:1009C00000000000000000001E000E000E000E00DF
:1009D0000FF00E380E380E380E380E380E381BF069
:1009E0000000000000000000000000000000000007
:1009F0000FE01C701C701C001C001C701C700FE0B1
:100A0000000000000000000000F80070007000709E
:100A10000FF01C701C701C701C701C701C700FD8A8
:100A200000000000000000000000000000000000C6
:100A30000FE01C701C701FF01C001C701C700FE07D
:100A4000000000000000000003E0077007700700CE
:100A500007001FE01FE007000700070007001FC096
:100A60000000000000000000000000000000000086
:100A70000FD81C701C701C701C700FF007F00070F9
:100A80001C700FE0000000001E000E000E000E00A3
:100A90000EF00F380F380E380E380E380E381E385C
:100AA000000000000000000001C001C001C0000003
:100AB0000FC001C001C001C001C001C001C00FF8DA
:100AC00000000000000000000070007000700000D6
:100AD00003F00070007000700070007000701C70F7
:100AE0000CF007E0000000001E000E000E000E00DB
:100AF0000E380E700EE00FC00EE00E700E381E386D
:100B000000000000000000000FC001C001C001C0D3
:100B100001C001C001C001C001C001C001C00FF887
:100B200000000000000000000000000000000000C5
:100B30001FF81C9C1C9C1C9C1C9C1C9C1C9C1C9C96
:100B400000000000000000000000000000000000A5
:100B50001FE01C701C701C701C701C701C701C70C2
:100B60000000000000000000000000000000000085
:100B70000FE01C701C701C701C701C701C700FE04F
:100B80000000000000000000000000000000000065
:100B90001BF00E380E380E380E380E380FF00E00DF
:100BA0000E001F0000000000000000000000000018
:100BB0001FB038E038E038E038E038E01FE000E00F
:100BC00000E001F000000000000000000000000054
:100BD0001EF00FF80F380E000E000E000E001F0062
:100BE0000000000000000000000000000000000005
:100BF0000FE01C301C300F8003E0187018700FE0FD
:100C000000000000000000000000010003000700D9
:100C10001FF007000700070007000770077003E0D8
:100C200000000000000000000000000000000000C4
:100C30001C701C701C701C701C701C701C700FD8F9
:100C400000000000000000000000000000000000A4
:100C50001C701C701C701C701C700EE007C00380A0
:100C60000000000000000000000000000000000084
:100C70001C1C1C1C1C1C1C9C1C9C0FF80770077067
:100C80000000000000000000000000000000000064
:100C90001CE01CE00FC0078007800FC01CE01CE0B8
:100CA0000000000000000000000000000000000044
:100CB0000E380E380E380E380E3807F003E000E01C
:100CC00001C01F80000000000000000000000000C4
:100CD0001FE018E011C0038007000E201C601FE019
:100CE000000000000000000001F803800380038082
:100CF00007001C001C00070003800380038001F82C
:100D000000000000000001C001C001C001C001C01E
:100D100001C001C001C001C001C001C001C001C0CB
:100D200001C00000000000001F8001C001C001C020
:100D300000E00038003800E001C001C001C01F80A1
:100D400000000000000000001F1C3B9C39DC38F84C
:100D50000000000000000000000000000000000093
:100D60000000000000002100240027002A002D00C0
:100D70003000330001010000040107010A010000F6
:100D80000A0B02090C0D0E08070304010000000005
:100D90000000000000000000000000000000000053
:100DA0000000000000000000000012111000000010
:100DB0000000000000000000000000000000000033
:100DC0000000000001021020200808102040102020
:100DD00040800201020108040201010204081020FF
:100DE00040808040201008040201800402018040FD
:100DF0002010080402010804020101020408102066
:100E000040800102040810204080000022002500DC
:100E100028002B002E0031003400020100000501E3
:100E200008010B0105050505070508080808020269
:100E300002020A0A08080404040401010101010174
:100E400001010303030303030303040707070C0C57
:100E50000C0C0C0C0C0C020202020606060606061E
:100E600006060B0B0B0B0B0B0B0BFC32DE321124AB
:100E70001FBECFEFD1E2DEBFCDBF00E00CBF12E05E
:100E8000A0E0B2E0E6E1F2E700E00BBF02C00790AD
:100E90000D92AE3EB107D9F729E0AEEEB2E001C047
:100EA0001D92A336B207E1F717E0C6E3D7E000E0F2
:100EB00006C021970109802FFE010E946034C533CE
:100EC000D10780E00807A9F70E942D200C94FA387A
:100ED00097C8FC01918D828D981761F0828DDF019A
:100EE000A80FB11D5D968C91928D9F5F9F73928F1D
:100EF00090E008958FEF9FEF0895FC01918D828D12
:100F0000981731F0828DE80FF11D858D90E00895DE
:100F10008FEF9FEF0895FC01918D228D892F90E036
:100F2000805C9F4F821B91098F739927089585E0FC
:100F300095E0F1DF21E0892B09F420E0822F08956C
:100F4000FC01848DDF01A80FB11DA35ABF4F2C9166
:100F5000848D90E001968F739927848FA689B78935
:100F60002C93A089B1898C9180648C93938D848D0E
:100F7000981306C00288F389E02D80818F7D8083DD
:100F80000895EF92FF920F931F93CF93DF93EC019D
:100F900081E0888F9B8D8C8D981305C0E889F98935
:100FA000808185FD23C0F62E0B8D10E00F5F1F4F53
:100FB0000F731127E02E8C8DE8120BC00FB607FCC3
:100FC000FACFE889F989808185FFF5CFCE01B8DFB6
:100FD000F2CF8B8DFE01E80FF11DE35AFF4FF08237
:100FE0000B8FEA89FB898081806207C0EE89FF89C7
:100FF0006083E889F98980818064808381E090E062
:10100000DF91CF911F910F91FF90EF900895CF93B3
:10101000DF93EC01888D8823C1F0EA89FB89808108
:1010200085FD05C0A889B9898C9186FD0EC00FB6D3
:1010300007FCF5CF808185FFF2CFA889B9898C9113
:1010400085FFEDCFCE017CDFE8CFDF91CF91089512
:1010500080E090E0892B19F06ADF811125C080E0E3
:1010600090E0892B41F080E090E0892B21F00E94F4
:10107000000081111CC080E090E0892B41F080E0ED
:1010800090E0892B21F00E940000811113C080E0C4
:1010900090E0892BA1F080E090E0892B81F00E9404
:1010A000000081110AC008950E940000D8CF0E945C
:1010B0000000E1CF0E940000EACF0C9400000895E8
:1010C0003FB7F8948091010590910205A091030526
:1010D000B091040526B5A89B05C02F3F19F00196D5
:1010E000A11DB11D3FBFBA2FA92F982F8827820FAE
:1010F000911DA11DB11DBC01CD0142E0660F771FFE
:10110000881F991F4A95D1F708958EBD00000DB430
:1011100007FEFDCF8EB508958FEFF7CF0E9477378A
:101120001F920F920FB60F9211240BB60F922F93AE
:101130003F934F935F936F937F938F939F93AF935F
:10114000BF93EF93FF9385E095E0FADEFF91EF9177
:10115000BF91AF919F918F917F916F915F914F91CF
:101160003F912F910F900BBE0F900FBE0F901F90CD
:1011700018951F920F920FB60F9211240BB60F9273
:101180002F938F939F93EF93FF93E0911505F09129
:1011900016058081E0911B05F0911C0582FD12C0AF
:1011A000908180911E058F5F8F7320911F0582179C
:1011B00051F0E0911E05F0E0EB5FFA4F958F8093C0
:1011C0001E0501C08081FF91EF919F918F912F911A
:1011D0000F900BBE0F900FBE0F901F901895362FDB
:1011E00090E0FC01E258F24F4491FC01EC53F24FC5
:1011F0002491FC01EC5DF14F9491992309F46BC0AB
:10120000442309F455C050E0FA013197E231F10569
:1012100008F04EC08827E057FF4F8F4F0C94603482
:10122000809180008F7707C0809180008F7D03C000
:1012300080918000877F809380003AC084B58F774B
:1012400002C084B58F7D84BD33C08091B0008F779C
:1012500003C08091B0008F7D8093B00029C0809141
:1012600090008F7707C0809190008F7D03C08091A0
:101270009000877F809390001BC08091A0008F77A3
:1012800007C08091A0008F7D03C08091A000877F60
:101290008093A0000DC0809120018F7707C08091BE
:1012A00020018F7D03C080912001877F80932001E2
:1012B000E92FF0E0EE0FFF1FE65FF14FA591B4912B
:1012C0008FB7F894EC91311103C020952E2301C003
:1012D0002E2B2C938FBF089561E0FC0184817FDF6A
:1012E0008091F40281111092F4020895CF93DF935C
:1012F000EC018E81882379F08F8198859C012F5F86
:101300003F4F38872F838230924010F405DFF4CFAF
:10131000CE01E2DF1E82DF91CF910895CF93DF935C
:1013200090E0FC01EC53F24F2491FC01EC5DF14F95
:101330008491882361F190E0880F991FFC01EC599A
:10134000F24FC591D491FC01E65FF14FA591B491A4
:10135000611109C09FB7F894888120958223888302
:10136000EC912E230BC0623061F49FB7F894388162
:10137000822F809583238883EC912E2B2C939FBF03
:1013800006C08FB7F894E8812E2B28838FBFDF919A
:10139000CF910895863308F0865390917B00282FD3
:1013A0002870977F922B90937B0087708064809346
:1013B0007C0080917A00806480937A0080917A002A
:1013C00086FDFCCF809178002091790090E0922BEF
:1013D00008958F929F92AF92BF92CF92DF92EF9239
:1013E000FF926B017C016CDE4B015C01C114D104E6
:1013F000E104F104E9F064DEDC01CB01881999090C
:10140000AA09BB09883E9340A105B10578F321E004
:10141000C21AD108E108F10888EE880E83E0981E10
:10142000A11CB11CC114D104E104F10421F7DECFE9
:10143000FF90EF90DF90CF90BF90AF909F908F90F4
:1014400008952FB7F8946091FD047091FE04809187
:10145000FF04909100052FBF08950F931F93CF9322
:10146000DF93EB01EEDF8B0157DE8F3F41F0E9DFC9
:10147000601B710B6C177D07B8F380E001C081E041
:10148000DF91CF911F910F910895CF92DF92FF923C
:101490000F931F93CF93DF9300D01F92CDB7DEB78A
:1014A0006C01F62E29833A834B835C831FDF809186
:1014B000F40229813A814B815C81811109C081E06C
:1014C0008093F4029091EA058091EB059CBD8DBD5F
:1014D00060E0F601848129833A834B835C837FDE5D
:1014E0006CE271E0C601B9DF8F2D80640EDE08E189
:1014F00010E05C814B813A812981DA01C901002E1B
:1015000004C0B695A795979587950A94D2F7298335
:101510003A834B835C83F9DD0850110929813A81B4
:101520004B815C81083FFFEF1F0739F7FF2029F04F
:1015300088E0F81204C087E803C085E901C08FEF96
:10154000E4DD10E0E9DDF601828787FF04C01F3F7C
:1015500011F01F5FF7CF0F900F900F900F90DF915A
:10156000CF911F910F91FF90DF90CF900895EF9250
:10157000FF920F931F93CF93DF93EC0179014115F5
:1015800051056105710511F482E134C08B8583300A
:1015900039F089E0440F551F661F771F8A95D1F7F0
:1015A0009A01AB0168E1CE0170DF882311F084E07D
:1015B00021C08EEFAADD87018EEFF81AF801819124
:1015C0008F01A3DD0E151F05C9F78FEF9EDD8FEF8D
:1015D0009CDDA2DD8A878F71853029F081E18D83C2
:1015E000CE017ADE08C068E572E0CE0136DF8111F7
:1015F00006C085E18D83CE016FDE80E010C020E063
:1016000030E0A9016DE0CE0140DF811103C084DD2F
:10161000882311F084E1EECFCE015EDE81E0DF9120
:10162000CF911F910F91FF90EF900895CF93DF938B
:101630008091F702882389F1C091F502D091F602DA
:1016400040910202509103026091040270910502E0
:101650002CEF32E0CE018BDF811102C080E01EC092
:101660004091F8025091F9026091FA027091FB02E8
:10167000411551056105710571F02CEF32E0CE0185
:1016800076DF882359F31092F8021092F902109233
:10169000FA021092FB021092F70281E0DF91CF91E3
:1016A0000895BF92CF92DF92EF92FF920F931F9314
:1016B000CF93DF936B017C01B42E80910202909155
:1016C0000302A0910402B09105028C159D05AE05A0
:1016D000BF0509F46DC0AADF882309F470C0C0916A
:1016E000F502D091F6028E81882369F08881998174
:1016F000AA81BB81C816D906EA06FB0621F48F81B0
:101700009885892B89F1C882D982EA82FB828B85F0
:10171000A7019601833039F089E0220F331F441F5F
:10172000551F8A95D1F761E1CE01AFDE882319F00C
:1017300083E08D8331C085DE8B01EEDC8A878F3FAD
:1017400041F47FDE601B710B6D327140B0F38FE0AE
:1017500003C08E3F29F08DE08D83CE01BDDD1CC01E
:1017600018861F8281E08E830CEF12E0D5DCF80131
:1017700081938F01F4E00C3F1F07C1F78F8198859B
:101780009E5F98878F832985222319F081159240C7
:1017900038F0CE01ABDD04C0CE019EDD80E00FC08D
:1017A000C0920202D0920302E0920402F09205027B
:1017B0008091F702482F4B294093F70281E0DF9197
:1017C000CF911F910F91FF90EF90DF90CF90BF903E
:1017D00008954F925F926F927F928F929F92AF92F5
:1017E000BF92CF92DF92EF92FF920F931F93CF930E
:1017F000DF93EC016A017B01280139014230510578
:101800006105710510F480E072C089859A85AB8509
:10181000BC850196A11DB11D84179507A607B707C2
:1018200090F38B889C88AD88BE888F89803129F49D
:10183000BB27AF2D9E2D8D2D09C0DB01CA0147E0CE
:10184000B695A795979587954A95D1F7880E991ED5
:10185000AA1EBB1E8091020290910302A091040275
:10186000B091050288169906AA06BB0679F48F89FD
:10187000803199F4DD24EE24FF24C601880F991FDE
:10188000FC01E450FD4F5182408218C040E0C50188
:10189000B40107DF8111EBCFB6CFE894C7F8DD24A0
:1018A000EE24FF24C601880F991F880F991FFC01A1
:1018B000E450FD4F40825182628273828091F70230
:1018C00081608093F7028A89823080F08D819E81C9
:1018D000AF81B885880E991EAA1EBB1E8092F802A1
:1018E0009092F902A092FA02B092FB0281E0DF919D
:1018F000CF911F910F91FF90EF90DF90CF90BF900D
:10190000AF909F908F907F906F905F904F900895D1
:101910008F929F92AF92BF92CF92DF92EF92FF92FF
:101920000F931F93CF93DF93FC0181859285A3854D
:10193000B4850196A11DB11D84179507A607B707A9
:1019400010F480E05BC083899489A589B689C78932
:10195000C03129F4852E962EA72EBB2409C04A013A
:101960005B01C7E0B694A79497948794CA95D1F782
:10197000E9016A017B018F01BC01CD01680D791D70
:101980008A1D9B1D8090020290900302A090040289
:10199000B0900502681579058A059B0599F4F80150
:1019A00087898031A1F4B701A601552766277727DB
:1019B000440F551FFA01E450FD4F80819181A0E052
:1019C000B0E017C040E06DDE8111E9CFBACFB701BA
:1019D000A6014F77552766277727440F551F440FD9
:1019E000551FFA01E450FD4F80819181A281B3819E
:1019F000BF7088839983AA83BB8381E0DF91CF91F5
:101A00001F910F91FF90EF90DF90CF90BF90AF901C
:101A10009F908F9008953F924F925F926F927F9226
:101A20008F929F92AF92BF92CF92DF92EF92FF92EE
:101A30000F931F93CF93DF93CDB7DEB72C970FB6DD
:101A4000F894DEBF0FBECDBF5C01DC015B968D90CC
:101A50009C905C971696CD90DD90ED90FC90199738
:101A6000C114D104E104F10439F0BFEFCB1ADB0A51
:101A7000EB0AFB0A312C07C0F401C080D180E28060
:101A8000F38033243394F40181859285A385B48552
:101A90009C01AD012F5F3F4F4F4F5F4F29873A8722
:101AA0004B875C87260137011D821E821F821886A4
:101AB000F40181859285A385B4852D813E814F8176
:101AC0005885281739074A075B0708F060C08985E1
:101AD0009A85AB85BC858C159D05AE05BF0550F478
:101AE00082E0C82ED12CE12CF12C92E0492E512C11
:101AF000612C712C9E012F5F3F4FB701A601C401DD
:101B000007DF882309F443C089819A81AB81BC81B6
:101B1000892B8A2B8B2B41F0260137019FEF491A25
:101B2000590A690A790A05C0C414D504E604F70401
:101B300091F02D813E814F8158852F5F3F4F4F4F50
:101B40005F4F2D833E834F8358873FEFC31AD30ADD
:101B5000E30AF30AADCF0FEF1FEF2FEF3FE0B30122
:101B6000A201C40136DE882391F0D50116964D916D
:101B70005D916D917C911997411551056105710534
:101B800041F093018201C40124DE811102C080E092
:101B90002AC0D50116964D925D926D927C9219974E
:101BA000332051F0D301C2010196A11DB11DF401F2
:101BB00080839183A283B383F5018789908DA18D62
:101BC000B28D892B8A2B8B2B69F4D50157964D92B8
:101BD0005D926D927C925A9714968C9114978068BE
:101BE00014968C9381E02C960FB6F894DEBF0FBE4E
:101BF000CDBFDF91CF911F910F91FF90EF90DF90BC
:101C0000CF90BF90AF909F908F907F906F905F909C
:101C10004F903F9008954F925F926F927F928F9274
:101C20009F92AF92BF92EF92FF920F931F93CF9329
:101C3000DF9300D01F921F92CDB7DEB78C016D836A
:101C4000DC0115968C911597813009F056C01496D9
:101C50008C9181FF52C059C0038CF48DE02D2585F5
:101C600030E0275F3F4F2A013B01B1E04B1A51089A
:101C700061087108022E04C07694679457944794C3
:101C80000A94D2F7D501C4010197A109B10904C092
:101C9000B695A795979587952A95D2F784159505BA
:101CA000A605B70508F06FC0F8014789508D618D12
:101CB000728D46835783608771872C013D017801BF
:101CC000E6E0EE0EF11CD8014114510461047104E8
:101CD00009F463C016964D915D916D917C911997B1
:101CE00097015B968D919C915C9712DEB1E04B1A47
:101CF0005108610871088111E6CF81E090E0F80198
:101D00009383828380E090E049C182FF0EC0F80196
:101D1000428553856485758583889488A588B688AF
:101D2000481559056A057B05F1F4D8011A964D91BD
:101D30005D916D917C911D975B968D919C915C97C7
:101D4000FC0174807A944A015B0129E0B694A7945F
:101D5000979487942A95D1F778207A01F1E0FF22B1
:101D6000772011F162C081149104A104B10409F03B
:101D700073CF1682178210861186F8011286138699
:101D800014861586D2CF452B462B472B09F48CCFD2
:101D900084199509A609B70990CF1A968D929D923C
:101DA000AD92BC921D97C1CFE114F10409F03DC082
:101DB000F80146815781608571854115510561059E
:101DC000710549F48789908DA18DB28D0097A10589
:101DD000B10531F520C09E012F5F3F4F99DD88236B
:101DE00009F490CF89819A81AB81BC81F801238D60
:101DF000348DF9012789203129F048EF5FEF6FEF2B
:101E00007FE004C048EF5FEF60E070E08417950763
:101E1000A607B70728F0C801FEDD811106C06DCF07
:101E2000F80186839783A087B187D8015B96ED91EF
:101E3000FC915C9716968D909D90AD90BC901997F3
:101E4000B2E08B1A9108A108B108058404C0880C7F
:101E5000991CAA1CBB1C0A94D2F786859785A08979
:101E6000B189880E991EAA1EBB1E870C911CA11C4D
:101E7000B11CE114F10401F5F80142855385648534
:101E8000758583899489A589B689481759076A0792
:101E90007B0790F0CBDB882309F42FCF80920202DE
:101EA00090920302A0920402B09205028091F70280
:101EB00081608093F70207C041E0C501B401F1DB06
:101EC000882309F41ACFF701E450FD4F8D818083F8
:101ED000F80182859385A485B5850196A11DB11D64
:101EE00082879387A487B5874389548965897689D2
:101EF000481759076A077B0738F4838B948BA58BA7
:101F0000B68B848180688483D80114968C9183FD7C
:101F100003C081E090E042C0F8019581992309F463
:101F2000ECCE87FF37C0668577858089918941E04F
:101F3000B8DB882309F4E1CED8015296EC91B0E2E7
:101F4000EB9F90011124D901A450BD4F109709F4C3
:101F5000D4CEF8018581823050F443895489658953
:101F600076895C964D935D936D937C935F97F801B2
:101F70008789908DA18DB28DF901E450FD4F938F2B
:101F8000828FB58BA48BD80114968C9114978F7780
:101F900014968C934BDB8111BCCFAFCE0F900F907A
:101FA0000F900F900F90DF91CF911F910F91FF90A5
:101FB000EF90BF90AF909F908F907F906F905F90C9
:101FC0004F9008951F920F920FB60F9211242F93E6
:101FD0003F938F939F93AF93BF938091FD04909114
:101FE000FE04A091FF04B09100053091FC0423E0B1
:101FF000230F2D3720F40196A11DB11D05C026E841
:10200000230F0296A11DB11D2093FC048093FD04B3
:102010009093FE04A093FF04B09300058091010506
:1020200090910205A0910305B09104050196A11DB0
:10203000B11D8093010590930205A0930305B09311
:102040000405BF91AF919F918F913F912F910F9078
:102050000FBE0F901F901895CF93DF9389E392E006
:102060000E94851B811137C0DEECD0930606C9E7BC
:10207000C093070668E270E080E090E078D764E6FD
:1020800070E08CE390E073D764EB70E088E790E059
:102090006ED7D0930806C09309061092360688EFD3
:1020A000809306061092070644ED50E06CE070E065
:1020B0008DEA92E0CAD744ED50E068E470E084EB2A
:1020C00092E0C3D744ED50E06DE770E08BEB92E017
:1020D000DF91CF91BAC710920806109209061092AC
:1020E0003606109206061092070620EF30E044EB09
:1020F00050E068EC70E080E090E0DF91CF910C94CC
:10210000811A1F93CF93DF9300D000D0CDB7DEB7F5
:1021100083E992E00E94851B882331F11FEF109321
:1021200006061093070610920806109209061092F0
:10213000360646E450E060E070E087EE92E085D736
:1021400088EF809306061092070660910002709156
:102150000102072E000C880B990B0E94121C109391
:1021600006061093070639C08FEF8093060680930A
:10217000070610920806109209061092360646E4E9
:1021800050E060E070E087EE92E05FD7609100027F
:1021900070910102072E000C880B990B0E94121CF3
:1021A0001A8219821C821B821E821D826091F40594
:1021B0007091F5056115710541F04091F805509158
:1021C000F905CE0101960E94AF1CCE0101960E9436
:1021D000CD1B89819A810E94FB3526960FB6F89413
:1021E000DEBF0FBECDBFDF91CF911F910895CF927B
:1021F000DF92EF92FF920F931F93CF93DF938C01A7
:10220000F62EE72EEA01D22EC32E80910A068130E7
:1022100089F480910F06909110069C01201B310BD0
:10222000841B950BCD2DDC2DD22EC32E062F172F00
:10223000F82EE92EE09113068E2F90E0FC013297E4
:10224000EE31F10508F012C18827EE55FF4F8F4F90
:102250000C946034612F70E082E00E941C20B80171
:1022600083E00E941C206D2F70E084E00E941C20FF
:10227000BE0185E00E941C206E2D70E086E00E9469
:102280001C206F2D7E2D87E00E941C206C2D70E09D
:1022900054C07C2F6627600F711F84E40E941C20AD
:1022A0006F2D7E2D85E40E941C206D2D7C2D86E4F3
:1022B0000E941C20B8018EE40E941C206F2D7E2DF0
:1022C0008FE40E941C2082E2C7C0B80180E20E9415
:1022D0001C206F2D7E2D81E20E941C20B80180E51C
:1022E0000E941C206F2D7E2D82E50E941C20BE01C5
:1022F00081E50E941C206D2D7C2D83E5E2CF60E0FE
:1023000070E082E00E941C20B80183E00E941C2043
:1023100060E070E084E00E941C20BE0185E00E9425
:102320001C2060E070E086E00E941C206F2D7E2D56
:1023300087E00E941C2060E070E088E00E941C2082
:102340006D2D7C2D89E0BDCF8AE20E94D61F802FA3
:102350000E94EB1F8C2F0E94EB1F8BE20E94D61F66
:102360008F2D74C08AE20E94D61F8E2D0E94EB1F13
:102370008F2D0E94EB1F8C2D0E94EB1F8D2D0E9434
:10238000EB1F8BE20E94D61F812F0E94EB1F802F34
:102390000E94EB1F8D2F0E94EB1F8C2F5AC07C2FA9
:1023A0006627602B712B86E40E941C206D2D7C2DEE
:1023B00087E40E941C206F2D7E2D88E410C0BE0192
:1023C00086E30E941C20B80187E30E941C206D2D2B
:1023D0007C2D88E30E941C206F2D7E2D89E30E94B6
:1023E0001C20B80180E20E941C206F2D7E2D81E20E
:1023F00068CF6F2D7E2D82E00E941C20B80183E003
:102400000E941C206D2D7C2D86E00E941C20BE01A8
:1024100087E00E941C208FE01FC08AE20E94D61F26
:10242000812F0E94EB1F802F0E94EB1F8D2F0E9497
:10243000EB1F8C2F0E94EB1F8BE20E94D61F8E2D6C
:102440000E94EB1F8F2D0E94EB1F8C2D0E94EB1F13
:102450008D2D0E94EB1F8CE2DF91CF911F910F9188
:10246000FF90EF90DF90CF900C94D61FDF91CF912B
:102470001F910F91FF90EF90DF90CF9008952091E2
:102480000A0680910F069091100640910B0650911C
:102490000C06211102C09C0102C09A01AC0160E04F
:1024A00070E080E090E0A3CE8F929F92AF92BF92B7
:1024B000CF92DF92EF92FF926A017B0182B9CB014A
:1024C000BA0120E130E040E050E00E94C538490107
:1024D0005A0180E090E0DC0188159905AA05BB054A
:1024E0000CF064C2E0911806F09119063081209139
:1024F0002506209523232083E0911806F0911906E4
:10250000308120912506232B2083E0911806F0913D
:102510001906308120912506209523232083E09100
:102520001806F0911906308120912506232B20836F
:10253000E0911806F091190630812091250620952A
:1025400023232083E0911806F09119063081209111
:102550002506232B2083E0911806F091190630817F
:1025600020912506209523232083E0911806F091E1
:102570001906308120912506232B2083E09118062F
:10258000F091190630812091250620952323208380
:10259000E0911806F0911906308120912506232B31
:1025A0002083E0911806F0911906308120912506CC
:1025B000209523232083E0911806F091190630819D
:1025C00020912506232B2083E0911806F09119060F
:1025D000308120912506209523232083E091180641
:1025E000F0911906308120912506232B2083E0915C
:1025F0001806F09119063081209125062095232395
:102600002083E0911806F09119063081209125066B
:10261000232B2083E0911806F09119063081209138
:102620002506209523232083E0911806F0911906B2
:10263000308120912506232B2083E0911806F0910C
:102640001906308120912506209523232083E091CF
:102650001806F0911906308120912506232B20833E
:10266000E0911806F09119063081209125062095F9
:1026700023232083E0911806F091190630812091E0
:102680002506232B2083E0911806F091190630814E
:1026900020912506209523232083E0911806F091B0
:1026A0001906308120912506232B2083E0911806FE
:1026B000F09119063081209125062095232320834F
:1026C000E0911806F0911906308120912506232B00
:1026D0002083E0911806F09119063081209125069B
:1026E000209523232083E0911806F091190630816C
:1026F00020912506232B2083E0911806F0911906DE
:10270000308120912506209523232083E09118060F
:10271000F0911906308120912506232B2083E0912A
:102720001806F09119063081209125062095232363
:102730002083E0911806F09119063081209125063A
:10274000232B2083E0911806F09119063081209107
:102750002506209523232083E0911806F091190681
:10276000308120912506232B2083E0911806F091DB
:102770001906308120912506209523232083E0919E
:102780001806F0911906308120912506232B20830D
:10279000E0911806F09119063081209125062095C8
:1027A00023232083E0911806F091190630812091AF
:1027B0002506232B2083E0911806F091190630811D
:1027C00020912506209523232083E0911806F0917F
:1027D0001906308120912506232B2083E0911806CD
:1027E000F09119063081209125062095232320831E
:1027F000E0911806F0911906308120912506232BCF
:102800002083E0911806F091190630812091250669
:10281000209523232083E0911806F091190630813A
:1028200020912506232B2083E0911806F0911906AC
:10283000308120912506209523232083E0911806DE
:10284000F0911906308120912506232B2083E091F9
:102850001806F09119063081209125062095232332
:102860002083E0911806F091190630812091250609
:10287000232B2083E0911806F091190630812091D6
:102880002506209523232083E0911806F091190650
:10289000308120912506232B2083E0911806F091AA
:1028A0001906308120912506209523232083E0916D
:1028B0001806F0911906308120912506232B2083DC
:1028C000E0911806F0911906308120912506209597
:1028D00023232083E0911806F0911906308120917E
:1028E0002506232B2083E0911806F09119063081EC
:1028F00020912506209523232083E0911806F0914E
:102900001906308120912506232B2083E09118069B
:10291000F0911906308120912506209523232083EC
:10292000E0911806F0911906308120912506232B9D
:102930002083E0911806F091190630812091250638
:10294000209523232083E0911806F0911906308109
:1029500020912506232B2083E0911806F09119067B
:10296000408130912506309534233083E09118065C
:10297000F0911906208130912506322B3083E091A9
:102980001806F091190640813091250630953423C0
:102990003083E0911806F0911906208130912506C8
:1029A000322B30830196A11DB11D96CDD701C601F2
:1029B0008F709927AA27BB27892B8A2B8B2BE1F1B4
:1029C000C701B60120E130E040E050E00E94C53888
:1029D000C12CD12C76016C157D058E059F0564F107
:1029E000E0911806F0911906308120912506209576
:1029F00023232083E0911806F0911906308120915D
:102A00002506232B2083E0911806F09119063081CA
:102A100020912506209523232083E0911806F0912C
:102A20001906308120912506232B20832FEFC21A0F
:102A3000D20AE20AF20ACFCFFF90EF90DF90CF9058
:102A4000BF90AF909F908F900895CF92DF92EF92BA
:102A5000FF920F931F93CF93DF936C017A018B0149
:102A6000C0E0D0E0CE15DF0589F0D8016D918D0171
:102A7000D601ED91FC910190F081E02DC6011995F0
:102A8000892B11F47E0102C02196ECCFC701DF91A2
:102A9000CF911F910F91FF90EF90DF90CF9008950D
:102AA000682F892F0C9400208F929F92AF92BF9233
:102AB000CF92DF92EF92FF9269017A0182B968B9F1
:102AC000CA01B90120E130E040E050E00E94C53881
:102AD00049015A0180E090E0DC0188159905AA05BA
:102AE000BB050CF034C1E0911806F0911906308155
:102AF00020912506209523232083E0911806F0914C
:102B00001906308120912506232B2083E091180699
:102B1000F0911906308120912506209523232083EA
:102B2000E0911806F0911906308120912506232B9B
:102B30002083E0911806F091190630812091250636
:102B4000209523232083E0911806F0911906308107
:102B500020912506232B2083E0911806F091190679
:102B6000308120912506209523232083E0911806AB
:102B7000F0911906308120912506232B2083E091C6
:102B80001806F091190630812091250620952323FF
:102B90002083E0911806F0911906308120912506D6
:102BA000232B2083E0911806F091190630812091A3
:102BB0002506209523232083E0911806F09119061D
:102BC000308120912506232B2083E0911806F09177
:102BD0001906308120912506209523232083E0913A
:102BE0001806F0911906308120912506232B2083A9
:102BF000E0911806F0911906308120912506209564
:102C000023232083E0911806F0911906308120914A
:102C10002506232B2083E0911806F09119063081B8
:102C200020912506209523232083E0911806F0911A
:102C30001906308120912506232B2083E091180668
:102C4000F0911906308120912506209523232083B9
:102C5000E0911806F0911906308120912506232B6A
:102C60002083E0911806F091190630812091250605
:102C7000209523232083E0911806F09119063081D6
:102C800020912506232B2083E0911806F091190648
:102C9000308120912506209523232083E09118067A
:102CA000F0911906308120912506232B2083E09195
:102CB0001806F091190630812091250620952323CE
:102CC0002083E0911806F0911906308120912506A5
:102CD000232B2083E0911806F09119063081209172
:102CE0002506209523232083E0911806F0911906EC
:102CF000308120912506232B2083E0911806F09146
:102D00001906408130912506309534233083E091B7
:102D10001806F0911906208130912506322B308358
:102D2000E0911806F0911906408130912506309502
:102D300034233083E0911806F091190620813091F8
:102D40002506322B30830196A11DB11DC6CED701B9
:102D5000C6018F709927AA27BB27892B8A2B8B2B1B
:102D600049F1C701B60120E130E040E050E00E94A7
:102D7000C538C12CD12C76016C157D058E059F05BB
:102D8000CCF0E0911806F0911906308120912506CB
:102D9000209523232083E0911806F09119063081B5
:102DA00020912506232B20832FEFC21AD20AE20A94
:102DB000F20AE2CFFF90EF90DF90CF90BF90AF90FC
:102DC0009F908F9008950F931F93CF93DF93EA0105
:102DD00057FF05C0840F951FD195C195D109E0918A
:102DE0001A06F0911B064081309126063095342357
:102DF0003083AC014C0F5D1F9B01F9D98091140603
:102E00008031A9F4E0911606F09117069081809127
:102E10002406892B80839E01DD0F440B550B6091A6
:102E2000070670E08091060690E03EDE27C08830FD
:102E3000C1F49091060680910706981312C0E091A4
:102E40001606F0911706908180912406892B8083C5
:102E5000AE01DD0F660B770B8091060690E024DB58
:102E60000DC000E010E060910706809106060E9408
:102E700000200F5F1F4FC017D107ACF7E0911A0673
:102E8000F0911B06908180912606892B8083DF912B
:102E9000CF911F910F91F3CA0F931F93CF93DF939D
:102EA000FC01EA0157FF05C0640F751FD195C1955C
:102EB000D109A0911A06B0911B062C91909126067B
:102EC000909592239C939B012C0F3D1FAF01CF0146
:102ED0008ED9809114068031A9F4E0911606F09104
:102EE0001706908180912406892B80839E01DD0F37
:102EF000440B550B6091070670E08091060690E048
:102F0000D3DD27C08830C1F4909106068091070672
:102F1000981312C0E0911606F091170690818091E7
:102F20002406892B8083AE01DD0F660B770B809121
:102F3000060690E0B9DA0DC000E010E060910706E7
:102F4000809106060E9400200F5F1F4FC017D10717
:102F5000ACF7E0911A06F0911B069081809126064D
:102F6000892B8083DF91CF911F910F9188CA6F9237
:102F70007F928F929F92AF92BF92CF92DF92EF9209
:102F8000FF920F931F93CF93DF938C0168177907FC
:102F90002CF4982F812F8B01692F782FEB01C01B08
:102FA000D10BC530D1050CF441C0E12CF12C3E0110
:102FB00084E0681A7108680182E0C80ED11C5E01C5
:102FC00082E0A81AB10848018FEF881A980AE11424
:102FD000F10471F081E0E816F104A1F4A50169ECB7
:102FE00070E0C401F0DEA5016FEE70E0C40116C010
:102FF000A30168EC70E0C601E6DEA30160EF70E0BB
:10300000C6010CC0AE01B70168537F4FC801DBDEBB
:1030100060EF70E06E197F09AE01C801D4DE8FEF5A
:10302000E81AF80A85E1E816F10489F6DF91CF91F4
:103030001F910F91FF90EF90DF90CF90BF90AF90D6
:103040009F908F907F906F9008952F923F924F9214
:103050005F926F927F928F929F92AF92BF92CF9228
:10306000DF92EF92FF920F931F93CF93DF93CDB731
:10307000DEB72C970FB6F894DEBF0FBECDBF8C0124
:103080007C876B871A01FC0101900020E9F73197DA
:103090009F01281B390B3C832B8380910A068111E9
:1030A00032C06F307742A1F460910B0670910C062C
:1030B0006F5F7F4F209132064B815C81249FC0015E
:1030C000259F900D1124DB01A81BB90BBC87AB8792
:1030D000EB85FC85EE30F74209F059C080910B0674
:1030E00090910C06A0910D06B0910E060196A11DBF
:1030F000B11D209132064B815C81249F6001259F88
:10310000D00C112432C08B859C858F309742A1F45E
:1031100060910F06709110066F5F7F4F209132060D
:10312000EB81FC812E9FC0012F9F900D11249B01EC
:10313000281B390B3C872B874B855C854E305742CB
:1031400031F580910F0690911006A0911106B09173
:1031500012060196A11DB11D20913206EB81FC8162
:103160002E9F60012F9FD00C11240D2C000CEE0817
:10317000FF08BC01CD016C197D098E099F0922E071
:1031800030E040E050E00E94C5383C872B8718872C
:103190000F831E821D82ED81FE812B813C81E2170F
:1031A000F3070CF095C1809132062D813E81829FFC
:1031B0002001839F500C11244B855C85440E551EC5
:1031C000AF81B8850D91B887AF83E0911A06F09171
:1031D0001B0690818091260680958923808320910B
:1031E0003606809132069091330610E02111F9C025
:1031F00020910A06211177C09101290F311D21501C
:103200003109A201480F511D41505109B101C201BC
:103210000E94F7108091320686958695869590914A
:10322000330620913406021B1109899FC001112425
:10323000089F7001099FF00C189FF00C1124B4E056
:10324000EB0EF11CA12CB12C80913206869586954F
:10325000869590913306899FC0011124A816B9065E
:1032600088F5E0913006F0913106EE0DFF1DE491F6
:10327000F7E0CF2ED12C0E2F10E0C8010C2C02C08D
:10328000959587950A94E2F780FF08C0809106061D
:1032900090E0982F88272091070607C080910806A4
:1032A00090E0982F882720910906822BF9DBE1E036
:1032B000CE1AD10810F72FEFE21AF20A3FEFA31A45
:1032C000B30AC2CFE0911A06F0911B06908180915B
:1032D0002606892B8083D3D84D815E814F5F5F4F57
:1032E0005E834D8358CF86958695869520913406CA
:1032F000021B1109899FC0011124089F6001099FC9
:10330000D00C189FD00C112454E0C50ED11CA12C58
:10331000B12C20913206622F669566956695809154
:103320003306689FC0011124A816B90658F670E04C
:10333000C5010E944C34620D731DA201420F511D44
:10334000415051099B01C2010E94F710E0903206E2
:10335000E694E694E694F12C460181E0881A9108FF
:10336000E114F10499F1E0913006F0913106C401C5
:103370008E0D9F1DE80FF91FE491612C712C0E2F0B
:1033800010E0C801062C02C0959587950A94E2F7D3
:1033900080FF08C08091060690E0982F8827209132
:1033A000070607C08091080690E0982F8827209193
:1033B0000906822B75DB9FEF691A790AA8E06A1665
:1033C0007104F9F6B1E0EB1AF108CACF8091320628
:1033D00086958695869590E0C80ED91EA80EB91ED2
:1033E00098CF86958695869520913406021B110903
:1033F000899FC0011124089F3001099F700C189FFC
:10340000700C1124E4E06E0E711C81018091330672
:1034100090E09801221933092817390708F052CF94
:10342000812C912CC12CD12CD8011196BA87A98757
:103430008091320686958695869590E0C816D906C5
:103440000CF041C0E0913006F0913106C601860DC6
:10345000971DE80FF91FE4917201E80CF91C37E0A1
:10346000A32EB12C2E2F30E03A83298389819A81B3
:103470000A2C02C0959587950A94E2F780FF12C046
:1034800029853A85A7014F5F5F4FB801C7010E94A8
:10349000F7108091060690E0982F88272091070664
:1034A000822BFEDA31E0A31AB1084FEFE41AF40AD6
:1034B0005FEFA516B506D1F68FEFC81AD80A98E0C7
:1034C000890E911CB5CF680E791E0F5F1F4F9ECFDE
:1034D0002C960FB6F894DEBF0FBECDBFDF91CF9113
:1034E0001F910F91FF90EF90DF90CF90BF90AF9022
:1034F0009F908F907F906F905F904F903F902F9014
:1035000008958F929F92AF92BF92CF92DF92EF92E7
:10351000FF920F931F93CF93DF937C016B01EA011E
:103520008901481759072CF4982F8F2D7A01C92F3C
:10353000D82F0C151D052CF49C2D8D2D6801092FFD
:10354000182F80911406803109F03FC0E0911A06CF
:10355000F0911B06908180912606809589238083B7
:103560009801AE01B601C7010E94F710E09116065E
:10357000F0911706908180912406892B8083CE19C3
:10358000DF09CE01DD0FAA0BBB0B9C01AD012F5F44
:103590003F4F4F4F5F4FB8016C197D09CB01770F3B
:1035A000AA0BBB0BBC01CD016F5F7F4F8F4F9F4FAD
:1035B0000E9494389B01AC01E09107066E2F70E0E9
:1035C0008091060690E070DA44C0883009F04BC064
:1035D0009091060680910706981345C0E0911A065F
:1035E000F0911B0690818091260680958923808327
:1035F0009801AE01B601C7010E94F710E0911606CE
:10360000F0911706908180912406892B8083CE1932
:10361000DF09CE01DD0FAA0BBB0B9C01AD012F5FB3
:103620003F4F4F4F5F4FB8016C197D09CB01770FAA
:10363000AA0BBB0BBC01CD016F5F7F4F8F4F9F4F1C
:103640000E949438AB01BC018091060690E00E9474
:103650005412E0911A06F0911B0690818091260683
:10366000892B808345C080910A06882379F05E010A
:10367000AE18BF08B7FE03C08FEFA81AB80AB594FA
:10368000A794812C912C0C191D091FC0C8018C19FD
:103690009D0997FD01964C0195948794A12CB12C1E
:1036A000CE19DF098A149B041CF1B5016C0D7D1D38
:1036B000AE01C70188DBB8016A197B09AE01C701F9
:1036C00082DB8FEFA81AB80AEDCFA814B90484F0F2
:1036D000A801B601C4018E0D9F1DDEDBA801B60155
:1036E000CE0188199909D8DB8FEF881A980AEDCF97
:1036F000DF91CF911F910F91FF90EF90DF90CF90CE
:10370000BF90AF909F908F900895FC018091040628
:1037100090910506892B21F421E0309749F413C0DC
:103720008091000690910106309731F421E0FC0170
:103730008081882341F006C0BF010E94843721E0C8
:10374000892B09F020E0822F0895E5E0F5E0A089BB
:10375000B18982E08C93A485B5851C92A685B78536
:103760008FEC8C93108EA489B58986E08C93A28906
:10377000B3898C9180618C93A289B3898C91886084
:103780008C93A289B3898C9180688C930288F38989
:10379000E02D80818F7D80830895CF92DF92EF921C
:1037A000FF920F931F93CF93DF93CDB7DEB7CDB6C4
:1037B000DEB6FC010481158198012F5F3F4F4DB7A4
:1037C0005EB7421B530B0FB6F8945EBF0FBE4DBFE2
:1037D000EDB7FEB731967F01232B81F0309771F062
:1037E0000115110551F0FC0160817181A801C7012B
:1037F0000E949437F701E00FF11F108244E650E079
:1038000060E070E0C70121DC0FB6F894DEBE0FBEA9
:10381000CDBEDF91CF911F910F91FF90EF90DF9080
:10382000CF9008952F923F924F925F927F928F9206
:103830009F92AF92BF92CF92DF92EF92FF920F933F
:103840001F93CF93DF93CDB7DEB7E4970FB6F8940D
:10385000DEBF0FBECDBF6B017C0161157105810517
:10386000910521F480E389831A825AC097FF0BC027
:10387000F094E094D094C094C11CD11CE11CF11CC4
:103880007724739401C0712C8E01045E1F4F480190
:103890008AE0282E312C412C512CC701B601A201FF
:1038A00091010E94C53820E3260FF40121934F01B6
:1038B0005F01A01AB10AA7019601261B370B480B1E
:1038C000590BCA01B901A20191010E94C5386901D1
:1038D0007A01232B242B252B01F7F801EA0DFB1D80
:1038E0001082772011F08DE28983E72DF0E0C50189
:1038F0008E0F9F1FD801AA0DBB1D41E050E04C0F59
:103900005D1FE40FF51FA017B10719F02E91219349
:10391000FACFE1E0F0E0EC0FFD1FE80FF91F108295
:1039200046E450E064E670E0CE0101968EDBE4965A
:103930000FB6F894DEBF0FBECDBFDF91CF911F91C0
:103940000F91FF90EF90DF90CF90BF90AF909F903E
:103950008F907F905F904F903F902F900895EF92BF
:10396000FF920F931F93CF93DF93EC017B018A01AA
:1039700088819981009729F02A813B812417350796
:10398000F8F4B8016F5F7F4F0E949336009759F0AB
:10399000998388831B830A832C813D81232B81F4A7
:1039A000FC0110820DC088819981009711F00E945E
:1039B000FB35198218821D821C821B821A8207C065
:1039C0001D830C83B701888199810E948D37CE01B8
:1039D000DF91CF911F910F91FF90EF900895CF93BA
:1039E000DF93EC016115710551F0FB01019000209E
:1039F000E9F73197AF01461B570BB1DF0CC0888147
:103A00009981009711F00E94FB35198218821D825E
:103A10001C821B821A82CE01DF91CF910895FC0196
:103A2000118210821382128215821482611571052F
:103A300049F0FB0101900020E9F73197AF01461BE7
:103A4000570B8DCF08956115710579F0FB01019039
:103A50000020E9F73197AF01461B570BDC01ED91D0
:103A6000FC910280F381E02D199480E090E00895AC
:103A7000CF93DF93BC0185E095E0E5DFEC0167E3E0
:103A800072E085E095E0DFDF8C0F9D1FDF91CF9125
:103A900008954F925F926F927F92EF92FF920F93F1
:103AA0001F93CF93DF93CDB7DEB7A1970FB6F894EE
:103AB000DEBF0FBECDBF7C01FA01CB0119A22230BF
:103AC00008F42AE08E010F5D1F4F422E512C612C0D
:103AD000712CBF01A30192010E94A338F901CA0110
:103AE000015011096A3014F4605D01C0695CD801AD
:103AF0006C93232B242B252B61F7B801C701A3DF7F
:103B0000A1960FB6F894DEBF0FBECDBFDF91CF9167
:103B10001F910F91FF90EF907F906F905F904F906B
:103B20000895CF92DF92EF92FF92CF93DF936B01D4
:103B30007C01E0910505F09106050190F081E02DF2
:103B40006DE285E095E01995EC0144275527BA010F
:103B50004C195D096E097F092AE085E095E099DF3F
:103B60008C0F9D1FDF91CF91FF90EF90DF90CF9052
:103B70000895483009F448C118F4413041F00895DF
:103B8000403109F457C1413109F468C10895909159
:103B90001506943019F5E0911E06F0911F069091DC
:103BA0002806813019F48081982B03C0808190957C
:103BB00098239083E0912006F091210690818091D6
:103BC0002906809589238083E0912006F0912106C3
:103BD000908180912906892B80830FC0E091160681
:103BE000F091170690912406813019F48081982B6A
:103BF00003C08081909598239083E0911E06F091F8
:103C00001F0680912806908167FF02C0892B02C0A1
:103C1000809589238083E0912006F0912106908190
:103C200080912906809589238083E0912006F09178
:103C30002106908180912906892B8083E0911E06C0
:103C4000F0911F0680912806908166FF02C0892BA3
:103C500002C0809589238083E0912006F09121069F
:103C6000908180912906809589238083E0912006A8
:103C7000F0912106908180912906892B8083E09123
:103C80001E06F0911F0680912806908165FF02C0F4
:103C9000892B02C0809589238083E0912006F091D2
:103CA0002106908180912906809589238083E09167
:103CB0002006F0912106908180912906892B80832E
:103CC000E0911E06F0911F0680912806908164FF06
:103CD00002C0892B02C0809589238083E091200651
:103CE000F091210690818091290680958923808317
:103CF000E0912006F0912106908180912906892B80
:103D00008083E0911E06F0911F0680912806908125
:103D100063FF02C0892B02C0809589238083E091D4
:103D20002006F091210690818091290680958923B3
:103D30008083E0912006F0912106908180912906F0
:103D4000892B8083E0911E06F0911F068091280642
:103D5000908162FF02C0892B02C0809589238083F5
:103D6000E0912006F09121069081809129068095AE
:103D700089238083E0912006F09121069081809133
:103D80002906892B8083E0911E06F0911F06809101
:103D90002806908161FF02C0892B02C0809589238B
:103DA0008083E0912006F091210690818091290680
:103DB000809589238083E0912006F09121069081EF
:103DC00080912906892B8083E0911E06F0911F06C1
:103DD00080912806908160FF02C0892B02C08095E7
:103DE00089238083E0912006F091210690818091C3
:103DF0002906809589238083E0912006F091210691
:103E0000908180912906CFC082B9E0911806F09187
:103E10001906908180912506809589238083E09101
:103E20001806F0911906908180912506892B8083D0
:103E300062B902C082B968B9E0911806F09119061A
:103E4000908180912506809589238083E0911806D2
:103E5000F0911906908180912506A5C0A59824B3FC
:103E6000982F9071990F922B94BB90910201977E9D
:103E70009093020190910201282F082E000C330B21
:103E8000207C332743E0359527954A95E1F7292B88
:103E9000209302019EB1947C9EB92EB1382F3C70C4
:103EA000330F330F982F9370390F8072082E000C48
:103EB000990B9595879595958795830F822B8EB94C
:103EC000E0912206F0912306908180912A06809548
:103ED00089238083E0912206F091230690818091CE
:103EE0002A06892B8083E0912206F0912306908197
:103EF00080912A06809589238083E0911A06F091AB
:103F00001B06908180912606809589238083A59841
:103F100094B3862F8071880F892B84BB8091020116
:103F2000877E8093020120910201862F062E000CCD
:103F3000990B807C992773E0959587957A95E1F7A1
:103F4000822B809302018EB1847C8EB98EB1962F24
:103F50009C70990F990F262F2370920F6072062E76
:103F6000000C770B7595679575956795690F682BAC
:103F70006EB9E0911806F09119069081809125069E
:103F8000809589238083E0911806F091190690812D
:103F900080912506892B8083E0911A06F0911B06FB
:103FA000908180912606892B80830895682F8091C7
:103FB0001406813069F0E0911606F0911706208111
:103FC000909124069095922390834091140601C00D
:103FD00041E080E0CECD682F80911406813069F0F9
:103FE000E0911606F0911706808190912406982B97
:103FF00090834091140680E002C041E081E0B9CD99
:10400000CF9390911406913061F0E0911606F091F3
:104010001706208190912406922B908340911406DC
:1040200009C0C62F682F41E081E0A3DD409114064E
:104030006C2F81E0CF919DCDCF93DF931F921F9284
:10404000CDB7DEB769837A83B1DF69817A81872F43
:104050000F900F90DF91CF91D3CFCF93DF9300D00C
:104060001F92CDB7DEB7789484B5826084BD84B5E5
:10407000816084BD85B5826085BD85B5816085BD63
:1040800080916E00816080936E001092810080911B
:1040900081008260809381008091810081608093A3
:1040A0008100809180008160809380008091B100C8
:1040B00084608093B1008091B00081608093B000F3
:1040C0008091910082608093910080919100816045
:1040D0008093910080919000816080939000809106
:1040E000A10082608093A1008091A10081608093F3
:1040F000A1008091A00081608093A00080912101A7
:10410000826080932101809121018160809321014F
:104110008091200181608093200180917A008460E9
:1041200080937A0080917A00826080937A008091F7
:104130007A00816080937A0080917A008068809311
:104140007A001092C1001092E6051092E7051092D5
:10415000E8051092E9051092A4051092A5051092A9
:10416000A6051092A70560ED77E080E090E00E9440
:10417000E90985E095E09093E5058093E405E5DAAB
:104180000E94210A6093A4057093A5058093A6055B
:104190009093A70568E272E08091E4059091E505AF
:1041A00052DC6AE070E080E090E00E94E90911E0F2
:1041B0001093B805CADA6AE372E087E396E00FDC91
:1041C00010933D06109243061092420685E090E05F
:1041D000909347068093460682E090E090933F06D6
:1041E00080933E068DE090E09093410680934006D8
:1041F000909345068093440664E472E08CE297E075
:10420000EEDB109232076EE472E081E298E0E7DBC9
:104210001092270810930A0661E080912B060E94F5
:104220008E0961E080912C060E948E0961E08091E8
:104230002D060E948E0980912E068F3F19F061E0B5
:104240000E948E0980911406813131F0813049F449
:1042500080911506853029F461E080912F060E9437
:104260008E0980911406813079F0813131F09FEF11
:1042700091B9803149F497B907C088E18093010171
:1042800080E283BB8BE38DB9E0911C06F0911D06A3
:10429000908180912706892B808365E070E080E023
:1042A00090E00E94E909E0911C06F0911D069081C2
:1042B000809127068095892380836FE070E080E0FD
:1042C00090E00E94E909E0911C06F0911D069081A2
:1042D00080912706892B80836FE070E080E090E07A
:1042E0000E94E909E0911A06F0911B0690818091E5
:1042F0002606809589238083E09113068E2F90E017
:10430000FC013297EE31F10510F00C943B2F882719
:10431000EE58FF4F8F4F0C94603461E070E080E006
:104320008BDE64EA78EA83E087DE60E070E08CE0B0
:1043300083DE6CE078E08DE07FDE60E07BE28EE0A3
:104340007BDE67EB70E08EE177DE6FE37BE281E09E
:1043500073DE60E076E082E06FDE60E070E080E1D6
:104360006BDE60E770E681E167DE60E070E085E0CB
:1043700063DE60E070E086E05FDE6CE17FEE86E1A8
:104380005BDE63E070E087E157DE63E372E087E0C5
:1043900053DE60E070E08BE04FDE60E070E08FE0C5
:1043A0004BDE60E070E081E447DE60E070E082E4D4
:1043B00043DE60E070E088E43FDE6FE371E089E4B3
:1043C0003BDE60E070E08AE437DE60E070E08BE4C2
:1043D00033DE60E07FEE84E42FDE60E070E085E4B1
:1043E0002BDE6FE371E086E427DE67E077E080E3B1
:1043F00023DE64E072E081E31FDE64E072E082E3CA
:104400001BDE62E075E083E317DE67E075E084E3BE
:1044100013DE64E072E085E30FDE64E072E086E3C1
:104420000BDE62E075E087E307DE62E073E08AE3BB
:1044300003DE62E073E08BE3FFDD60E070E083E2C7
:10444000FBDD60E070E084E2F7DD60E070E885E2CB
:10445000F3DD60E070E08FE4EFDD60E070E08EE4BB
:104460000C94502A60EF78E785EEE6DD60E071E0BD
:1044700081E0E2DD60E072E082E0DEDD60E370E1D9
:1044800083E0DADD60E070E084E0D6DD67E072E0D2
:1044900088E0D2DD60E070E089E0CEDD60E070E0D1
:1044A0008AE0CADD60E070E08CE0C6DD60E070E0CC
:1044B0008DE0C2DD60E070E08FE0BEDD60E070E0C6
:1044C00080E1BADD67E070E081E1B6DD60E070E0D8
:1044D00082E1B2DD60E070E083E1AEDD61E070E0DA
:1044E00087E0AADD68EC70E080E090E00E94E909D6
:1044F00060E976E180E1A0DD67E272E081E19CDDC8
:1045000062E370E080E090E00E94E9096DE070E015
:1045100082E192DD62E370E080E090E00E94E909D0
:1045200060E072E183E188DD6AE070E089E284DDC9
:104530006DE070E068C060EF78E785EE7DDD60E0FB
:1045400071E081E079DD60E077E082E075DD60E3D5
:1045500070E183E071DD60E070E084E06DDD67E0D4
:1045600072E088E069DD60E070E089E065DD60E0D0
:1045700070E08AE061DD60E070E08CE05DDD60E0CD
:1045800070E08DE059DD60E070E08FE055DD60E0C7
:1045900070E080E151DD67E070E081E14DDD60E0D9
:1045A00070E082E149DD60E070E083E145DD61E0DB
:1045B00070E087E041DD68EC70E080E090E00E9410
:1045C000E90960E975E180E137DD67E272E081E1E8
:1045D00033DD62E370E080E090E00E94E9096CE97D
:1045E00070E082E129DD62E370E080E090E00E940B
:1045F000E90960E079E183E11FDD63E270E089E2CF
:104600001BDD6EE070E08BE217DD62E370E080E0BE
:1046100090E00E94E90960E070E080E20DDD60E07A
:1046200070E081E209DD60E070E080E305DD64E0D8
:1046300074E081E301DD63E070E082E3FDDC65E0CE
:1046400074E085E3F9DC68E078E086E3F5DC67E0B8
:1046500074E087E3F1DC63E073E088E3EDDC67E0BE
:1046600077E089E3E9DC64E075E08CE3E5DC68E0B1
:1046700078E08DE3E1DC60E070E080E5DDDC6FEEAA
:1046800070E081E5D9DC60E070E082E5D5DC6FE3C5
:1046900071E083E5D1DC60E077EA80E6CDDC61E0C3
:1046A00070E081E6C9DC60E070E08AE6C5DC60E0CD
:1046B00070E080E8C1DC60E070E081E8BDDC60E0D3
:1046C00070E082E8B9DC60E070E083E8B5DC60E0CF
:1046D00070E084E8B1DC60E070E085E8ADDC60E1CA
:1046E00070E080E9A9DC60E070E082E9A5DC63E3CA
:1046F00071E087E0A1DC0C943B2F64E870E086E277
:104700009BDC68E270E080E090E00E94E90968EBE1
:1047100070E086E291DC68E270E080E090E00E9468
:10472000E9096CEB70E086E287DC64E170E080E030
:1047300090E00E94E90960E070E080E67DDC66E0E0
:1047400070E081E679DC60E070E082E675DC68ECC0
:1047500070E083E671DC64E170E080E090E00E944C
:10476000E90960E770E083E767DC60E070E080E41F
:1047700063DC60E470E081E45FDC65E470E082E4C7
:104780005BDC61E070E083E457DC60E670E084E4C9
:1047900053DC65E070E085E44FDC6CE070E086E4BB
:1047A0004BDC61ED70E087E447DC65E070E088E4B5
:1047B00043DC65E770E080E53FDC61E070E081E5C7
:1047C0003BDC67E670E082E537DC64E170E083E5BE
:1047D00033DC62EF70E084E52FDC67E070E085E5B4
:1047E0002BDC63E070E086E527DC69E470E087E5B8
:1047F00023DC64E170E080E090E00E94E90963E07E
:1048000070E08FE119DC60E070E080E215DC64E2CA
:1048100070E084E211DC64E370E085E20DDC6FE2BD
:1048200070E083E209DC64E170E080E090E00E94E7
:10483000E90964E470E088E1FFDB61E070E081E2B7
:10484000FBDB60E070E081E0F7DB63E070E08CE1CF
:10485000F3DB66E070E089E1EFDB64E170E080E0CB
:1048600090E00E94E90964E870E086E2E5DB68E236
:1048700070E080E090E00E94E90968EB70E086E279
:10488000DBDB68E270E080E090E00E94E9096CEB1D
:1048900070E086E2D1DB64E170E080E090E00E94AD
:1048A000E90960E070E082E0C7DB60E070E083E08F
:1048B000C3DB60E070E084E0BFDB6FEA70E085E0BE
:1048C000BBDB60E070E086E0B7DB60E070E087E0D3
:1048D000B3DB60E070E088E0AFDB6BED70E089E0B7
:1048E000ABDB64E170E080E090E00E94E90968E001
:1048F00070E086E1A1DB65E070E087E19DDB81E2AD
:1049000055DB82E253DB0C943B2F81E14FDB6CE003
:1049100070E080E090E00E94E90981EB47DB81E0F4
:104920005ADB8CE258DB8DE256DB82EB3FDB81E029
:1049300052DB8CE250DB8DE24EDB83EB37DB81E038
:104940004ADB8CE248DB8DE246DB81E044DB8CE233
:1049500042DB8DE240DB84EB29DB87E03CDB80EC53
:1049600025DB82EA38DB82E036DB84E834DB81EC6D
:104970001DDB85EC30DB82EC19DB8AE02CDB80E090
:104980002ADB83EC13DB8AE826DB8AE224DB84EC77
:104990000DDB8AE820DB8EEE1EDB85EC07DB8EE08C
:1049A0001ADB86E303DB88EC4FC081E1FFDA6CE0C1
:1049B00070E080E090E00E94E90981EBF7DA81E0A5
:1049C0000ADB8CE208DB8DE206DB82EBEFDA81E0CA
:1049D00002DB8CE200DB8DE2FEDA83EBE7DA81E0DA
:1049E000FADA8CE2F8DA8DE2F6DA81E0F4DA8CE2D7
:1049F000F2DA8DE2F0DA84EBD9DA87E0ECDA80ECF7
:104A0000D5DA82EAE8DA82E0E6DA84E8E4DA81EC10
:104A1000CDDA85ECE0DA82ECC9DA8AE0DCDA80E033
:104A2000DADA83ECC3DA8AE8D6DA8AE2D4DA84EC1A
:104A3000BDDA8AE8D0DA8EEECEDA85ECB7DA8EE02F
:104A4000CADA86E3B3DA80ECC6DA80EEAFDA8FE05A
:104A5000C2DA8AE1C0DA8FE0BEDA88E1BCDA8FE23E
:104A6000BADA88E2B8DA80E2B6DA82E2B4DA8FE162
:104A7000B2DA8BE1B0DA83E2AEDA87E3ACDA80E077
:104A8000AADA87E0A8DA82E0A6DA80E1A4DA81EE89
:104A90008DDA8FE0A0DA8BE19EDA8FE09CDA87E195
:104AA0009ADA83E398DA8CE296DA89E294DA8EE293
:104AB00092DA80E390DA80E38EDA89E38CDA8FE3AE
:104AC0008ADA80E088DA87E086DA83E084DA80E1D7
:104AD00082DA8AE26BDA80E07EDA80E07CDA80E0FB
:104AE0007ADA8FE778DA8BE261DA80E074DA80E0F4
:104AF00072DA80E070DA8FE96EDA80EF57DA81E0FF
:104B00006ADA86EF53DA80E0A7C581E04FDA85E202
:104B10004DDA80E460DA81E149DA6AE070E080E051
:104B200090E00E94E90980E241DA88E33FDA89E215
:104B30003DDA83E13BDA86E339DA80E64CDA8AE370
:104B400035DA85E048DA8AE231DA80E044DA8FE764
:104B500042DA84EB2BDA83E03EDA88E03CDA8BE061
:104B60003ADA8EE038DA8AEB21DA87E034DA8DE05F
:104B700032DA8BE21BDA80E02EDA8FE76CC183E851
:104B800015DA82E028DA85E811DA83E024DA8BE8A6
:104B90000DDA81E020DA8CE809DA83E91CDA81E9B0
:104BA00005DA81E018DA83E801DA80E014DA8EE3CE
:104BB000FDD980EB10DA8FE3F9D983E00CDA80E4D9
:104BC000F5D980E108DA81E4F1D986E504DA82E4F6
:104BD000EDD983E100DA83E4E9D986E4FCD984E401
:104BE000E5D983E2F8D985E4E1D986E7F4D986E40A
:104BF000DDD980E0F0D987E4D9D98EE5ECD988E415
:104C0000D5D98FE4E8D989E4D1D980E4E4D987E122
:104C1000CDD981E9E0D98BE2C9D989EFDCD96AE045
:104C200070E080E090E00E94E9098BE1BFD984E167
:104C3000D2D98AE1BBD981E1CED98CE1B7D986E05E
:104C4000CAD98FE1B3D982E4C6D964E170E080E0CB
:104C500090E00E94E90989E1A9D98AE0BCD989E1FB
:104C6000A5D98AE1B8D968E270E080E090E00E94BE
:104C7000E90989E19BD982E1AED968E270E080E080
:104C800090E00E94E9098EE191D987E2A4D964E617
:104C900070E080E090E00E94E90984E287D980E634
:104CA0009AD98DE383D980E496D984E37FD988E3C8
:104CB00092D985E37BD988E38ED984E277D988E3DA
:104CC0008AD968E270E080E090E00E94E90984E21D
:104CD0006DD98CE380D986E169D98CE17CD981E0FA
:104CE00065D986E078D985E561D980E074D982E01C
:104CF0005DD980E070D983E059D980E06CD984E037
:104D000055D980E068D985E051D98FEE64D986E025
:104D10004DD980E060D987E049D980E05CD988E04E
:104D200045D981E058D989E041D98FE854D9E9CDF6
:104D300082EE3CD983E24FD982E04DD984E54BD94C
:104D400080EE34D981E047D96AE070E080E090E0FD
:104D50000E94E90980EE2AD983E03DD96AE070E03B
:104D600080E090E00E94E90981E020D964E670E0EB
:104D700080E090E00E94E90986EE18D981E02BD905
:104D80008FE129D98FEF27D980EB10D980E223D981
:104D900080E021D981E01FD98FED1DD981E01BD999
:104DA0008FE019D980E017D984EB00D982E013D9BC
:104DB00083E111D980E00FD988E00DD98BE20BD9BE
:104DC00080E009D982E007D980E005D986EBEED8EA
:104DD00081E001D980E2FFD880E0FDD884E0FBD8F3
:104DE0008CE0F9D880E0F7D882E0F5D88AEBDED8FD
:104DF0008FE0F1D888EBDAD887E0EDD881E0EBD806
:104E000086E3D4D882E2E7D880EFD0D883E0E3D835
:104E100061E070E080E090E00E94E9092FE031E07D
:104E20004FED51E060E070E080E090E00E94F7100C
:104E300089E2BCD88EEBBAD886E0CDD880EFCBD84B
:104E400081E0C9D880EFC7D880E0C5D880E0C3D85A
:104E500080EDACD88DE0BFD83FC782EEA7D88EE1F9
:104E6000BAD882E0B8D884E5B6D880EE9FD881E081
:104E7000B2D86AE070E080E090E00E94E90980EE3C
:104E800095D883E0A8D86AE070E080E090E00E94C6
:104E9000E90981E08BD864E670E080E090E00E9450
:104EA000E90986EE83D883E096D88FEF94D88FEF08
:104EB00092D880EB7BD884E28ED880E08CD883E0D7
:104EC0008AD88FE188D881E086D88FED84D880E0B9
:104ED00082D884EB6BD883E07ED880EA7CD880E0EF
:104EE0007AD88EE278D880E376D880E074D88FE0E4
:104EF00072D880E070D886EB59D882E06CD88DE00B
:104F00006AD880E068D880E166D880E164D880E023
:104F100062D888E060D88AEB49D88FE05CD888EB0B
:104F200045D887E058D881E056D886E33FD882E25A
:104F300052D880EF3BD883E04ED861E070E080E04B
:104F400090E089C082EE32D883E245D882E043D82F
:104F500084E041D880EE2AD881E03DD86AE070E054
:104F600080E090E00E94E90980EE20D883E033D809
:104F70006AE070E080E090E00E94E90981E016D8E4
:104F800064E670E080E090E00E94E90986EE0ED8C9
:104F900084E021D883E91FD880EE1DD880EB06D8A5
:104FA00080E019D880E017D883E015D88FE113D8B6
:104FB00081E011D88FED0FD880E00DD884EB0E94EE
:104FC000D61F83E008D880EA06D880E004D88EE2B5
:104FD00002D880E300D880E00E94EB1F8FE00E949F
:104FE000EB1F80E00E94EB1F86EB0E94D61F82E041
:104FF0000E94EB1F8DE00E94EB1F80E00E94EB1FE0
:1050000080E10E94EB1F80E10E94EB1F80E00E9484
:10501000EB1F88E00E94EB1F8AEB0E94D61F85E001
:105020000E94EB1F88EB0E94D61F87E00E94EB1FB7
:1050300081E00E94EB1F86E30E94D61F82E20E945D
:10504000EB1F80EF0E94D61F83E00E94EB1F6AE0F7
:1050500070E080E090E00E94E9092FED31E04FE13F
:1050600053E0E0CE64E070E281E10E941C2060E049
:105070007CEC83E10E941C2060E076E285E10E94E6
:105080001C206AE275E284E10E941C2063E370E068
:1050900082E10E941C2064E07CEC83E10E941C20E1
:1050A00066E07CEC83E10E941C206FE47CEC83E1F1
:1050B0000E941C206FE477E683E10E941C2063E0DD
:1050C00070E281E10E941C2069E076E280E30E94A8
:1050D0001C206CE274E281E30E941C2063E27FE109
:1050E00082E30E941C2065E274E283E30E941C209C
:1050F00066E272E284E30E941C2063E275E285E3CB
:105100000E941C206AE17CE186E30E941C206DE184
:1051100073E187E30E941C2061E17BE088E30E9449
:105120001C2060E172E189E30E941C2065E173E1CB
:105130008AE30E941C2069E176E38BE30E941C2035
:1051400060E07DE08CE30E941C206DE070E08DE368
:105150000E941C2067E070E086E10E941C2063E151
:1051600070E082E00E941C2063E070E083E00E9417
:105170001C2067E271E081E00E941C2063E073E084
:1051800088E00E941C206BE070E08AE00E941C20F6
:1051900063E070E08BE00E941C2060E070E08CE037
:1051A0000E941C2060E070E081E40E941C2060E00E
:1051B00070E080E50E941C2065E070E080E60E94BF
:1051C0001C206BE070E080E70E941C2060E070E033
:1051D00081E70E941C2060E070E088E70E941C20AC
:1051E00060E070E08AE70E941C2067E070E089E7D9
:1051F0000E941C2061E570E087E00E941C2063E5AE
:1052000070E087E00E941C2060E070E089E748C100
:1052100081E10E94D61F64E170E080E090E00E948E
:10522000E90980ED0E94D61F87E00E94EB1F82E40F
:105230000E94EB1F88E10E94EB1F81ED0E94D61FA8
:1052400080E00E94EB1F87E00E94EB1F80E10E943C
:10525000EB1F82ED0E94D61F81E00E94EB1F82E0CF
:105260000E94EB1F80EC0E94D61F80E10E94EB1F82
:105270008BE30E94EB1F80E00E94EB1F82E00E9404
:10528000EB1F81E10E94EB1F85EC0E94D61F83E09B
:105290000E94EB1F88EC0E94D61F80E00E94EB1F4B
:1052A00082E30E94EB1F86E30E94EB1F85E40E94CD
:1052B000EB1F86E00E94EB1F86E10E94EB1F87E355
:1052C0000E94EB1F85E70E94EB1F87E70E94EB1F00
:1052D00084E50E94EB1F8CE00E94EB1F80E00E949F
:1052E000EB1F86E30E94D61F8AE00E94EB1F8AE331
:1052F0000E94D61F85E50E94EB1F8AE20E94D61FFE
:1053000080E00E94EB1F80E00E94EB1F81E00E9482
:10531000EB1F8FE30E94EB1F8BE20E94D61F80E001
:105320000E94EB1F80E00E94EB1F81E00E94EB1FB8
:1053300080EE0E94EB1F68E770E080E090E00E9442
:10534000E90992C16AE170E081E10E941C2061E2FA
:1053500071E382E10E941C206CE670E083E10E9410
:105360001C2069E472E484E10E941C2060E078E083
:1053700080E10E941C206AE070E080E090E00E94E2
:10538000E9096AE171E081E10E941C206AE070E0B5
:1053900080E090E00E94E9096AE173E081E10E9407
:1053A0001C206AE070E080E090E00E94E9096AE178
:1053B00077E081E10E941C206AE070E080E090E0EC
:1053C0000E94E9096AE17FE081E10E941C206AE015
:1053D00070E080E090E00E94E9096AE37FE081E10B
:1053E0000E941C206EE170E080E090E00E94E909DC
:1053F0006CE171E081E00E941C2060E071E082E0DD
:105400000E941C2060E370E183E00E941C2060E0A9
:1054100070E087E00E941C2068E078E088E00E944D
:105420001C2060E071E18BE00E941C2060E070E0D5
:105430008CE00E941C2061E074E18FE00E941C203F
:1054400060E070E085E10E941C2060E070E080E296
:105450000E941C2060E070E081E20E941C206FEA44
:1054600070E086E30E941C2060E070E087E30E9409
:105470001C206BED70E088E30E941C2060E070E06F
:1054800089E30E941C2061E07BE08FE00E941C20E9
:1054900066E170E087E00E941C2067E170E087E031
:1054A0000E941C202ECA81E10E94D61F68E770E08E
:1054B00080E090E00E94E90981EB0E94D61F85E020
:1054C0000E94EB1F8CE30E94EB1F8CE30E94EB1FFA
:1054D00082EB0E94D61F85E00E94EB1F8CE30E94A6
:1054E000EB1F8CE30E94EB1F83EB0E94D61F85E02D
:1054F0000E94EB1F8CE30E94EB1F8CE30E94EB1FCA
:1055000085E00E94EB1F8CE30E94EB1F8CE30E945E
:10551000EB1F84EB0E94D61F83E00E94EB1F80EC00
:105520000E94D61F88E20E94EB1F88E00E94EB1FBA
:1055300084E00E94EB1F81EC0E94D61F80EC0E9449
:10554000EB1F82EC0E94D61F8DE00E94EB1F80E0D3
:105550000E94EB1F83EC0E94D61F8DE80E94EB1F78
:105560008AE20E94EB1F84EC0E94D61F8DE80E9405
:10557000EB1F8EEE0E94EB1F85EC0E94D61F8AE186
:105580000E94EB1F86E30E94D61F80EC0E94EB1F57
:1055900080EE0E94D61F83E00E94EB1F82E20E94F1
:1055A000EB1F87E00E94EB1F8AE00E94EB1F8EE258
:1055B0000E94EB1F80E30E94EB1F85E20E94EB1F1D
:1055C0008AE20E94EB1F88E20E94EB1F86E20E94A3
:1055D000EB1F8EE20E94EB1F8AE30E94EB1F80E02C
:1055E0000E94EB1F81E00E94EB1F83E00E94EB1FF3
:1055F00083E10E94EB1F81EE0E94D61F84E00E948F
:10560000EB1F86E10E94EB1F86E00E94EB1F8DE0FE
:105610000E94EB1F8DE20E94EB1F86E20E94EB1FAF
:1056200083E20E94EB1F87E20E94EB1F87E20E9449
:10563000EB1F85E20E94EB1F8DE20E94EB1F8BE3C4
:105640000E94EB1F80E00E94EB1F81E00E94EB1F95
:1056500084E00E94EB1F83E10E94EB1F8AE30E941B
:10566000D61F85E00E94EB1F89E24CC981E10E94B0
:10567000D61F64E170E080E090E00E94E90988E2D2
:105680000E94D61F65E070E080E090E00E94E9098A
:105690008FEC0E94D61F80E00E94EB1F83E80E94DF
:1056A000EB1F80E30E94EB1F8DEE0E94D61F84E665
:1056B0000E94EB1F83E00E94EB1F82E10E94EB1F20
:1056C00081E80E94EB1F88EE0E94D61F85E80E94A9
:1056D000EB1F81E00E94EB1F89E70E94EB1F8BEC20
:1056E0000E94D61F89E30E94EB1F8CE20E94EB1FF1
:1056F00080E00E94EB1F84E30E94EB1F82E00E9487
:10570000EB1F87EF0E94D61F80E20E94EB1F8AEEFC
:105710000E94D61F80E00E94EB1F80E00E94EB1FDA
:1057200080EC0E94D61F86E20E94EB1F81EC0E9453
:10573000D61F81E10E94EB1F85EC0E94D61F85E3F6
:105740000E94EB1F8EE30E94EB1F87EC0E94D61F86
:105750008EEB0E94EB1F81EB0E94D61F80E00E941F
:10576000EB1F8BE10E94EB1F86EB0E94D61F8AE0A5
:105770000E94EB1F82E80E94EB1F87E20E94EB1F52
:1057800080E00E94EB1F87EB0E94D61F87E00E94FB
:10579000EB1F8AE30E94D61F85E50E94EB1F86E37C
:1057A0000E94D61F88E40E94EB1F89E20E94D61F48
:1057B00065E070E080E090E05CC38BEC0E94D61F57
:1057C00089E30E94EB1F8CE20E94EB1F80E00E94A5
:1057D000EB1F84E30E94EB1F82E00E94EB1F8FEC23
:1057E0000E94D61F80E00E94EB1F81EC0E94EB1FFD
:1057F00080E30E94EB1F88EE0E94D61F85E80E947E
:10580000EB1F80E00E94EB1F88E70E94EB1F8AEEEF
:105810000E94D61F80E00E94EB1F80E00E94EB1FD9
:105820008DEE0E94D61F84E60E94EB1F83E00E944B
:10583000EB1F82E10E94EB1F81E80E94EB1F87EFC4
:105840000E94D61F80E20E94EB1F80EC0E94D61FB0
:1058500083E20E94EB1F81EC0E94D61F80E10E9430
:10586000EB1F85EC0E94D61F8EE30E94EB1F88E29F
:105870000E94EB1F87EC0E94D61F86E80E94EB1F58
:1058800086E30E94D61F88E40E94EB1F8AE30E94F1
:10589000D61F85E50E94EB1F81EB0E94D61F80E09A
:1058A0000E94EB1F88E10E94EB1F86EB0E94D61F2F
:1058B00088E00E94EB1F82E80E94EB1F87E20E94B3
:1058C000EB1F81E10E94D61F68E770E080E090E066
:1058D000FEC180EB0E94D61F8EE10E94EB1F80EB81
:1058E0000E94D61F80E00E94EB1F83EB0E94D61F10
:1058F00082E00E94EB1F80E00E94EB1F80E00E948C
:10590000EB1F80E10E94EB1F84EB0E94D61F80E01A
:105910000E94EB1F80EC0E94D61F83E00E94EB1FC9
:105920008BE30E94EB1F80E00E94EB1F80E00E944F
:10593000EB1F80E00E94EB1F81E00E94EB1F80E0E4
:105940000E94EB1F83E40E94EB1F81EC0E94D61F94
:1059500088E00E94EB1F85E10E94EB1F88E00E9417
:10596000EB1F88E00E94EB1F84EC0E94D61F85E1AC
:105970000E94EB1F83E00E94EB1F83E00E94EB1F5D
:1059800081E00E94EB1F86EC0E94D61F82E00E94FD
:10599000EB1F88EC0E94D61F8CE00E94EB1F85E075
:1059A0000E94EB1F8AE00E94EB1F8BE60E94EB1F18
:1059B00084E00E94EB1F86E00E94EB1F85E10E94BD
:1059C000EB1F80E10E94EB1F80E00E94EB1F80E64E
:1059D0000E94EB1F86E30E94D61F8AE00E94EB1F05
:1059E0008CE00E94D61F85E50E94EB1F8AE30E948F
:1059F000D61F85E50E94EB1F88E30E94D61F80ED2D
:105A00000E94D61F87E00E94EB1F87E00E94EB1FD9
:105A100084E10E94EB1F82EA0E94EB1F81ED0E944D
:105A2000D61F83E00E94EB1F8AE50E94EB1F80E1F6
:105A30000E94EB1F82ED0E94D61F83E00E94EB1FA5
:105A400084E00E94EB1F84E00E94EB1F81E10E9432
:105A5000D61F66E970E080E090E00E94E9098AE2E2
:105A60000E94D61F80E00E94EB1F80E00E94EB1F87
:105A700081E00E94EB1F8FED0E94EB1F8BE20E94E2
:105A8000D61F80E00E94EB1F80E00E94EB1F81E0A8
:105A90000E94EB1F8FE30E94EB1F64E670E080E042
:105AA00090E00E94E90989E20E94D61F6EE170E051
:105AB00080E090E00E94E9098CE20E94D61F6EE12E
:105AC00070E080E090E0D5C181E10E94D61F62E3E2
:105AD00070E080E090E00E94E90982EF0E94D61F0A
