:1000000036C7000065C7000063C7000061C7000075
:100010005FC700005DC700005BC7000059C7000054
:1000200057C7000055C7000053C7000051C7000064
:100030004FC700004DC700004BC7000049C7000074
:1000400047C7000045C7000043C7000041C7000084
:100050003FC700003DC700003BC700000C94F50FF0
:1000600037C700000C94CC080C94A30831C70000DB
:100070002FC700002DC700002BC7000029C70000B4
:1000800027C7000025C7000023C7000021C70000C4
:100090001FC700001DC700001BC7000019C70000D4
:1000A00017C7000015C7000013C7000011C70000E4
:1000B0000FC700000DC700000BC7000009C70000F4
:1000C00007C7000005C7000003C7000001C7000004
:1000D000FFC60000FDC60000FBC60000F9C6000018
:1000E000F7C60000CA205C2E6F216F21BA225C2E59
:1000F000FC24C223C2245C2ED5256A265D275D27F9
:10010000CA20FE2A5C2ECA20DF262928D821C3282F
:100110007429FE2A572A8A2B852C902DA52D12246E
:1001200031093409230927092B096B0938093C09CE
:10013000420946094A095009540958096B095E09E0
:100140006209660934112112501150116A112112ED
:100150001511F8118F1121129D119D11BA11BA11AB
:100160003411F811211234119D11F8115011CA11D6
:10017000F811F811F811F811F811E411F811F8114B
:100180001010205F000000000000000000000000D0
:10019000000000000000000000000000000000005F
:1001A000000000000000000007000F800F800F809B
:1001B0000F800F8007000700000000000700070005
:1001C0000700000000000E380E380E380E380630DA
:1001D000000000000000000000000000000000001F
:1001E0000000000000000C300C300C307FFE7FFE61
:1001F0000C300C300C300C307FFE7FFE0C300C309D
:100200000C3000000000024002400FF81FF81A40B6
:100210001A401FF00FF8025802581FF81FF0024052
:10022000024000000000000000000E100E300E70B2
:1002300000E001C0038007000E700C700870000021
:1002400000000000000000000F00198019801980D4
:100250000F000F080F9819F818F018E019F00F9810
:1002600000000000000000000700070007000E006B
:10027000000000000000000000000000000000007E
:10028000000000000000000000F001C00380070033
:100290000E000E000E000E000700038001C000F0EB
:1002A00000000000000000000F00038001C000E01B
:1002B000007000700070007000E001C003800F004B
:1002C000000000000000000001801188099007E094
:1002D00007E03FFC3FFC07E007E009901188018040
:1002E000000000000000000000000000018001800C
:1002F00001800FF00FF001800180018000000000FC
:1003000000000000000000000000000000000000ED
:1003100000000000000000000000070007000700C8
:100320000E000000000000000000000000000000BF
:1003300000001FF81FF8000000000000000000008F
:1003400000000000000000000000000000000000AD
:100350000000000000000000000007000700070088
:10036000000000000000000000020006000E001C5B
:100370000038007000E001C0038007000E001C0080
:1003800000000000000000000FF01C381C781CF872
:100390001CF81DB81DB81F381F381E381C380FF048
:1003A00000000000000000000180018003801F8029
:1003B0001F800380038003800380038003801FF07D
:1003C00000000000000000000FE01C701C38003826
:1003D000007000E001C0038007000E381C381FF8D1
:1003E00000000000000000000FE01C701C38003806
:1003F000007003C003C0007000381C381C700FE090
:10040000000000000000000000E001E003E006E062
:100410000CE018E01FF81FF800E000E000E003F82F
:1004200000000000000000001FF81C001C001C0061
:100430001C001FE01FF0007800381C381C700FE013
:10044000000000000000000003E007000E001C0098
:100450001C001FF01FF81C381C381C381C380FF00B
:1004600000000000000000001FFC1C1C1C1C1C1CC9
:10047000001C0038007000E001C00380038003808E
:1004800000000000000000000FF01C381C381C3871
:100490001F3807E007E01CF81C381C381C380FF028
:1004A00000000000000000000FF01C381C381C3851
:1004B0001C381FF80FF800380038007000E007C043
:1004C0000000000000000000000000000380038026
:1004D0000380000000000380038003800000000010
:1004E0000000000000000000000000000380038006
:1004F00003800000000003800380038007000000E9
:10050000000000000000007000E001C00380070050
:100510000E001C001C000E000700038001C000E05C
:1005200000700000000000000000000000003FFC20
:100530003FFC000000003FFC3FFC0000000000000A
:100540000000000000001C000E000700038001C036
:1005500000E00070007000E001C0038007000E00A2
:100560001C000000000003C00FF01E78183800388F
:10057000007000E001C001C00000000001C001C027
:1005800001C0000000000FF81C1C1C1C1C1C1C1CC3
:100590001CFC1CFC1CFC1CFC1C001C001C001FF098
:1005A00007F800000000000003C007E00E701C38D0
:1005B0001C381C381C381FF81C381C381C381C38D8
:1005C00000000000000000001FF00E380E380E384A
:1005D0000E380FF00FF00E380E380E380E381FF0B0
:1005E000000000000000000007F00E381C381C005E
:1005F0001C001C001C001C001C001C380E3807F0DE
:1006000000000000000000001FE00E700E380E38E1
:100610000E380E380E380E380E380E380E701FE0B9
:1006200000000000000000001FF80E180E080E0069
:100630000E300FF00FF00E300E000E080E181FF8DF
:1006400000000000000000001FF80E180E080E0049
:100650000E300FF00FF00E300E000E000E001F00D7
:10066000000000000000000007F00E381C381C38A5
:100670001C001C001C001CF81C381C380E3807F825
:1006800000000000000000001C701C701C701C703A
:100690001C701FF01FF01C701C701C701C701C70F4
:1006A00000000000000000000FE0038003800380D2
:1006B00003800380038003800380038003800FE0B6
:1006C000000000000000000001FC007000700070DD
:1006D00000700070007038703870387038700FE03B
:1006E00000000000000000001E380E380E700EE002
:1006F0000FC00F800F800FC00EE00E700E381E3836
:1007000000000000000000001F000E000E000E00A0
:100710000E000E000E000E000E080E180E381FF808
:1007200000000000000000001C1C1E3C1F7C1FFC81
:100730001FFC1DDC1C9C1C1C1C1C1C1C1C1C1C1CD5
:1007400000000000000000001C1C1C1C1E1C1F1CC4
:100750001F9C1DDC1CFC1C7C1C3C1C1C1C1C1C1C35
:10076000000000000000000003E007F00E381C1C31
:100770001C1C1C1C1C1C1C1C1C1C0E3807F003E041
:1007800000000000000000001FF00E380E380E3888
:100790000E380FF00FF00E000E000E000E001F00BE
:1007A000000000000000000003E00F780E381C1C61
:1007B0001C1C1C1C1C1C1C7C1CFC0FF80FF800389B
:1007C00000FC0000000000001FF00E380E380E384C
:1007D0000E380FF00FF00E700E380E380E381E382F
:1007E00000000000000000000FF01C381C381C380E
:1007F0001C000FE007F000381C381C381C380FF0C4
:1008000000000000000000001FFC19CC11C401C052
:1008100001C001C001C001C001C001C001C007F09A
:1008200000000000000000001C701C701C701C7098
:100830001C701C701C701C701C701C701C700FE0F5
:1008400000000000000000001C701C701C701C7078
:100850001C701C701C701C701C700EE007C00380A4
:1008600000000000000000001C1C1C1C1C1C1C1CA8
:100870001C1C1C9C1C9C1C9C0FF80FF8077007701C
:1008800000000000000000001C701C701C700EE0D6
:1008900007C00380038007C00EE01C701C701C7032
:1008A00000000000000000001C701C701C701C7018
:1008B0001C700EE007C003800380038003800FE0FC
:1008C00000000000000000001FF81C3818381070ED
:1008D00000E001C0038007000E081C181C381FF838
:1008E000000000000000000007F0070007000700FC
:1008F000070007000700070007000700070007F0D0
:100900000000000000000000100018001C000E0095
:100910000700038001C000E000700038001C0007E1
:10092000000000000000000007F000700070007080
:10093000007000700070007000700070007007F0B0
:10094000000000000000018003C007E00E701C38AA
:100950000000000000000000000000000000000097
:100960000000000000000000000000000000000087
:100970000000000000000000000000000000000077
:100980007FFF7FFF000000001C001C000700070025
:100990000000000000000000000000000000000057
:1009A0000000000000000000000000000000000047
:1009B0000FE0007000700FF01C701C701C700FD8DE
:1009C00000000000000000001E000E000E000E00DF
:1009D0000FF00E380E380E380E380E380E381BF069
:1009E0000000000000000000000000000000000007
:1009F0000FE01C701C701C001C001C701C700FE0B1
:100A0000000000000000000000F80070007000709E
:100A10000FF01C701C701C701C701C701C700FD8A8
:100A200000000000000000000000000000000000C6
:100A30000FE01C701C701FF01C001C701C700FE07D
:100A4000000000000000000003E0077007700700CE
:100A500007001FE01FE007000700070007001FC096
:100A60000000000000000000000000000000000086
:100A70000FD81C701C701C701C700FF007F00070F9
:100A80001C700FE0000000001E000E000E000E00A3
:100A90000EF00F380F380E380E380E380E381E385C
:100AA000000000000000000001C001C001C0000003
:100AB0000FC001C001C001C001C001C001C00FF8DA
:100AC00000000000000000000070007000700000D6
:100AD00003F00070007000700070007000701C70F7
:100AE0000CF007E0000000001E000E000E000E00DB
:100AF0000E380E700EE00FC00EE00E700E381E386D
:100B000000000000000000000FC001C001C001C0D3
:100B100001C001C001C001C001C001C001C00FF887
:100B200000000000000000000000000000000000C5
:100B30001FF81C9C1C9C1C9C1C9C1C9C1C9C1C9C96
:100B400000000000000000000000000000000000A5
:100B50001FE01C701C701C701C701C701C701C70C2
:100B60000000000000000000000000000000000085
:100B70000FE01C701C701C701C701C701C700FE04F
:100B80000000000000000000000000000000000065
:100B90001BF00E380E380E380E380E380FF00E00DF
:100BA0000E001F0000000000000000000000000018
:100BB0001FB038E038E038E038E038E01FE000E00F
:100BC00000E001F000000000000000000000000054
:100BD0001EF00FF80F380E000E000E000E001F0062
:100BE0000000000000000000000000000000000005
:100BF0000FE01C301C300F8003E0187018700FE0FD
:100C000000000000000000000000010003000700D9
:100C10001FF007000700070007000770077003E0D8
:100C200000000000000000000000000000000000C4
:100C30001C701C701C701C701C701C701C700FD8F9
:100C400000000000000000000000000000000000A4
:100C50001C701C701C701C701C700EE007C00380A0
:100C60000000000000000000000000000000000084
:100C70001C1C1C1C1C1C1C9C1C9C0FF80770077067
:100C80000000000000000000000000000000000064
:100C90001CE01CE00FC0078007800FC01CE01CE0B8
:100CA0000000000000000000000000000000000044
:100CB0000E380E380E380E380E3807F003E000E01C
:100CC00001C01F80000000000000000000000000C4
:100CD0001FE018E011C0038007000E201C601FE019
:100CE000000000000000000001F803800380038082
:100CF00007001C001C00070003800380038001F82C
:100D000000000000000001C001C001C001C001C01E
:100D100001C001C001C001C001C001C001C001C0CB
:100D200001C00000000000001F8001C001C001C020
:100D300000E00038003800E001C001C001C01F80A1
:100D400000000000000000001F1C3B9C39DC38F84C
:100D50000000000000000000000000000000000093
:100D60000000000000002100240027002A002D00C0
:100D70003000330001010000040107010A010000F6
:100D80000A0B02090C0D0E08070304010000000005
:100D90000000000000000000000000000000000053
:100DA0000000000000000000000012111000000010
:100DB0000000000000000000000000000000000033
:100DC0000000000001021020200808102040102020
:100DD00040800201020108040201010204081020FF
:100DE00040808040201008040201800402018040FD
:100DF0002010080402010804020101020408102066
:100E000040800102040810204080000022002500DC
:100E100028002B002E0031003400020100000501E3
:100E200008010B0105050505070508080808020269
:100E300002020A0A08080404040401010101010174
:100E400001010303030303030303040707070C0C57
:100E50000C0C0C0C0C0C020202020606060606061E
:100E600006060B0B0B0B0B0B0B0BFA31F531112498
:100E70001FBECFEFD1E2DEBFCDBF00E00CBF12E05E
:100E8000A0E0B2E0E4E7FFE600E00BBF02C007909D
:100E90000D92A438B107D9F726E0A4E8B2E001C06A
:100EA0001D92AE30B207E1F717E0C6E3D7E000E0ED
:100EB00006C021970109802FFE010E947335C533BA
:100EC000D10780E00807A9F70E94991F0C94A93761
:100ED00097C8FC01538D448D252F30E0842F90E07E
:100EE000821B930B541710F0CF9608950197089525
:100EF000FC01918D828D981761F0828DDF01A80F22
:100F0000B11D5D968C91928D9F5F9F73928F90E043
:100F100008958FEF9FEF0895FC01918D828D9817B2
:100F200031F0828DE80FF11D858D90E008958FEFEF
:100F30009FEF0895FC01918D228D892F90E0805CB8
:100F40009F4F821B91098F73992708958BE994E035
:100F5000F1DF21E0892B09F420E0822F0895FC01C4
:100F6000848DDF01A80FB11DA35ABF4F2C91848D32
:100F700090E001968F739927848FA689B7892C9367
:100F8000A089B1898C9180648C93938D848D981302
:100F900006C00288F389E02D80818F7D80830895CB
:100FA000EF92FF920F931F93CF93DF93EC0181E0B9
:100FB000888F9B8D8C8D981305C0E889F989808175
:100FC00085FD23C0F62E0B8D10E00F5F1F4F0F73B2
:100FD0001127E02E8C8DE8120BC00FB607FCFACF5C
:100FE000E889F989808185FFF5CFCE01B8DFF2CF9E
:100FF0008B8DFE01E80FF11DE35AFF4FF0820B8F3E
:10100000EA89FB898081806207C0EE89FF8960835D
:10101000E889F98980818064808381E090E0DF91B4
:10102000CF911F910F91FF90EF900895CF93DF9391
:10103000EC01888D8823C1F0EA89FB89808185FDD8
:1010400005C0A889B9898C9186FD0EC00FB607FC32
:10105000F5CF808185FFF2CFA889B9898C9185FF72
:10106000EDCFCE017CDFE8CFDF91CF91089580E016
:1010700090E0892B19F06ADF811125C080E090E0B3
:10108000892B41F080E090E0892B21F00E94000044
:1010900081111CC080E090E0892B41F080E090E05D
:1010A000892B21F00E940000811113C080E090E0A4
:1010B000892BA1F080E090E0892B81F00E94000054
:1010C00081110AC008950E940000D8CF0E9400003C
:1010D000E1CF0E940000EACF0C94000008953FB7D2
:1010E000F8948091970490919804A0919904B091FC
:1010F0009A0426B5A89B05C02F3F19F00196A11DA3
:10110000B11D3FBFBA2FA92F982F8827820F911D9D
:10111000A11DB11DBC01CD0142E0660F771F881FE4
:10112000991F4A95D1F708958EBD00000DB407FEB2
:10113000FDCF8EB508958FEFF7CF089580E090E052
:1011400008950E948C371F920F920FB60F921124B0
:101150000BB60F922F933F934F935F936F937F93B1
:101160008F939F93AF93BF93EF93FF938BE994E09B
:10117000F6DEFF91EF91BF91AF919F918F917F919B
:101180006F915F914F913F912F910F900BBE0F90F8
:101190000FBE0F901F9018951F920F920FB60F92CF
:1011A00011240BB60F922F938F939F93EF93FF937E
:1011B000E091AB04F091AC048081E091B104F09136
:1011C000B20482FD12C090818091B4048F5F8F734E
:1011D0002091B504821751F0E091B404F0E0E55697
:1011E000FB4F958F8093B40401C08081FF91EF91F4
:1011F0009F918F912F910F900BBE0F900FBE0F906C
:101200001F901895362F90E0FC01E258F24F449160
:10121000FC01EC53F24F2491FC01EC5DF14F9491F1
:10122000992309F46BC0442309F455C050E0FA0136
:101230003197E231F10508F04EC08827E057FF4FA3
:101240008F4F0C947335809180008F7707C0809109
:1012500080008F7D03C080918000877F8093800015
:101260003AC084B58F7702C084B58F7D84BD33C00A
:101270008091B0008F7703C08091B0008F7D809304
:10128000B00029C0809190008F7707C080919000B6
:101290008F7D03C080919000877F809390001BC05A
:1012A0008091A0008F7707C08091A0008F7D03C040
:1012B0008091A000877F8093A0000DC080912001C5
:1012C0008F7707C0809120018F7D03C0809120011E
:1012D000877F80932001E92FF0E0EE0FFF1FE65F8C
:1012E000F14FA591B4918FB7F894EC91311103C0EF
:1012F00020952E2301C02E2B2C938FBF089561E0E3
:10130000FC0184817FDF80918A02811110928A0220
:101310000895CF93DF93EC018E81882379F08F813C
:1013200098859C012F5F3F4F38872F8382309240F2
:1013300010F401DFF4CFCE01E2DF1E82DF91CF9106
:101340000895CF93DF9390E0FC01EC53F24F24918A
:10135000FC01EC5DF14F8491882361F190E0880FEE
:10136000991FFC01EC59F24FC591D491FC01E65F45
:10137000F14FA591B491611109C09FB7F89488818C
:10138000209582238883EC912E230BC0623061F478
:101390009FB7F8943881822F809583238883EC91BE
:1013A0002E2B2C939FBF06C08FB7F894E8812E2B6D
:1013B00028838FBFDF91CF910895863308F086533D
:1013C00090917B00282F2870977F922B90937B0021
:1013D0008770806480937C0080917A008064809321
:1013E0007A0080917A0086FDFCCF80917800209170
:1013F000790090E0922B08958F929F92AF92BF92C6
:10140000CF92DF92EF92FF926B017C0168DE4B017D
:101410005C01C114D104E104F104E9F060DEDC01F7
:10142000CB0188199909AA09BB09883E9340A105F7
:10143000B10578F321E0C21AD108E108F10888EE7D
:10144000880E83E0981EA11CB11CC114D104E104D4
:10145000F10421F7DECFFF90EF90DF90CF90BF90A7
:10146000AF909F908F9008952FB7F8946091930458
:101470007091940480919504909196042FBF0895E3
:101480000F931F93CF93DF93EB01EEDF8B0153DEBE
:101490008F3F41F0E9DF601B710B6C177D07B8F3DC
:1014A00080E001C081E0DF91CF911F910F910895FD
:1014B000CF92DF92FF920F931F93CF93DF9300D0D1
:1014C0001F92CDB7DEB76C01F62E29833A834B838A
:1014D0005C831FDF80918A0229813A814B815C8184
:1014E000811109C081E080938A02909180058091EA
:1014F00081059CBD8DBD60E0F601848129833A831E
:101500004B835C837FDE6CE271E0C601B9DF8F2D17
:1015100080640ADE08E110E05C814B813A81298118
:10152000DA01C901002E04C0B695A7959795879555
:101530000A94D2F729833A834B835C83F5DD085004
:10154000110929813A814B815C81083FFFEF1F0718
:1015500039F7FF2029F088E0F81204C087E803C0BB
:1015600085E901C08FEFE0DD10E0E5DDF60182875F
:1015700087FF04C01F3F11F01F5FF7CF0F900F9040
:101580000F900F90DF91CF911F910F91FF90DF90FF
:10159000CF900895EF92FF920F931F93CF93DF9315
:1015A000EC017901411551056105710511F482E1E4
:1015B00034C08B85833039F089E0440F551F661F96
:1015C000771F8A95D1F79A01AB0168E1CE0170DFF0
:1015D000882311F084E021C08EEFA6DD87018EEF15
:1015E000F81AF80181918F019FDD0E151F05C9F7CB
:1015F0008FEF9ADD8FEF98DD9EDD8A878F718530C2
:1016000029F081E18D83CE017ADE08C068E572E0C1
:10161000CE0136DF811106C085E18D83CE016FDEFC
:1016200080E010C020E030E0A9016DE0CE0140DF95
:10163000811103C080DD882311F084E1EECFCE015B
:101640005EDE81E0DF91CF911F910F91FF90EF90CF
:101650000895CF93DF9380918D02882389F1C09103
:101660008B02D0918C024091020250910302609152
:1016700004027091050222E932E0CE018BDF811174
:1016800002C080E01EC040918E0250918F02609196
:10169000900270919102411551056105710571F03B
:1016A00022E932E0CE0176DF882359F310928E02D0
:1016B00010928F02109290021092910210928D025D
:1016C00081E0DF91CF910895BF92CF92DF92EF92A8
:1016D000FF920F931F93CF93DF936B017C01B42E86
:1016E0008091020290910302A0910402B091050240
:1016F0008C159D05AE05BF0509F46DC0AADF8823D2
:1017000009F470C0C0918B02D0918C028E81882325
:1017100069F088819981AA81BB81C816D906EA0639
:10172000FB0621F48F819885892B89F1C882D982A3
:10173000EA82FB828B85A7019601833039F089E02C
:10174000220F331F441F551F8A95D1F761E1CE0147
:10175000AFDE882319F083E08D8331C085DE8B01F5
:10176000EADC8A878F3F41F47FDE601B710B6D32AC
:101770007140B0F38FE003C08E3F29F08DE08D8380
:10178000CE01BDDD1CC018861F8281E08E8302E978
:1017900012E0D1DCF80181938F01F4E002391F07D8
:1017A000C1F78F8198859E5F98878F832985222333
:1017B00019F08115924038F0CE01ABDD04C0CE01A6
:1017C0009EDD80E00FC0C0920202D0920302E09240
:1017D0000402F092050280918D02482F4B2940931C
:1017E0008D0281E0DF91CF911F910F91FF90EF90DB
:1017F000DF90CF90BF9008954F925F926F927F924B
:101800008F929F92AF92BF92CF92DF92EF92FF9210
:101810000F931F93CF93DF93EC016A017B012801A3
:101820003901423051056105710510F480E072C044
:1018300089859A85AB85BC850196A11DB11D84174C
:101840009507A607B70790F38B889C88AD88BE885C
:101850008F89803129F4BB27AF2D9E2D8D2D09C096
:10186000DB01CA0147E0B695A795979587954A95FC
:10187000D1F7880E991EAA1EBB1E8091020290917C
:101880000302A0910402B091050288169906AA06E7
:10189000BB0679F48F89803199F4DD24EE24FF248E
:1018A000C601880F991FFC01EE56FD4F5182408200
:1018B00018C040E0C501B40107DF8111EBCFB6CFFE
:1018C000E894C7F8DD24EE24FF24C601880F991F91
:1018D000880F991FFC01EE56FD4F408251826282B3
:1018E000738280918D02816080938D028A8982301B
:1018F00080F08D819E81AF81B885880E991EAA1EC9
:10190000BB1E80928E0290928F02A0929002B092A3
:10191000910281E0DF91CF911F910F91FF90EF90A5
:10192000DF90CF90BF90AF909F908F907F906F90FF
:101930005F904F9008958F929F92AF92BF92CF92F7
:10194000DF92EF92FF920F931F93CF93DF93FC01EF
:1019500081859285A385B4850196A11DB11D84174B
:101960009507A607B70710F480E05BC083899489C8
:10197000A589B689C789C03129F4852E962EA72E50
:10198000BB2409C04A015B01C7E0B694A7949794B1
:101990008794CA95D1F7E9016A017B018F01BC01E7
:1019A000CD01680D791D8A1D9B1D809002029090CB
:1019B0000302A0900402B0900502681579058A051B
:1019C0009B0599F4F80187898031A1F4B701A6013C
:1019D000552766277727440F551FFA01EE56FD4F0E
:1019E00080819181A0E0B0E017C040E06DDE811100
:1019F000E9CFBACFB701A6014F77552766277727DA
:101A0000440F551F440F551FFA01EE56FD4F8081BC
:101A10009181A281B381BF7088839983AA83BB839C
:101A200081E0DF91CF911F910F91FF90EF90DF90B8
:101A3000CF90BF90AF909F908F9008953F924F921C
:101A40005F926F927F928F929F92AF92BF92CF924E
:101A5000DF92EF92FF920F931F93CF93DF93CDB757
:101A6000DEB72C970FB6F894DEBF0FBECDBF5C017A
:101A7000DC015B968D909C905C971696CD90DD90E6
:101A8000ED90FC901997C114D104E104F10439F0F0
:101A9000BFEFCB1ADB0AEB0AFB0A312C07C0F401BB
:101AA000C080D180E280F38033243394F4018185B7
:101AB0009285A385B4859C01AD012F5F3F4F4F4FA9
:101AC0005F4F29873A874B875C87260137011D8244
:101AD0001E821F821886F40181859285A385B485B4
:101AE0002D813E814F815885281739074A075B07AA
:101AF00008F060C089859A85AB85BC858C159D05ED
:101B0000AE05BF0550F482E0C82ED12CE12CF12C9B
:101B100092E0492E512C612C712C9E012F5F3F4F7A
:101B2000B701A601C40107DF882309F443C08981F6
:101B30009A81AB81BC81892B8A2B8B2B41F02601AA
:101B400037019FEF491A590A690A790A05C0C41476
:101B5000D504E604F70491F02D813E814F8158852C
:101B60002F5F3F4F4F4F5F4F2D833E834F835887EB
:101B70003FEFC31AD30AE30AF30AADCF0FEF1FEF0B
:101B80002FEF3FE0B301A201C40136DE882391F0BC
:101B9000D50116964D915D916D917C9119974115E6
:101BA00051056105710541F093018201C40124DEF4
:101BB000811102C080E02AC0D50116964D925D9237
:101BC0006D927C921997332051F0D301C201019696
:101BD000A11DB11DF40180839183A283B383F5011C
:101BE0008789908DA18DB28D892B8A2B8B2B69F4DF
:101BF000D50157964D925D926D927C925A971496AC
:101C00008C911497806814968C9381E02C960FB673
:101C1000F894DEBF0FBECDBFDF91CF911F910F9122
:101C2000FF90EF90DF90CF90BF90AF909F908F90FC
:101C30007F906F905F904F903F9008954F925F928A
:101C40006F927F928F929F92AF92BF92EF92FF928C
:101C50000F931F93CF93DF9300D01F921F92CDB7A6
:101C6000DEB78C016D83DC0115968C911597813060
:101C700009F056C014968C9181FF52C059C0038C54
:101C8000F48DE02D258530E0275F3F4F2A013B0191
:101C9000B1E04B1A510861087108022E04C0769415
:101CA0006794579447940A94D2F7D501C4010197D9
:101CB000A109B10904C0B695A795979587952A956E
:101CC000D2F784159505A605B70508F06FC0F80191
:101CD0004789508D618D728D4683578360877187E8
:101CE0002C013D017801E6E0EE0EF11CD801411413
:101CF00051046104710409F463C016964D915D911D
:101D00006D917C91199797015B968D919C915C9751
:101D100012DEB1E04B1A5108610871088111E6CF5B
:101D200081E090E0F8019383828380E090E049C1F4
:101D300082FF0EC0F80142855385648575858388CE
:101D40009488A588B688481559056A057B05F1F47D
:101D5000D8011A964D915D916D917C911D975B967E
:101D60008D919C915C97FC0174807A944A015B018F
:101D700029E0B694A794979487942A95D1F7782070
:101D80007A01F1E0FF22772011F162C08114910401
:101D9000A104B10409F073CF168217821086118650
:101DA000F8011286138614861586D2CF452B462B52
:101DB000472B09F48CCF84199509A609B70990CF50
:101DC0001A968D929D92AD92BC921D97C1CFE1144F
:101DD000F10409F03DC0F8014681578160857185A5
:101DE000411551056105710549F48789908DA18DD3
:101DF000B28D0097A105B10531F520C09E012F5F7E
:101E00003F4F99DD882309F490CF89819A81AB8176
:101E1000BC81F801238D348DF9012789203129F007
:101E200048EF5FEF6FEF7FE004C048EF5FEF60E0E7
:101E300070E084179507A607B70728F0C801FEDDF4
:101E4000811106C06DCFF80186839783A087B18783
:101E5000D8015B96ED91FC915C9716968D909D90C4
:101E6000AD90BC901997B2E08B1A9108A108B10807
:101E7000058404C0880C991CAA1CBB1C0A94D2F7C8
:101E800086859785A089B189880E991EAA1EBB1EDA
:101E9000870C911CA11CB11CE114F10401F5F8019F
:101EA000428553856485758583899489A589B6891A
:101EB000481759076A077B0790F0CBDB882309F4A2
:101EC0002FCF8092020290920302A0920402B0925D
:101ED000050280918D02816080938D0207C041E0F0
:101EE000C501B401F1DB882309F41ACFF701EE56DE
:101EF000FD4F8D818083F80182859385A485B5850A
:101F00000196A11DB11D82879387A487B587438958
:101F1000548965897689481759076A077B0738F419
:101F2000838B948BA58BB68B848180688483D80146
:101F300014968C9183FD03C081E090E042C0F801CB
:101F40009581992309F4ECCE87FF37C066857785A4
:101F50008089918941E0B8DB882309F4E1CED8017A
:101F60005296EC91B0E2EB9F90011124D901AE564C
:101F7000BD4F109709F4D4CEF8018581823050F41A
:101F800043895489658976895C964D935D936D93F9
:101F90007C935F97F8018789908DA18DB28DF901AF
:101FA000EE56FD4F938F828FB58BA48BD80114967C
:101FB0008C9114978F7714968C934BDB8111BCCF47
:101FC000AFCE0F900F900F900F900F90DF91CF91A9
:101FD0001F910F91FF90EF90BF90AF909F908F90C7
:101FE0007F906F905F904F9008951F920F920FB661
:101FF0000F9211242F933F938F939F93AF93BF938F
:102000008091930490919404A0919504B0919604CA
:102010003091920423E0230F2D3720F40196A11D67
:10202000B11D05C026E8230F0296A11DB11D209306
:1020300092048093930490939404A0939504B09396
:1020400096048091970490919804A0919904B0917E
:102050009A040196A11DB11D809397049093980452
:10206000A0939904B0939A04BF91AF919F918F91DF
:102070003F912F910F900FBE0F901F901895CF9307
:10208000DF938BE392E0F1D481113AC0DEECD09380
:102090009005C9E7C093910568E270E080E090E0A8
:1020A0000E94B61A64E670E08CE390E00E94B61AD3
:1020B00064EB70E088E790E00E94B61AD093920536
:1020C000C09393051092C00588EF809390051092FD
:1020D000910544ED50E06CE070E08BE692E0CFD1EA
:1020E00044ED50E068E470E082E792E0C8D144ED4E
:1020F00050E06DE770E089E792E0DF91CF91BFC1DA
:1021000010929205109293051092C00510929005BE
:102110001092910520EF30E044EB50E068EC70E065
:1021200080E090E0DF91CF910C94241BCF9384E664
:1021300092E09BD4882331F1CFEFC0939005C093F8
:10214000910510929205109293051092C0054CE3F0
:1021500050E060E070E08DE792E091D188EF8093ED
:102160009005109291056091000270910102072E76
:10217000000C880B990BDCD3C0939005C09391059C
:10218000CF9108958FEF80939005809391051092E1
:102190009205109293051092C0054CE350E060E068
:1021A00070E08DE792E06BD16091000270910102C6
:1021B000072E000C880B990BCF91BAC3682F892F7B
:1021C0000C946C1FCF92DF92EF92FF920F931F93AC
:1021D000CF93DF938C01F62EE72EEA01D22EC32E89
:1021E00080919405813089F48091990590919A05A8
:1021F0009C01201B310B841B950BCD2DDC2DD22E89
:10220000C32E062F172FF82EE92EE0919D058E2F55
:1022100090E0FC013297EE31F10508F012C18827F9
:10222000EE55FF4F8F4F0C947335612F70E082E0B5
:102230000E94881FB80183E00E94881F6D2F70E004
:1022400084E00E94881FBE0185E00E94881F6E2DD9
:1022500070E086E00E94881F6F2D7E2D87E00E942F
:10226000881F6C2D70E054C07C2F6627600F711F93
:1022700084E40E94881F6F2D7E2D85E40E94881FB4
:102280006D2D7C2D86E40E94881FB8018EE40E948B
:10229000881F6F2D7E2D8FE40E94881F82E2C7C0A9
:1022A000B80180E20E94881F6F2D7E2D81E20E947E
:1022B000881FB80180E50E94881F6F2D7E2D82E562
:1022C0000E94881FBE0181E50E94881F6D2D7C2D14
:1022D00083E5E2CF60E070E082E00E94881FB801F1
:1022E00083E00E94881F60E070E084E00E94881F05
:1022F000BE0185E00E94881F60E070E086E00E94D9
:10230000881F6F2D7E2D87E00E94881F60E070E09F
:1023100088E00E94881F6D2D7C2D89E0BDCF8AE268
:102320000E94421F802F0E94571F8C2F0E94571F10
:102330008BE20E94421F8F2D74C08AE20E94421FCE
:102340008E2D0E94571F8F2D0E94571F8C2D0E948B
:10235000571F8D2D0E94571F8BE20E94421F812F15
:102360000E94571F802F0E94571F8D2F0E94571FBA
:102370008C2F5AC07C2F6627602B712B86E40E941D
:10238000881F6D2D7C2D87E40E94881F6F2D7E2D68
:1023900088E410C0BE0186E30E94881FB80187E36D
:1023A0000E94881F6D2D7C2D88E30E94881F6F2D51
:1023B0007E2D89E30E94881FB80180E20E94881F59
:1023C0006F2D7E2D81E268CF6F2D7E2D82E00E94E1
:1023D000881FB80183E00E94881F6D2D7C2D86E048
:1023E0000E94881FBE0187E00E94881F8FE01FC0E7
:1023F0008AE20E94421F812F0E94571F802F0E9455
:10240000571F8D2F0E94571F8C2F0E94571F8BE242
:102410000E94421F8E2D0E94571F8F2D0E94571F12
:102420008C2D0E94571F8D2D0E94571F8CE2DF912B
:10243000CF911F910F91FF90EF90DF90CF900C9470
:10244000421FDF91CF911F910F91FF90EF90DF908E
:10245000CF900895209194058091990590919A05C7
:102460004091950550919605211102C09C0102C032
:102470009A01AC0160E070E080E090E0A3CE2F9282
:102480003F924F925F926F927F928F929F92AF9204
:10249000BF92CF92DF92EF92FF920F931F93CF9351
:1024A000DF93CDB7DEB72C970FB6F894DEBF0FBE23
:1024B000CDBF8C017C876B871A01FC010190002045
:1024C000E9F731979F01281B390B3C832B838091BF
:1024D0009405811132C06F307742A1F46091950567
:1024E000709196056F5F7F4F2091BC054B815C8199
:1024F000249FC001259F900D1124DB01A81BB90B5F
:10250000BC87AB87EB85FC85EE30F74209F059C0FC
:102510008091950590919605A0919705B0919805A9
:102520000196A11DB11D2091BC054B815C81249FAA
:102530006001259FD00C112432C08B859C858F3083
:102540009742A1F46091990570919A056F5F7F4F52
:102550002091BC05EB81FC812E9FC0012F9F900D27
:1025600011249B01281B390B3C872B874B855C85ED
:102570004E30574231F58091990590919A05A0917E
:102580009B05B0919C050196A11DB11D2091BC0534
:10259000EB81FC812E9F60012F9FD00C11240D2C0C
:1025A000000CEE08FF08BC01CD016C197D098E09F5
:1025B0009F0922E030E040E050E00E942C343C874C
:1025C0002B8718870F831E821D82ED81FE812B8150
:1025D0003C81E217F3070CF092C18091BC052D817C
:1025E0003E81829F2001839F500C11244B855C8586
:1025F000440E551EAF81B8850D91B887AF83E09129
:10260000A405F091A50590818091B005809589235E
:1026100080832091C0058091BC059091BD0510E09C
:102620002111F7C020919405211176C09101290F45
:10263000311D21503109A201480F511D415051094E
:10264000B101C201BFDD8091BC0586958695869556
:102650009091BD052091BE05021B1109899FC00103
:102660001124089F7001099FF00C189FF00C112491
:10267000B4E0EB0EF11CA12CB12C8091BC05869529
:10268000869586959091BD05899FC0011124A81655
:10269000B90688F5E091BA05F091BB05EE0DFF1D76
:1026A000E491F7E0CF2ED12C0E2F10E0C8010C2CB6
:1026B00002C0959587950A94E2F780FF08C0809143
:1026C000900590E0982F88272091910507C0809170
:1026D000920590E0982F882720919305822B6EDD3C
:1026E000E1E0CE1AD10810F72FEFE21AF20A3FEF1D
:1026F000A31AB30AC2CFE091A405F091A505908179
:102700008091B005892B8083A5DE4D815E814F5F6E
:102710005F4F5E834D8359CF869586958695209130
:10272000BE05021B1109899FC0011124089F600189
:10273000099FD00C189FD00C112454E0C50ED11C59
:10274000A12CB12C2091BC05622F669566956695EB
:102750008091BD05689FC0011124A816B90658F6DE
:1027600070E0C5010E945F35620D731DA201420F2A
:10277000511D415051099B01C20124DDE090BC056F
:10278000E694E694E694F12C460181E0881A9108DB
:10279000E114F10499F1E091BA05F091BB05C4018F
:1027A0008E0D9F1DE80FF91FE491612C712C0E2FE7
:1027B00010E0C801062C02C0959587950A94E2F7AF
:1027C00080FF08C08091900590E0982F8827209185
:1027D000910507C08091920590E0982F882720915D
:1027E0009305822BEBDC9FEF691A790AA8E06A1641
:1027F0007104F9F6B1E0EB1AF108CACF8091BC057B
:1028000086958695869590E0C80ED91EA80EB91EAD
:1028100099CF8695869586952091BE05021B110954
:10282000899FC0011124089F3001099F700C189FD7
:10283000700C1124E4E06E0E711C81018091BD05C5
:1028400090E09801221933092817390708F053CF6F
:10285000812C912CC12CD12CD8011196BA87A98733
:102860008091BC0586958695869590E0C816D90618
:102870000CF040C0E091BA05F091BB05C601860D91
:10288000971DE80FF91FE4917201E80CF91C37E07D
:10289000A32EB12C2E2F30E03A83298389819A818F
:1028A0000A2C02C0959587950A94E2F780FF11C023
:1028B00029853A85A7014F5F5F4FB801C70182DCC8
:1028C0008091900590E0982F882720919105822B88
:1028D00075DC31E0A31AB1084FEFE41AF40A5FEF98
:1028E000A516B506D9F68FEFC81AD80A98E0890E52
:1028F000911CB6CF680E791E0F5F1F4F9FCF2C968D
:102900000FB6F894DEBF0FBECDBFDF91CF911F9100
:102910000F91FF90EF90DF90CF90BF90AF909F907E
:102920008F907F906F905F904F903F902F90089581
:102930002F923F924F925F927F928F929F92AF928F
:10294000BF92CF92DF92EF92FF920F931F93CF939C
:10295000DF93CDB7DEB7E4970FB6F894DEBF0FBEB6
:10296000CDBF6B017C01611571058105910521F4D5
:1029700080E389831A825AC097FF0BC0F094E094D9
:10298000D094C094C11CD11CE11CF11C7724739419
:1029900001C0712C8E01045E1F4F48018AE0282E71
:1029A000312C412C512CC701B601A20191010E948A
:1029B0002C3420E3260FF40121934F015F01A01A6C
:1029C000B10AA7019601261B370B480B590BCA0108
:1029D000B901A20191010E942C3469017A01232BD3
:1029E000242B252B01F7F801EA0DFB1D108277201F
:1029F00011F08DE28983E72DF0E0C5018E0F9F1F56
:102A0000D801AA0DBB1D41E050E04C0F5D1FE40F43
:102A1000F51FA017B10719F02E912193FACFE1E02D
:102A2000F0E0EC0FFD1FE80FF91F10824CE350E0BF
:102A300064E670E0CE01019622DDE4960FB6F894CC
:102A4000DEBF0FBECDBFDF91CF911F910F91FF90E1
:102A5000EF90DF90CF90BF90AF909F908F907F903E
:102A60005F904F903F902F900895FC0180918E05CC
:102A700090918F05892B21F421E0309749F413C000
:102A800080918A0590918B05309731F421E0FC010B
:102A90008081882341F006C0BF010E94993721E060
:102AA000892B09F020E0822F0895CF92DF92EF92D8
:102AB000FF920F931F93CF93DF936C017A018B01E9
:102AC000C0E0D0E0CE15DF0589F0D8016D918D0111
:102AD000D601ED91FC910190F081E02DC601199590
:102AE000892B11F47E0102C02196ECCFC701DF9142
:102AF000CF911F910F91FF90EF90DF90CF900895AD
:102B00008F929F92AF92BF92CF92DF92EF92FF92FD
:102B10006A017B0182B9CB01BA0120E130E040E0DB
:102B200050E00E942C3449015A0180E090E0DC0121
:102B300088159905AA05BB050CF064C2E091A205B1
:102B4000F091A30530812091AF05209523232083A8
:102B5000E091A205F091A30530812091AF05232BD0
:102B60002083E091A205F091A30530812091AF056B
:102B7000209523232083E091A205F091A3053081C5
:102B80002091AF05232B2083E091A205F091A305AE
:102B900030812091AF05209523232083E091A20569
:102BA000F091A30530812091AF05232B2083E09184
:102BB000A205F091A30530812091AF052095232334
:102BC0002083E091A205F091A30530812091AF050B
:102BD000232B2083E091A205F091A3053081209161
:102BE000AF05209523232083E091A205F091A30552
:102BF00030812091AF05232B2083E091A205F09135
:102C0000A30530812091AF05209523232083E091F7
:102C1000A205F091A30530812091AF05232B2083DD
:102C2000E091A205F091A30530812091AF05209598
:102C300023232083E091A205F091A3053081209108
:102C4000AF05232B2083E091A205F091A3053081ED
:102C50002091AF05209523232083E091A205F091D8
:102C6000A30530812091AF05232B2083E091A2059D
:102C7000F091A30530812091AF0520952323208377
:102C8000E091A205F091A30530812091AF05232B9F
:102C90002083E091A205F091A30530812091AF053A
:102CA000209523232083E091A205F091A305308194
:102CB0002091AF05232B2083E091A205F091A3057D
:102CC00030812091AF05209523232083E091A20538
:102CD000F091A30530812091AF05232B2083E09153
:102CE000A205F091A30530812091AF052095232303
:102CF0002083E091A205F091A30530812091AF05DA
:102D0000232B2083E091A205F091A305308120912F
:102D1000AF05209523232083E091A205F091A30520
:102D200030812091AF05232B2083E091A205F09103
:102D3000A30530812091AF05209523232083E091C6
:102D4000A205F091A30530812091AF05232B2083AC
:102D5000E091A205F091A30530812091AF05209567
:102D600023232083E091A205F091A30530812091D7
:102D7000AF05232B2083E091A205F091A3053081BC
:102D80002091AF05209523232083E091A205F091A7
:102D9000A30530812091AF05232B2083E091A2056C
:102DA000F091A30530812091AF0520952323208346
:102DB000E091A205F091A30530812091AF05232B6E
:102DC0002083E091A205F091A30530812091AF0509
:102DD000209523232083E091A205F091A305308163
:102DE0002091AF05232B2083E091A205F091A3054C
:102DF00030812091AF05209523232083E091A20507
:102E0000F091A30530812091AF05232B2083E09121
:102E1000A205F091A30530812091AF0520952323D1
:102E20002083E091A205F091A30530812091AF05A8
:102E3000232B2083E091A205F091A30530812091FE
:102E4000AF05209523232083E091A205F091A305EF
:102E500030812091AF05232B2083E091A205F091D2
:102E6000A30530812091AF05209523232083E09195
:102E7000A205F091A30530812091AF05232B20837B
:102E8000E091A205F091A30530812091AF05209536
:102E900023232083E091A205F091A30530812091A6
:102EA000AF05232B2083E091A205F091A30530818B
:102EB0002091AF05209523232083E091A205F09176
:102EC000A30530812091AF05232B2083E091A2053B
:102ED000F091A30530812091AF0520952323208315
:102EE000E091A205F091A30530812091AF05232B3D
:102EF0002083E091A205F091A30530812091AF05D8
:102F0000209523232083E091A205F091A305308131
:102F10002091AF05232B2083E091A205F091A3051A
:102F200030812091AF05209523232083E091A205D5
:102F3000F091A30530812091AF05232B2083E091F0
:102F4000A205F091A30530812091AF0520952323A0
:102F50002083E091A205F091A30530812091AF0577
:102F6000232B2083E091A205F091A30530812091CD
:102F7000AF05209523232083E091A205F091A305BE
:102F800030812091AF05232B2083E091A205F091A1
:102F9000A30530812091AF05209523232083E09164
:102FA000A205F091A30530812091AF05232B20834A
:102FB000E091A205F091A30540813091AF053095D5
:102FC00034233083E091A205F091A3052081309154
:102FD000AF05322B3083E091A205F091A30540812B
:102FE0003091AF05309534233083E091A205F09104
:102FF000A30520813091AF05322B30830196A11DAE
:10300000B11D96CDD701C6018F709927AA27BB277E
:10301000892B8A2B8B2BE1F1C701B60120E130E02F
:1030200040E050E00E942C34C12CD12C76016C156C
:103030007D058E059F0564F1E091A205F091A30541
:1030400030812091AF05209523232083E091A205B4
:10305000F091A30530812091AF05232B2083E091CF
:10306000A205F091A30530812091AF05209523237F
:103070002083E091A205F091A30530812091AF0556
:10308000232B20832FEFC21AD20AE20AF20ACFCFF3
:10309000FF90EF90DF90CF90BF90AF909F908F9078
:1030A00008958F929F92AF92BF92CF92DF92EF924C
:1030B000FF9269017A0182B968B9CA01B90120E1B8
:1030C00030E040E050E00E942C3449015A0180E099
:1030D00090E0DC0188159905AA05BB050CF034C108
:1030E000E091A205F091A30530812091AF052095D4
:1030F00023232083E091A205F091A3053081209144
:10310000AF05232B2083E091A205F091A305308128
:103110002091AF05209523232083E091A205F09113
:10312000A30530812091AF05232B2083E091A205D8
:10313000F091A30530812091AF05209523232083B2
:10314000E091A205F091A30530812091AF05232BDA
:103150002083E091A205F091A30530812091AF0575
:10316000209523232083E091A205F091A3053081CF
:103170002091AF05232B2083E091A205F091A305B8
:1031800030812091AF05209523232083E091A20573
:10319000F091A30530812091AF05232B2083E0918E
:1031A000A205F091A30530812091AF05209523233E
:1031B0002083E091A205F091A30530812091AF0515
:1031C000232B2083E091A205F091A305308120916B
:1031D000AF05209523232083E091A205F091A3055C
:1031E00030812091AF05232B2083E091A205F0913F
:1031F000A30530812091AF05209523232083E09102
:10320000A205F091A30530812091AF05232B2083E7
:10321000E091A205F091A30530812091AF052095A2
:1032200023232083E091A205F091A3053081209112
:10323000AF05232B2083E091A205F091A3053081F7
:103240002091AF05209523232083E091A205F091E2
:10325000A30530812091AF05232B2083E091A205A7
:10326000F091A30530812091AF0520952323208381
:10327000E091A205F091A30530812091AF05232BA9
:103280002083E091A205F091A30530812091AF0544
:10329000209523232083E091A205F091A30530819E
:1032A0002091AF05232B2083E091A205F091A30587
:1032B00030812091AF05209523232083E091A20542
:1032C000F091A30530812091AF05232B2083E0915D
:1032D000A205F091A30530812091AF05209523230D
:1032E0002083E091A205F091A30530812091AF05E4
:1032F000232B2083E091A205F091A305408130911A
:10330000AF05309534233083E091A205F091A305F9
:1033100020813091AF05322B3083E091A205F091EE
:10332000A30540813091AF05309534233083E0917F
:10333000A205F091A30520813091AF05322B308397
:103340000196A11DB11DC6CED701C6018F70992768
:10335000AA27BB27892B8A2B8B2B49F1C701B601E2
:1033600020E130E040E050E00E942C34C12CD12C10
:1033700076016C157D058E059F05CCF0E091A205C8
:10338000F091A30530812091AF0520952323208360
:10339000E091A205F091A30530812091AF05232B88
:1033A00020832FEFC21AD20AE20AF20AE2CFFF907C
:1033B000EF90DF90CF90BF90AF909F908F90089547
:1033C0000F931F93CF93DF93EA0157FF05C0840F3C
:1033D000951FD195C195D109E091A405F091A5055E
:1033E00040813091B005309534233083AC014C0FCF
:1033F0005D1F9B010E94E21080919E058031A9F41F
:10340000E091A005F091A10590818091AE05892BF6
:1034100080839E01DD0F440B550B6091910570E098
:103420008091900590E03DDE26C08830C1F49091F7
:10343000900580919105981312C0E091A005F0913C
:10344000A10590818091AE05892B8083AE01DD0FAF
:10345000660B770B8091900590E052DB0CC000E08A
:1034600010E0609191058091900536D50F5F1F4F58
:10347000C017D107B4F7E091A405F091A50590819C
:103480008091B005892B8083DF91CF911F910F919F
:103490000C942A120F931F93CF93DF93FC01EA0140
:1034A00057FF05C0640F751FD195C195D109A09133
:1034B000A405B091A5052C919091B005909592230B
:1034C0009C939B012C0F3D1FAF01CF010E94E21086
:1034D00080919E058031A9F4E091A005F091A105AD
:1034E00090818091AE05892B80839E01DD0F440B76
:1034F000550B6091910570E08091900590E0D1DDD1
:1035000026C08830C1F49091900580919105981360
:1035100012C0E091A005F091A10590818091AE05C7
:10352000892B8083AE01DD0F660B770B80919005B0
:1035300090E0E6DA0CC000E010E060919105809127
:103540009005CAD40F5F1F4FC017D107B4F7E091A1
:10355000A405F091A50590818091B005892B808309
:10356000DF91CF911F910F910C942A126F927F924D
:103570008F929F92AF92BF92CF92DF92EF92FF9283
:103580000F931F93CF93DF938C01681779072CF467
:10359000982F812F8B01692F782FEB01C01BD10B46
:1035A000C530D1050CF441C0E12CF12C3E0184E082
:1035B000681A7108680182E0C80ED11C5E0182E0C1
:1035C000A81AB10848018FEF881A980AE114F1048B
:1035D00071F081E0E816F104A1F4A50169EC70E056
:1035E000C401EEDEA5016FEE70E0C40116C0A301B8
:1035F00068EC70E0C601E4DEA30160EF70E0C60194
:103600000CC0AE01B70168537F4FC801D9DE60EF2F
:1036100070E06E197F09AE01C801D2DE8FEFE81AA3
:10362000F80A85E1E816F10489F6DF91CF911F9140
:103630000F91FF90EF90DF90CF90BF90AF909F9051
:103640008F907F906F9008958F929F92AF92BF92CC
:10365000CF92DF92EF92FF920F931F93CF93DF935E
:103660007C016B01EA018901481759072CF4982F56
:103670008F2D7A01C92FD82F0C151D052CF49C2DE8
:103680008D2D6801092F182F80919E05803109F03A
:103690003FC0E091A405F091A50590818091B0050F
:1036A0008095892380839801AE01B601C7010E94ED
:1036B000E210E091A005F091A10590818091AE0506
:1036C000892B8083CE19DF09CE01DD0FAA0BBB0B3E
:1036D0009C01AD012F5F3F4F4F4F5F4FB8016C19F9
:1036E0007D09CB01770FAA0BBB0BBC01CD016F5F2E
:1036F0007F4F8F4F9F4F0E94FB339B01AC01E091A6
:1037000091056E2F70E08091900590E0CADC43C077
:10371000883009F04AC090919005809191059813E6
:1037200044C0E091A405F091A50590818091B00579
:103730008095892380839801AE01B601C7010E945C
:10374000E210E091A005F091A10590818091AE0575
:10375000892B8083CE19DF09CE01DD0FAA0BBB0BAD
:103760009C01AD012F5F3F4F4F4F5F4FB8016C1968
:103770007D09CB01770FAA0BBB0BBC01CD016F5F9D
:103780007F4F8F4F9F4F0E94FB33AB01BC01809155
:10379000900590E0B5D9E091A405F091A505908140
:1037A0008091B005892B808345C080919405882342
:1037B00079F05E01AE18BF08B7FE03C08FEFA81AFC
:1037C000B80AB594A794812C912C0C191D091FC01F
:1037D000C8018C199D0997FD01964C019594879419
:1037E000A12CB12CCE19DF098A149B041CF1B50160
:1037F0006C0D7D1DAE01C701E3DDB8016A197B09BF
:10380000AE01C701DDDD8FEFA81AB80AEDCFA8140D
:10381000B90484F0A801B601C4018E0D9F1D3ADEE3
:10382000A801B601CE018819990934DE8FEF881AF4
:10383000980AEDCFDF91CF911F910F91FF90EF90FC
:10384000DF90CF90BF90AF909F908F900895EBE95D
:10385000F4E0A089B18982E08C93A485B5851C929F
:10386000A685B7858FEC8C93108EA489B58986E0E8
:103870008C93A289B3898C9180618C93A289B3893E
:103880008C9188608C93A289B3898C9180688C9389
:103890000288F389E02D80818F7D80830895EF92E7
:1038A000FF920F931F93CF93DF93EC017B018A016B
:1038B00088819981009729F02A813B812417350757
:1038C000F8F4B8016F5F7F4F0E94A836009759F057
:1038D000998388831B830A832C813D81232B81F468
:1038E000FC0110820DC088819981009711F00E941F
:1038F0001036198218821D821C821B821A8207C010
:103900001D830C83B701888199810E94A237CE0163
:10391000DF91CF911F910F91FF90EF900895611566
:10392000710579F0FB0101900020E9F73197AF01B3
:10393000461B570BDC01ED91FC910280F381E02DD9
:10394000199480E090E00895CF93DF93BC018BE958
:1039500094E0E5DFEC0169E372E08BE994E0DFDFFE
:103960008C0F9D1FDF91CF9108954F925F926F92C0
:103970007F92EF92FF920F931F93CF93DF93CDB778
:10398000DEB7A1970FB6F894DEBF0FBECDBF7C01A6
:10399000FA01CB0119A2223008F42AE08E010F5D52
:1039A0001F4F422E512C612C712CBF01A30192019B
:1039B0000E940A34F901CA01015011096A3014F455
:1039C000605D01C0695CD8016C93232B242B252BEF
:1039D00061F7B801C701A3DFA1960FB6F894DEBF67
:1039E0000FBECDBFDF91CF911F910F91FF90EF9050
:1039F0007F906F905F904F900895CF92DF92EF92FB
:103A0000FF92CF93DF936B017C01E0919B04F091D7
:103A10009C040190F081E02D6DE28BE994E0199512
:103A2000EC0144275527BA014C195D096E097F093D
:103A30002AE08BE994E099DF8C0F9D1FDF91CF91F5
:103A4000FF90EF90DF90CF900895483009F448C17F
:103A500018F4413041F00895403109F457C1413123
:103A600009F468C1089590919F05943019F5E0918B
:103A7000A805F091A9059091B205813019F48081D3
:103A8000982B03C08081909598239083E091AA059C
:103A9000F091AB0590818091B30580958923808357
:103AA000E091AA05F091AB0590818091B305892B37
:103AB00080830FC0E091A005F091A1059091AE0523
:103AC000813019F48081982B03C0808190959823D0
:103AD0009083E091A805F091A9058091B2059081AD
:103AE00067FF02C0892B02C0809589238083E09103
:103AF000AA05F091AB0590818091B305809589234B
:103B00008083E091AA05F091AB0590818091B30587
:103B1000892B8083E091A805F091A9058091B205D9
:103B2000908166FF02C0892B02C080958923808323
:103B3000E091AA05F091AB0590818091B305809545
:103B400089238083E091AA05F091AB059081809153
:103B5000B305892B8083E091A805F091A905809198
:103B6000B205908165FF02C0892B02C08095892330
:103B70008083E091AA05F091AB0590818091B30517
:103B8000809589238083E091AA05F091AB0590810F
:103B90008091B305892B8083E091A805F091A90558
:103BA0008091B205908164FF02C0892B02C080958C
:103BB00089238083E091AA05F091AB0590818091E3
:103BC000B305809589238083E091AA05F091AB0528
:103BD00090818091B305892B8083E091A805F091B5
:103BE000A9058091B205908163FF02C0892B02C0B4
:103BF000809589238083E091AA05F091AB0590819F
:103C00008091B305809589238083E091AA05F09186
:103C1000AB0590818091B305892B8083E091A80545
:103C2000F091A9058091B205908162FF02C0892BB5
:103C300002C0809589238083E091AA05F091AB05AD
:103C400090818091B305809589238083E091AA05B6
:103C5000F091AB0590818091B305892B8083E09131
:103C6000A805F091A9058091B205908161FF02C07D
:103C7000892B02C0809589238083E091AA05F09169
:103C8000AB0590818091B305809589238083E09175
:103C9000AA05F091AB0590818091B305892B8083B3
:103CA000E091A805F091A9058091B205908160FF8F
:103CB00002C0892B02C0809589238083E091AA05E8
:103CC000F091AB0590818091B30580958923808325
:103CD000E091AA05F091AB0590818091B305CFC02A
:103CE00082B9E091A205F091A30590818091AF0582
:103CF000809589238083E091A205F091A3059081AE
:103D00008091AF05892B808362B902C082B968B9FE
:103D1000E091A205F091A30590818091AF05809577
:103D200089238083E091A205F091A3059081809181
:103D3000AF05A5C0A59824B3982F9071990F922B29
:103D400094BB90910201977E9093020190910201A1
:103D5000282F082E000C330B207C332743E03595A9
:103D600027954A95E1F7292B209302019EB1947C77
:103D70009EB92EB1382F3C70330F330F982F9370AC
:103D8000390F8072082E000C990B959587959595A3
:103D90008795830F822B8EB9E091AC05F091AD052C
:103DA00090818091B405809589238083E091AC0552
:103DB000F091AD0590818091B405892B8083E091CD
:103DC000AC05F091AD0590818091B4058095892373
:103DD0008083E091A405F091A50590818091B005C4
:103DE000809589238083A59894B3862F8071880F4E
:103DF000892B84BB80910201877E809302012091F0
:103E00000201862F062E000C990B807C992773E007
:103E1000959587957A95E1F7822B809302018EB173
:103E2000847C8EB98EB1962F9C70990F990F262F96
:103E30002370920F6072062E000C770B75956795B4
:103E400075956795690F682B6EB9E091A205F091A1
:103E5000A30590818091AF05809589238083E091AF
:103E6000A205F091A30590818091AF05892B8083F5
:103E7000E091A405F091A50590818091B005892B72
:103E800080830895682F80919E05813069F0E091CC
:103E9000A005F091A10520819091AE059095922307
:103EA000908340919E0501C041E080E0CECD682F17
:103EB00080919E05813069F0E091A005F091A10507
:103EC00080819091AE05982B908340919E0580E073
:103ED00002C041E081E0B9CDCF9390919E05913031
:103EE00061F0E091A005F091A10520819091AE05CF
:103EF000922B908340919E0509C0C62F682F41E008
:103F000081E0A3DD40919E056C2F81E0CF919DCD96
:103F1000CF93DF931F921F92CDB7DEB769837A8369
:103F2000B1DF69817A81872F0F900F90DF91CF9158
:103F3000D3CFCF93DF9300D01F92CDB7DEB7789465
:103F400084B5826084BD84B5816084BD85B582609E
:103F500085BD85B5816085BD80916E00816080934F
:103F60006E001092810080918100826080938100B8
:103F700080918100816080938100809180008160C8
:103F8000809380008091B10084608093B100809123
:103F9000B00081608093B000809191008260809336
:103FA00091008091910081608093910080919000B8
:103FB0008160809390008091A10082608093A10035
:103FC0008091A10081608093A1008091A000816018
:103FD0008093A000809121018260809321018091D3
:103FE0002101816080932101809120018160809373
:103FF000200180917A00846080937A0080917A0019
:10400000826080937A0080917A00816080937A0048
:1040100080917A00806880937A001092C10010929B
:104020007C0510927D0510927E0510927F051092FE
:104030003A0510923B0510923C0510923D0568EB45
:104040007BE080E090E00E94FC098BE994E0909393
:104050007B0580937A05FBDB0E94340A60933A0566
:1040600070933B0580933C0590933D056AE272E0B6
:1040700080917A0590917B0552DC6AE070E080E0E7
:1040800090E00E94FC0911E010934E05E0DB1093D4
:10409000940561E08091B5050E94A10961E08091DD
:1040A000B6050E94A10961E08091B7050E94A109AF
:1040B0008091B8058F3F19F061E00E94A1098091BD
:1040C0009E05813131F0813049F480919F05853022
:1040D00029F461E08091B9050E94A10980919E05B3
:1040E000813079F0813131F09FEF91B9803149F41D
:1040F00097B907C088E18093010180E283BB8BE31D
:104100008DB9E091A605F091A70590818091B10548
:10411000892B808365E070E080E090E00E94FC09DC
:10412000E091A605F091A70590818091B105809559
:10413000892380836FE070E080E090E00E94FC09BA
:10414000E091A605F091A70590818091B105892B9A
:1041500080836FE070E080E090E00E94FC09E091D5
:10416000A405F091A50590818091B00580958923E3
:104170008083E0919D058E2F90E0FC013297EE3117
:10418000F10510F00C945C2E8827EE58FF4F8F4FEE
:104190000C94733561E070E080E0BADE64EA78EA9E
:1041A00083E0B6DE60E070E08CE0B2DE6CE078E0E8
:1041B0008DE0AEDE60E07BE28EE0AADE67EB70E0D1
:1041C0008EE1A6DE6FE37BE281E0A2DE60E076E0D6
:1041D00082E09EDE60E070E080E19ADE60E770E6FB
:1041E00081E196DE60E070E085E092DE60E070E004
:1041F00086E08EDE6CE17FEE86E18ADE63E070E0D1
:1042000087E186DE63E372E087E082DE60E070E0F3
:104210008BE07EDE60E070E08FE07ADE60E070E0F0
:1042200081E476DE60E070E082E472DE60E070E0FF
:1042300088E46EDE6FE371E089E46ADE60E070E0DE
:104240008AE466DE60E070E08BE462DE60E07FEED0
:1042500084E45EDE60E070E085E45ADE6FE371E0E6
:1042600086E456DE67E077E080E352DE64E072E0E9
:1042700081E34EDE64E072E082E34ADE62E075E0F4
:1042800083E346DE67E075E084E342DE64E072E0EB
:1042900085E33EDE64E072E086E33ADE62E075E0EC
:1042A00087E336DE62E073E08AE332DE62E073E0E9
:1042B0008BE32EDE60E070E083E22ADE60E070E0F7
:1042C00084E226DE60E070E885E222DE60E070E0F5
:1042D0008FE41EDE60E070E08EE40C94712960EFE4
:1042E00078E785EE15DE60E071E081E011DE60E0E8
:1042F00072E082E00DDE60E370E183E009DE60E001
:1043000070E084E005DE67E072E088E001DE60E0F6
:1043100070E089E0FDDD60E070E08AE0F9DD60E0FA
:1043200070E08CE0F5DD60E070E08DE0F1DD60E0F4
:1043300070E08FE0EDDD60E070E080E1E9DD67E0F6
:1043400070E081E1E5DD60E070E082E1E1DD60E008
:1043500070E083E1DDDD61E070E087E0D9DD68ECED
:1043600070E080E090E00E94FC0960E976E180E185
:10437000CFDD67E272E081E1CBDD62E370E080E0F7
:1043800090E00E94FC096DE070E082E1C1DD62E333
:1043900070E080E090E00E94FC0960E072E183E15F
:1043A000B7DD6AE070E089E2B3DD6DE070E068C01F
:1043B00060EF78E785EEACDD60E071E081E0A8DDDC
:1043C00060E077E082E0A4DD60E370E183E0A0DDFF
:1043D00060E070E084E09CDD67E072E088E098DDFA
:1043E00060E070E089E094DD60E070E08AE090DDFC
:1043F00060E070E08CE08CDD60E070E08DE088DDF6
:1044000060E070E08FE084DD60E070E080E180DDFE
:1044100067E070E081E17CDD60E070E082E178DD02
:1044200060E070E083E174DD61E070E087E070DD02
:1044300068EC70E080E090E00E94FC0960E975E1C2
:1044400080E166DD67E272E081E162DD62E370E0F7
:1044500080E090E00E94FC096CE970E082E158DDA8
:1044600062E370E080E090E00E94FC0960E079E1A6
:1044700083E14EDD63E270E089E24ADD6EE070E0E8
:104480008BE246DD62E370E080E090E00E94FC0990
:1044900060E070E080E23CDD60E070E081E238DD09
:1044A00060E070E080E334DD64E074E081E330DDFF
:1044B00063E070E082E32CDD65E074E085E328DDF5
:1044C00068E078E086E324DD67E074E087E320DDE0
:1044D00063E073E088E31CDD67E077E089E318DDE3
:1044E00064E075E08CE314DD68E078E08DE310DDD6
:1044F00060E070E080E50CDD6FEE70E081E508DDE6
:1045000060E070E082E504DD6FE371E083E500DDEB
:1045100060E077EA80E6FCDC61E070E081E6F8DCF0
:1045200060E070E08AE6F4DC60E070E080E8F0DCF7
:1045300060E070E081E8ECDC60E070E082E8E8DCFC
:1045400060E070E083E8E4DC60E070E084E8E0DCF8
:1045500060E070E085E8DCDC60E170E080E9D8DCF8
:1045600060E070E082E9D4DC63E371E087E0D0DCF6
:104570000C945C2E64E870E086E2CADC68E270E0CD
:1045800080E090E00E94FC0968EB70E086E2C0DC0D
:1045900068E270E080E090E00E94FC096CEB70E063
:1045A00086E2B6DC64E170E080E090E00E94FC0905
:1045B00060E070E080E6ACDC66E070E081E6A8DCFC
:1045C00060E070E082E6A4DC68EC70E083E6A0DCEA
:1045D00064E170E080E090E00E94FC0960E770E038
:1045E00083E796DC60E070E080E492DC60E470E0F9
:1045F00081E48EDC65E470E082E48ADC61E070E0F6
:1046000083E486DC60E670E084E482DC65E070E0F0
:1046100085E47EDC6CE070E086E47ADC61ED70E0DD
:1046200087E476DC65E070E088E472DC65E770E0E2
:1046300080E56EDC61E070E081E56ADC67E670E0F1
:1046400082E566DC64E170E083E562DC62EF70E0E5
:1046500084E55EDC67E070E085E55ADC63E070E0ED
:1046600086E556DC69E470E087E552DC64E170E0E1
:1046700080E090E00E94FC0963E070E08FE148DC9C
:1046800060E070E080E244DC64E270E084E240DC00
:1046900064E370E085E23CDC6FE270E083E238DCEA
:1046A00064E170E080E090E00E94FC0964E470E066
:1046B00088E12EDC61E070E081E22ADC60E070E0FD
:1046C00081E026DC63E070E08CE122DC66E070E0F3
:1046D00089E11EDC64E170E080E090E00E94FC096A
:1046E00064E870E086E214DC68E270E080E090E06C
:1046F0000E94FC0968EB70E086E20ADC68E270E088
:1047000080E090E00E94FC096CEB70E086E200DC47
:1047100064E170E080E090E00E94FC0960E070E0FD
:1047200082E0F6DB60E070E083E0F2DB60E070E006
:1047300084E0EEDB6FEA70E085E0EADB60E070E0E9
:1047400086E0E6DB60E070E087E0E2DB60E070E0FE
:1047500088E0DEDB6BED70E089E0DADB64E170E0DD
:1047600080E090E00E94FC0968E070E086E1D0DB28
:1047700065E070E087E1CCDB81E284DB82E282DB12
:104780000C945C2E81E17EDB6CE070E080E090E0D8
:104790000E94FC0981EB76DB81E089DB8CE287DB20
:1047A0008DE285DB82EB6EDB81E081DB8CE27FDBFF
:1047B0008DE27DDB83EB66DB81E079DB8CE277DB0E
:1047C0008DE275DB81E073DB8CE271DB8DE26FDB08
:1047D00084EB58DB87E06BDB80EC54DB82EA67DB41
:1047E00082E065DB84E863DB81EC4CDB85EC5FDB3E
:1047F00082EC48DB8AE05BDB80E059DB83EC42DB68
:104800008AE855DB8AE253DB84EC3CDB8AE84FDB49
:104810008EEE4DDB85EC36DB8EE049DB86E332DB6A
:1048200088EC4FC081E12EDB6CE070E080E090E02E
:104830000E94FC0981EB26DB81E039DB8CE237DB6F
:104840008DE235DB82EB1EDB81E031DB8CE22FDB9E
:104850008DE22DDB83EB16DB81E029DB8CE227DBAD
:104860008DE225DB81E023DB8CE221DB8DE21FDBA7
:1048700084EB08DB87E01BDB80EC04DB82EA17DBE0
:1048800082E015DB84E813DB81ECFCDA85EC0FDBDE
:1048900082ECF8DA8AE00BDB80E009DB83ECF2DA09
:1048A0008AE805DB8AE203DB84ECECDA8AE8FFDAEB
:1048B0008EEEFDDA85ECE6DA8EE0F9DA86E3E2DA0E
:1048C00080ECF5DA80EEDEDA8FE0F1DA8AE1EFDA19
:1048D0008FE0EDDA88E1EBDA8FE2E9DA88E2E7DA15
:1048E00080E2E5DA82E2E3DA8FE1E1DA8BE1DFDA36
:1048F00083E2DDDA87E3DBDA80E0D9DA87E0D7DA52
:1049000082E0D5DA80E1D3DA81EEBCDA8FE0CFDA6B
:104910008BE1CDDA8FE0CBDA87E1C9DA83E3C7DA5E
:104920008CE2C5DA89E2C3DA8EE2C1DA80E3BFDA6B
:1049300080E3BDDA89E3BBDA8FE3B9DA80E0B7DA86
:1049400087E0B5DA83E0B3DA80E1B1DA8AE29ADAB5
:1049500080E0ADDA80E0ABDA80E0A9DA8FE7A7DAB1
:104960008BE290DA80E0A3DA80E0A1DA80E09FDADF
:104970008FE99DDA80EF86DA81E099DA86EF82DAD4
:1049800080E08BC581E07EDA85E27CDA80E48FDA34
:1049900081E178DA6AE070E080E090E00E94FC0952
:1049A00080E270DA88E36EDA89E26CDA83E16ADA4F
:1049B00086E368DA80E67BDA8AE364DA85E077DA30
:1049C0008AE260DA80E073DA8FE771DA84EB5ADA30
:1049D00083E06DDA88E06BDA8BE069DA8EE067DA23
:1049E0008AEB50DA87E063DA8DE061DA8BE24ADA4B
:1049F00080E05DDA8FE76CC183E844DA82E057DA61
:104A000085E840DA83E053DA8BE83CDA81E04FDA7C
:104A10008CE838DA83E94BDA81E934DA81E047DA85
:104A200083E830DA80E043DA8EE32CDA80EB3FDA99
:104A30008FE328DA83E03BDA80E424DA80E137DAB6
:104A400081E420DA86E533DA82E41CDA83E12FDAC6
:104A500083E418DA86E42BDA84E414DA83E227DAD2
:104A600085E410DA86E723DA86E40CDA80E01FDAE0
:104A700087E408DA8EE51BDA88E404DA8FE417DAD3
:104A800089E400DA80E413DA87E1FCD981E90FDAFE
:104A90008BE2F8D989EF0BDA6AE070E080E090E011
:104AA0000E94FC098BE1EED984E101DA8AE1EAD9BE
:104AB00081E1FDD98CE1E6D986E0F9D98FE1E2D92F
:104AC00082E4F5D964E170E080E090E00E94FC09A6
:104AD00089E1D8D98AE0EBD989E1D4D98AE1E7D94B
:104AE00068E270E080E090E00E94FC0989E1CAD9A8
:104AF00082E1DDD968E270E080E090E00E94FC098C
:104B00008EE1C0D987E2D3D964E670E080E090E01E
:104B10000E94FC0984E2B6D980E6C9D98DE3B2D9F6
:104B200080E4C5D984E3AED988E3C1D985E3AAD9A5
:104B300088E3BDD984E2A6D988E3B9D968E270E0F8
:104B400080E090E00E94FC0984E29CD98CE3AFD91C
:104B500086E198D98CE1ABD981E094D986E0A7D9D8
:104B600085E590D980E0A3D982E08CD980E09FD9F7
:104B700083E088D980E09BD984E084D980E097D90C
:104B800085E080D98FEE93D986E07CD980E08FD9FB
:104B900087E078D980E08BD988E074D981E087D923
:104BA00089E070D98FE883D9E9CD82EE6BD983E2B1
:104BB0007ED982E07CD984E57AD980EE63D981E020
:104BC00076D96AE070E080E090E00E94FC0980EE17
:104BD00059D983E06CD96AE070E080E090E00E94EF
:104BE000FC0981E04FD964E670E080E090E00E942B
:104BF000FC0986EE47D981E05AD98FE158D98FEF69
:104C000056D980EB3FD980E252D980E050D981E07B
:104C10004ED98FED4CD981E04AD98FE048D980E058
:104C200046D984EB2FD982E042D983E140D980E094
:104C30003ED988E03CD98BE23AD980E038D982E08D
:104C400036D980E034D986EB1DD981E030D980E2B5
:104C50002ED980E02CD984E02AD98CE028D980E0B4
:104C600026D982E024D98AEB0DD98FE020D988EBB0
:104C700009D987E01CD981E01AD986E303D982E2F9
:104C800016D980EFFFD883E012D961E070E080E0B0
:104C900090E00E94FC092FE031E04FED51E060E030
:104CA00070E080E090E00E94E21089E2EBD88EEBA9
:104CB000E9D886E0FCD880EFFAD881E0F8D880EF18
:104CC000F6D880E0F4D880E0F2D880EDDBD88DE033
:104CD000EED823C782EED6D88EE1E9D882E0E7D8B5
:104CE00084E5E5D880EECED881E0E1D86AE070E0D6
:104CF00080E090E00E94FC0980EEC4D883E0D7D821
:104D00006AE070E080E090E00E94FC0981E0BAD89F
:104D100064E670E080E090E00E94FC0986EEB2D884
:104D200083E0C5D88FEFC3D88FEFC1D880EBAAD866
:104D300084E2BDD880E0BBD883E0B9D88FE1B7D892
:104D400081E0B5D88FEDB3D880E0B1D884EB9AD8A4
:104D500083E0ADD880EAABD880E0A9D88EE2A7D8AE
:104D600080E3A5D880E0A3D88FE0A1D880E09FD8C9
:104D700086EB88D882E09BD88DE099D880E097D8E0
:104D800080E195D880E193D880E091D888E08FD8F1
:104D90008AEB78D88FE08BD888EB74D887E087D8F7
:104DA00081E085D886E36ED882E281D880EF6AD828
:104DB00083E07DD861E070E080E090E077C082EE33
:104DC00061D883E274D882E072D884E070D880EE33
:104DD00059D881E06CD86AE070E080E090E00E94F1
:104DE000FC0980EE4FD883E062D86AE070E080E092
:104DF00090E00E94FC0981E045D864E670E080E024
:104E000090E00E94FC0986EE3DD884E050D883E90A
:104E10004ED880EE4CD880EB35D880E048D880E082
:104E200046D883E044D88FE142D881E040D88FED66
:104E30003ED880E03CD884EB25D883E038D880EA9F
:104E400036D880E034D88EE232D880E330D880E0A3
:104E50002ED88FE02CD880E02AD886EB13D882E0B9
:104E600026D88DE024D880E022D880E120D880E1C7
:104E70001ED880E01CD888E01AD88AEB03D885E0D9
:104E800016D888EB0E94421F87E011D881E00FD826
:104E900086E30E94421F82E20AD880EF0E94421FEE
:104EA00083E005D86AE070E080E090E00E94FC09B1
:104EB0002FED31E04FE153E0F2CE64E070E281E1AA
:104EC00027D860E07CEC83E123D860E076E285E1DE
:104ED0001FD86AE275E284E11BD863E370E082E1E7
:104EE00017D864E07CEC83E113D866E07CEC83E1C6
:104EF0000FD86FE47CEC83E10BD86FE477E683E1B5
:104F000007D863E070E281E103D869E076E280E3EC
:104F10000E94881F6CE274E281E30E94881F63E2B2
:104F20007FE182E30E94881F65E274E283E30E94CE
:104F3000881F66E272E284E30E94881F63E275E2E2
:104F400085E30E94881F6AE17CE186E30E94881F56
:104F50006DE173E187E30E94881F61E17BE088E3F4
:104F60000E94881F60E172E189E30E94881F65E169
:104F700073E18AE30E94881F69E176E38BE30E9474
:104F8000881F60E07DE08CE30E94881F6DE070E088
:104F90008DE30E94881F67E070E086E10E94881F11
:104FA00063E170E082E00E94881F63E070E083E0CC
:104FB0000E94881F67E271E081E00E94881F63E021
:104FC00073E088E00E94881F6BE070E08AE00E9436
:104FD000881F63E070E08BE00E94881F60E070E053
:104FE0008CE00E94881F60E070E081E40E94881FCE
:104FF00060E070E080E50E94881F65E070E080E678
:105000000E94881F6BE070E080E70E94881F60E0CC
:1050100070E081E70E94881F60E070E088E70E94EE
:10502000881F60E070E08AE70E94881F67E070E0F8
:1050300089E70E94881F61E570E087E00E94881F71
:1050400063E570E087E00E94881F60E070E089E718
:1050500048C181E10E94421F64E170E080E090E07D
:105060000E94FC0980ED0E94421F87E00E94571FAA
:1050700082E40E94571F88E10E94571F81ED0E9421
:10508000421F80E00E94571F87E00E94571F80E167
:105090000E94571F82ED0E94421F81E00E94571F0D
:1050A00082E00E94571F80EC0E94421F80E10E9414
:1050B000571F8BE30E94571F80E00E94571F82E01A
:1050C0000E94571F81E10E94571F85EC0E94421FDA
:1050D00083E00E94571F88EC0E94421F80E00E94DC
:1050E000571F82E30E94571F86E30E94571F85E4E3
:1050F0000E94571F86E00E94571F86E10E94571F9B
:1051000087E30E94571F85E70E94571F87E70E9489
:10511000571F84E50E94571F8CE00E94571F80E0B4
:105120000E94571F86E30E94421F8AE00E94571F79
:105130008AE30E94421F85E50E94571F8AE20E946F
:10514000421F80E00E94571F80E00E94571F81E0AD
:105150000E94571F8FE30E94571F8BE20E94421F3D
:1051600080E00E94571F80E00E94571F81E00E944C
:10517000571F80EE0E94571F68E770E080E090E0C4
:105180000E94FC0992C16AE170E081E10E94881FDF
:1051900061E271E382E10E94881F6CE670E083E1C6
:1051A0000E94881F69E472E484E10E94881F60E025
:1051B00078E080E10E94881F6AE070E080E090E083
:1051C0000E94FC096AE171E081E10E94881F6AE0A7
:1051D00070E080E090E00E94FC096AE173E081E108
:1051E0000E94881F6AE070E080E090E00E94FC0965
:1051F0006AE177E081E10E94881F6AE070E080E068
:1052000090E00E94FC096AE17FE081E10E94881F32
:105210006AE070E080E090E00E94FC096AE37FE0D1
:1052200081E10E94881F6EE170E080E090E00E94C2
:10523000FC096CE171E081E00E94881F60E071E090
:1052400082E00E94881F60E370E183E00E94881F73
:1052500060E070E087E00E94881F68E078E088E006
:105260000E94881F60E071E18BE00E94881F60E06F
:1052700070E08CE00E94881F61E074E18FE00E9482
:10528000881F60E070E085E10E94881F60E070E0A8
:1052900080E20E94881F60E070E081E20E94881F27
:1052A0006FEA70E086E30E94881F60E070E087E3A9
:1052B0000E94881F6BED70E088E30E94881F60E009
:1052C00070E089E30E94881F61E07BE08FE00E942C
:1052D000881F66E170E087E00E94881F67E170E048
:1052E00087E00E94881F4ACA81E10E94421F68E746
:1052F00070E080E090E00E94FC0981EB0E94421F78
:1053000085E00E94571F8CE30E94571F8CE30E9488
:10531000571F82EB0E94421F85E00E94571F8CE3BB
:105320000E94571F8CE30E94571F83EB0E94421F6D
:1053300085E00E94571F8CE30E94571F8CE30E9458
:10534000571F85E00E94571F8CE30E94571F8CE374
:105350000E94571F84EB0E94421F83E00E94571F48
:1053600080EC0E94421F88E20E94571F88E00E9442
:10537000571F84E00E94571F81EC0E94421F80EC5F
:105380000E94571F82EC0E94421F8DE00E94571F0F
:1053900080E00E94571F83EC0E94421F8DE80E940C
:1053A000571F8AE20E94571F84EC0E94421F8DE81B
:1053B0000E94571F8EEE0E94571F85EC0E94421FCD
:1053C0008AE10E94571F86E30E94421F80EC0E94E0
:1053D000571F80EE0E94421F83E00E94571F82E207
:1053E0000E94571F87E00E94571F8AE00E94571FA4
:1053F0008EE20E94571F80E30E94571F85E20E94A1
:10540000571F8AE20E94571F88E20E94571F86E2B8
:105410000E94571F8EE20E94571F8AE30E94571F67
:1054200080E00E94571F81E00E94571F83E00E9486
:10543000571F83E10E94571F81EE0E94421F84E0A4
:105440000E94571F86E10E94571F86E00E94571F47
:105450008DE00E94571F8DE20E94571F86E20E9436
:10546000571F83E20E94571F87E20E94571F87E25F
:105470000E94571F85E20E94571F8DE20E94571F0E
:105480008BE30E94571F80E00E94571F81E00E941B
:10549000571F84E00E94571F83E10E94571F8AE331
:1054A0000E94421F85E00E94571F89E268C981E17E
:1054B0000E94421F64E170E080E090E00E94FC09DD
:1054C00088E20E94421F65E070E080E090E00E9468
:1054D000FC098FEC0E94421F80E00E94571F83E866
:1054E0000E94571F80E30E94571F8DEE0E94421FAB
:1054F00084E60E94571F83E00E94571F82E10E94AA
:10550000571F81E80E94571F88EE0E94421F85E8BE
:105510000E94571F81E00E94571F89E70E94571F72
:105520008BEC0E94421F89E30E94571F8CE20E946D
:10553000571F80E00E94571F84E30E94571F82E09C
:105540000E94571F87EF0E94421F80E20E94571F50
:105550008AEE0E94421F80E00E94571F80E00E9456
:10556000571F80EC0E94421F86E20E94571F81EC69
:105570000E94421F81E10E94571F85EC0E94421F3A
:1055800085E30E94571F8EE30E94571F87EC0E94FD
:10559000421F8EEB0E94571F81EB0E94421F80E04A
:1055A0000E94571F8BE10E94571F86EB0E94421FEB
:1055B0008AE00E94571F82E80E94571F87E20E94DC
:1055C000571F80E00E94571F87EB0E94421F87E011
:1055D0000E94571F8AE30E94421F85E50E94571FC1
:1055E00086E30E94421F88E40E94571F89E20E94BE
:1055F000421F65E070E080E090E05CC38BEC0E94AD
:10560000421F89E30E94571F8CE20E94571F80E0CF
:105610000E94571F84E30E94571F82E00E94571F79
:105620008FEC0E94421F80E00E94571F81EC0E9475
:10563000571F80E30E94571F88EE0E94421F85E893
:105640000E94571F80E00E94571F88E70E94571F43
:105650008AEE0E94421F80E00E94571F80E00E9455
:10566000571F8DEE0E94421F84E60E94571F83E061
:105670000E94571F82E10E94571F81E80E94571F16
:1056800087EF0E94421F80E20E94571F80EC0E9419
:10569000421F83E20E94571F81EC0E94421F80E15B
:1056A0000E94571F85EC0E94421F8EE30E94571FE5
:1056B00088E20E94571F87EC0E94421F86E80E94E2
:1056C000571F86E30E94421F88E40E94571F8AE307
:1056D0000E94421F85E50E94571F81EB0E94421FD6
:1056E00080E00E94571F88E10E94571F86EB0E94AE
:1056F000421F88E00E94571F82E80E94571F87E2DE
:105700000E94571F81E10E94421F68E770E080E01D
:1057100090E0FEC180EB0E94421F8EE10E94571F65
:1057200080EB0E94421F80E00E94571F83EB0E9483
:10573000421F82E00E94571F80E00E94571F80E0B6
:105740000E94571F80E10E94571F84EB0E94421F56
:1057500080E00E94571F80EC0E94421F83E00E945D
:10576000571F8BE30E94571F80E00E94571F80E065
:105770000E94571F80E00E94571F81E00E94571F20
:1057800080E00E94571F83E40E94571F81EC0E9413
:10579000421F88E00E94571F85E10E94571F88E042
:1057A0000E94571F88E00E94571F84EC0E94421FEE
:1057B00085E10E94571F83E00E94571F83E00E94EB
:1057C000571F81E00E94571F86EC0E94421F82E013
:1057D0000E94571F88EC0E94421F8CE00E94571FB6
:1057E00085E00E94571F8AE00E94571F8BE60E94A7
:1057F000571F84E00E94571F86E00E94571F85E1D3
:105800000E94571F80E10E94571F80E00E94571F8F
:1058100080E60E94571F86E30E94421F8AE00E9492
:10582000571F8CE00E94421F85E50E94571F8AE3A4
:105830000E94421F85E50E94571F88E30E94421F75
:1058400080ED0E94421F87E00E94571F87E00E9460
:10585000571F84E10E94571F82EA0E94571F81ED63
:105860000E94421F83E00E94571F8AE50E94571F33
:1058700080E10E94571F82ED0E94421F83E00E9438
:10588000571F84E00E94571F84E00E94571F81E148
:105890000E94421F66E970E080E090E00E94FC09EF
:1058A0008AE20E94421F80E00E94571F80E00E940F
:1058B000571F81E00E94571F8FED0E94571F8BE2F8
:1058C0000E94421F80E00E94571F80E00E94571FE5
:1058D00081E00E94571F8FE30E94571F64E670E02B
:1058E00080E090E00E94FC0989E20E94421F6EE184
:1058F00070E080E090E00E94FC098CE20E94421F70
:105900006EE170E080E090E0D5C181E10E94421F2D
:1059100062E370E080E090E00E94FC0982EF0E9468
:10592000421F8CE10E94571F83EA0E94571F82E3A7
:105930000E94571F82E00E94571F82EB0E94571F50
:1059400082E10E94571F8FEF0E94571F82E10E9441
:10595000571F80E00E94571F81EF0E94421F86E37D
:105960000E94571F84EA0E94571F88EF0E94421F1F
:1059700081E20E94571F84E00E94571F89EF0E9416
:10598000421F80E00E94571F88E00E94571F80EC52
:105990000E94421F8DE00E94571F8DE00E94571FFA
:1059A00081EC0E94421F83E40E94571F80E00E9406
:1059B000571F82EC0E94421F80E00E94571F85EC17
:1059C0000E94421F80E00E94571F88E40E94571FD8
:1059D00086EB0E94421F80E00E94571F82E20E94D5
:1059E000571F8BE30E94571F80EE0E94421F8FE0DB
:1059F0000E94571F84E20E94571F8CE10E94571F8C
:105A00008AE00E94571F8FE00E94571F88E00E9483
:105A1000571F83E40E94571F88E80E94571F82E3A4
:105A20000E94571F8FE00E94571F80E10E94571F5E
:105A300086E00E94571F8FE00E94571F87E00E9458
:105A4000571F80E00E94571F81EE0E94421F8FE087
:105A50000E94571F88E30E94571F80E30E94571F30
:105A600089E00E94571F8FE00E94571F8FE00E941D
:105A7000571F8EE40E94571F87E70E94571F8CE331
:105A80000E94571F87E00E94571F80E10E94571F06
:105A900085E00E94571F83E20E94571F8BE10E94FE
:105AA000571F80E00E94571F80E20E94421F80E043
:105AB0000E94571F86E30E94421F8AE00E94571FE0
:105AC0008AE30E94421F85E50E94571F8AE20E94D6
:105AD000421F80E00E94571F80E00E94571F81E014
