:1000000036C7000065C7000063C7000061C7000075
:100010005FC700005DC700005BC7000059C7000054
:1000200057C7000055C7000053C7000051C7000064
:100030004FC700004DC700004BC7000049C7000074
:1000400047C7000045C7000043C7000041C7000084
:100050003FC700003DC700003BC700000C94F50FF0
:1000600037C700000C94CC080C94A30831C70000DB
:100070002FC700002DC700002BC7000029C70000B4
:1000800027C7000025C7000023C7000021C70000C4
:100090001FC700001DC700001BC7000019C70000D4
:1000A00017C7000015C7000013C7000011C70000E4
:1000B0000FC700000DC700000BC7000009C70000F4
:1000C00007C7000005C7000003C7000001C7000004
:1000D000FFC60000FDC60000FBC60000F9C6000018
:1000E000F7C60000B0216D317D227D220F246D31D5
:1000F00014274925C1266D3147281529632A632A0B
:10010000B0210F2E6D31B021B929392BFB22D32B11
:10011000842C0F2E682D9B2E962FA130B630BD2536
:1001200031093409230927092B096B0938093C09CE
:10013000420946094A095009540958096B095E09E0
:10014000620966092C12E512431243125812E51295
:100150001312C7127612E5128012801294129412B2
:100160002C12C712E5122C128012C7124312A212CF
:10017000C712C712C712C712C712B712C712C712C7
:100180001010205F000000000000000000000000D0
:10019000000000000000000000000000000000005F
:1001A000000000000000000007000F800F800F809B
:1001B0000F800F8007000700000000000700070005
:1001C0000700000000000E380E380E380E380630DA
:1001D000000000000000000000000000000000001F
:1001E0000000000000000C300C300C307FFE7FFE61
:1001F0000C300C300C300C307FFE7FFE0C300C309D
:100200000C3000000000024002400FF81FF81A40B6
:100210001A401FF00FF8025802581FF81FF0024052
:10022000024000000000000000000E100E300E70B2
:1002300000E001C0038007000E700C700870000021
:1002400000000000000000000F00198019801980D4
:100250000F000F080F9819F818F018E019F00F9810
:1002600000000000000000000700070007000E006B
:10027000000000000000000000000000000000007E
:10028000000000000000000000F001C00380070033
:100290000E000E000E000E000700038001C000F0EB
:1002A00000000000000000000F00038001C000E01B
:1002B000007000700070007000E001C003800F004B
:1002C000000000000000000001801188099007E094
:1002D00007E03FFC3FFC07E007E009901188018040
:1002E000000000000000000000000000018001800C
:1002F00001800FF00FF001800180018000000000FC
:1003000000000000000000000000000000000000ED
:1003100000000000000000000000070007000700C8
:100320000E000000000000000000000000000000BF
:1003300000001FF81FF8000000000000000000008F
:1003400000000000000000000000000000000000AD
:100350000000000000000000000007000700070088
:10036000000000000000000000020006000E001C5B
:100370000038007000E001C0038007000E001C0080
:1003800000000000000000000FF01C381C781CF872
:100390001CF81DB81DB81F381F381E381C380FF048
:1003A00000000000000000000180018003801F8029
:1003B0001F800380038003800380038003801FF07D
:1003C00000000000000000000FE01C701C38003826
:1003D000007000E001C0038007000E381C381FF8D1
:1003E00000000000000000000FE01C701C38003806
:1003F000007003C003C0007000381C381C700FE090
:10040000000000000000000000E001E003E006E062
:100410000CE018E01FF81FF800E000E000E003F82F
:1004200000000000000000001FF81C001C001C0061
:100430001C001FE01FF0007800381C381C700FE013
:10044000000000000000000003E007000E001C0098
:100450001C001FF01FF81C381C381C381C380FF00B
:1004600000000000000000001FFC1C1C1C1C1C1CC9
:10047000001C0038007000E001C00380038003808E
:1004800000000000000000000FF01C381C381C3871
:100490001F3807E007E01CF81C381C381C380FF028
:1004A00000000000000000000FF01C381C381C3851
:1004B0001C381FF80FF800380038007000E007C043
:1004C0000000000000000000000000000380038026
:1004D0000380000000000380038003800000000010
:1004E0000000000000000000000000000380038006
:1004F00003800000000003800380038007000000E9
:10050000000000000000007000E001C00380070050
:100510000E001C001C000E000700038001C000E05C
:1005200000700000000000000000000000003FFC20
:100530003FFC000000003FFC3FFC0000000000000A
:100540000000000000001C000E000700038001C036
:1005500000E00070007000E001C0038007000E00A2
:100560001C000000000003C00FF01E78183800388F
:10057000007000E001C001C00000000001C001C027
:1005800001C0000000000FF81C1C1C1C1C1C1C1CC3
:100590001CFC1CFC1CFC1CFC1C001C001C001FF098
:1005A00007F800000000000003C007E00E701C38D0
:1005B0001C381C381C381FF81C381C381C381C38D8
:1005C00000000000000000001FF00E380E380E384A
:1005D0000E380FF00FF00E380E380E380E381FF0B0
:1005E000000000000000000007F00E381C381C005E
:1005F0001C001C001C001C001C001C380E3807F0DE
:1006000000000000000000001FE00E700E380E38E1
:100610000E380E380E380E380E380E380E701FE0B9
:1006200000000000000000001FF80E180E080E0069
:100630000E300FF00FF00E300E000E080E181FF8DF
:1006400000000000000000001FF80E180E080E0049
:100650000E300FF00FF00E300E000E000E001F00D7
:10066000000000000000000007F00E381C381C38A5
:100670001C001C001C001CF81C381C380E3807F825
:1006800000000000000000001C701C701C701C703A
:100690001C701FF01FF01C701C701C701C701C70F4
:1006A00000000000000000000FE0038003800380D2
:1006B00003800380038003800380038003800FE0B6
:1006C000000000000000000001FC007000700070DD
:1006D00000700070007038703870387038700FE03B
:1006E00000000000000000001E380E380E700EE002
:1006F0000FC00F800F800FC00EE00E700E381E3836
:1007000000000000000000001F000E000E000E00A0
:100710000E000E000E000E000E080E180E381FF808
:1007200000000000000000001C1C1E3C1F7C1FFC81
:100730001FFC1DDC1C9C1C1C1C1C1C1C1C1C1C1CD5
:1007400000000000000000001C1C1C1C1E1C1F1CC4
:100750001F9C1DDC1CFC1C7C1C3C1C1C1C1C1C1C35
:10076000000000000000000003E007F00E381C1C31
:100770001C1C1C1C1C1C1C1C1C1C0E3807F003E041
:1007800000000000000000001FF00E380E380E3888
:100790000E380FF00FF00E000E000E000E001F00BE
:1007A000000000000000000003E00F780E381C1C61
:1007B0001C1C1C1C1C1C1C7C1CFC0FF80FF800389B
:1007C00000FC0000000000001FF00E380E380E384C
:1007D0000E380FF00FF00E700E380E380E381E382F
:1007E00000000000000000000FF01C381C381C380E
:1007F0001C000FE007F000381C381C381C380FF0C4
:1008000000000000000000001FFC19CC11C401C052
:1008100001C001C001C001C001C001C001C007F09A
:1008200000000000000000001C701C701C701C7098
:100830001C701C701C701C701C701C701C700FE0F5
:1008400000000000000000001C701C701C701C7078
:100850001C701C701C701C701C700EE007C00380A4
:1008600000000000000000001C1C1C1C1C1C1C1CA8
:100870001C1C1C9C1C9C1C9C0FF80FF8077007701C
:1008800000000000000000001C701C701C700EE0D6
:1008900007C00380038007C00EE01C701C701C7032
:1008A00000000000000000001C701C701C701C7018
:1008B0001C700EE007C003800380038003800FE0FC
:1008C00000000000000000001FF81C3818381070ED
:1008D00000E001C0038007000E081C181C381FF838
:1008E000000000000000000007F0070007000700FC
:1008F000070007000700070007000700070007F0D0
:100900000000000000000000100018001C000E0095
:100910000700038001C000E000700038001C0007E1
:10092000000000000000000007F000700070007080
:10093000007000700070007000700070007007F0B0
:10094000000000000000018003C007E00E701C38AA
:100950000000000000000000000000000000000097
:100960000000000000000000000000000000000087
:100970000000000000000000000000000000000077
:100980007FFF7FFF000000001C001C000700070025
:100990000000000000000000000000000000000057
:1009A0000000000000000000000000000000000047
:1009B0000FE0007000700FF01C701C701C700FD8DE
:1009C00000000000000000001E000E000E000E00DF
:1009D0000FF00E380E380E380E380E380E381BF069
:1009E0000000000000000000000000000000000007
:1009F0000FE01C701C701C001C001C701C700FE0B1
:100A0000000000000000000000F80070007000709E
:100A10000FF01C701C701C701C701C701C700FD8A8
:100A200000000000000000000000000000000000C6
:100A30000FE01C701C701FF01C001C701C700FE07D
:100A4000000000000000000003E0077007700700CE
:100A500007001FE01FE007000700070007001FC096
:100A60000000000000000000000000000000000086
:100A70000FD81C701C701C701C700FF007F00070F9
:100A80001C700FE0000000001E000E000E000E00A3
:100A90000EF00F380F380E380E380E380E381E385C
:100AA000000000000000000001C001C001C0000003
:100AB0000FC001C001C001C001C001C001C00FF8DA
:100AC00000000000000000000070007000700000D6
:100AD00003F00070007000700070007000701C70F7
:100AE0000CF007E0000000001E000E000E000E00DB
:100AF0000E380E700EE00FC00EE00E700E381E386D
:100B000000000000000000000FC001C001C001C0D3
:100B100001C001C001C001C001C001C001C00FF887
:100B200000000000000000000000000000000000C5
:100B30001FF81C9C1C9C1C9C1C9C1C9C1C9C1C9C96
:100B400000000000000000000000000000000000A5
:100B50001FE01C701C701C701C701C701C701C70C2
:100B60000000000000000000000000000000000085
:100B70000FE01C701C701C701C701C701C700FE04F
:100B80000000000000000000000000000000000065
:100B90001BF00E380E380E380E380E380FF00E00DF
:100BA0000E001F0000000000000000000000000018
:100BB0001FB038E038E038E038E038E01FE000E00F
:100BC00000E001F000000000000000000000000054
:100BD0001EF00FF80F380E000E000E000E001F0062
:100BE0000000000000000000000000000000000005
:100BF0000FE01C301C300F8003E0187018700FE0FD
:100C000000000000000000000000010003000700D9
:100C10001FF007000700070007000770077003E0D8
:100C200000000000000000000000000000000000C4
:100C30001C701C701C701C701C701C701C700FD8F9
:100C400000000000000000000000000000000000A4
:100C50001C701C701C701C701C700EE007C00380A0
:100C60000000000000000000000000000000000084
:100C70001C1C1C1C1C1C1C9C1C9C0FF80770077067
:100C80000000000000000000000000000000000064
:100C90001CE01CE00FC0078007800FC01CE01CE0B8
:100CA0000000000000000000000000000000000044
:100CB0000E380E380E380E380E3807F003E000E01C
:100CC00001C01F80000000000000000000000000C4
:100CD0001FE018E011C0038007000E201C601FE019
:100CE000000000000000000001F803800380038082
:100CF00007001C001C00070003800380038001F82C
:100D000000000000000001C001C001C001C001C01E
:100D100001C001C001C001C001C001C001C001C0CB
:100D200001C00000000000001F8001C001C001C020
:100D300000E00038003800E001C001C001C01F80A1
:100D400000000000000000001F1C3B9C39DC38F84C
:100D50000000000000000000000000000000000093
:100D60000000000000002100240027002A002D00C0
:100D70003000330001010000040107010A010000F6
:100D80000A0B02090C0D0E08070304010000000005
:100D90000000000000000000000000000000000053
:100DA0000000000000000000000012111000000010
:100DB0000000000000000000000000000000000033
:100DC0000000000001021020200808102040102020
:100DD00040800201020108040201010204081020FF
:100DE00040808040201008040201800402018040FD
:100DF0002010080402010804020101020408102066
:100E000040800102040810204080000022002500DC
:100E100028002B002E0031003400020100000501E3
:100E200008010B0105050505070508080808020269
:100E300002020A0A08080404040401010101010174
:100E400001010303030303030303040707070C0C57
:100E50000C0C0C0C0C0C020202020606060606061E
:100E600006060B0B0B0B0B0B0B0B46352E3511240B
:100E70001FBECFEFD1E2DEBFCDBF00E00CBF12E05E
:100E8000A0E0B2E0E4E2F7E700E00BBF02C00790A9
:100E90000D92AC3CB107D9F729E0ACECB2E001C04F
:100EA0001D92A534B207E1F717E0C6E3D7E000E0F2
:100EB00006C021970109802FFE010E943C39C533ED
:100EC000D10780E00807A9F70E9440200C94813BDD
:100ED00097C8FC01538D448D252F30E0842F90E07E
:100EE000821B930B541710F0CF9608950197089525
:100EF000FC01918D828D981761F0828DDF01A80F22
:100F0000B11D5D968C91928D9F5F9F73928F90E043
:100F100008958FEF9FEF0895FC01918D828D9817B2
:100F200031F0828DE80FF11D858D90E008958FEFEF
:100F30009FEF0895FC01918D228D892F90E0805CB8
:100F40009F4F821B91098F739927089587EE94E034
:100F5000F1DF21E0892B09F420E0822F0895FC01C4
:100F6000848DDF01A80FB11DA35ABF4F2C91848D32
:100F700090E001968F739927848FA689B7892C9367
:100F8000A089B1898C9180648C93938D848D981302
:100F900006C00288F389E02D80818F7D80830895CB
:100FA000EF92FF920F931F93CF93DF93EC0181E0B9
:100FB000888F9B8D8C8D981305C0E889F989808175
:100FC00085FD23C0F62E0B8D10E00F5F1F4F0F73B2
:100FD0001127E02E8C8DE8120BC00FB607FCFACF5C
:100FE000E889F989808185FFF5CFCE01B8DFF2CF9E
:100FF0008B8DFE01E80FF11DE35AFF4FF0820B8F3E
:10100000EA89FB898081806207C0EE89FF8960835D
:10101000E889F98980818064808381E090E0DF91B4
:10102000CF911F910F91FF90EF900895CF93DF9391
:10103000EC01888D8823C1F0EA89FB89808185FDD8
:1010400005C0A889B9898C9186FD0EC00FB607FC32
:10105000F5CF808185FFF2CFA889B9898C9185FF72
:10106000EDCFCE017CDFE8CFDF91CF91089580E016
:1010700090E0892B19F06ADF811125C080E090E0B3
:10108000892B41F080E090E0892B21F00E94000044
:1010900081111CC080E090E0892B41F080E090E05D
:1010A000892B21F00E940000811113C080E090E0A4
:1010B000892BA1F080E090E0892B81F00E94000054
:1010C00081110AC008950E940000D8CF0E9400003C
:1010D000E1CF0E940000EACF0C94000008953FB7D2
:1010E000F8948091E3049091E404A091E504B09118
:1010F000E60426B5A89B05C02F3F19F00196A11D57
:10110000B11D3FBFBA2FA92F982F8827820F911D9D
:10111000A11DB11DBC01CD0142E0660F771F881FE4
:10112000991F4A95D1F708958EBD00000DB407FEB2
:10113000FDCF8EB508958FEFF7CF089580E090E052
:1011400008950E94553B1F920F920FB60F921124E3
:101150000BB60F922F933F934F935F936F937F93B1
:101160008F939F93AF93BF93EF93FF9387EE94E09A
:10117000F6DEFF91EF91BF91AF919F918F917F919B
:101180006F915F914F913F912F910F900BBE0F90F8
:101190000FBE0F901F9018951F920F920FB60F92CF
:1011A00011240BB60F922F938F939F93EF93FF937E
:1011B000E091F704F091F8048081E091FD04F09152
:1011C000FE0482FD12C09081809100058F5F8F73B5
:1011D00020910105821751F0E0910005F0E0E951FE
:1011E000FB4F958F8093000501C08081FF91EF91A7
:1011F0009F918F912F910F900BBE0F900FBE0F906C
:101200001F901895362F90E0FC01E258F24F449160
:10121000FC01EC53F24F2491FC01EC5DF14F9491F1
:10122000992309F46BC0442309F455C050E0FA0136
:101230003197E231F10508F04EC08827E057FF4FA3
:101240008F4F0C943C39809180008F7707C080913C
:1012500080008F7D03C080918000877F8093800015
:101260003AC084B58F7702C084B58F7D84BD33C00A
:101270008091B0008F7703C08091B0008F7D809304
:10128000B00029C0809190008F7707C080919000B6
:101290008F7D03C080919000877F809390001BC05A
:1012A0008091A0008F7707C08091A0008F7D03C040
:1012B0008091A000877F8093A0000DC080912001C5
:1012C0008F7707C0809120018F7D03C0809120011E
:1012D000877F80932001E92FF0E0EE0FFF1FE65F8C
:1012E000F14FA591B4918FB7F894EC91311103C0EF
:1012F00020952E2301C02E2B2C938FBF089561E0E3
:10130000FC0184817FDF8091D60281111092D60288
:101310000895CF93DF93EC018E81882379F08F813C
:1013200098859C012F5F3F4F38872F8382309240F2
:1013300010F401DFF4CFCE01E2DF1E82DF91CF9106
:101340000895CF93DF9390E0FC01EC53F24F24918A
:10135000FC01EC5DF14F8491882361F190E0880FEE
:10136000991FFC01EC59F24FC591D491FC01E65F45
:10137000F14FA591B491611109C09FB7F89488818C
:10138000209582238883EC912E230BC0623061F478
:101390009FB7F8943881822F809583238883EC91BE
:1013A0002E2B2C939FBF06C08FB7F894E8812E2B6D
:1013B00028838FBFDF91CF910895863308F086533D
:1013C00090917B00282F2870977F922B90937B0021
:1013D0008770806480937C0080917A008064809321
:1013E0007A0080917A0086FDFCCF80917800209170
:1013F000790090E0922B08958F929F92AF92BF92C6
:10140000CF92DF92EF92FF926B017C0168DE4B017D
:101410005C01C114D104E104F104E9F060DEDC01F7
:10142000CB0188199909AA09BB09883E9340A105F7
:10143000B10578F321E0C21AD108E108F10888EE7D
:10144000880E83E0981EA11CB11CC114D104E104D4
:10145000F10421F7DECFFF90EF90DF90CF90BF90A7
:10146000AF909F908F9008952FB7F8946091DF040C
:101470007091E0048091E1049091E2042FBF0895FF
:101480000F931F93CF93DF93EB01EEDF8B0153DEBE
:101490008F3F41F0E9DF601B710B6C177D07B8F3DC
:1014A00080E001C081E0DF91CF911F910F910895FD
:1014B000CF92DF92FF920F931F93CF93DF9300D0D1
:1014C0001F92CDB7DEB76C01F62E29833A834B838A
:1014D0005C831FDF8091D60229813A814B815C8138
:1014E000811109C081E08093D6029091CC05809152
:1014F000CD059CBD8DBD60E0F601848129833A83D2
:101500004B835C837FDE6CE271E0C601B9DF8F2D17
:1015100080640ADE08E110E05C814B813A81298118
:10152000DA01C901002E04C0B695A7959795879555
:101530000A94D2F729833A834B835C83F5DD085004
:10154000110929813A814B815C81083FFFEF1F0718
:1015500039F7FF2029F088E0F81204C087E803C0BB
:1015600085E901C08FEFE0DD10E0E5DDF60182875F
:1015700087FF04C01F3F11F01F5FF7CF0F900F9040
:101580000F900F90DF91CF911F910F91FF90DF90FF
:10159000CF900895EF92FF920F931F93CF93DF9315
:1015A000EC017901411551056105710511F482E1E4
:1015B00034C08B85833039F089E0440F551F661F96
:1015C000771F8A95D1F79A01AB0168E1CE0170DFF0
:1015D000882311F084E021C08EEFA6DD87018EEF15
:1015E000F81AF80181918F019FDD0E151F05C9F7CB
:1015F0008FEF9ADD8FEF98DD9EDD8A878F718530C2
:1016000029F081E18D83CE017ADE08C068E572E0C1
:10161000CE0136DF811106C085E18D83CE016FDEFC
:1016200080E010C020E030E0A9016DE0CE0140DF95
:10163000811103C080DD882311F084E1EECFCE015B
:101640005EDE81E0DF91CF911F910F91FF90EF90CF
:101650000895CF93DF938091D902882389F1C091B7
:10166000D702D091D80240910002509101026091BE
:101670000202709103022EED32E0CE018BDF811168
:1016800002C080E01EC04091DA025091DB026091FE
:10169000DC027091DD02411551056105710571F0A3
:1016A0002EED32E0CE0176DF882359F31092DA0274
:1016B0001092DB021092DC021092DD021092D9022D
:1016C00081E0DF91CF910895BF92CF92DF92EF92A8
:1016D000FF920F931F93CF93DF936B017C01B42E86
:1016E0008091000290910102A0910202B091030248
:1016F0008C159D05AE05BF0509F46DC0AADF8823D2
:1017000009F470C0C091D702D091D8028E8188238D
:1017100069F088819981AA81BB81C816D906EA0639
:10172000FB0621F48F819885892B89F1C882D982A3
:10173000EA82FB828B85A7019601833039F089E02C
:10174000220F331F441F551F8A95D1F761E1CE0147
:10175000AFDE882319F083E08D8331C085DE8B01F5
:10176000EADC8A878F3F41F47FDE601B710B6D32AC
:101770007140B0F38FE003C08E3F29F08DE08D8380
:10178000CE01BDDD1CC018861F8281E08E830EED68
:1017900012E0D1DCF80181938F01F4E00E3D1F07C8
:1017A000C1F78F8198859E5F98878F832985222333
:1017B00019F08115924038F0CE01ABDD04C0CE01A6
:1017C0009EDD80E00FC0C0920002D0920102E09244
:1017D0000202F09203028091D902482F4B294093D4
:1017E000D90281E0DF91CF911F910F91FF90EF908F
:1017F000DF90CF90BF9008954F925F926F927F924B
:101800008F929F92AF92BF92CF92DF92EF92FF9210
:101810000F931F93CF93DF93EC016A017B012801A3
:101820003901423051056105710510F480E072C044
:1018300089859A85AB85BC850196A11DB11D84174C
:101840009507A607B70790F38B889C88AD88BE885C
:101850008F89803129F4BB27AF2D9E2D8D2D09C096
:10186000DB01CA0147E0B695A795979587954A95FC
:10187000D1F7880E991EAA1EBB1E8091000290917E
:101880000102A0910202B091030288169906AA06ED
:10189000BB0679F48F89803199F4DD24EE24FF248E
:1018A000C601880F991FFC01E252FD4F5182408210
:1018B00018C040E0C501B40107DF8111EBCFB6CFFE
:1018C000E894C7F8DD24EE24FF24C601880F991F91
:1018D000880F991FFC01E252FD4F408251826282C3
:1018E00073828091D90281608093D9028A89823083
:1018F00080F08D819E81AF81B885880E991EAA1EC9
:10190000BB1E8092DA029092DB02A092DC02B092BF
:10191000DD0281E0DF91CF911F910F91FF90EF9059
:10192000DF90CF90BF90AF909F908F907F906F90FF
:101930005F904F9008958F929F92AF92BF92CF92F7
:10194000DF92EF92FF920F931F93CF93DF93FC01EF
:1019500081859285A385B4850196A11DB11D84174B
:101960009507A607B70710F480E05BC083899489C8
:10197000A589B689C789C03129F4852E962EA72E50
:10198000BB2409C04A015B01C7E0B694A7949794B1
:101990008794CA95D1F7E9016A017B018F01BC01E7
:1019A000CD01680D791D8A1D9B1D809000029090CD
:1019B0000102A0900202B0900302681579058A0521
:1019C0009B0599F4F80187898031A1F4B701A6013C
:1019D000552766277727440F551FFA01E252FD4F1E
:1019E00080819181A0E0B0E017C040E06DDE811100
:1019F000E9CFBACFB701A6014F77552766277727DA
:101A0000440F551F440F551FFA01E252FD4F8081CC
:101A10009181A281B381BF7088839983AA83BB839C
:101A200081E0DF91CF911F910F91FF90EF90DF90B8
:101A3000CF90BF90AF909F908F9008953F924F921C
:101A40005F926F927F928F929F92AF92BF92CF924E
:101A5000DF92EF92FF920F931F93CF93DF93CDB757
:101A6000DEB72C970FB6F894DEBF0FBECDBF5C017A
:101A7000DC015B968D909C905C971696CD90DD90E6
:101A8000ED90FC901997C114D104E104F10439F0F0
:101A9000BFEFCB1ADB0AEB0AFB0A312C07C0F401BB
:101AA000C080D180E280F38033243394F4018185B7
:101AB0009285A385B4859C01AD012F5F3F4F4F4FA9
:101AC0005F4F29873A874B875C87260137011D8244
:101AD0001E821F821886F40181859285A385B485B4
:101AE0002D813E814F815885281739074A075B07AA
:101AF00008F060C089859A85AB85BC858C159D05ED
:101B0000AE05BF0550F482E0C82ED12CE12CF12C9B
:101B100092E0492E512C612C712C9E012F5F3F4F7A
:101B2000B701A601C40107DF882309F443C08981F6
:101B30009A81AB81BC81892B8A2B8B2B41F02601AA
:101B400037019FEF491A590A690A790A05C0C41476
:101B5000D504E604F70491F02D813E814F8158852C
:101B60002F5F3F4F4F4F5F4F2D833E834F835887EB
:101B70003FEFC31AD30AE30AF30AADCF0FEF1FEF0B
:101B80002FEF3FE0B301A201C40136DE882391F0BC
:101B9000D50116964D915D916D917C9119974115E6
:101BA00051056105710541F093018201C40124DEF4
:101BB000811102C080E02AC0D50116964D925D9237
:101BC0006D927C921997332051F0D301C201019696
:101BD000A11DB11DF40180839183A283B383F5011C
:101BE0008789908DA18DB28D892B8A2B8B2B69F4DF
:101BF000D50157964D925D926D927C925A971496AC
:101C00008C911497806814968C9381E02C960FB673
:101C1000F894DEBF0FBECDBFDF91CF911F910F9122
:101C2000FF90EF90DF90CF90BF90AF909F908F90FC
:101C30007F906F905F904F903F9008954F925F928A
:101C40006F927F928F929F92AF92BF92EF92FF928C
:101C50000F931F93CF93DF9300D01F921F92CDB7A6
:101C6000DEB78C016D83DC0115968C911597813060
:101C700009F056C014968C9181FF52C059C0038C54
:101C8000F48DE02D258530E0275F3F4F2A013B0191
:101C9000B1E04B1A510861087108022E04C0769415
:101CA0006794579447940A94D2F7D501C4010197D9
:101CB000A109B10904C0B695A795979587952A956E
:101CC000D2F784159505A605B70508F06FC0F80191
:101CD0004789508D618D728D4683578360877187E8
:101CE0002C013D017801E6E0EE0EF11CD801411413
:101CF00051046104710409F463C016964D915D911D
:101D00006D917C91199797015B968D919C915C9751
:101D100012DEB1E04B1A5108610871088111E6CF5B
:101D200081E090E0F8019383828380E090E049C1F4
:101D300082FF0EC0F80142855385648575858388CE
:101D40009488A588B688481559056A057B05F1F47D
:101D5000D8011A964D915D916D917C911D975B967E
:101D60008D919C915C97FC0174807A944A015B018F
:101D700029E0B694A794979487942A95D1F7782070
:101D80007A01F1E0FF22772011F162C08114910401
:101D9000A104B10409F073CF168217821086118650
:101DA000F8011286138614861586D2CF452B462B52
:101DB000472B09F48CCF84199509A609B70990CF50
:101DC0001A968D929D92AD92BC921D97C1CFE1144F
:101DD000F10409F03DC0F8014681578160857185A5
:101DE000411551056105710549F48789908DA18DD3
:101DF000B28D0097A105B10531F520C09E012F5F7E
:101E00003F4F99DD882309F490CF89819A81AB8176
:101E1000BC81F801238D348DF9012789203129F007
:101E200048EF5FEF6FEF7FE004C048EF5FEF60E0E7
:101E300070E084179507A607B70728F0C801FEDDF4
:101E4000811106C06DCFF80186839783A087B18783
:101E5000D8015B96ED91FC915C9716968D909D90C4
:101E6000AD90BC901997B2E08B1A9108A108B10807
:101E7000058404C0880C991CAA1CBB1C0A94D2F7C8
:101E800086859785A089B189880E991EAA1EBB1EDA
:101E9000870C911CA11CB11CE114F10401F5F8019F
:101EA000428553856485758583899489A589B6891A
:101EB000481759076A077B0790F0CBDB882309F4A2
:101EC0002FCF8092000290920102A0920202B09263
:101ED00003028091D90281608093D90207C041E05A
:101EE000C501B401F1DB882309F41ACFF701E252EE
:101EF000FD4F8D818083F80182859385A485B5850A
:101F00000196A11DB11D82879387A487B587438958
:101F1000548965897689481759076A077B0738F419
:101F2000838B948BA58BB68B848180688483D80146
:101F300014968C9183FD03C081E090E042C0F801CB
:101F40009581992309F4ECCE87FF37C066857785A4
:101F50008089918941E0B8DB882309F4E1CED8017A
:101F60005296EC91B0E2EB9F90011124D901A2525C
:101F7000BD4F109709F4D4CEF8018581823050F41A
:101F800043895489658976895C964D935D936D93F9
:101F90007C935F97F8018789908DA18DB28DF901AF
:101FA000E252FD4F938F828FB58BA48BD80114968C
:101FB0008C9114978F7714968C934BDB8111BCCF47
:101FC000AFCE0F900F900F900F900F90DF91CF91A9
:101FD0001F910F91FF90EF90BF90AF909F908F90C7
:101FE0007F906F905F904F9008951F920F920FB661
:101FF0000F9211242F933F938F939F93AF93BF938F
:102000008091DF049091E004A091E104B091E2049A
:102010003091DE0423E0230F2D3720F40196A11D1B
:10202000B11D05C026E8230F0296A11DB11D209306
:10203000DE048093DF049093E004A093E104B09366
:10204000E2048091E3049091E404A091E504B0914E
:10205000E6040196A11DB11D8093E3049093E4046E
:10206000A093E504B093E604BF91AF919F918F9147
:102070003F912F910F900FBE0F901F901895CF9307
:10208000DF9389E392E00E94A01C81113AC0DEEC4C
:10209000D093E805C9E7C093E90568E270E080E005
:1020A00090E00E94DF1A64E670E08CE390E00E940A
:1020B000DF1A64EB70E088E790E00E94DF1AD093AB
:1020C000EA05C093EB051092180688EF8093E805A7
:1020D0001092E90544ED50E06CE070E08EE892E08B
:1020E00092D244ED50E068E470E087E992E08BD250
:1020F00044ED50E06DE770E08EE992E0DF91CF9122
:1021000082C21092EA051092EB0510921806109206
:10211000E8051092E90520EF30E044EB50E068EC70
:1021200070E080E090E0DF91CF910C944D1BEF9236
:10213000FF920F931F93CF93DF93CDB7DEB76897CE
:102140000FB6F894DEBF0FBECDBF80E992E00E94CB
:10215000A01C8111CAC086E792E00E94A01C8823BF
:10216000C9F01092EA051092EB051092180688EF5C
:102170008093E8051092E9056091CC027091CD0240
:102180004AE0CE0101960E947A1F48E250E060E0EA
:1021900070E01EC08FE792E00E94A01C6091CE020A
:1021A0007091CF02882309F11092EA051092EB0595
:1021B0001092180688EF8093E8051092E9054AE02E
:1021C000CE0101960E947A1F48E250E062E370E07F
:1021D000CE01019671D4CE0101960E94751F8FEF3A
:1021E0008093E8058093E90580C08FEF8093E80530
:1021F0008093E9051092EA051092EB0510921806FB
:102200004AE0CE010D960E947A1F6091CC02709137
:10221000CD024AE0CE0101960E947A1FBE016F5F97
:102220007F4FCE0107960E94A51F0B851C850F5F6F
:102230001F4FB801CE0107960E94081F882309F49A
:102240004FC02F8138858B859C856AEC72E0820FA8
:10225000931F0E946B3B1C870B8789899A89ED84A9
:10226000FE840B851C85E114F104A9F10097A1F00F
:10227000080F191FB801CE0107960E94081F882376
:1022800051F12F8138858B859C85B701820F931F73
:102290000E946B3B1C870B87BE01695F7F4FCE019D
:1022A00043960E94A51F48E250E060E070E0CE0136
:1022B000439602D4CE0143960E94751FCE01079625
:1022C0000E94751FCE0101960E94751FCE010D96CA
:1022D0000E94751F0AC0CE0107960E942F1FDCCFF7
:1022E000CE0107960E942F1FB8CF68960FB6F894BC
:1022F000DEBF0FBECDBFDF91CF911F910F91FF9039
:10230000EF900895682F8091F605813069F0E09193
:10231000F805F091F9052081909106069095922399
:1023200090834091F60501C041E080E00C94C01C10
:10233000682F8091F605813069F0E091F805F09101
:10234000F905808190910606982B90834091F605BF
:1023500080E002C041E081E00C94C01CCF939091DA
:10236000F605913061F0E091F805F091F9052081D2
:1023700090910606922B90834091F6050AC0C62FD5
:10238000682F41E081E00E94C01C4091F6056C2F4F
:1023900081E0CF910C94C01C682F892FDFCFCF93A1
:1023A000DF931F921F92CDB7DEB769837A83AADFCE
:1023B00069817A81872F0F900F90DF91CF91CECFD7
:1023C000CF92DF92EF92FF920F931F93CF93DF9301
:1023D0008C01F62EE72EEA01D22EC32E8091EC0559
:1023E000813089F48091F1059091F2059C01201BC8
:1023F000310B841B950BCD2DDC2DD22EC32E062F39
:10240000172FF82EE92EE091F5058E2F90E0FC01B4
:102410003297EE31F10508F0D8C08827EE55FF4F0E
:102420008F4F0C943C39612F70E082E0B8DFB80127
:1024300083E0B5DF6D2F70E084E0B1DFBE0185E0A1
:10244000AEDF6E2D70E086E0AADF6F2D7E2D87E077
:10245000A6DF6C2D70E044C07C2F6627600F711FD3
:1024600084E49DDF6F2D7E2D85E499DF6D2D7C2D1D
:1024700086E495DFB8018EE492DF6F2D7E2D8FE428
:102480008EDF82E299C0B80180E289DF6F2D7E2D58
:1024900081E285DFB80180E582DF6F2D7E2D82E548
:1024A0007EDFBE0181E57BDF6D2D7C2D83E5E8CFEE
:1024B00060E070E082E073DFB80183E070DF60E02D
:1024C00070E084E06CDFBE0185E069DF60E070E011
:1024D00086E065DF6F2D7E2D87E061DF60E070E0D4
:1024E00088E05DDF6D2D7C2D89E0CACF8AE20ADFAE
:1024F000802F1EDF8C2F1CDF8BE204DF8F2D58C056
:102500008AE200DF8E2D14DF8F2D12DF8C2D10DF7D
:102510008D2D0EDF8BE2F6DE812F0ADF802F08DFA4
:102520008D2F06DF8C2F46C07C2F6627602B712BEA
:1025300086E435DF6D2D7C2D87E431DF6F2D7E2D18
:1025400088E40DC0BE0186E32ADFB80187E327DFF8
:102550006D2D7C2D88E323DF6F2D7E2D89E31FDF1A
:10256000B80180E21CDF6F2D7E2D81E289CF6F2DB7
:102570007E2D82E014DFB80183E011DF6D2D7C2D0C
:1025800086E00DDFBE0187E00ADF8FE015C08AE23A
:10259000B9DE812FCDDE802FCBDE8D2FC9DE8C2FD3
:1025A000C7DE8BE2AFDE8E2DC3DE8F2DC1DE8C2D1C
:1025B000BFDE8D2DBDDE8CE2DF91CF911F910F919B
:1025C000FF90EF90DF90CF909DCEDF91CF911F9144
:1025D0000F91FF90EF90DF90CF9008952091EC0540
:1025E0008091F1059091F2054091ED055091EE0535
:1025F000211102C09C0102C09A01AC0160E070E0B0
:1026000080E090E0DDCE2F923F924F925F926F92EA
:102610007F928F929F92AF92BF92CF92DF92EF9272
:10262000FF920F931F93CF93DF93CDB7DEB72C9715
:102630000FB6F894DEBF0FBECDBF8C017C876B87D1
:102640001A01FC0101900020E9F731979F01281B36
:10265000390B3C832B838091EC05811132C06F30A4
:102660007742A1F46091ED057091EE056F5F7F4FA9
:10267000209114064B815C81249FC001259F900D01
:102680001124DB01A81BB90BBC87AB87EB85FC854C
:10269000EE30F74209F059C08091ED059091EE05BA
:1026A000A091EF05B091F0050196A11DB11D2091FB
:1026B00014064B815C81249F6001259FD00C11245E
:1026C00032C08B859C858F309742A1F46091F105D3
:1026D0007091F2056F5F7F4F20911406EB81FC81B2
:1026E0002E9FC0012F9F900D11249B01281B390B99
:1026F0003C872B874B855C854E30574231F5809166
:10270000F1059091F205A091F305B091F4050196C1
:10271000A11DB11D20911406EB81FC812E9F60014B
:102720002F9FD00C11240D2C000CEE08FF08BC01CB
:10273000CD016C197D098E099F0922E030E040E04F
:1027400050E00E94F5373C872B8718870F831E8245
:102750001D82ED81FE812B813C81E217F3070CF095
:1027600092C1809114062D813E81829F2001839F1A
:10277000500C11244B855C85440E551EAF81B885E5
:102780000D91B887AF83E091FC05F091FD05908134
:102790008091080680958923808320911806809176
:1027A00014069091150610E02111F7C02091EC0558
:1027B000211176C09101290F311D21503109A2014B
:1027C000480F511D41505109B101C201F9DD8091FD
:1027D0001406869586958695909115062091160685
:1027E000021B1109899FC0011124089F7001099FD4
:1027F000F00C189FF00C1124B4E0EB0EF11CA12C8E
:10280000B12C809114068695869586959091150633
:10281000899FC0011124A816B90688F5E091120617
:10282000F0911306EE0DFF1DE491F7E0CF2ED12CB1
:102830000E2F10E0C8010C2C02C0959587950A94C4
:10284000E2F780FF08C08091E80590E0982F882784
:102850002091E90507C08091EA0590E0982F88272C
:102860002091EB05822B98DDE1E0CE1AD10810F71C
:102870002FEFE21AF20A3FEFA31AB30AC2CFE09198
:10288000FC05F091FD05908180910806892B8083DD
:10289000A5DE4D815E814F5F5F4F5E834D8359CFD3
:1028A00086958695869520911606021B1109899FAB
:1028B000C0011124089F6001099FD00C189FD00C03
:1028C000112454E0C50ED11CA12CB12C209114066A
:1028D000622F66956695669580911506689FC00182
:1028E0001124A816B90658F670E0C5010E942839CF
:1028F000620D731DA201420F511D415051099B01F0
:10290000C2015EDDE0901406E694E694E694F12CB4
:10291000460181E0881A9108E114F10499F1E091EF
:102920001206F0911306C4018E0D9F1DE80FF91FCA
:10293000E491612C712C0E2F10E0C801062C02C00E
:10294000959587950A94E2F780FF08C08091E80585
:1029500090E0982F88272091E90507C08091EA052B
:1029600090E0982F88272091EB05822B15DD9FEFB3
:10297000691A790AA8E06A167104F9F6B1E0EB1A4F
:10298000F108CACF8091140686958695869590E0C9
:10299000C80ED91EA80EB91E99CF86958695869524
:1029A00020911606021B1109899FC0011124089F5E
:1029B0003001099F700C189F700C1124E4E06E0E1A
:1029C000711C81018091150690E09801221933094C
:1029D0002817390708F053CF812C912CC12CD12C0A
:1029E000D8011196BA87A987809114068695869595
:1029F000869590E0C816D9060CF040C0E09112060A
:102A0000F0911306C601860D971DE80FF91FE4919A
:102A10007201E80CF91C37E0A32EB12C2E2F30E008
:102A20003A83298389819A810A2C02C095958795DA
:102A30000A94E2F780FF11C029853A85A7014F5F0C
:102A40005F4FB801C701BCDC8091E80590E0982F8A
:102A500088272091E905822B9FDC31E0A31AB10879
:102A60004FEFE41AF40A5FEFA516B506D9F68FEF1B
:102A7000C81AD80A98E0890E911CB6CF680E791E44
:102A80000F5F1F4F9FCF2C960FB6F894DEBF0FBE7F
:102A9000CDBFDF91CF911F910F91FF90EF90DF900D
:102AA000CF90BF90AF909F908F907F906F905F90EE
:102AB0004F903F902F9008958F929F92AF92BF9228
:102AC000CF92DF92EF92FF920F931F93CF93DF93FA
:102AD000CDB7DEB75B014A01CDB6DEB6FC0104819D
:102AE000158198012F5F3F4F4DB75EB7421B530BC7
:102AF0000FB6F8945EBF0FBE4DBFEDB7FEB731966F
:102B00007F01232B81F0309771F00115110551F0F1
:102B1000FC0160817181A801C7010E94723BF7012D
:102B2000E00FF11F1082A401B501C7016CDD0FB6E3
:102B3000F894DEBE0FBECDBEDF91CF911F910F91F5
:102B4000FF90EF90DF90CF90BF90AF909F908F90CD
:102B500008958F929F92AF92BF92CF92DF92EF92A1
:102B6000FF926A017B0182B9CB01BA0120E130E01A
:102B700040E050E00E94F53749015A0180E090E0C2
:102B8000DC0188159905AA05BB050CF064C2E0912B
:102B9000FA05F091FB05308120910706209523234B
:102BA0002083E091FA05F091FB0530812091070622
:102BB000232B2083E091FA05F091FB0530812091D1
:102BC0000706209523232083E091FA05F091FB0569
:102BD000308120910706232B2083E091FA05F091A4
:102BE000FB05308120910706209523232083E09167
:102BF000FA05F091FB05308120910706232B2083F5
:102C0000E091FA05F091FB053081209107062095AF
:102C100023232083E091FA05F091FB053081209178
:102C20000706232B2083E091FA05F091FB05308104
:102C300020910706209523232083E091FA05F09147
:102C4000FB05308120910706232B2083E091FA05B4
:102C5000F091FB05308120910706209523232083E6
:102C6000E091FA05F091FB05308120910706232BB6
:102C70002083E091FA05F091FB0530812091070651
:102C8000209523232083E091FA05F091FB05308104
:102C900020910706232B2083E091FA05F091FB0594
:102CA000308120910706209523232083E091FA05A7
:102CB000F091FB05308120910706232B2083E091C2
:102CC000FA05F091FB05308120910706209523231A
:102CD0002083E091FA05F091FB05308120910706F1
:102CE000232B2083E091FA05F091FB0530812091A0
:102CF0000706209523232083E091FA05F091FB0538
:102D0000308120910706232B2083E091FA05F09172
:102D1000FB05308120910706209523232083E09135
:102D2000FA05F091FB05308120910706232B2083C3
:102D3000E091FA05F091FB0530812091070620957E
:102D400023232083E091FA05F091FB053081209147
:102D50000706232B2083E091FA05F091FB053081D3
:102D600020910706209523232083E091FA05F09116
:102D7000FB05308120910706232B2083E091FA0583
:102D8000F091FB05308120910706209523232083B5
:102D9000E091FA05F091FB05308120910706232B85
:102DA0002083E091FA05F091FB0530812091070620
:102DB000209523232083E091FA05F091FB053081D3
:102DC00020910706232B2083E091FA05F091FB0563
:102DD000308120910706209523232083E091FA0576
:102DE000F091FB05308120910706232B2083E09191
:102DF000FA05F091FB0530812091070620952323E9
:102E00002083E091FA05F091FB05308120910706BF
:102E1000232B2083E091FA05F091FB05308120916E
:102E20000706209523232083E091FA05F091FB0506
:102E3000308120910706232B2083E091FA05F09141
:102E4000FB05308120910706209523232083E09104
:102E5000FA05F091FB05308120910706232B208392
:102E6000E091FA05F091FB0530812091070620954D
:102E700023232083E091FA05F091FB053081209116
:102E80000706232B2083E091FA05F091FB053081A2
:102E900020910706209523232083E091FA05F091E5
:102EA000FB05308120910706232B2083E091FA0552
:102EB000F091FB0530812091070620952323208384
:102EC000E091FA05F091FB05308120910706232B54
:102ED0002083E091FA05F091FB05308120910706EF
:102EE000209523232083E091FA05F091FB053081A2
:102EF00020910706232B2083E091FA05F091FB0532
:102F0000308120910706209523232083E091FA0544
:102F1000F091FB05308120910706232B2083E0915F
:102F2000FA05F091FB0530812091070620952323B7
:102F30002083E091FA05F091FB053081209107068E
:102F4000232B2083E091FA05F091FB05308120913D
:102F50000706209523232083E091FA05F091FB05D5
:102F6000308120910706232B2083E091FA05F09110
:102F7000FB05308120910706209523232083E091D3
:102F8000FA05F091FB05308120910706232B208361
:102F9000E091FA05F091FB0530812091070620951C
:102FA00023232083E091FA05F091FB0530812091E5
:102FB0000706232B2083E091FA05F091FB05308171
:102FC00020910706209523232083E091FA05F091B4
:102FD000FB05308120910706232B2083E091FA0521
:102FE000F091FB0530812091070620952323208353
:102FF000E091FA05F091FB05308120910706232B23
:103000002083E091FA05F091FB054081309107069D
:10301000309534233083E091FA05F091FB0520814F
:1030200030910706322B3083E091FA05F091FB05D1
:10303000408130910706309534233083E091FA05C2
:10304000F091FB05208130910706322B30830196E9
:10305000A11DB11D96CDD701C6018F709927AA2752
:10306000BB27892B8A2B8B2BE1F1C701B60120E10D
:1030700030E040E050E00E94F537C12CD12C7601C1
:103080006C157D058E059F0564F1E091FA05F091C0
:10309000FB05308120910706209523232083E091B2
:1030A000FA05F091FB05308120910706232B208340
:1030B000E091FA05F091FB053081209107062095FB
:1030C00023232083E091FA05F091FB0530812091C4
:1030D0000706232B20832FEFC21AD20AE20AF20A34
:1030E000CFCFFF90EF90DF90CF90BF90AF909F90A9
:1030F0008F9008958F929F92AF92BF92CF92DF925E
:10310000EF92FF9269017A0182B968B9CA01B901E7
:1031100020E130E040E050E00E94F53749015A01DB
:1031200080E090E0DC0188159905AA05BB050CF04C
:1031300034C1E091FA05F091FB053081209107063A
:10314000209523232083E091FA05F091FB0530813F
:1031500020910706232B2083E091FA05F091FB05CF
:10316000308120910706209523232083E091FA05E2
:10317000F091FB05308120910706232B2083E091FD
:10318000FA05F091FB053081209107062095232355
:103190002083E091FA05F091FB053081209107062C
:1031A000232B2083E091FA05F091FB0530812091DB
:1031B0000706209523232083E091FA05F091FB0573
:1031C000308120910706232B2083E091FA05F091AE
:1031D000FB05308120910706209523232083E09171
:1031E000FA05F091FB05308120910706232B2083FF
:1031F000E091FA05F091FB053081209107062095BA
:1032000023232083E091FA05F091FB053081209182
:103210000706232B2083E091FA05F091FB0530810E
:1032200020910706209523232083E091FA05F09151
:10323000FB05308120910706232B2083E091FA05BE
:10324000F091FB05308120910706209523232083F0
:10325000E091FA05F091FB05308120910706232BC0
:103260002083E091FA05F091FB053081209107065B
:10327000209523232083E091FA05F091FB0530810E
:1032800020910706232B2083E091FA05F091FB059E
:10329000308120910706209523232083E091FA05B1
:1032A000F091FB05308120910706232B2083E091CC
:1032B000FA05F091FB053081209107062095232324
:1032C0002083E091FA05F091FB05308120910706FB
:1032D000232B2083E091FA05F091FB0530812091AA
:1032E0000706209523232083E091FA05F091FB0542
:1032F000308120910706232B2083E091FA05F0917D
:10330000FB05308120910706209523232083E0913F
:10331000FA05F091FB05308120910706232B2083CD
:10332000E091FA05F091FB05308120910706209588
:1033300023232083E091FA05F091FB053081209151
:103340000706232B2083E091FA05F091FB054081CD
:1033500030910706309534233083E091FA05F091DF
:10336000FB05208130910706322B3083E091FA056E
:10337000F091FB054081309107063095342330836E
:10338000E091FA05F091FB05208130910706322B80
:1033900030830196A11DB11DC6CED701C6018F7025
:1033A0009927AA27BB27892B8A2B8B2B49F1C70189
:1033B000B60120E130E040E050E00E94F537C12C3A
:1033C000D12C76016C157D058E059F05CCF0E09122
:1033D000FA05F091FB053081209107062095232303
:1033E0002083E091FA05F091FB05308120910706DA
:1033F000232B20832FEFC21AD20AE20AF20AE2CF6D
:10340000FF90EF90DF90CF90BF90AF909F908F9004
:1034100008950F931F93CF93DF93EA0157FF05C0E1
:10342000840F951FD195C195D109E091FC05F091CC
:10343000FD05408130910806309534233083AC017E
:103440004C0F5D1F9B010E94E0118091F6058031B9
:10345000A9F4E091F805F091F905908180910606B4
:10346000892B80839E01DD0F440B550B6091E9058C
:1034700070E08091E80590E03DDE27C08830C1F41F
:103480009091E8058091E905981312C0E091F80544
:10349000F091F905908180910606892B8083AE0119
:1034A000DD0F660B770B8091E80590E052DB0DC0D5
:1034B00000E010E06091E9058091E8050E94AE11FE
:1034C0000F5F1F4FC017D107ACF7E091FC05F091DB
:1034D000FD05908180910806892B8083DF91CF9133
:1034E0001F910F917BC80F931F93CF93DF93FC0124
:1034F000EA0157FF05C0640F751FD195C195D10929
:10350000A091FC05B091FD052C9190910806909535
:1035100092239C939B012C0F3D1FAF01CF010E9472
:10352000E0118091F6058031A9F4E091F805F09161
:10353000F905908180910606892B80839E01DD0F1D
:10354000440B550B6091E90570E08091E80590E02F
:10355000D1DD27C08830C1F49091E8058091E9055C
:10356000981312C0E091F805F091F90590818091CF
:103570000606892B8083AE01DD0F660B770B8091E9
:10358000E80590E0E6DA0DC000E010E06091E905A2
:103590008091E8050E94AE110F5F1F4FC017D10741
:1035A000ACF7E091FC05F091FD0590818091080653
:1035B000892B8083DF91CF911F910F910FC86F925C
:1035C0007F928F929F92AF92BF92CF92DF92EF92B3
:1035D000FF920F931F93CF93DF938C0168177907A6
:1035E0002CF4982F812F8B01692F782FEB01C01BB2
:1035F000D10BC530D1050CF441C0E12CF12C3E01BA
:1036000084E0681A7108680182E0C80ED11C5E016E
:1036100082E0A81AB10848018FEF881A980AE114CD
:10362000F10471F081E0E816F104A1F4A50169EC60
:1036300070E0C401EEDEA5016FEE70E0C40116C0BB
:10364000A30168EC70E0C601E4DEA30160EF70E066
:10365000C6010CC0AE01B70168537F4FC801D9DE67
:1036600060EF70E06E197F09AE01C801D2DE8FEF06
:10367000E81AF80A85E1E816F10489F6DF91CF919E
:103680001F910F91FF90EF90DF90CF90BF90AF9080
:103690009F908F907F906F9008958F929F92AF929E
:1036A000BF92CF92DF92EF92FF920F931F93CF932F
:1036B000DF937C016B01EA018901481759072CF45B
:1036C000982F8F2D7A01C92FD82F0C151D052CF49A
:1036D0009C2D8D2D6801092F182F8091F6058031C2
:1036E00009F03FC0E091FC05F091FD0590818091CB
:1036F00008068095892380839801AE01B601C70131
:103700000E94E011E091F805F091F9059081809117
:103710000606892B8083CE19DF09CE01DD0FAA0BA7
:10372000BB0B9C01AD012F5F3F4F4F4F5F4FB80167
:103730006C197D09CB01770FAA0BBB0BBC01CD0126
:103740006F5F7F4F8F4F9F4F0E94C4379B01AC012B
:10375000E091E9056E2F70E08091E80590E0CADC09
:1037600043C0883009F04AC09091E8058091E9058E
:10377000981344C0E091FC05F091FD059081809183
:1037800008068095892380839801AE01B601C701A0
:103790000E94E011E091F805F091F9059081809187
:1037A0000606892B8083CE19DF09CE01DD0FAA0B17
:1037B000BB0B9C01AD012F5F3F4F4F4F5F4FB801D7
:1037C0006C197D09CB01770FAA0BBB0BBC01CD0196
:1037D0006F5F7F4F8F4F9F4F0E94C437AB01BC017B
:1037E0008091E80590E0B5D9E091FC05F091FD05E8
:1037F000908180910806892B808345C08091EC05DB
:10380000882379F05E01AE18BF08B7FE03C08FEFC2
:10381000A81AB80AB594A794812C912C0C191D09EB
:103820001FC0C8018C199D0997FD01964C01959404
:103830008794A12CB12CCE19DF098A149B041CF1AA
:10384000B5016C0D7D1DAE01C701E3DDB8016A193C
:103850007B09AE01C701DDDD8FEFA81AB80AEDCFF5
:10386000A814B90484F0A801B601C4018E0D9F1DEF
:103870003ADEA801B601CE018819990934DE8FEF2E
:10388000881A980AEDCFDF91CF911F910F91FF9089
:10389000EF90DF90CF90BF90AF909F908F90089562
:1038A000E7EEF4E0A089B18982E08C93A485B58528
:1038B0001C92A685B7858FEC8C93108EA489B58950
:1038C00086E08C93A289B3898C9180618C93A289C4
:1038D000B3898C9188608C93A289B3898C9180681C
:1038E0008C930288F389E02D80818F7D80830895F9
:1038F000CF92DF92EF92FF92CF93DF936B017C0127
:10390000E091E704F091E8040190F081E02D6DE290
:1039100087EE94E01995EC0144275527BA014C191C
:103920005D096E097F092AE087EE94E061D38C0F70
:103930009D1FDF91CF91FF90EF90DF90CF90089582
:10394000FC018091E6059091E705892B21F421E0A7
:10395000309749F413C08091E2059091E3053097C8
:1039600031F421E0FC018081882341F006C0BF01D1
:103970000E94623B21E0892B09F020E0822F08950C
:10398000483009F448C118F4413041F008954031FD
:1039900009F457C1413109F468C108959091F705C0
:1039A000943019F5E0910006F091010690910A0615
:1039B000813019F48081982B03C0808190959823E1
:1039C0009083E0910206F0910306908180910B06AE
:1039D000809589238083E0910206F091030690810F
:1039E00080910B06892B80830FC0E091F805F09140
:1039F000F90590910606813019F48081982B03C057
:103A00008081909598239083E0910006F0910106C3
:103A100080910A06908167FF02C0892B02C08095C1
:103A200089238083E0910206F091030690818091C2
:103A30000B06809589238083E0910206F0910306AE
:103A4000908180910B06892B8083E0910006F09194
:103A5000010680910A06908166FF02C0892B02C090
:103A6000809589238083E0910206F091030690817E
:103A700080910B06809589238083E0910206F09166
:103A80000306908180910B06892B8083E0910006CC
:103A9000F091010680910A06908165FF02C0892B92
:103AA00002C0809589238083E0910206F09103068D
:103AB000908180910B06809589238083E091020696
:103AC000F0910306908180910B06892B8083E09111
:103AD0000006F091010680910A06908164FF02C001
:103AE000892B02C0809589238083E0910206F091A2
:103AF0000306908180910B06809589238083E09155
:103B00000206F0910306908180910B06892B808339
:103B1000E0910006F091010680910A06908163FF12
:103B200002C0892B02C0809589238083E091020620
:103B3000F0910306908180910B0680958923808304
:103B4000E0910206F0910306908180910B06892B8B
:103B50008083E0910006F091010680910A06908131
:103B600062FF02C0892B02C0809589238083E09187
:103B70000206F0910306908180910B0680958923BF
:103B80008083E0910206F0910306908180910B06FC
:103B9000892B8083E0910006F091010680910A064E
:103BA000908161FF02C0892B02C0809589238083A8
:103BB000E0910206F0910306908180910B068095BA
:103BC00089238083E0910206F09103069081809121
:103BD0000B06892B8083E0910006F091010680910D
:103BE0000A06908160FF02C0892B02C0809589235C
:103BF0008083E0910206F0910306908180910B068C
:103C0000809589238083E0910206F09103069081DC
:103C100080910B06CFC082B9E091FA05F091FB05C7
:103C2000908180910706809589238083E091FA0531
:103C3000F091FB05908180910706892B808362B902
:103C400002C082B968B9E091FA05F091FB05908154
:103C500080910706809589238083E091FA05F09191
:103C6000FB05908180910706A5C0A59824B3982FE5
:103C70009071990F922B94BB90910201977E909333
:103C8000020190910201282F082E000C330B207C9A
:103C9000332743E0359527954A95E1F7292B209363
:103CA00002019EB1947C9EB92EB1382F3C70330F27
:103CB000330F982F9370390F8072082E000C990BD8
:103CC0009595879595958795830F822B8EB9E09171
:103CD0000406F0910506908180910C068095892359
:103CE0008083E0910406F0910506908180910C0696
:103CF000892B8083E0910406F091050690818091E4
:103D00000C06809589238083E091FC05F091FD05E8
:103D1000908180910806809589238083A59894B32B
:103D2000862F8071880F892B84BB80910201877E4A
:103D30008093020120910201862F062E000C990B20
:103D4000807C992773E0959587957A95E1F7822B8A
:103D5000809302018EB1847C8EB98EB1962F9C70B7
:103D6000990F990F262F2370920F6072062E000C68
:103D7000770B7595679575956795690F682B6EB983
:103D8000E091FA05F091FB059081809107068095FE
:103D900089238083E091FA05F091FB059081809161
:103DA0000706892B8083E091FC05F091FD05908149
:103DB00080910806892B80830895CF92DF92EF923D
:103DC000FF920F931F93CF93DF936C017A018B01C6
:103DD000C0E0D0E0CE15DF0589F0D8016D918D01EE
:103DE000D601ED91FC910190F081E02DC60119956D
:103DF000892B11F47E0102C02196ECCFC701DF911F
:103E0000CF911F910F91FF90EF90DF90CF90089589
:103E10000F931F93CF93DF93EC01888199810097D3
:103E200029F02A813B812617370788F48B016F5FC1
:103E30007F4F0E94713A009761F0998388831B83BA
:103E40000A832C813D81232B11F4FC01108281E037
:103E500001C080E0DF91CF911F910F910895CF9322
:103E6000DF93EC0188819981009711F00E94D93984
:103E7000198218821D821C821B821A82DF91CF91C7
:103E80000895EF92FF920F931F93CF93DF93EC016E
:103E90007B018A01BA01BCDF811103C0CE01DFDFE3
:103EA00007C01D830C83B701888199810E946B3BF9
:103EB000CE01DF91CF911F910F91FF90EF90089568
:103EC000CF93DF93EC016115710551F0FB01019077
:103ED0000020E9F73197AF01461B570BD2DF01C035
:103EE000BEDFCE01DF91CF910895FC0180819181E9
:103EF0000C94D9390F931F93CF93DF93CDB7DEB7CF
:103F000062970FB6F894DEBF0FBECDBF8C01CB0118
:103F1000F80111821082138212821582148250E0FD
:103F2000BE016F5F7F4F0E949636BE016F5F7F4F6D
:103F3000C801C6DF62960FB6F894DEBF0FBECDBFD4
:103F4000DF91CF911F910F910895FB01DC01119634
:103F50001C921E9213961C921E92129715961C92FA
:103F60001E9214978617970741F060817181611541
:103F7000710519F04481558184CF0895FC011182A7
:103F8000108213821282158214826115710549F024
:103F9000FB0101900020E9F73197AF01461B570B59
:103FA00070CF08956115710579F0FB010190002033
:103FB000E9F73197AF01461B570BDC01ED91FC91FE
:103FC0000280F381E02D199480E090E00895CF9372
:103FD000DF93BC0187EE94E0E5DFEC0167E372E07C
:103FE00087EE94E0DFDF8C0F9D1FDF91CF91089566
:103FF0004F925F926F927F92EF92FF920F931F9377
:10400000CF93DF93CDB7DEB7A1970FB6F894DEBF9D
:104010000FBECDBF7C01FA01CB0119A2223008F4FA
:104020002AE08E010F5D1F4F422E512C612C712C06
:10403000BF01A30192010E94D337F901CA010150C7
:1040400011096A3014F4605D01C0695CD8016C9399
:10405000232B242B252B61F7B801C701A3DFA196E1
:104060000FB6F894DEBF0FBECDBFDF91CF911F9189
:104070000F91FF90EF907F906F905F904F90089519
:10408000CF93DF93CDB7DEB728970FB6F894DEBF96
:104090000FBECDBF789484B5826084BD84B5816045
:1040A00084BD85B5826085BD85B5816085BD809103
:1040B0006E00816080936E0010928100809181007B
:1040C0008260809381008091810081608093810073
:1040D000809180008160809380008091B100846035
:1040E0008093B1008091B00081608093B000809196
:1040F0009100826080939100809191008160809313
:104100009100809190008160809390008091A10047
:1041100082608093A1008091A10081608093A100C2
:104120008091A00081608093A00080912101826035
:1041300080932101809121018160809321018091F0
:10414000200181608093200180917A0084608093B7
:104150007A0080917A00826080937A0080917A0060
:10416000816080937A0080917A00806880937A00E1
:104170001092C1001092C8051092C9051092CA058C
:104180001092CB0510928605109287051092880533
:104190001092890568EB7BE080E090E00E94FC09CA
:1041A00087EE94E09093C7058093C60579DB0E9463
:1041B000340A6093860570938705809388059093F1
:1041C000890568E272E08091C6059091C705EADE34
:1041D0006AE070E080E090E00E94FC0911E010933A
:1041E0009A055EDB80E190E09093CD028093CC0253
:1041F00085E290E09093CF028093CE026AE372E072
:1042000089E196E05DDE10921F061092250610925D
:10421000240685E090E0909329068093280682E0AA
:1042200090E090932106809320068DE090E090939B
:10423000230680932206909327068093260664E443
:1042400072E08EE097E03CDE109214076EE472E0BC
:1042500083E098E035DE109209081093EC0561E0E8
:1042600080910D060E94A10961E080910E060E94D6
:10427000A10961E080910F060E94A10980911006BA
:104280008F3F19F061E00E94A1098091F60581310C
:1042900031F0813049F48091F705853029F461E0EF
:1042A000809111060E94A1098091F605813079F074
:1042B000813131F09FEF91B9803149F497B907C04E
:1042C00088E18093010180E283BB8BE38DB9E091AB
:1042D000FE05F091FF05908180910906892B80836E
:1042E00065E070E080E090E00E94FC09E091FE054E
:1042F000F091FF0590818091090680958923808344
:104300006FE070E080E090E00E94FC09E091FE0523
:10431000F091FF05908180910906892B80836FE0E1
:1043200070E080E090E00E94FC09E091FC05F091D3
:10433000FD05908180910806809589238083E09116
:10434000F5058E2F90E0FC013297EE31F10510F06B
:104350000C946D318827EE58FF4F8F4F0C943C39E9
:1043600061E070E080E00E94CF1164EA78EA83E0C7
:104370000E94CF1160E070E08CE00E94CF116CE0F1
:1043800078E08DE00E94CF1160E07BE28EE00E9439
:10439000CF1167EB70E08EE10E94CF116FE37BE2FB
:1043A00081E00E94CF1160E076E082E00E94CF11B0
:1043B00060E070E080E10E94CF1160E770E681E18B
:1043C0000E94CF1160E070E085E00E94CF1160E0B4
:1043D00070E086E00E94CF116CE17FEE86E10E94E2
:1043E000CF1163E070E087E10E94CF1163E372E0D8
:1043F00087E00E94CF1160E070E08BE00E94CF1157
:1044000060E070E08FE00E94CF1160E070E081E436
:104410000E94CF1160E070E082E40E94CF1160E062
:1044200070E088E40E94CF116FE371E089E40E949C
:10443000CF1160E070E08AE40E94CF1160E070E08C
:104440008BE40E94CF1160E07FEE84E40E94CF11E4
:1044500060E070E085E40E94CF116FE371E086E4D4
:104460000E94CF1167E077E080E30E94CF1164E003
:1044700072E081E30E94CF1164E072E082E30E9467
:10448000CF1162E075E083E30E94CF1167E075E031
:1044900084E30E94CF1164E072E085E30E94CF11B3
:1044A00064E072E086E30E94CF1162E075E087E38A
:1044B0000E94CF1162E073E08AE30E94CF1162E0B4
:1044C00073E08BE30E94CF1160E070E083E20E9412
:1044D000CF1160E070E084E20E94CF1160E070E8EC
:1044E00085E20E94CF1160E070E08FE40E94CF115E
:1044F00060E070E08EE40C94812C60EF78E785EE4C
:104500000E94CF1160E071E081E00E94CF1160E075
:1045100072E082E00E94CF1160E370E183E00E94CC
:10452000CF1160E070E084E00E94CF1167E072E09C
:1045300088E00E94CF1160E070E089E00E94CF1116
:1045400060E070E08AE00E94CF1160E070E08CE0F3
:104550000E94CF1160E070E08DE00E94CF1160E01A
:1045600070E08FE00E94CF1160E070E080E10E9477
:10457000CF1167E070E081E10E94CF1160E070E050
:1045800082E10E94CF1160E070E083E10E94CF11D0
:1045900061E070E087E00E94CF1168EC70E080E09D
:1045A00090E00E94FC0960E976E180E10E94CF1171
:1045B00067E272E081E10E94CF1162E370E080E087
:1045C00090E00E94FC096DE070E082E10E94CF1152
:1045D00062E370E080E090E00E94FC0960E072E13C
:1045E00083E10E94CF116AE070E089E20E94CF115E
:1045F0006DE070E07DC060EF78E785EE0E94CF113E
:1046000060E071E081E00E94CF1160E077E082E03D
:104610000E94CF1160E370E183E00E94CF1160E05F
:1046200070E084E00E94CF1167E072E088E00E94B1
:10463000CF1160E070E089E00E94CF1160E070E08F
:104640008AE00E94CF1160E070E08CE00E94CF1100
:1046500060E070E08DE00E94CF1160E070E08FE0DC
:104660000E94CF1160E070E080E10E94CF1167E00E
:1046700070E081E10E94CF1160E070E082E10E9471
:10468000CF1160E070E083E10E94CF1161E070E043
:1046900087E00E94CF1168EC70E080E090E00E941B
:1046A000FC0960E975E180E10E94CF1167E272E0E8
:1046B00081E10E94CF1162E370E080E090E00E940F
:1046C000FC096CE970E082E10E94CF1162E370E0C6
:1046D00080E090E00E94FC0960E079E183E10E94C3
:1046E000CF1163E270E089E20E94CF116EE070E0CA
:1046F0008BE20E94CF1162E370E080E090E00E94C4
:10470000FC0960E070E080E20E94CF1160E070E0A0
:1047100081E20E94CF1160E070E080E30E94CF113F
:1047200064E074E081E30E94CF1163E070E082E313
:104730000E94CF1165E074E085E30E94CF1168E02C
:1047400078E086E30E94CF1167E074E087E30E947F
:10475000CF1163E073E088E30E94CF1167E077E058
:1047600089E30E94CF1164E075E08CE30E94CF11D1
:1047700068E078E08DE30E94CF1160E070E080E5B2
:104780000E94CF116FEE70E081E50E94CF1160E0D2
:1047900070E082E50E94CF116FE371E083E50E9433
:1047A000CF1160E077EA80E60E94CF1161E070E00F
:1047B00081E60E94CF1160E070E08AE60E94CF118E
:1047C00060E070E080E80E94CF1160E070E081E876
:1047D0000E94CF1160E070E082E80E94CF1160E09B
:1047E00070E083E80E94CF1160E070E084E80E94EE
:1047F000CF1160E070E085E80E94CF1160E170E0C9
:1048000080E90E94CF1160E070E082E90E94CF1140
:1048100063E371E087E00E94CF110C946D3164E88E
:1048200070E086E20E94CF1168E270E080E090E0E4
:104830000E94FC0968EB70E086E20E94CF1168E2FA
:1048400070E080E090E00E94FC096CEB70E086E292
:104850000E94CF1164E170E080E090E00E94FC09CA
:1048600060E070E080E60E94CF1166E070E081E6D3
:104870000E94CF1160E070E082E60E94CF1168ECE8
:1048800070E083E60E94CF1164E170E080E090E088
:104890000E94FC0960E770E083E70E94CF1160E0AE
:1048A00070E080E40E94CF1160E470E081E40E9437
:1048B000CF1165E470E082E40E94CF1161E070E006
:1048C00083E40E94CF1160E670E084E40E94CF117F
:1048D00065E070E085E40E94CF116CE070E086E452
:1048E0000E94CF1161ED70E087E40E94CF1165E076
:1048F00070E088E40E94CF1165E770E080E50E94D7
:10490000CF1161E070E081E50E94CF1167E670E0B1
:1049100082E50E94CF1164E170E083E50E94CF112F
:1049200062EF70E084E50E94CF1167E070E085E5FA
:104930000E94CF1163E070E086E50E94CF1169E428
:1049400070E087E50E94CF1164E170E080E090E0C4
:104950000E94FC0963E070E08FE10E94CF1160E0EB
:1049600070E080E20E94CF1164E270E084E20E9475
:10497000CF1164E370E085E20E94CF116FE270E036
:1049800083E20E94CF1164E170E080E090E00E9439
:10499000FC0964E470E088E10E94CF1161E070E0FE
:1049A00081E20E94CF1160E070E081E00E94CF11AF
:1049B00063E070E08CE10E94CF1166E070E089E175
:1049C0000E94CF1164E170E080E090E00E94FC0959
:1049D00064E870E086E20E94CF1168E270E080E057
:1049E00090E00E94FC0968EB70E086E20E94CF1123
:1049F00068E270E080E090E00E94FC096CEB70E0FF
:104A000086E20E94CF1164E170E080E090E00E94B5
:104A1000FC0960E070E082E00E94CF1160E070E08D
:104A200083E00E94CF1160E070E084E00E94CF112B
:104A30006FEA70E085E00E94CF1160E070E086E0F0
:104A40000E94CF1160E070E087E00E94CF1160E02B
:104A500070E088E00E94CF116BED70E089E00E9469
:104A6000CF1164E170E080E090E00E94FC0968E012
:104A700070E086E10E94CF1165E070E087E10E945E
:104A8000CF1181E20E94821182E20E9482110C9475
:104A90006D3181E10E9482116CE070E080E090E075
:104AA0000E94FC0981EB0E94821181E00E94981112
:104AB0008CE20E9498118DE20E94981182EB0E9474
:104AC000821181E00E9498118CE20E9498118DE27F
:104AD0000E94981183EB0E94821181E00E9498113C
:104AE0008CE20E9498118DE20E94981181E00E9450
:104AF00098118CE20E9498118DE20E94981184EB2B
:104B00000E94821187E00E94981180EC0E9482111D
:104B100082EA0E94981182E00E94981184E80E9423
:104B2000981181EC0E94821185EC0E94981182EC10
:104B30000E9482118AE00E94981180E00E949811E0
:104B400083EC0E9482118AE80E9498118AE20E94F6
:104B5000981184EC0E9482118AE80E9498118EEECE
:104B60000E94981185EC0E9482118EE00E9498119B
:104B700086E30E94821188EC73C081E10E94821159
:104B80006CE070E080E090E00E94FC0981EB0E9404
:104B9000821181E00E9498118CE20E9498118DE2AE
:104BA0000E94981182EB0E94821181E00E9498116C
:104BB0008CE20E9498118DE20E94981183EB0E9472
:104BC000821181E00E9498118CE20E9498118DE27E
:104BD0000E94981181E00E9498118CE20E94981125
:104BE0008DE20E94981184EB0E94821187E00E945E
:104BF000981180EC0E94821182EA0E94981182E052
:104C00000E94981184E80E94981181EC0E94821100
:104C100085EC0E94981182EC0E9482118AE00E9429
:104C2000981180E00E94981183EC0E9482118AE81A
:104C30000E9498118AE20E94981184EC0E948211CD
:104C40008AE80E9498118EEE0E94981185EC0E94CD
:104C500082118EE00E94981186E30E94821180ECFE
:104C60000E94981180EE0E9482118FE00E9498119C
:104C70008AE10E9498118FE00E94981188E10E94B9
:104C800098118FE20E94981188E20E94981180E2A8
:104C90000E94981182E20E9498118FE10E9498115F
:104CA0008BE10E94981183E20E94981187E30E9491
:104CB000981180E00E94981187E00E94981182E08C
:104CC0000E94981180E10E94981181EE0E94821149
:104CD0008FE00E9498118BE10E9498118FE00E9452
:104CE000981187E10E94981183E30E9498118CE249
:104CF0000E94981189E20E9498118EE20E949811F8
:104D000080E30E94981180E30E94981189E30E9439
:104D100098118FE30E94981180E00E94981187E01B
:104D20000E94981183E00E94981180E10E949811DE
:104D30008AE20E94821180E00E94981180E00E9425
:104D4000981180E00E9498118FE70E9498118BE2E1
:104D50000E94821180E00E94981180E00E949811C8
:104D600080E00E9498118FE90E94981180EF0E94C4
:104D7000821181E00E94981186EF0E94821180E0EA
:104D80009CC681E00E94821185E20E94821180E42B
:104D90000E94981181E10E9482116AE070E080E037
:104DA00090E00E94FC0980E20E94821188E30E9448
:104DB000821189E20E94821183E10E94821186E3BE
:104DC0000E94821180E60E9498118AE30E9482115B
:104DD00085E00E9498118AE20E94821180E00E9480
:104DE00098118FE70E94981184EB0E94821183E052
:104DF0000E94981188E00E9498118BE00E949811FF
:104E00008EE00E9498118AEB0E94821187E00E9436
:104E100098118DE00E9498118BE20E94821180E02F
:104E20000E9498118FE7FEC183E80E94821182E000
:104E30000E94981185E80E94821183E00E949811D7
:104E40008BE80E94821181E00E9498118CE80E94F8
:104E5000821183E90E94981181E90E94821181E008
:104E60000E94981183E80E94821180E00E949811AC
:104E70008EE30E94821180EB0E9498118FE30E94C2
:104E8000821183E00E94981180E40E94821180E1E7
:104E90000E94981181E40E94821186E50E94981177
:104EA00082E40E94821183E10E94981183E40E94AF
:104EB000821186E40E94981184E40E94821183E2A8
:104EC0000E94981185E40E94821186E70E94981141
:104ED00086E40E94821180E00E94981187E40E947B
:104EE00082118EE50E94981188E40E9482118FE45D
:104EF0000E94981189E40E94821180E40E94981116
:104F000087E10E94821181E90E9498118BE20E9440
:104F1000821189EF0E9498116AE070E080E090E0D1
:104F20000E94FC098BE10E94821184E10E94981189
:104F30008AE10E94821181E10E9498118CE10E9415
:104F4000821186E00E9498118FE10E94821182E412
:104F50000E94981164E170E080E090E00E94FC09FA
:104F600089E10E9482118AE00E94981189E10E94E1
:104F700082118AE10E94981168E270E080E090E07E
:104F80000E94FC0989E10E94821182E10E9498112D
:104F900068E270E080E090E00E94FC098EE10E94EF
:104FA000821187E20E94981164E670E080E090E050
:104FB0000E94FC0984E20E94821180E60E949811FE
:104FC0008DE30E94821180E40E94981184E30E9484
:104FD000821188E30E94981185E30E94821188E380
:104FE0000E94981184E20E94821188E30E94981125
:104FF00068E270E080E090E00E94FC0984E20E9498
:1050000082118CE30E94981186E10E9482118CE14A
:105010000E94981181E00E94821186E00E949811FE
:1050200085E50E94821180E00E94981182E00E9432
:10503000821180E00E94981183E00E94821180E03A
:105040000E94981184E00E94821180E00E949811D1
:1050500085E00E9482118FEE0E94981186E00E94E6
:10506000821180E00E94981187E00E94821180E006
:105070000E94981188E00E94821181E00E9498119C
:1050800089E00E9482118FE80E949811FDCC82EE87
:105090000E94821183E20E94981182E00E9498117E
:1050A00084E50E94981180EE0E94821181E00E94A6
:1050B00098116AE070E080E090E00E94FC0980EEC8
:1050C0000E94821183E00E9498116AE070E080E003
:1050D00090E00E94FC0981E00E94821164E670E089
:1050E00080E090E00E94FC0986EE0E94821181E03F
:1050F0000E9498118FE10E9498118FEF0E949811E1
:1051000080EB0E94821180E20E94981180E00E9450
:10511000981181E00E9498118FED0E94981181E012
:105120000E9498118FE00E94981180E00E949811CF
:1051300084EB0E94821182E00E94981183E10E9418
:10514000981180E00E94981188E00E9498118BE2EB
:105150000E94981180E00E94981182E00E949811AC
:1051600080E00E94981186EB0E94821181E00E94EB
:10517000981180E20E94981180E00E94981184E0CA
:105180000E9498118CE00E94981180E00E94981172
:1051900082E00E9498118AEB0E9482118FE00E94A7
:1051A000981188EB0E94821187E00E94981181E09B
:1051B0000E94981186E30E94821182E20E94981157
:1051C00080EF0E94821183E00E94981161E070E0FC
:1051D00080E090E00E94FC092FE031E04FED51E0CB
:1051E00060E070E080E090E00E94E01189E20E94BF
:1051F00082118EEB0E94821186E00E94981180EF4E
:105200000E94981181E00E94981180EF0E949811ED
:1052100080E00E94981180E00E94981180ED0E9429
:1052200082118DE00E94981189C782EE0E9482113E
:105230008EE10E94981182E00E94981184E50E94FC
:10524000981180EE0E94821181E00E9498116AE01C
:1052500070E080E090E00E94FC0980EE0E948211E4
:1052600083E00E9498116AE070E080E090E00E9484
:10527000FC0981E00E94821164E670E080E090E029
:105280000E94FC0986EE0E94821183E00E94981120
:105290008FEF0E9498118FEF0E94981180EB0E946F
:1052A000821184E20E94981180E00E94981183E0AC
:1052B0000E9498118FE10E94981181E00E9498113C
:1052C0008FED0E94981180E00E94981184EB0E945B
:1052D000821183E00E94981180EA0E94981180E078
:1052E0000E9498118EE20E94981180E30E9498110A
:1052F00080E00E9498118FE00E94981180E00E9447
:10530000981186EB0E94821182E00E9498118DE034
:105310000E94981180E00E94981180E10E949811EB
:1053200080E10E94981180E00E94981188E00E941C
:1053300098118AEB0E9482118FE00E94981188EBED
:105340000E94821187E00E94981181E00E949811CA
:1053500086E30E94821182E20E94981180EF0E94EF
:10536000821183E00E94981161E070E080E090E09B
:10537000A3C082EE0E94821183E20E94981182E013
:105380000E94981184E00E94981180EE0E94821180
:1053900081E00E9498116AE070E080E090E00E9455
:1053A000FC0980EE0E94821183E00E9498116AE05D
:1053B00070E080E090E00E94FC0981E00E94821190
:1053C00064E670E080E090E00E94FC0986EE0E94B6
:1053D000821184E00E94981183E90E94981180EE66
:1053E0000E94981180EB0E94821180E00E94981127
:1053F00080E00E94981183E00E9498118FE10E9442
:10540000981181E00E9498118FED0E94981180E020
:105410000E94981184EB0E94821183E00E949811EF
:1054200080EA0E94981180E00E9498118EE20E940A
:10543000981180E30E94981180E00E9498118FE0FB
:105440000E94981180E00E94981186EB0E948211C0
:1054500082E00E9498118DE00E94981180E00E94E5
:10546000981180E10E94981180E10E94981180E0DB
:105470000E94981188E00E9498118AEB0E94821184
:1054800085E00E94981188EB0E94821187E00E94BB
:10549000981181E00E94981186E30E94821182E2B5
:1054A0000E94981180EF0E94821183E00E9498115F
:1054B0006AE070E080E090E00E94FC092FED31E0AE
:1054C0004FE153E08DCE64E070E281E10E94CF11A4
:1054D00060E07CEC83E10E94CF1160E076E285E140
:1054E0000E94CF116AE275E284E10E94CF1163E36A
:1054F00070E082E10E94CF1164E07CEC83E10E94C5
:10550000CF1166E07CEC83E10E94CF116FE47CEC6C
:1055100083E10E94CF116FE477E683E10E94CF110F
:1055200063E070E281E10E94CF1169E076E280E3FE
:105530000E94CF116CE274E281E30E94CF1163E21A
:105540007FE182E30E94CF1165E274E283E30E946F
:10555000CF1166E272E284E30E94CF1163E275E24A
:1055600085E30E94CF116AE17CE186E30E94CF11BE
:105570006DE173E187E30E94CF1161E17BE088E395
:105580000E94CF1160E172E189E30E94CF1165E1D1
:1055900073E18AE30E94CF1169E176E38BE30E9415
:1055A000CF1160E07DE08CE30E94CF116DE070E0F0
:1055B0008DE30E94CF1167E070E086E10E94CF1179
:1055C00063E170E082E00E94CF1163E070E083E06D
:1055D0000E94CF1167E271E081E00E94CF1163E089
:1055E00073E088E00E94CF116BE070E08AE00E94D7
:1055F000CF1163E070E08BE00E94CF1160E070E0BB
:105600008CE00E94CF1160E070E081E40E94CF1135
:1056100060E070E080E50E94CF1165E070E080E618
:105620000E94CF116BE070E080E70E94CF1160E034
:1056300070E081E70E94CF1160E070E088E70E948F
:10564000CF1160E070E08AE70E94CF1167E070E060
:1056500089E70E94CF1161E570E087E00E94CF11D9
:1056600063E570E087E00E94CF1160E070E089E7B9
:1056700048C181E10E94821164E170E080E090E025
:105680000E94FC0980ED0E94821187E00E9498111F
:1056900082E40E94981188E10E94981181ED0E9495
:1056A000821180E00E94981187E00E94981180E1A9
:1056B0000E94981182ED0E94821181E00E9498114F
:1056C00082E00E94981180EC0E94821180E10E9489
:1056D00098118BE30E94981180E00E94981182E05B
:1056E0000E94981181E10E94981185EC0E9482111C
:1056F00083E00E94981188EC0E94821180E00E9451
:10570000981182E30E94981186E30E94981185E423
:105710000E94981186E00E94981186E10E949811DB
:1057200087E30E94981185E70E94981187E70E94FD
:10573000981184E50E9498118CE00E94981180E0F5
:105740000E94981186E30E9482118AE00E949811BB
:105750008AE30E94821185E50E9498118AE20E94E4
:10576000821180E00E94981180E00E94981181E0EF
:105770000E9498118FE30E9498118BE20E9482117F
:1057800080E00E94981180E00E94981181E00E94C0
:10579000981180EE0E94981168E770E080E090E038
:1057A0000E94FC0992C16AE170E081E10E94CF1180
:1057B00061E271E382E10E94CF116CE670E083E167
:1057C0000E94CF1169E472E484E10E94CF1160E08D
:1057D00078E080E10E94CF116AE070E080E090E024
:1057E0000E94FC096AE171E081E10E94CF116AE048
:1057F00070E080E090E00E94FC096AE173E081E1E2
:105800000E94CF116AE070E080E090E00E94FC0905
:105810006AE177E081E10E94CF116AE070E080E008
:1058200090E00E94FC096AE17FE081E10E94CF11D3
:105830006AE070E080E090E00E94FC096AE37FE0AB
:1058400081E10E94CF116EE170E080E090E00E9463
:10585000FC096CE171E081E00E94CF1160E071E031
:1058600082E00E94CF1160E370E183E00E94CF11DB
:1058700060E070E087E00E94CF1168E078E088E0A7
:105880000E94CF1160E071E18BE00E94CF1160E0D7
:1058900070E08CE00E94CF1161E074E18FE00E9423
:1058A000CF1160E070E085E10E94CF1160E070E010
:1058B00080E20E94CF1160E070E081E20E94CF118F
:1058C0006FEA70E086E30E94CF1160E070E087E34A
:1058D0000E94CF116BED70E088E30E94CF1160E071
:1058E00070E089E30E94CF1161E07BE08FE00E94CD
:1058F000CF1166E170E087E00E94CF1167E170E0B0
:1059000087E00E94CF11C0C881E10E94821168E740
:1059100070E080E090E00E94FC0981EB0E9482111F
:1059200085E00E9498118CE30E9498118CE30E94FC
:10593000981182EB0E94821185E00E9498118CE3FD
:105940000E9498118CE30E94981183EB0E948211AF
:1059500085E00E9498118CE30E9498118CE30E94CC
:10596000981185E00E9498118CE30E9498118CE3B5
:105970000E94981184EB0E94821183E00E9498118A
:1059800080EC0E94821188E20E94981188E00E94B7
:10599000981184E00E94981181EC0E94821180ECA1
:1059A0000E94981182EC0E9482118DE00E94981151
:1059B00080E00E94981183EC0E9482118DE80E9481
:1059C00098118AE20E94981184EC0E9482118DE85D
:1059D0000E9498118EEE0E94981185EC0E9482110F
:1059E0008AE10E94981186E30E94821180EC0E9455
:1059F000981180EE0E94821183E00E94981182E249
:105A00000E94981187E00E9498118AE00E949811E4
:105A10008EE20E94981180E30E94981185E20E9414
:105A200098118AE20E94981188E20E94981186E2F9
:105A30000E9498118EE20E9498118AE30E949811A8
:105A400080E00E94981181E00E94981183E00E94FA
:105A5000981183E10E94981181EE0E94821184E0E6
:105A60000E94981186E10E94981186E00E94981188
:105A70008DE00E9498118DE20E94981186E20E94AA
:105A8000981183E20E94981187E20E94981187E2A0
:105A90000E94981185E20E9498118DE20E9498114F
:105AA0008BE30E94981180E00E94981181E00E948F
:105AB000981184E00E94981183E10E9498118AE372
:105AC0000E94821185E00E94981189E20C9445257C
:105AD00081E10E94821164E170E080E090E00E9428
