:1000000036C7000065C7000063C7000061C7000075
:100010005FC700005DC700005BC7000059C7000054
:1000200057C7000055C7000053C7000051C7000064
:100030004FC700004DC700004BC7000049C7000074
:1000400047C7000045C7000043C7000041C7000084
:100050003FC700003DC700003BC700000C94F50FF0
:1000600037C700000C94CC080C94A30831C70000DB
:100070002FC700002DC700002BC7000029C70000B4
:1000800027C7000025C7000023C7000021C70000C4
:100090001FC700001DC700001BC7000019C70000D4
:1000A00017C7000015C7000013C7000011C70000E4
:1000B0000FC700000DC700000BC7000009C70000F4
:1000C00007C7000005C7000003C7000001C7000004
:1000D000FFC60000FDC60000FBC60000F9C6000018
:1000E000F7C6000027211C2FCC21CC2117231C2F61
:1000F00059251F241F251C2F3226C82613281328F4
:100100002721BE2B1C2F27216927E9283522832987
:10011000342ABE2B172B4A2C452D502E652E6F24CA
:1001200031093409230927092B096B0938093C09CE
:10013000420946094A095009540958096B095E09E0
:100140006209660934112112501150116A112112ED
:100150001511F8118F1121129D119D11BA11BA11AB
:100160003411F811211234119D11F8115011CA11D6
:10017000F811F811F811F811F811E411F811F8114B
:100180001010205F000000000000000000000000D0
:10019000000000000000000000000000000000005F
:1001A000000000000000000007000F800F800F809B
:1001B0000F800F8007000700000000000700070005
:1001C0000700000000000E380E380E380E380630DA
:1001D000000000000000000000000000000000001F
:1001E0000000000000000C300C300C307FFE7FFE61
:1001F0000C300C300C300C307FFE7FFE0C300C309D
:100200000C3000000000024002400FF81FF81A40B6
:100210001A401FF00FF8025802581FF81FF0024052
:10022000024000000000000000000E100E300E70B2
:1002300000E001C0038007000E700C700870000021
:1002400000000000000000000F00198019801980D4
:100250000F000F080F9819F818F018E019F00F9810
:1002600000000000000000000700070007000E006B
:10027000000000000000000000000000000000007E
:10028000000000000000000000F001C00380070033
:100290000E000E000E000E000700038001C000F0EB
:1002A00000000000000000000F00038001C000E01B
:1002B000007000700070007000E001C003800F004B
:1002C000000000000000000001801188099007E094
:1002D00007E03FFC3FFC07E007E009901188018040
:1002E000000000000000000000000000018001800C
:1002F00001800FF00FF001800180018000000000FC
:1003000000000000000000000000000000000000ED
:1003100000000000000000000000070007000700C8
:100320000E000000000000000000000000000000BF
:1003300000001FF81FF8000000000000000000008F
:1003400000000000000000000000000000000000AD
:100350000000000000000000000007000700070088
:10036000000000000000000000020006000E001C5B
:100370000038007000E001C0038007000E001C0080
:1003800000000000000000000FF01C381C781CF872
:100390001CF81DB81DB81F381F381E381C380FF048
:1003A00000000000000000000180018003801F8029
:1003B0001F800380038003800380038003801FF07D
:1003C00000000000000000000FE01C701C38003826
:1003D000007000E001C0038007000E381C381FF8D1
:1003E00000000000000000000FE01C701C38003806
:1003F000007003C003C0007000381C381C700FE090
:10040000000000000000000000E001E003E006E062
:100410000CE018E01FF81FF800E000E000E003F82F
:1004200000000000000000001FF81C001C001C0061
:100430001C001FE01FF0007800381C381C700FE013
:10044000000000000000000003E007000E001C0098
:100450001C001FF01FF81C381C381C381C380FF00B
:1004600000000000000000001FFC1C1C1C1C1C1CC9
:10047000001C0038007000E001C00380038003808E
:1004800000000000000000000FF01C381C381C3871
:100490001F3807E007E01CF81C381C381C380FF028
:1004A00000000000000000000FF01C381C381C3851
:1004B0001C381FF80FF800380038007000E007C043
:1004C0000000000000000000000000000380038026
:1004D0000380000000000380038003800000000010
:1004E0000000000000000000000000000380038006
:1004F00003800000000003800380038007000000E9
:10050000000000000000007000E001C00380070050
:100510000E001C001C000E000700038001C000E05C
:1005200000700000000000000000000000003FFC20
:100530003FFC000000003FFC3FFC0000000000000A
:100540000000000000001C000E000700038001C036
:1005500000E00070007000E001C0038007000E00A2
:100560001C000000000003C00FF01E78183800388F
:10057000007000E001C001C00000000001C001C027
:1005800001C0000000000FF81C1C1C1C1C1C1C1CC3
:100590001CFC1CFC1CFC1CFC1C001C001C001FF098
:1005A00007F800000000000003C007E00E701C38D0
:1005B0001C381C381C381FF81C381C381C381C38D8
:1005C00000000000000000001FF00E380E380E384A
:1005D0000E380FF00FF00E380E380E380E381FF0B0
:1005E000000000000000000007F00E381C381C005E
:1005F0001C001C001C001C001C001C380E3807F0DE
:1006000000000000000000001FE00E700E380E38E1
:100610000E380E380E380E380E380E380E701FE0B9
:1006200000000000000000001FF80E180E080E0069
:100630000E300FF00FF00E300E000E080E181FF8DF
:1006400000000000000000001FF80E180E080E0049
:100650000E300FF00FF00E300E000E000E001F00D7
:10066000000000000000000007F00E381C381C38A5
:100670001C001C001C001CF81C381C380E3807F825
:1006800000000000000000001C701C701C701C703A
:100690001C701FF01FF01C701C701C701C701C70F4
:1006A00000000000000000000FE0038003800380D2
:1006B00003800380038003800380038003800FE0B6
:1006C000000000000000000001FC007000700070DD
:1006D00000700070007038703870387038700FE03B
:1006E00000000000000000001E380E380E700EE002
:1006F0000FC00F800F800FC00EE00E700E381E3836
:1007000000000000000000001F000E000E000E00A0
:100710000E000E000E000E000E080E180E381FF808
:1007200000000000000000001C1C1E3C1F7C1FFC81
:100730001FFC1DDC1C9C1C1C1C1C1C1C1C1C1C1CD5
:1007400000000000000000001C1C1C1C1E1C1F1CC4
:100750001F9C1DDC1CFC1C7C1C3C1C1C1C1C1C1C35
:10076000000000000000000003E007F00E381C1C31
:100770001C1C1C1C1C1C1C1C1C1C0E3807F003E041
:1007800000000000000000001FF00E380E380E3888
:100790000E380FF00FF00E000E000E000E001F00BE
:1007A000000000000000000003E00F780E381C1C61
:1007B0001C1C1C1C1C1C1C7C1CFC0FF80FF800389B
:1007C00000FC0000000000001FF00E380E380E384C
:1007D0000E380FF00FF00E700E380E380E381E382F
:1007E00000000000000000000FF01C381C381C380E
:1007F0001C000FE007F000381C381C381C380FF0C4
:1008000000000000000000001FFC19CC11C401C052
:1008100001C001C001C001C001C001C001C007F09A
:1008200000000000000000001C701C701C701C7098
:100830001C701C701C701C701C701C701C700FE0F5
:1008400000000000000000001C701C701C701C7078
:100850001C701C701C701C701C700EE007C00380A4
:1008600000000000000000001C1C1C1C1C1C1C1CA8
:100870001C1C1C9C1C9C1C9C0FF80FF8077007701C
:1008800000000000000000001C701C701C700EE0D6
:1008900007C00380038007C00EE01C701C701C7032
:1008A00000000000000000001C701C701C701C7018
:1008B0001C700EE007C003800380038003800FE0FC
:1008C00000000000000000001FF81C3818381070ED
:1008D00000E001C0038007000E081C181C381FF838
:1008E000000000000000000007F0070007000700FC
:1008F000070007000700070007000700070007F0D0
:100900000000000000000000100018001C000E0095
:100910000700038001C000E000700038001C0007E1
:10092000000000000000000007F000700070007080
:10093000007000700070007000700070007007F0B0
:10094000000000000000018003C007E00E701C38AA
:100950000000000000000000000000000000000097
:100960000000000000000000000000000000000087
:100970000000000000000000000000000000000077
:100980007FFF7FFF000000001C001C000700070025
:100990000000000000000000000000000000000057
:1009A0000000000000000000000000000000000047
:1009B0000FE0007000700FF01C701C701C700FD8DE
:1009C00000000000000000001E000E000E000E00DF
:1009D0000FF00E380E380E380E380E380E381BF069
:1009E0000000000000000000000000000000000007
:1009F0000FE01C701C701C001C001C701C700FE0B1
:100A0000000000000000000000F80070007000709E
:100A10000FF01C701C701C701C701C701C700FD8A8
:100A200000000000000000000000000000000000C6
:100A30000FE01C701C701FF01C001C701C700FE07D
:100A4000000000000000000003E0077007700700CE
:100A500007001FE01FE007000700070007001FC096
:100A60000000000000000000000000000000000086
:100A70000FD81C701C701C701C700FF007F00070F9
:100A80001C700FE0000000001E000E000E000E00A3
:100A90000EF00F380F380E380E380E380E381E385C
:100AA000000000000000000001C001C001C0000003
:100AB0000FC001C001C001C001C001C001C00FF8DA
:100AC00000000000000000000070007000700000D6
:100AD00003F00070007000700070007000701C70F7
:100AE0000CF007E0000000001E000E000E000E00DB
:100AF0000E380E700EE00FC00EE00E700E381E386D
:100B000000000000000000000FC001C001C001C0D3
:100B100001C001C001C001C001C001C001C00FF887
:100B200000000000000000000000000000000000C5
:100B30001FF81C9C1C9C1C9C1C9C1C9C1C9C1C9C96
:100B400000000000000000000000000000000000A5
:100B50001FE01C701C701C701C701C701C701C70C2
:100B60000000000000000000000000000000000085
:100B70000FE01C701C701C701C701C701C700FE04F
:100B80000000000000000000000000000000000065
:100B90001BF00E380E380E380E380E380FF00E00DF
:100BA0000E001F0000000000000000000000000018
:100BB0001FB038E038E038E038E038E01FE000E00F
:100BC00000E001F000000000000000000000000054
:100BD0001EF00FF80F380E000E000E000E001F0062
:100BE0000000000000000000000000000000000005
:100BF0000FE01C301C300F8003E0187018700FE0FD
:100C000000000000000000000000010003000700D9
:100C10001FF007000700070007000770077003E0D8
:100C200000000000000000000000000000000000C4
:100C30001C701C701C701C701C701C701C700FD8F9
:100C400000000000000000000000000000000000A4
:100C50001C701C701C701C701C700EE007C00380A0
:100C60000000000000000000000000000000000084
:100C70001C1C1C1C1C1C1C9C1C9C0FF80770077067
:100C80000000000000000000000000000000000064
:100C90001CE01CE00FC0078007800FC01CE01CE0B8
:100CA0000000000000000000000000000000000044
:100CB0000E380E380E380E380E3807F003E000E01C
:100CC00001C01F80000000000000000000000000C4
:100CD0001FE018E011C0038007000E201C601FE019
:100CE000000000000000000001F803800380038082
:100CF00007001C001C00070003800380038001F82C
:100D000000000000000001C001C001C001C001C01E
:100D100001C001C001C001C001C001C001C001C0CB
:100D200001C00000000000001F8001C001C001C020
:100D300000E00038003800E001C001C001C01F80A1
:100D400000000000000000001F1C3B9C39DC38F84C
:100D50000000000000000000000000000000000093
:100D60000000000000002100240027002A002D00C0
:100D70003000330001010000040107010A010000F6
:100D80000A0B02090C0D0E08070304010000000005
:100D90000000000000000000000000000000000053
:100DA0000000000000000000000012111000000010
:100DB0000000000000000000000000000000000033
:100DC0000000000001021020200808102040102020
:100DD00040800201020108040201010204081020FF
:100DE00040808040201008040201800402018040FD
:100DF0002010080402010804020101020408102066
:100E000040800102040810204080000022002500DC
:100E100028002B002E0031003400020100000501E3
:100E200008010B0105050505070508080808020269
:100E300002020A0A08080404040401010101010174
:100E400001010303030303030303040707070C0C57
:100E50000C0C0C0C0C0C020202020606060606061E
:100E600006060B0B0B0B0B0B0B0BD032C1321124F4
:100E70001FBECFEFD1E2DEBFCDBF00E00CBF12E05E
:100E8000A0E0B2E0E4E4F1E700E00BBF02C00790AD
:100E90000D92AA3AB107D9F726E0AAEAB2E001C05A
:100EA0001D92A034B207E1F717E0C6E3D7E000E0F7
:100EB00006C021970109802FFE010E944C36C533E0
:100EC000D10780E00807A9F70E94F21F0C9491381F
:100ED00097C8FC01538D448D252F30E0842F90E07E
:100EE000821B930B541710F0CF9608950197089525
:100EF000FC01918D828D981761F0828DDF01A80F22
:100F0000B11D5D968C91928D9F5F9F73928F90E043
:100F100008958FEF9FEF0895FC01918D828D9817B2
:100F200031F0828DE80FF11D858D90E008958FEFEF
:100F30009FEF0895FC01918D228D892F90E0805CB8
:100F40009F4F821B91098F739927089581EC94E03C
:100F5000F1DF21E0892B09F420E0822F0895FC01C4
:100F6000848DDF01A80FB11DA35ABF4F2C91848D32
:100F700090E001968F739927848FA689B7892C9367
:100F8000A089B1898C9180648C93938D848D981302
:100F900006C00288F389E02D80818F7D80830895CB
:100FA000EF92FF920F931F93CF93DF93EC0181E0B9
:100FB000888F9B8D8C8D981305C0E889F989808175
:100FC00085FD23C0F62E0B8D10E00F5F1F4F0F73B2
:100FD0001127E02E8C8DE8120BC00FB607FCFACF5C
:100FE000E889F989808185FFF5CFCE01B8DFF2CF9E
:100FF0008B8DFE01E80FF11DE35AFF4FF0820B8F3E
:10100000EA89FB898081806207C0EE89FF8960835D
:10101000E889F98980818064808381E090E0DF91B4
:10102000CF911F910F91FF90EF900895CF93DF9391
:10103000EC01888D8823C1F0EA89FB89808185FDD8
:1010400005C0A889B9898C9186FD0EC00FB607FC32
:10105000F5CF808185FFF2CFA889B9898C9185FF72
:10106000EDCFCE017CDFE8CFDF91CF91089580E016
:1010700090E0892B19F06ADF811125C080E090E0B3
:10108000892B41F080E090E0892B21F00E94000044
:1010900081111CC080E090E0892B41F080E090E05D
:1010A000892B21F00E940000811113C080E090E0A4
:1010B000892BA1F080E090E0892B81F00E94000054
:1010C00081110AC008950E940000D8CF0E9400003C
:1010D000E1CF0E940000EACF0C94000008953FB7D2
:1010E000F8948091BD049091BE04A091BF04B0918A
:1010F000C00426B5A89B05C02F3F19F00196A11D7D
:10110000B11D3FBFBA2FA92F982F8827820F911D9D
:10111000A11DB11DBC01CD0142E0660F771F881FE4
:10112000991F4A95D1F708958EBD00000DB407FEB2
:10113000FDCF8EB508958FEFF7CF089580E090E052
:1011400008950E9465381F920F920FB60F921124D6
:101150000BB60F922F933F934F935F936F937F93B1
:101160008F939F93AF93BF93EF93FF9381EC94E0A2
:10117000F6DEFF91EF91BF91AF919F918F917F919B
:101180006F915F914F913F912F910F900BBE0F90F8
:101190000FBE0F901F9018951F920F920FB60F92CF
:1011A00011240BB60F922F938F939F93EF93FF937E
:1011B000E091D104F091D2048081E091D704F091C4
:1011C000D80482FD12C090818091DA048F5F8F7302
:1011D0002091DB04821751F0E091DA04F0E0EF5344
:1011E000FB4F958F8093DA0401C08081FF91EF91CE
:1011F0009F918F912F910F900BBE0F900FBE0F906C
:101200001F901895362F90E0FC01E258F24F449160
:10121000FC01EC53F24F2491FC01EC5DF14F9491F1
:10122000992309F46BC0442309F455C050E0FA0136
:101230003197E231F10508F04EC08827E057FF4FA3
:101240008F4F0C944C36809180008F7707C080912F
:1012500080008F7D03C080918000877F8093800015
:101260003AC084B58F7702C084B58F7D84BD33C00A
:101270008091B0008F7703C08091B0008F7D809304
:10128000B00029C0809190008F7707C080919000B6
:101290008F7D03C080919000877F809390001BC05A
:1012A0008091A0008F7707C08091A0008F7D03C040
:1012B0008091A000877F8093A0000DC080912001C5
:1012C0008F7707C0809120018F7D03C0809120011E
:1012D000877F80932001E92FF0E0EE0FFF1FE65F8C
:1012E000F14FA591B4918FB7F894EC91311103C0EF
:1012F00020952E2301C02E2B2C938FBF089561E0E3
:10130000FC0184817FDF8091B00281111092B002D4
:101310000895CF93DF93EC018E81882379F08F813C
:1013200098859C012F5F3F4F38872F8382309240F2
:1013300010F401DFF4CFCE01E2DF1E82DF91CF9106
:101340000895CF93DF9390E0FC01EC53F24F24918A
:10135000FC01EC5DF14F8491882361F190E0880FEE
:10136000991FFC01EC59F24FC591D491FC01E65F45
:10137000F14FA591B491611109C09FB7F89488818C
:10138000209582238883EC912E230BC0623061F478
:101390009FB7F8943881822F809583238883EC91BE
:1013A0002E2B2C939FBF06C08FB7F894E8812E2B6D
:1013B00028838FBFDF91CF910895863308F086533D
:1013C00090917B00282F2870977F922B90937B0021
:1013D0008770806480937C0080917A008064809321
:1013E0007A0080917A0086FDFCCF80917800209170
:1013F000790090E0922B08958F929F92AF92BF92C6
:10140000CF92DF92EF92FF926B017C0168DE4B017D
:101410005C01C114D104E104F104E9F060DEDC01F7
:10142000CB0188199909AA09BB09883E9340A105F7
:10143000B10578F321E0C21AD108E108F10888EE7D
:10144000880E83E0981EA11CB11CC114D104E104D4
:10145000F10421F7DECFFF90EF90DF90CF90BF90A7
:10146000AF909F908F9008952FB7F8946091B90432
:101470007091BA048091BB049091BC042FBF089571
:101480000F931F93CF93DF93EB01EEDF8B0153DEBE
:101490008F3F41F0E9DF601B710B6C177D07B8F3DC
:1014A00080E001C081E0DF91CF911F910F910895FD
:1014B000CF92DF92FF920F931F93CF93DF9300D0D1
:1014C0001F92CDB7DEB76C01F62E29833A834B838A
:1014D0005C831FDF8091B00229813A814B815C815E
:1014E000811109C081E08093B0029091A60580919E
:1014F000A7059CBD8DBD60E0F601848129833A83F8
:101500004B835C837FDE6CE271E0C601B9DF8F2D17
:1015100080640ADE08E110E05C814B813A81298118
:10152000DA01C901002E04C0B695A7959795879555
:101530000A94D2F729833A834B835C83F5DD085004
:10154000110929813A814B815C81083FFFEF1F0718
:1015500039F7FF2029F088E0F81204C087E803C0BB
:1015600085E901C08FEFE0DD10E0E5DDF60182875F
:1015700087FF04C01F3F11F01F5FF7CF0F900F9040
:101580000F900F90DF91CF911F910F91FF90DF90FF
:10159000CF900895EF92FF920F931F93CF93DF9315
:1015A000EC017901411551056105710511F482E1E4
:1015B00034C08B85833039F089E0440F551F661F96
:1015C000771F8A95D1F79A01AB0168E1CE0170DFF0
:1015D000882311F084E021C08EEFA6DD87018EEF15
:1015E000F81AF80181918F019FDD0E151F05C9F7CB
:1015F0008FEF9ADD8FEF98DD9EDD8A878F718530C2
:1016000029F081E18D83CE017ADE08C068E572E0C1
:10161000CE0136DF811106C085E18D83CE016FDEFC
:1016200080E010C020E030E0A9016DE0CE0140DF95
:10163000811103C080DD882311F084E1EECFCE015B
:101640005EDE81E0DF91CF911F910F91FF90EF90CF
:101650000895CF93DF938091B302882389F1C091DD
:10166000B102D091B2024091020250910302609106
:1016700004027091050228EB32E0CE018BDF81116C
:1016800002C080E01EC04091B4025091B50260914A
:10169000B6027091B702411551056105710571F0EF
:1016A00028EB32E0CE0176DF882359F31092B402A2
:1016B0001092B5021092B6021092B7021092B302C5
:1016C00081E0DF91CF910895BF92CF92DF92EF92A8
:1016D000FF920F931F93CF93DF936B017C01B42E86
:1016E0008091020290910302A0910402B091050240
:1016F0008C159D05AE05BF0509F46DC0AADF8823D2
:1017000009F470C0C091B102D091B2028E818823D9
:1017100069F088819981AA81BB81C816D906EA0639
:10172000FB0621F48F819885892B89F1C882D982A3
:10173000EA82FB828B85A7019601833039F089E02C
:10174000220F331F441F551F8A95D1F761E1CE0147
:10175000AFDE882319F083E08D8331C085DE8B01F5
:10176000EADC8A878F3F41F47FDE601B710B6D32AC
:101770007140B0F38FE003C08E3F29F08DE08D8380
:10178000CE01BDDD1CC018861F8281E08E8308EB70
:1017900012E0D1DCF80181938F01F4E0083B1F07D0
:1017A000C1F78F8198859E5F98878F832985222333
:1017B00019F08115924038F0CE01ABDD04C0CE01A6
:1017C0009EDD80E00FC0C0920202D0920302E09240
:1017D0000402F09205028091B302482F4B294093F6
:1017E000B30281E0DF91CF911F910F91FF90EF90B5
:1017F000DF90CF90BF9008954F925F926F927F924B
:101800008F929F92AF92BF92CF92DF92EF92FF9210
:101810000F931F93CF93DF93EC016A017B012801A3
:101820003901423051056105710510F480E072C044
:1018300089859A85AB85BC850196A11DB11D84174C
:101840009507A607B70790F38B889C88AD88BE885C
:101850008F89803129F4BB27AF2D9E2D8D2D09C096
:10186000DB01CA0147E0B695A795979587954A95FC
:10187000D1F7880E991EAA1EBB1E8091020290917C
:101880000302A0910402B091050288169906AA06E7
:10189000BB0679F48F89803199F4DD24EE24FF248E
:1018A000C601880F991FFC01E854FD4F5182408208
:1018B00018C040E0C501B40107DF8111EBCFB6CFFE
:1018C000E894C7F8DD24EE24FF24C601880F991F91
:1018D000880F991FFC01E854FD4F408251826282BB
:1018E00073828091B30281608093B3028A898230CF
:1018F00080F08D819E81AF81B885880E991EAA1EC9
:10190000BB1E8092B4029092B502A092B602B09231
:10191000B70281E0DF91CF911F910F91FF90EF907F
:10192000DF90CF90BF90AF909F908F907F906F90FF
:101930005F904F9008958F929F92AF92BF92CF92F7
:10194000DF92EF92FF920F931F93CF93DF93FC01EF
:1019500081859285A385B4850196A11DB11D84174B
:101960009507A607B70710F480E05BC083899489C8
:10197000A589B689C789C03129F4852E962EA72E50
:10198000BB2409C04A015B01C7E0B694A7949794B1
:101990008794CA95D1F7E9016A017B018F01BC01E7
:1019A000CD01680D791D8A1D9B1D809002029090CB
:1019B0000302A0900402B0900502681579058A051B
:1019C0009B0599F4F80187898031A1F4B701A6013C
:1019D000552766277727440F551FFA01E854FD4F16
:1019E00080819181A0E0B0E017C040E06DDE811100
:1019F000E9CFBACFB701A6014F77552766277727DA
:101A0000440F551F440F551FFA01E854FD4F8081C4
:101A10009181A281B381BF7088839983AA83BB839C
:101A200081E0DF91CF911F910F91FF90EF90DF90B8
:101A3000CF90BF90AF909F908F9008953F924F921C
:101A40005F926F927F928F929F92AF92BF92CF924E
:101A5000DF92EF92FF920F931F93CF93DF93CDB757
:101A6000DEB72C970FB6F894DEBF0FBECDBF5C017A
:101A7000DC015B968D909C905C971696CD90DD90E6
:101A8000ED90FC901997C114D104E104F10439F0F0
:101A9000BFEFCB1ADB0AEB0AFB0A312C07C0F401BB
:101AA000C080D180E280F38033243394F4018185B7
:101AB0009285A385B4859C01AD012F5F3F4F4F4FA9
:101AC0005F4F29873A874B875C87260137011D8244
:101AD0001E821F821886F40181859285A385B485B4
:101AE0002D813E814F815885281739074A075B07AA
:101AF00008F060C089859A85AB85BC858C159D05ED
:101B0000AE05BF0550F482E0C82ED12CE12CF12C9B
:101B100092E0492E512C612C712C9E012F5F3F4F7A
:101B2000B701A601C40107DF882309F443C08981F6
:101B30009A81AB81BC81892B8A2B8B2B41F02601AA
:101B400037019FEF491A590A690A790A05C0C41476
:101B5000D504E604F70491F02D813E814F8158852C
:101B60002F5F3F4F4F4F5F4F2D833E834F835887EB
:101B70003FEFC31AD30AE30AF30AADCF0FEF1FEF0B
:101B80002FEF3FE0B301A201C40136DE882391F0BC
:101B9000D50116964D915D916D917C9119974115E6
:101BA00051056105710541F093018201C40124DEF4
:101BB000811102C080E02AC0D50116964D925D9237
:101BC0006D927C921997332051F0D301C201019696
:101BD000A11DB11DF40180839183A283B383F5011C
:101BE0008789908DA18DB28D892B8A2B8B2B69F4DF
:101BF000D50157964D925D926D927C925A971496AC
:101C00008C911497806814968C9381E02C960FB673
:101C1000F894DEBF0FBECDBFDF91CF911F910F9122
:101C2000FF90EF90DF90CF90BF90AF909F908F90FC
:101C30007F906F905F904F903F9008954F925F928A
:101C40006F927F928F929F92AF92BF92EF92FF928C
:101C50000F931F93CF93DF9300D01F921F92CDB7A6
:101C6000DEB78C016D83DC0115968C911597813060
:101C700009F056C014968C9181FF52C059C0038C54
:101C8000F48DE02D258530E0275F3F4F2A013B0191
:101C9000B1E04B1A510861087108022E04C0769415
:101CA0006794579447940A94D2F7D501C4010197D9
:101CB000A109B10904C0B695A795979587952A956E
:101CC000D2F784159505A605B70508F06FC0F80191
:101CD0004789508D618D728D4683578360877187E8
:101CE0002C013D017801E6E0EE0EF11CD801411413
:101CF00051046104710409F463C016964D915D911D
:101D00006D917C91199797015B968D919C915C9751
:101D100012DEB1E04B1A5108610871088111E6CF5B
:101D200081E090E0F8019383828380E090E049C1F4
:101D300082FF0EC0F80142855385648575858388CE
:101D40009488A588B688481559056A057B05F1F47D
:101D5000D8011A964D915D916D917C911D975B967E
:101D60008D919C915C97FC0174807A944A015B018F
:101D700029E0B694A794979487942A95D1F7782070
:101D80007A01F1E0FF22772011F162C08114910401
:101D9000A104B10409F073CF168217821086118650
:101DA000F8011286138614861586D2CF452B462B52
:101DB000472B09F48CCF84199509A609B70990CF50
:101DC0001A968D929D92AD92BC921D97C1CFE1144F
:101DD000F10409F03DC0F8014681578160857185A5
:101DE000411551056105710549F48789908DA18DD3
:101DF000B28D0097A105B10531F520C09E012F5F7E
:101E00003F4F99DD882309F490CF89819A81AB8176
:101E1000BC81F801238D348DF9012789203129F007
:101E200048EF5FEF6FEF7FE004C048EF5FEF60E0E7
:101E300070E084179507A607B70728F0C801FEDDF4
:101E4000811106C06DCFF80186839783A087B18783
:101E5000D8015B96ED91FC915C9716968D909D90C4
:101E6000AD90BC901997B2E08B1A9108A108B10807
:101E7000058404C0880C991CAA1CBB1C0A94D2F7C8
:101E800086859785A089B189880E991EAA1EBB1EDA
:101E9000870C911CA11CB11CE114F10401F5F8019F
:101EA000428553856485758583899489A589B6891A
:101EB000481759076A077B0790F0CBDB882309F4A2
:101EC0002FCF8092020290920302A0920402B0925D
:101ED00005028091B30281608093B30207C041E0A4
:101EE000C501B401F1DB882309F41ACFF701E854E6
:101EF000FD4F8D818083F80182859385A485B5850A
:101F00000196A11DB11D82879387A487B587438958
:101F1000548965897689481759076A077B0738F419
:101F2000838B948BA58BB68B848180688483D80146
:101F300014968C9183FD03C081E090E042C0F801CB
:101F40009581992309F4ECCE87FF37C066857785A4
:101F50008089918941E0B8DB882309F4E1CED8017A
:101F60005296EC91B0E2EB9F90011124D901A85454
:101F7000BD4F109709F4D4CEF8018581823050F41A
:101F800043895489658976895C964D935D936D93F9
:101F90007C935F97F8018789908DA18DB28DF901AF
:101FA000E854FD4F938F828FB58BA48BD801149684
:101FB0008C9114978F7714968C934BDB8111BCCF47
:101FC000AFCE0F900F900F900F900F90DF91CF91A9
:101FD0001F910F91FF90EF90BF90AF909F908F90C7
:101FE0007F906F905F904F9008951F920F920FB661
:101FF0000F9211242F933F938F939F93AF93BF938F
:102000008091B9049091BA04A091BB04B091BC0432
:102010003091B80423E0230F2D3720F40196A11D41
:10202000B11D05C026E8230F0296A11DB11D209306
:10203000B8048093B9049093BA04A093BB04B093FE
:10204000BC048091BD049091BE04A091BF04B091E6
:10205000C0040196A11DB11D8093BD049093BE04E0
:10206000A093BF04B093C004BF91AF919F918F9193
:102070003F912F910F900FBE0F901F901895CF9307
:10208000DF938BE392E0F1D481113AC0DEECD09380
:10209000C205C9E7C093C30568E270E080E090E044
:1020A0000E948A1A64E670E08CE390E00E948A1A2B
:1020B00064EB70E088E790E00E948A1AD093C40530
:1020C000C093C5051092F20588EF8093C205109267
:1020D000C30544ED50E06CE070E081E992E0CFD1BF
:1020E00044ED50E068E470E088E992E0C8D144ED46
:1020F00050E06DE770E08FE992E0DF91CF91BFC1D2
:102100001092C4051092C5051092F2051092C205F6
:102110001092C30520EF30E044EB50E068EC70E033
:1021200080E090E0DF91CF910C94F81ACF9387E78D
:1021300092E09BD4882331F1CFEFC093C205C093C6
:10214000C3051092C4051092C5051092F20546E42D
:1021500050E060E070E083EA92E091D188EF8093F4
:10216000C2051092C3056091000270910102072E12
:10217000000C880B990BDCD3C093C205C093C30538
:10218000CF9108958FEF8093C2058093C30510927D
:10219000C4051092C5051092F20546E450E060E0D7
:1021A00070E083EA92E06BD16091000270910102CD
:1021B000072E000C880B990BCF91BAC3682F892F7B
:1021C0000C94E91ECF92DF92EF92FF920F931F9330
:1021D000CF93DF938C01F62EE72EEA01D22EC32E89
:1021E0008091C605813089F48091CB059091CC0512
:1021F0009C01201B310B841B950BCD2DDC2DD22E89
:10220000C32E062F172FF82EE92EE091CF058E2F23
:1022100090E0FC013297EE31F10508F012C18827F9
:10222000EE55FF4F8F4F0C944C36612F70E082E0DB
:102230000E94051FB80183E00E94051F6D2F70E00A
:1022400084E00E94051FBE0185E00E94051F6E2DDF
:1022500070E086E00E94051F6F2D7E2D87E00E94B2
:10226000051F6C2D70E054C07C2F6627600F711F16
:1022700084E40E94051F6F2D7E2D85E40E94051FBA
:102280006D2D7C2D86E40E94051FB8018EE40E940E
:10229000051F6F2D7E2D8FE40E94051F82E2C7C0AF
:1022A000B80180E20E94051F6F2D7E2D81E20E9401
:1022B000051FB80180E50E94051F6F2D7E2D82E568
:1022C0000E94051FBE0181E50E94051F6D2D7C2D1A
:1022D00083E5E2CF60E070E082E00E94051FB80174
:1022E00083E00E94051F60E070E084E00E94051F0B
:1022F000BE0185E00E94051F60E070E086E00E945C
:10230000051F6F2D7E2D87E00E94051F60E070E0A5
:1023100088E00E94051F6D2D7C2D89E0BDCF8AE2EB
:102320000E94BF1E802F0E94D41E8C2F0E94D41E9C
:102330008BE20E94BF1E8F2D74C08AE20E94BF1ED6
:102340008E2D0E94D41E8F2D0E94D41E8C2D0E9493
:10235000D41E8D2D0E94D41E8BE20E94BF1E812FA1
:102360000E94D41E802F0E94D41E8D2F0E94D41E46
:102370008C2F5AC07C2F6627602B712B86E40E941D
:10238000051F6D2D7C2D87E40E94051F6F2D7E2D6E
:1023900088E410C0BE0186E30E94051FB80187E3F0
:1023A0000E94051F6D2D7C2D88E30E94051F6F2D57
:1023B0007E2D89E30E94051FB80180E20E94051F5F
:1023C0006F2D7E2D81E268CF6F2D7E2D82E00E94E1
:1023D000051FB80183E00E94051F6D2D7C2D86E04E
:1023E0000E94051FBE0187E00E94051F8FE01FC0ED
:1023F0008AE20E94BF1E812F0E94D41E802F0E945D
:10240000D41E8D2F0E94D41E8C2F0E94D41E8BE2CE
:102410000E94BF1E8E2D0E94D41E8F2D0E94D41E9E
:102420008C2D0E94D41E8D2D0E94D41E8CE2DF9133
:10243000CF911F910F91FF90EF90DF90CF900C9470
:10244000BF1EDF91CF911F910F91FF90EF90DF9012
:10245000CF9008952091C6058091CB059091CC0531
:102460004091C7055091C805211102C09C0102C0CE
:102470009A01AC0160E070E080E090E0A3CE2F9282
:102480003F924F925F926F927F928F929F92AF9204
:10249000BF92CF92DF92EF92FF920F931F93CF9351
:1024A000DF93CDB7DEB72C970FB6F894DEBF0FBE23
:1024B000CDBF8C017C876B871A01FC010190002045
:1024C000E9F731979F01281B390B3C832B838091BF
:1024D000C605811132C06F307742A1F46091C70503
:1024E0007091C8056F5F7F4F2091EE054B815C8135
:1024F000249FC001259F900D1124DB01A81BB90B5F
:10250000BC87AB87EB85FC85EE30F74209F059C0FC
:102510008091C7059091C805A091C905B091CA05E1
:102520000196A11DB11D2091EE054B815C81249F78
:102530006001259FD00C112432C08B859C858F3083
:102540009742A1F46091CB057091CC056F5F7F4FEE
:102550002091EE05EB81FC812E9FC0012F9F900DF5
:1025600011249B01281B390B3C872B874B855C85ED
:102570004E30574231F58091CB059091CC05A0911A
:10258000CD05B091CE050196A11DB11D2091EE059E
:10259000EB81FC812E9F60012F9FD00C11240D2C0C
:1025A000000CEE08FF08BC01CD016C197D098E09F5
:1025B0009F0922E030E040E050E00E9405353C8772
:1025C0002B8718870F831E821D82ED81FE812B8150
:1025D0003C81E217F3070CF092C18091EE052D814A
:1025E0003E81829F2001839F500C11244B855C8586
:1025F000440E551EAF81B8850D91B887AF83E09129
:10260000D605F091D70590818091E20580958923C8
:1026100080832091F2058091EE059091EF0510E006
:102620002111F7C02091C605211176C09101290F13
:10263000311D21503109A201480F511D415051094E
:10264000B101C201BFDD8091EE0586958695869524
:102650009091EF052091F005021B1109899FC0019F
:102660001124089F7001099FF00C189FF00C112491
:10267000B4E0EB0EF11CA12CB12C8091EE058695F7
:10268000869586959091EF05899FC0011124A81623
:10269000B90688F5E091EC05F091ED05EE0DFF1D12
:1026A000E491F7E0CF2ED12C0E2F10E0C8010C2CB6
:1026B00002C0959587950A94E2F780FF08C0809143
:1026C000C20590E0982F88272091C30507C080910C
:1026D000C40590E0982F88272091C505822B6EDDD8
:1026E000E1E0CE1AD10810F72FEFE21AF20A3FEF1D
:1026F000A31AB30AC2CFE091D605F091D705908115
:102700008091E205892B8083A5DE4D815E814F5F3C
:102710005F4F5E834D8359CF869586958695209130
:10272000F005021B1109899FC0011124089F600157
:10273000099FD00C189FD00C112454E0C50ED11C59
:10274000A12CB12C2091EE05622F669566956695B9
:102750008091EF05689FC0011124A816B90658F6AC
:1027600070E0C5010E943836620D731DA201420F50
:10277000511D415051099B01C20124DDE090EE053D
:10278000E694E694E694F12C460181E0881A9108DB
:10279000E114F10499F1E091EC05F091ED05C4012B
:1027A0008E0D9F1DE80FF91FE491612C712C0E2FE7
:1027B00010E0C801062C02C0959587950A94E2F7AF
:1027C00080FF08C08091C20590E0982F8827209153
:1027D000C30507C08091C40590E0982F88272091F9
:1027E000C505822BEBDC9FEF691A790AA8E06A160F
:1027F0007104F9F6B1E0EB1AF108CACF8091EE0549
:1028000086958695869590E0C80ED91EA80EB91EAD
:1028100099CF8695869586952091F005021B110922
:10282000899FC0011124089F3001099F700C189FD7
:10283000700C1124E4E06E0E711C81018091EF0593
:1028400090E09801221933092817390708F053CF6F
:10285000812C912CC12CD12CD8011196BA87A98733
:102860008091EE0586958695869590E0C816D906E6
:102870000CF040C0E091EC05F091ED05C601860D2D
:10288000971DE80FF91FE4917201E80CF91C37E07D
:10289000A32EB12C2E2F30E03A83298389819A818F
:1028A0000A2C02C0959587950A94E2F780FF11C023
:1028B00029853A85A7014F5F5F4FB801C70182DCC8
:1028C0008091C20590E0982F88272091C305822B24
:1028D00075DC31E0A31AB1084FEFE41AF40A5FEF98
:1028E000A516B506D9F68FEFC81AD80A98E0890E52
:1028F000911CB6CF680E791E0F5F1F4F9FCF2C968D
:102900000FB6F894DEBF0FBECDBFDF91CF911F9100
:102910000F91FF90EF90DF90CF90BF90AF909F907E
:102920008F907F906F905F904F903F902F90089581
:102930002F923F924F925F927F928F929F92AF928F
:10294000BF92CF92DF92EF92FF920F931F93CF939C
:10295000DF93CDB7DEB7E4970FB6F894DEBF0FBEB6
:10296000CDBF6B017C01611571058105910521F4D5
:1029700080E389831A825AC097FF0BC0F094E094D9
:10298000D094C094C11CD11CE11CF11C7724739419
:1029900001C0712C8E01045E1F4F48018AE0282E71
:1029A000312C412C512CC701B601A20191010E948A
:1029B000053520E3260FF40121934F015F01A01A92
:1029C000B10AA7019601261B370B480B590BCA0108
:1029D000B901A20191010E94053569017A01232BF9
:1029E000242B252B01F7F801EA0DFB1D108277201F
:1029F00011F08DE28983E72DF0E0C5018E0F9F1F56
:102A0000D801AA0DBB1D41E050E04C0F5D1FE40F43
:102A1000F51FA017B10719F02E912193FACFE1E02D
:102A2000F0E0EC0FFD1FE80FF91F108246E450E0C4
:102A300064E670E0CE01019622DDE4960FB6F894CC
:102A4000DEBF0FBECDBFDF91CF911F910F91FF90E1
:102A5000EF90DF90CF90BF90AF909F908F907F903E
:102A60005F904F903F902F900895FC018091C0059A
:102A70009091C105892B21F421E0309749F413C0CE
:102A80008091BC059091BD05309731F421E0FC01A7
:102A90008081882341F006C0BF010E94723821E086
:102AA000892B09F020E0822F08958F929F92AF9298
:102AB000BF92CF92DF92EF92FF926A017B0182B9BF
:102AC000CB01BA0120E130E040E050E00E94053542
:102AD00049015A0180E090E0DC0188159905AA05BA
:102AE000BB050CF064C2E091D405F091D5053081AE
:102AF0002091E105209523232083E091D405F091D6
:102B0000D50530812091E105232B2083E091D40568
:102B1000F091D50530812091E10520952323208374
:102B2000E091D405F091D50530812091E105232B6A
:102B30002083E091D405F091D50530812091E10505
:102B4000209523232083E091D405F091D505308191
:102B50002091E105232B2083E091D405F091D50548
:102B600030812091E105209523232083E091D40535
:102B7000F091D50530812091E105232B2083E09150
:102B8000D405F091D50530812091E10520952323CE
:102B90002083E091D405F091D50530812091E105A5
:102BA000232B2083E091D405F091D505308120912D
:102BB000E105209523232083E091D405F091D505EC
:102BC00030812091E105232B2083E091D405F09101
:102BD000D50530812091E105209523232083E091C4
:102BE000D405F091D50530812091E105232B208378
:102BF000E091D405F091D50530812091E105209533
:102C000023232083E091D405F091D50530812091D4
:102C1000E105232B2083E091D405F091D505308187
:102C20002091E105209523232083E091D405F091A4
:102C3000D50530812091E105232B2083E091D40537
:102C4000F091D50530812091E10520952323208343
:102C5000E091D405F091D50530812091E105232B39
:102C60002083E091D405F091D50530812091E105D4
:102C7000209523232083E091D405F091D505308160
:102C80002091E105232B2083E091D405F091D50517
:102C900030812091E105209523232083E091D40504
:102CA000F091D50530812091E105232B2083E0911F
:102CB000D405F091D50530812091E105209523239D
:102CC0002083E091D405F091D50530812091E10574
:102CD000232B2083E091D405F091D50530812091FC
:102CE000E105209523232083E091D405F091D505BB
:102CF00030812091E105232B2083E091D405F091D0
:102D0000D50530812091E105209523232083E09192
:102D1000D405F091D50530812091E105232B208346
:102D2000E091D405F091D50530812091E105209501
:102D300023232083E091D405F091D50530812091A3
:102D4000E105232B2083E091D405F091D505308156
:102D50002091E105209523232083E091D405F09173
:102D6000D50530812091E105232B2083E091D40506
:102D7000F091D50530812091E10520952323208312
:102D8000E091D405F091D50530812091E105232B08
:102D90002083E091D405F091D50530812091E105A3
:102DA000209523232083E091D405F091D50530812F
:102DB0002091E105232B2083E091D405F091D505E6
:102DC00030812091E105209523232083E091D405D3
:102DD000F091D50530812091E105232B2083E091EE
:102DE000D405F091D50530812091E105209523236C
:102DF0002083E091D405F091D50530812091E10543
:102E0000232B2083E091D405F091D50530812091CA
:102E1000E105209523232083E091D405F091D50589
:102E200030812091E105232B2083E091D405F0919E
:102E3000D50530812091E105209523232083E09161
:102E4000D405F091D50530812091E105232B208315
:102E5000E091D405F091D50530812091E1052095D0
:102E600023232083E091D405F091D5053081209172
:102E7000E105232B2083E091D405F091D505308125
:102E80002091E105209523232083E091D405F09142
:102E9000D50530812091E105232B2083E091D405D5
:102EA000F091D50530812091E105209523232083E1
:102EB000E091D405F091D50530812091E105232BD7
:102EC0002083E091D405F091D50530812091E10572
:102ED000209523232083E091D405F091D5053081FE
:102EE0002091E105232B2083E091D405F091D505B5
:102EF00030812091E105209523232083E091D405A2
:102F0000F091D50530812091E105232B2083E091BC
:102F1000D405F091D50530812091E105209523233A
:102F20002083E091D405F091D50530812091E10511
:102F3000232B2083E091D405F091D5053081209199
:102F4000E105209523232083E091D405F091D50558
:102F500030812091E105232B2083E091D405F0916D
:102F6000D50540813091E105309534233083E091DF
:102F7000D405F091D50520813091E105322B3083C5
:102F8000E091D405F091D50540813091E10530956F
:102F900034233083E091D405F091D5052081309120
:102FA000E105322B30830196A11DB11D96CDD701CD
:102FB000C6018F709927AA27BB27892B8A2B8B2BB9
:102FC000E1F1C701B60120E130E040E050E00E94AD
:102FD0000535C12CD12C76016C157D058E059F051C
:102FE00064F1E091D405F091D50530812091E1059F
:102FF000209523232083E091D405F091D5053081DD
:103000002091E105232B2083E091D405F091D50593
:1030100030812091E105209523232083E091D40580
:10302000F091D50530812091E105232B20832FEFEE
:10303000C21AD20AE20AF20ACFCFFF90EF90DF90D5
:10304000CF90BF90AF909F908F9008958F929F9256
:10305000AF92BF92CF92DF92EF92FF9269017A0115
:1030600082B968B9CA01B90120E130E040E050E01E
:103070000E94053549015A0180E090E0DC01881585
:103080009905AA05BB050CF034C1E091D405F09177
:10309000D50530812091E105209523232083E091FF
:1030A000D405F091D50530812091E105232B2083B3
:1030B000E091D405F091D50530812091E10520956E
:1030C00023232083E091D405F091D5053081209110
:1030D000E105232B2083E091D405F091D5053081C3
:1030E0002091E105209523232083E091D405F091E0
:1030F000D50530812091E105232B2083E091D40573
:10310000F091D50530812091E1052095232320837E
:10311000E091D405F091D50530812091E105232B74
:103120002083E091D405F091D50530812091E1050F
:10313000209523232083E091D405F091D50530819B
:103140002091E105232B2083E091D405F091D50552
:1031500030812091E105209523232083E091D4053F
:10316000F091D50530812091E105232B2083E0915A
:10317000D405F091D50530812091E10520952323D8
:103180002083E091D405F091D50530812091E105AF
:10319000232B2083E091D405F091D5053081209137
:1031A000E105209523232083E091D405F091D505F6
:1031B00030812091E105232B2083E091D405F0910B
:1031C000D50530812091E105209523232083E091CE
:1031D000D405F091D50530812091E105232B208382
:1031E000E091D405F091D50530812091E10520953D
:1031F00023232083E091D405F091D50530812091DF
:10320000E105232B2083E091D405F091D505308191
:103210002091E105209523232083E091D405F091AE
:10322000D50530812091E105232B2083E091D40541
:10323000F091D50530812091E1052095232320834D
:10324000E091D405F091D50530812091E105232B43
:103250002083E091D405F091D50530812091E105DE
:10326000209523232083E091D405F091D50530816A
:103270002091E105232B2083E091D405F091D50521
:1032800030812091E105209523232083E091D4050E
:10329000F091D50530812091E105232B2083E09129
:1032A000D405F091D50540813091E1053095342366
:1032B0003083E091D405F091D50520813091E1056E
:1032C000322B3083E091D405F091D50540813091C7
:1032D000E105309534233083E091D405F091D50594
:1032E00020813091E105322B30830196A11DB11D63
:1032F000C6CED701C6018F709927AA27BB27892B75
:103300008A2B8B2B49F1C701B60120E130E040E068
:1033100050E00E940535C12CD12C76016C157D053D
:103320008E059F05CCF0E091D405F091D505308154
:103330002091E105209523232083E091D405F0918D
:10334000D50530812091E105232B20832FEFC21A70
:10335000D20AE20AF20AE2CFFF90EF90DF90CF901C
:10336000BF90AF909F908F9008950F931F93CF932E
:10337000DF93EA0157FF05C0840F951FD195C195D2
:10338000D109E091D605F091D70540813091E20551
:10339000309534233083AC014C0F5D1F9B010E949C
:1033A000E2108091D0058031A9F4E091D205F0912E
:1033B000D30590818091E005892B80839E01DD0FEC
:1033C000440B550B6091C30570E08091C20590E0FD
:1033D0003DDE26C08830C1F49091C2058091C305BE
:1033E000981312C0E091D205F091D305908180919D
:1033F000E005892B8083AE01DD0F660B770B809192
:10340000C20590E052DB0CC000E010E06091C30503
:103410008091C205DED40F5F1F4FC017D107B4F7EC
:10342000E091D605F091D70590818091E205892B36
:103430008083DF91CF911F910F910CC80F931F9341
:10344000CF93DF93FC01EA0157FF05C0640F751F9E
:10345000D195C195D109A091D605B091D7052C91F0
:103460009091E205909592239C939B012C0F3D1F18
:10347000AF01CF010E94E2108091D0058031A9F404
:10348000E091D205F091D30590818091E005892BE0
:1034900080839E01DD0F440B550B6091C30570E0E6
:1034A0008091C20590E0D2DD26C08830C1F49091B1
:1034B000C2058091C305981312C0E091D205F09126
:1034C000D30590818091E005892B8083AE01DD0FCB
:1034D000660B770B8091C20590E0E7DA0CC000E044
:1034E00010E06091C3058091C20573D40F5F1F4F38
:1034F000C017D107B4F7E091D605F091D7059081B8
:103500008091E205892B8083DF91CF911F910F91EC
:103510000C942A126F927F928F929F92AF92BF92D9
:10352000CF92DF92EF92FF920F931F93CF93DF938F
:103530008C01681779072CF4982F812F8B01692F44
:10354000782FEB01C01BD10BC530D1050CF441C065
:10355000E12CF12C3E0184E0681A7108680182E0D8
:10356000C80ED11C5E0182E0A81AB10848018FEF95
:10357000881A980AE114F10471F081E0E816F10468
:10358000A1F4A50169EC70E0C401EFDEA5016FEEC6
:1035900070E0C40116C0A30168EC70E0C601E5DE6E
:1035A000A30160EF70E0C6010CC0AE01B701685323
:1035B0007F4FC801DADE60EF70E06E197F09AE015F
:1035C000C801D3DE8FEFE81AF80A85E1E816F104A6
:1035D00089F6DF91CF911F910F91FF90EF90DF90CF
:1035E000CF90BF90AF909F908F907F906F900895F5
:1035F0008F929F92AF92BF92CF92DF92EF92FF9203
:103600000F931F93CF93DF937C016B01EA01890134
:10361000481759072CF4982F8F2D7A01C92FD82FCE
:103620000C151D052CF49C2D8D2D6801092F182FCC
:103630008091D005803109F03FC0E091D605F0912E
:10364000D70590818091E205809589238083980138
:10365000AE01B601C7010E94E210E091D205F091DF
:10366000D30590818091E005892B8083CE19DF09F5
:10367000CE01DD0FAA0BBB0B9C01AD012F5F3F4FAD
:103680004F4F5F4FB8016C197D09CB01770FAA0B23
:10369000BB0BBC01CD016F5F7F4F8F4F9F4F0E94CF
:1036A000D4349B01AC01E091C3056E2F70E0809192
:1036B000C20590E0CBDC43C0883009F04AC090914D
:1036C000C2058091C305981344C0E091D605F091DE
:1036D000D70590818091E2058095892380839801A8
:1036E000AE01B601C7010E94E210E091D205F0914F
:1036F000D30590818091E005892B8083CE19DF0965
:10370000CE01DD0FAA0BBB0B9C01AD012F5F3F4F1C
:103710004F4F5F4FB8016C197D09CB01770FAA0B92
:10372000BB0BBC01CD016F5F7F4F8F4F9F4F0E943E
:10373000D434AB01BC018091C20590E0B6D9E091D0
:10374000D605F091D70590818091E205892B808381
:1037500045C08091C605882379F05E01AE18BF0888
:10376000B7FE03C08FEFA81AB80AB594A794812CAE
:10377000912C0C191D091FC0C8018C199D0997FDBA
:1037800001964C0195948794A12CB12CCE19DF0998
:103790008A149B041CF1B5016C0D7D1DAE01C7019F
:1037A000E4DDB8016A197B09AE01C701DEDD8FEFE8
:1037B000A81AB80AEDCFA814B90484F0A801B6017C
:1037C000C4018E0D9F1D3ADEA801B601CE018819F5
:1037D000990934DE8FEF881A980AEDCFDF91CF91E7
:1037E0001F910F91FF90EF90DF90CF90BF90AF901F
:1037F0009F908F900895E1ECF4E0A089B18982E078
:103800008C93A485B5851C92A685B7858FEC8C9387
:10381000108EA489B58986E08C93A289B3898C9196
:1038200080618C93A289B3898C9188608C93A289E2
:10383000B3898C9180688C930288F389E02D808114
:103840008F7D80830895CF92DF92EF92FF92CF9386
:10385000DF936B017C01E091C104F091C2040190FF
:10386000F081E02D6DE281EC94E01995EC014427A4
:103870005527BA014C195D096E097F092AE081ECD0
:1038800094E068D38C0F9D1FDF91CF91FF90EF9054
:10389000DF90CF900895CF93DF93BC0181EC94E04B
:1038A00044D3EC0169E372E081EC94E03ED38C0FE9
:1038B0009D1FDF91CF910895CF92DF92EF92FF92FB
:1038C0000F931F93CF93DF93CDB7DEB7CDB6DEB6A0
:1038D000FC010481158198012F5F3F4F4DB75EB702
:1038E000421B530B0FB6F8945EBF0FBE4DBFEDB732
:1038F000FEB731967F01232B81F0309771F00115CF
:10390000110551F0FC0160817181A801C7010E947D
:103910008238F701E00FF11F108244E650E060E0CA
:1039200070E0C7010E943F120FB6F894DEBE0FBED2
:10393000CDBEDF91CF911F910F91FF90EF90DF905F
:10394000CF900895483009F448C118F4413041F04F
:103950000895403109F457C1413109F468C108950F
:103960009091D105943019F5E091DA05F091DB05DD
:103970009091E405813019F48081982B03C08081F7
:10398000909598239083E091DC05F091DD0590817E
:103990008091E505809589238083E091DC05F09195
:1039A000DD0590818091E505892B80830FC0E09132
:1039B000D205F091D3059091E005813019F4808112
:1039C000982B03C08081909598239083E091DA052D
:1039D000F091DB058091E405908167FF02C0892B9F
:1039E00002C0809589238083E091DC05F091DD059C
:1039F00090818091E505809589238083E091DC05A5
:103A0000F091DD0590818091E505892B8083E0911F
:103A1000DA05F091DB058091E405908166FF02C034
:103A2000892B02C0809589238083E091DC05F09189
:103A3000DD0590818091E505809589238083E09163
:103A4000DC05F091DD0590818091E505892B80836F
:103A5000E091DA05F091DB058091E405908165FF46
:103A600002C0892B02C0809589238083E091DC0508
:103A7000F091DD0590818091E50580958923808313
:103A8000E091DC05F091DD0590818091E505892BC1
:103A90008083E091DA05F091DB058091E405908167
:103AA00064FF02C0892B02C0809589238083E09146
:103AB000DC05F091DD0590818091E50580958923F5
:103AC0008083E091DC05F091DD0590818091E50532
:103AD000892B8083E091DA05F091DB058091E40584
:103AE000908163FF02C0892B02C080958923808367
:103AF000E091DC05F091DD0590818091E5058095F0
:103B000089238083E091DC05F091DD05908180912F
:103B1000E505892B8083E091DA05F091DB05809142
:103B2000E405908162FF02C0892B02C08095892341
:103B30008083E091DC05F091DD0590818091E505C1
:103B4000809589238083E091DC05F091DD059081EB
:103B50008091E505892B8083E091DA05F091DB0502
:103B60008091E405908161FF02C0892B02C080959D
:103B700089238083E091DC05F091DD0590818091BF
:103B8000E505809589238083E091DC05F091DD05D2
:103B900090818091E505892B8083E091DA05F09191
:103BA000DB058091E405908160FF02C0892B02C093
:103BB000809589238083E091DC05F091DD0590817B
:103BC0008091E505809589238083E091DC05F09163
:103BD000DD0590818091E505CFC082B9E091D405E3
:103BE000F091D50590818091E105809589238083AE
:103BF000E091D405F091D50590818091E105892B64
:103C0000808362B902C082B968B9E091D405F091AD
:103C1000D50590818091E105809589238083E0918D
:103C2000D405F091D50590818091E105A5C0A598B6
:103C300024B3982F9071990F922B94BB909102010D
:103C4000977E9093020190910201282F082E000C7C
:103C5000330B207C332743E0359527954A95E1F7D0
:103C6000292B209302019EB1947C9EB92EB1382F4E
:103C70003C70330F330F982F9370390F8072082EDA
:103C8000000C990B9595879595958795830F822BB9
:103C90008EB9E091DE05F091DF0590818091E60517
:103CA000809589238083E091DE05F091DF05908186
:103CB0008091E605892B8083E091DE05F091DF0598
:103CC00090818091E605809589238083E091D605D7
:103CD000F091D70590818091E205809589238083BA
:103CE000A59894B3862F8071880F892B84BB80910F
:103CF0000201877E8093020120910201862F062E09
:103D0000000C990B807C992773E0959587957A959F
:103D1000E1F7822B809302018EB1847C8EB98EB143
:103D2000962F9C70990F990F262F2370920F607217
:103D3000062E000C770B7595679575956795690F3D
:103D4000682B6EB9E091D405F091D50590818091F2
:103D5000E105809589238083E091D405F091D50514
:103D600090818091E105892B8083E091D605F091C7
:103D7000D70590818091E205892B80830895682F73
:103D80008091D005813069F0E091D205F091D305A2
:103D900020819091E0059095922390834091D005E9
:103DA00001C041E080E0CECD682F8091D005813008
:103DB00069F0E091D205F091D30580819091E00502
:103DC000982B90834091D00580E002C041E081E0D3
:103DD000B9CDCF939091D005913061F0E091D205AB
:103DE000F091D30520819091E005922B9083409132
:103DF000D00509C0C62F682F41E081E0A3DD4091C6
:103E0000D0056C2F81E0CF919DCDCF93DF931F9292
:103E10001F92CDB7DEB769837A83B1DF69817A817A
:103E2000872F0F900F90DF91CF91D3CFCF92DF925A
:103E3000EF92FF920F931F93CF93DF936C017A0160
:103E40008B01C0E0D0E0CE15DF0589F0D8016D917F
:103E50008D01D601ED91FC910190F081E02DC6011C
:103E60001995892B11F47E0102C02196ECCFC70170
:103E7000DF91CF911F910F91FF90EF90DF90CF9046
:103E80000895EF92FF920F931F93CF93DF93EC016E
:103E90007B018A0188819981009729F02A813B81E1
:103EA00024173507F8F4B8016F5F7F4F0E94813700
:103EB000009759F0998388831B830A832C813D8165
:103EC000232B81F4FC0110820DC088819981009719
:103ED00011F00E94E936198218821D821C821B8211
:103EE0001A8207C01D830C83B701888199810E94C3
:103EF0007B38CE01DF91CF911F910F91FF90EF9012
:103F00000895FC011182108213821282158214829C
:103F10006115710549F0FB0101900020E9F7319727
:103F2000AF01461B570BADCF08956115710579F0B0
:103F3000FB0101900020E9F73197AF01461B570BB9
:103F4000DC01ED91FC910280F381E02D199480E079
:103F500090E008954F925F926F927F92EF92FF925E
:103F60000F931F93CF93DF93CDB7DEB7A1970FB613
:103F7000F894DEBF0FBECDBF7C01FA01CB0119A2C0
:103F8000223008F42AE08E010F5D1F4F422E512C83
:103F9000612C712CBF01A30192010E94E334F9014D
:103FA000CA01015011096A3014F4605D01C0695CF6
:103FB000D8016C93232B242B252B61F7B801C70163
:103FC000B4DFA1960FB6F894DEBF0FBECDBFDF9170
:103FD000CF911F910F91FF90EF907F906F905F9026
:103FE0004F900895CF93DF93CDB7DEB728970FB6E4
:103FF000F894DEBF0FBECDBF789484B5826084BDD7
:1040000084B5816084BD85B5826085BD85B58160DC
:1040100085BD80916E00816080936E00109281005A
:104020008091810082608093810080918100816015
:1040300080938100809180008160809380008091D6
:10404000B10084608093B1008091B0008160809362
:10405000B0008091910082608093910080919100E6
:1040600081608093910080919000816080939000A6
:104070008091A10082608093A1008091A100816065
:104080008093A1008091A00081608093A000809126
:1040900021018260809321018091210181608093C0
:1040A00021018091200181608093200180917A001C
:1040B000846080937A0080917A00826080937A0095
:1040C00080917A00816080937A0080917A00806884
:1040D00080937A001092C1001092A2051092A3055D
:1040E0001092A4051092A50510926005109261052A
:1040F000109262051092630568EB7BE080E090E02F
:104100000E94FC0981EC94E09093A1058093A005A6
:1041100072DB0E94340A609360057093610580939E
:104120006205909363056AE272E08091A005909128
:10413000A105FBDE6AE070E080E090E00E94FC09EF
:1041400011E01093740557DB1093C60561E0809170
:10415000E7050E94A10961E08091E8050E94A1099C
:1041600061E08091E9050E94A1098091EA058F3FF5
:1041700019F061E00E94A1098091D005813131F0F0
:10418000813049F48091D105853029F461E0809136
:10419000EB050E94A1098091D005813079F0813131
:1041A00031F09FEF91B9803149F497B907C088E1A8
:1041B0008093010180E283BB8BE38DB9E091D80548
:1041C000F091D90590818091E305892B808365E08A
:1041D00070E080E090E00E94FC09E091D805F09149
:1041E000D90590818091E3058095892380836FE0D4
:1041F00070E080E090E00E94FC09E091D805F09129
:10420000D90590818091E305892B80836FE070E070
:1042100080E090E00E94FC09E091D605F091D7057E
:1042200090818091E205809589238083E091CF057C
:104230008E2F90E0FC013297EE31F10510F00C94D6
:104240001C2F8827EE58FF4F8F4F0C944C3661E09F
:1042500070E080E0DADD64EA78EA83E0D6DD60E0F1
:1042600070E08CE0D2DD6CE078E08DE0CEDD60E0E7
:104270007BE28EE0CADD67EB70E08EE1C6DD6FE3C6
:104280007BE281E0C2DD60E076E082E0BEDD60E0FE
:1042900070E080E1BADD60E770E681E1B6DD60E004
:1042A00070E085E0B2DD60E070E086E0AEDD6CE1FC
:1042B0007FEE86E1AADD63E070E087E1A6DD63E3DF
:1042C00072E087E0A2DD60E070E08BE09EDD60E000
:1042D00070E08FE09ADD60E070E081E496DD60E000
:1042E00070E082E492DD60E070E088E48EDD6FE3F0
:1042F00071E089E48ADD60E070E08AE486DD60E0F8
:1043000070E08BE482DD60E07FEE84E47EDD60E0DF
:1043100070E085E47ADD6FE371E086E476DD67E0E6
:1043200077E080E372DD64E072E081E36EDD64E0FB
:1043300072E082E36ADD62E075E083E366DD67E0F8
:1043400075E084E362DD64E072E085E35EDD64E0F5
:1043500072E086E35ADD62E075E087E356DD62E0F5
:1043600073E08AE352DD62E073E08BE34EDD60E0F0
:1043700070E083E24ADD60E070E084E246DD60E008
:1043800070E885E242DD60E070E08FE43EDD60E0F1
:1043900070E08EE40C94312A60EF78E785EE35DD2D
:1043A00060E071E081E031DD60E072E082E02DDD0F
:1043B00060E370E183E029DD60E070E084E025DD0A
:1043C00067E072E088E021DD60E070E089E01DDDFB
:1043D00060E070E08AE019DD60E070E08CE015DDFF
:1043E00060E070E08DE011DD60E070E08FE00DDDF9
:1043F00060E070E080E109DD67E070E081E105DD0B
:1044000060E070E082E101DD60E070E083E1FDDC0E
:1044100061E070E087E0F9DC68EC70E080E090E05B
:104420000E94FC0960E976E180E1EFDC67E272E07E
:1044300081E1EBDC62E370E080E090E00E94FC0947
:104440006DE070E082E1E1DC62E370E080E090E04A
:104450000E94FC0960E072E183E1D7DC6AE070E071
:1044600089E2D3DC6DE070E068C060EF78E785EE4C
:10447000CCDC60E071E081E0C8DC60E077E082E005
:10448000C4DC60E370E183E0C0DC60E070E084E005
:10449000BCDC67E072E088E0B8DC60E070E089E0F6
:1044A000B4DC60E070E08AE0B0DC60E070E08CE0FA
:1044B000ACDC60E070E08DE0A8DC60E070E08FE0F4
:1044C000A4DC60E070E080E1A0DC67E070E081E106
:1044D0009CDC60E070E082E198DC60E070E083E109
:1044E00094DC61E070E087E090DC68EC70E080E0F4
:1044F00090E00E94FC0960E975E180E186DC67E2FA
:1045000072E081E182DC62E370E080E090E00E9492
:10451000FC096CE970E082E178DC62E370E080E045
:1045200090E00E94FC0960E079E183E16EDC63E2E7
:1045300070E089E26ADC6EE070E08BE266DC62E3E8
:1045400070E080E090E00E94FC0960E070E080E2B2
:104550005CDC60E070E081E258DC60E070E080E309
:1045600054DC64E074E081E350DC63E070E082E3FB
:104570004CDC65E074E085E348DC68E078E086E3E5
:1045800044DC67E074E087E340DC63E073E088E3E9
:104590003CDC67E077E089E338DC64E075E08CE3DD
:1045A00034DC68E078E08DE330DC60E070E080E5EA
:1045B0002CDC6FEE70E081E528DC60E070E082E5E5
:1045C00024DC6FE371E083E520DC60E077EA80E6DD
:1045D0001CDC61E070E081E618DC60E070E08AE6F7
:1045E00014DC60E070E080E810DC60E070E081E8FE
:1045F0000CDC60E070E082E808DC60E070E083E8FA
:1046000004DC60E070E084E800DC60E070E085E8F5
:10461000FCDB60E170E080E9F8DB60E070E082E9FB
:10462000F4DB63E371E087E0F0DB0C941C2F64E8BB
:1046300070E086E2EADB68E270E080E090E00E94F1
:10464000FC0968EB70E086E2E0DB68E270E080E0A5
:1046500090E00E94FC096CEB70E086E2D6DB64E13E
:1046600070E080E090E00E94FC0960E070E080E68D
:10467000CCDB66E070E081E6C8DB60E070E082E6FB
:10468000C4DB68EC70E083E6C0DB64E170E080E0EE
:1046900090E00E94FC0960E770E083E7B6DB60E031
:1046A00070E080E4B2DB60E470E081E4AEDB65E4FE
:1046B00070E082E4AADB61E070E083E4A6DB60E600
:1046C00070E084E4A2DB65E070E085E49EDB6CE0F2
:1046D00070E086E49ADB61ED70E087E496DB65E0EC
:1046E00070E088E492DB65E770E080E58EDB61E0F6
:1046F00070E081E58ADB67E670E082E586DB64E1F5
:1047000070E083E582DB62EF70E084E57EDB67E0EA
:1047100070E085E57ADB63E070E086E576DB69E4EE
:1047200070E087E572DB64E170E080E090E00E9479
:10473000FC0963E070E08FE168DB60E070E080E23C
:1047400064DB64E270E084E260DB64E370E085E2F5
:104750005CDB6FE270E083E258DB64E170E080E0F4
:1047600090E00E94FC0964E470E088E14EDB61E0C7
:1047700070E081E24ADB60E070E081E046DB63E00C
:1047800070E08CE142DB66E070E089E13EDB64E1F1
:1047900070E080E090E00E94FC0964E870E086E24E
:1047A00034DB68E270E080E090E00E94FC0968EB96
:1047B00070E086E22ADB68E270E080E090E00E9430
:1047C000FC096CEB70E086E220DB64E170E080E0E5
:1047D00090E00E94FC0960E070E082E016DB60E09F
:1047E00070E083E012DB60E070E084E00EDB6FEAF3
:1047F00070E085E00ADB60E070E086E006DB60E008
:1048000070E087E002DB60E070E088E0FEDA6BEDEC
:1048100070E089E0FADA64E170E080E090E00E9404
:10482000FC0968E070E086E1F0DA65E070E087E1BD
:10483000ECDA81E2A4DA82E2A2DA0C941C2F81E1A4
:104840009EDA6CE070E080E090E00E94FC0981EB71
:1048500096DA81E0A9DA8CE2A7DA8DE2A5DA82EBBA
:104860008EDA81E0A1DA8CE29FDA8DE29DDA83EBC9
:1048700086DA81E099DA8CE297DA8DE295DA81E0E6
:1048800093DA8CE291DA8DE28FDA84EB78DA87E0E2
:104890008BDA80EC74DA82EA87DA82E085DA84E8FF
:1048A00083DA81EC6CDA85EC7FDA82EC68DA8AE014
:1048B0007BDA80E079DA83EC62DA8AE875DA8AE218
:1048C00073DA84EC5CDA8AE86FDA8EEE6DDA85EC06
:1048D00056DA8EE069DA86E352DA88EC4FC081E17D
:1048E0004EDA6CE070E080E090E00E94FC0981EB21
:1048F00046DA81E059DA8CE257DA8DE255DA82EB5A
:104900003EDA81E051DA8CE24FDA8DE24DDA83EB68
:1049100036DA81E049DA8CE247DA8DE245DA81E085
:1049200043DA8CE241DA8DE23FDA84EB28DA87E081
:104930003BDA80EC24DA82EA37DA82E035DA84E89E
:1049400033DA81EC1CDA85EC2FDA82EC18DA8AE0B3
:104950002BDA80E029DA83EC12DA8AE825DA8AE2B7
:1049600023DA84EC0CDA8AE81FDA8EEE1DDA85ECA5
:1049700006DA8EE019DA86E302DA80EC15DA80EEE8
:10498000FED98FE011DA8AE10FDA8FE00DDA88E1E3
:104990000BDA8FE209DA88E207DA80E205DA82E2EE
:1049A00003DA8FE101DA8BE1FFD983E2FDD987E3F6
:1049B000FBD980E0F9D987E0F7D982E0F5D980E129
:1049C000F3D981EEDCD98FE0EFD98BE1EDD98FE01F
:1049D000EBD987E1E9D983E3E7D98CE2E5D989E22C
:1049E000E3D98EE2E1D980E3DFD980E3DDD989E341
:1049F000DBD98FE3D9D980E0D7D987E0D5D983E057
:104A0000D3D980E1D1D98AE2BAD980E0CDD980E08A
:104A1000CBD980E0C9D98FE7C7D98BE2B0D980E084
:104A2000C3D980E0C1D980E0BFD98FE9BDD980EF7B
:104A3000A6D981E0B9D986EFA2D980E0EEC581E0A0
:104A40009ED985E29CD980E4AFD981E198D96AE00A
:104A500070E080E090E00E94FC0980E290D988E359
:104A60008ED989E28CD983E18AD986E388D980E618
:104A70009BD98AE384D985E097D98AE280D980E0FE
:104A800093D98FE791D984EB7AD983E08DD988E0E7
:104A90008BD98BE089D98EE087D98AEB70D987E0F2
:104AA00083D98DE081D98BE26AD980E07DD98FE707
:104AB0006DC183E864D982E077D985E860D983E065
:104AC00073D98BE85CD981E06FD98CE858D983E938
:104AD0006BD981E954D981E067D983E850D980E066
:104AE00063D98EE34CD980EB5FD98FE348D983E05B
:104AF0005BD980E444D980E157D981E440D986E587
:104B000053D982E43CD983E14FD983E438D986E490
:104B10004BD984E434D983E247D985E430D986E798
:104B200043D986E42CD980E03FD987E428D98EE5A3
:104B30003BD988E424D98FE437D989E420D980E4AB
:104B400033D987E11CD981E92FD98BE218D989EFB4
:104B50002BD96AE070E080E090E00E94FC098BE1D4
:104B60000ED984E121D98AE10AD981E11DD98CE1EC
:104B700006D986E019D98FE102D982E415D964E11A
:104B800070E080E090E00E94FC0989E1F8D88AE0BA
:104B90000BD989E1F4D88AE107D968E270E080E0B6
:104BA00090E00E94FC0989E1EAD882E1FDD868E240
:104BB00070E080E090E00E94FC098EE1E0D887E29E
:104BC000F3D864E670E080E090E00E94FC0984E2A3
:104BD000D6D880E6E9D88DE3D2D880E4E5D884E35E
:104BE000CED888E3E1D885E3CAD888E3DDD884E26B
:104BF000C6D888E3D9D868E270E080E090E00E94EF
:104C0000FC0984E2BCD88CE3CFD886E1B8D88CE12B
:104C1000CBD881E0B4D886E0C7D885E5B0D880E0AD
:104C2000C3D882E0ACD880E0BFD883E0A8D880E0C9
:104C3000BBD884E0A4D880E0B7D885E0A0D88FEEB8
:104C4000B3D886E09CD880E0AFD887E098D880E0E1
:104C5000ABD888E094D881E0A7D889E090D88FE8D5
:104C6000A3D8E9CD82EE8BD883E29ED882E09CD88F
:104C700084E59AD880EE83D881E096D86AE070E027
:104C800080E090E00E94FC0980EE79D883E08CD827
:104C90006AE070E080E090E00E94FC0981E06FD85B
:104CA00064E670E080E090E00E94FC0986EE67D840
:104CB00081E07AD88FE178D88FEF76D880EB5FD813
:104CC00080E272D880E070D881E06ED88FED6CD829
:104CD00081E06AD88FE068D880E066D884EB4FD84E
:104CE00082E062D883E160D880E05ED888E05CD85A
:104CF0008BE25AD880E058D882E056D880E054D869
:104D000086EB3DD881E050D880E24ED880E04CD888
:104D100084E04AD88CE048D880E046D882E044D885
:104D20008AEB2DD88FE040D888EB29D887E03CD893
:104D300081E03AD886E323D882E236D880EF1FD8C4
:104D400083E032D861E070E080E090E00E94FC09EE
:104D50002FE031E04FED51E060E070E080E090E066
:104D60000E94E21089E20BD88EEB09D886E01CD8AD
:104D700080EF1AD881E018D880EF16D880E014D8D8
:104D800080E012D880ED0E94BF1E8DE00DD885C74F
:104D900082EE0E94BF1E8EE107D882E005D884E52E
:104DA00003D880EE0E94BF1E81E00E94D41E6AE0FC
:104DB00070E080E090E00E94FC0980EE0E94BF1E3F
:104DC00083E00E94D41E6AE070E080E090E00E94E0
:104DD000FC0981E00E94BF1E64E670E080E090E084
:104DE0000E94FC0986EE0E94BF1E83E00E94D41E32
:104DF0008FEF0E94D41E8FEF0E94D41E80EB0E9482
:104E0000BF1E84E20E94D41E80E00E94D41E83E074
:104E10000E94D41E8FE10E94D41E81E00E94D41E05
:104E20008FED0E94D41E80E00E94D41E84EB0E946D
:104E3000BF1E83E00E94D41E80EA0E94D41E80E040
:104E40000E94D41E8EE20E94D41E80E30E94D41ED3
:104E500080E00E94D41E8FE00E94D41E80E00E9459
:104E6000D41E86EB0E94BF1E82E00E94D41E8DE0FD
:104E70000E94D41E80E00E94D41E80E10E94D41EB5
:104E800080E10E94D41E80E00E94D41E88E00E942F
:104E9000D41E8AEB0E94BF1E8FE00E94D41E88EBB6
:104EA0000E94BF1E87E00E94D41E81E00E94D41E93
:104EB00086E30E94BF1E82E20E94D41E80EF0E9401
:104EC000BF1E83E00E94D41E61E070E080E090E0AD
:104ED000A3C082EE0E94BF1E83E20E94D41E82E025
:104EE0000E94D41E84E00E94D41E80EE0E94BF1E49
:104EF00081E00E94D41E6AE070E080E090E00E94B1
:104F0000FC0980EE0E94BF1E83E00E94D41E6AE06E
:104F100070E080E090E00E94FC0981E00E94BF1EEA
:104F200064E670E080E090E00E94FC0986EE0E945A
:104F3000BF1E84E00E94D41E83E90E94D41E80EE2E
:104F40000E94D41E80EB0E94BF1E80E00E94D41EEF
:104F500080E00E94D41E83E00E94D41E8FE10E9454
:104F6000D41E81E00E94D41E8FED0E94D41E80E0EA
:104F70000E94D41E84EB0E94BF1E83E00E94D41EB8
:104F800080EA0E94D41E80E00E94D41E8EE20E941D
:104F9000D41E80E30E94D41E80E00E94D41E8FE0C5
:104FA0000E94D41E80E00E94D41E86EB0E94BF1E89
:104FB00082E00E94D41E8DE00E94D41E80E00E94F8
:104FC000D41E80E10E94D41E80E10E94D41E80E0A5
:104FD0000E94D41E88E00E94D41E8AEB0E94BF1E4D
:104FE00085E00E94D41E88EB0E94BF1E87E00E94CD
:104FF000D41E81E00E94D41E86E30E94BF1E82E27E
:105000000E94D41E80EF0E94BF1E83E00E94D41E27
:105010006AE070E080E090E00E94FC092FED31E052
:105020004FE153E099CE64E070E281E10E94051FF8
:1050300060E07CEC83E10E94051F60E076E285E1A0
:105040000E94051F6AE275E284E10E94051F63E386
:1050500070E082E10E94051F64E07CEC83E10E9425
:10506000051F66E07CEC83E10E94051F6FE47CEC89
:1050700083E10E94051F6FE477E683E10E94051F2C
:1050800063E070E281E10E94051F69E076E280E35F
:105090000E94051F6CE274E281E30E94051F63E237
:1050A0007FE182E30E94051F65E274E283E30E94D0
:1050B000051F66E272E284E30E94051F63E275E267
:1050C00085E30E94051F6AE17CE186E30E94051FDB
:1050D0006DE173E187E30E94051F61E17BE088E3F6
:1050E0000E94051F60E172E189E30E94051F65E1EE
:1050F00073E18AE30E94051F69E176E38BE30E9476
:10510000051F60E07DE08CE30E94051F6DE070E00C
:105110008DE30E94051F67E070E086E10E94051F95
:1051200063E170E082E00E94051F63E070E083E0CD
:105130000E94051F67E271E081E00E94051F63E0A5
:1051400073E088E00E94051F6BE070E08AE00E9437
:10515000051F63E070E08BE00E94051F60E070E0D7
:105160008CE00E94051F60E070E081E40E94051F52
:1051700060E070E080E50E94051F65E070E080E679
:105180000E94051F6BE070E080E70E94051F60E051
:1051900070E081E70E94051F60E070E088E70E94F0
:1051A000051F60E070E08AE70E94051F67E070E07D
:1051B00089E70E94051F61E570E087E00E94051FF6
:1051C00063E570E087E00E94051F60E070E089E71A
:1051D00048C181E10E94BF1E64E170E080E090E080
:1051E0000E94FC0980ED0E94BF1E87E00E94D41E31
:1051F00082E40E94D41E88E10E94D41E81ED0E94A8
:10520000BF1E80E00E94D41E87E00E94D41E80E171
:105210000E94D41E82ED0E94BF1E81E00E94D41E17
:1052200082E00E94D41E80EC0E94BF1E80E10E949A
:10523000D41E8BE30E94D41E80E00E94D41E82E024
:105240000E94D41E81E10E94D41E85EC0E94BF1EE4
:1052500083E00E94D41E88EC0E94BF1E80E00E9462
:10526000D41E82E30E94D41E86E30E94D41E85E4ED
:105270000E94D41E86E00E94D41E86E10E94D41EA5
:1052800087E30E94D41E85E70E94D41E87E70E9410
:10529000D41E84E50E94D41E8CE00E94D41E80E0BF
:1052A0000E94D41E86E30E94BF1E8AE00E94D41E84
:1052B0008AE30E94BF1E85E50E94D41E8AE20E94F6
:1052C000BF1E80E00E94D41E80E00E94D41E81E0B8
:1052D0000E94D41E8FE30E94D41E8BE20E94BF1E48
:1052E00080E00E94D41E80E00E94D41E81E00E94D3
:1052F000D41E80EE0E94D41E68E770E080E090E04B
:105300000E94FC0992C16AE170E081E10E94051FE0
:1053100061E271E382E10E94051F6CE670E083E1C7
:105320000E94051F69E472E484E10E94051F60E0A9
:1053300078E080E10E94051F6AE070E080E090E084
:105340000E94FC096AE171E081E10E94051F6AE0A8
:1053500070E080E090E00E94FC096AE173E081E186
:105360000E94051F6AE070E080E090E00E94FC0966
:105370006AE177E081E10E94051F6AE070E080E069
:1053800090E00E94FC096AE17FE081E10E94051F34
:105390006AE070E080E090E00E94FC096AE37FE050
:1053A00081E10E94051F6EE170E080E090E00E94C4
:1053B000FC096CE171E081E00E94051F60E071E092
:1053C00082E00E94051F60E370E183E00E94051FF8
:1053D00060E070E087E00E94051F68E078E088E008
:1053E0000E94051F60E071E18BE00E94051F60E0F4
:1053F00070E08CE00E94051F61E074E18FE00E9484
:10540000051F60E070E085E10E94051F60E070E02C
:1054100080E20E94051F60E070E081E20E94051FAB
:105420006FEA70E086E30E94051F60E070E087E3AA
:105430000E94051F6BED70E088E30E94051F60E08D
:1054400070E089E30E94051F61E07BE08FE00E942D
:10545000051F66E170E087E00E94051F67E170E0CC
:1054600087E00E94051FE7C981E10E94BF1E68E72F
:1054700070E080E090E00E94FC0981EB0E94BF1E7A
:1054800085E00E94D41E8CE30E94D41E8CE30E940F
:10549000D41E82EB0E94BF1E85E00E94D41E8CE3C6
:1054A0000E94D41E8CE30E94D41E83EB0E94BF1E78
:1054B00085E00E94D41E8CE30E94D41E8CE30E94DF
:1054C000D41E85E00E94D41E8CE30E94D41E8CE37F
:1054D0000E94D41E84EB0E94BF1E83E00E94D41E53
:1054E00080EC0E94BF1E88E20E94D41E88E00E94C9
:1054F000D41E84E00E94D41E81EC0E94BF1E80EC6A
:105500000E94D41E82EC0E94BF1E8DE00E94D41E19
:1055100080E00E94D41E83EC0E94BF1E8DE80E9492
:10552000D41E8AE20E94D41E84EC0E94BF1E8DE825
:105530000E94D41E8EEE0E94D41E85EC0E94BF1ED7
:105540008AE10E94D41E86E30E94BF1E80EC0E9466
:10555000D41E80EE0E94BF1E83E00E94D41E82E211
:105560000E94D41E87E00E94D41E8AE00E94D41EAE
:105570008EE20E94D41E80E30E94D41E85E20E9427
:10558000D41E8AE20E94D41E88E20E94D41E86E2C3
:105590000E94D41E8EE20E94D41E8AE30E94D41E72
:1055A00080E00E94D41E81E00E94D41E83E00E940D
:1055B000D41E83E10E94D41E81EE0E94BF1E84E0AF
:1055C0000E94D41E86E10E94D41E86E00E94D41E52
:1055D0008DE00E94D41E8DE20E94D41E86E20E94BD
:1055E000D41E83E20E94D41E87E20E94D41E87E26A
:1055F0000E94D41E85E20E94D41E8DE20E94D41E19
:105600008BE30E94D41E80E00E94D41E81E00E94A1
:10561000D41E84E00E94D41E83E10E94D41E8AE33B
:105620000E94BF1E85E00E94D41E89E205C981E167
:105630000E94BF1E64E170E080E090E00E94FC09DF
:1056400088E20E94BF1E65E070E080E090E00E946A
:10565000FC098FEC0E94BF1E80E00E94D41E83E8EC
:105660000E94D41E80E30E94D41E8DEE0E94BF1EB5
:1056700084E60E94D41E83E00E94D41E82E10E9430
:10568000D41E81E80E94D41E88EE0E94BF1E85E8C9
:105690000E94D41E81E00E94D41E89E70E94D41E7D
:1056A0008BEC0E94BF1E89E30E94D41E8CE20E94F4
:1056B000D41E80E00E94D41E84E30E94D41E82E0A7
:1056C0000E94D41E87EF0E94BF1E80E20E94D41E5B
:1056D0008AEE0E94BF1E80E00E94D41E80E00E94DD
:1056E000D41E80EC0E94BF1E86E20E94D41E81EC74
:1056F0000E94BF1E81E10E94D41E85EC0E94BF1E45
:1057000085E30E94D41E8EE30E94D41E87EC0E9483
:10571000BF1E8EEB0E94D41E81EB0E94BF1E80E054
:105720000E94D41E8BE10E94D41E86EB0E94BF1EF5
:105730008AE00E94D41E82E80E94D41E87E20E9462
:10574000D41E80E00E94D41E87EB0E94BF1E87E01B
:105750000E94D41E8AE30E94BF1E85E50E94D41ECB
:1057600086E30E94BF1E88E40E94D41E89E20E9444
:10577000BF1E65E070E080E090E05CC38BEC0E94AF
:10578000BF1E89E30E94D41E8CE20E94D41E80E0DA
:105790000E94D41E84E30E94D41E82E00E94D41E84
:1057A0008FEC0E94BF1E80E00E94D41E81EC0E94FC
:1057B000D41E80E30E94D41E88EE0E94BF1E85E89E
:1057C0000E94D41E80E00E94D41E88E70E94D41E4E
:1057D0008AEE0E94BF1E80E00E94D41E80E00E94DC
:1057E000D41E8DEE0E94BF1E84E60E94D41E83E06C
:1057F0000E94D41E82E10E94D41E81E80E94D41E21
:1058000087EF0E94BF1E80E20E94D41E80EC0E949F
:10581000BF1E83E20E94D41E81EC0E94BF1E80E165
:105820000E94D41E85EC0E94BF1E8EE30E94D41EEF
:1058300088E20E94D41E87EC0E94BF1E86E80E9468
:10584000D41E86E30E94BF1E88E40E94D41E8AE311
:105850000E94BF1E85E50E94D41E81EB0E94BF1EE0
:1058600080E00E94D41E88E10E94D41E86EB0E9434
:10587000BF1E88E00E94D41E82E80E94D41E87E2E8
:105880000E94D41E81E10E94BF1E68E770E080E0A4
:1058900090E0FEC180EB0E94BF1E8EE10E94D41EEC
:1058A00080EB0E94BF1E80E00E94D41E83EB0E940A
:1058B000BF1E82E00E94D41E80E00E94D41E80E0C1
:1058C0000E94D41E80E10E94D41E84EB0E94BF1E61
:1058D00080E00E94D41E80EC0E94BF1E83E00E94E4
:1058E000D41E8BE30E94D41E80E00E94D41E80E070
:1058F0000E94D41E80E00E94D41E81E00E94D41E2B
:1059000080E00E94D41E83E40E94D41E81EC0E9499
:10591000BF1E88E00E94D41E85E10E94D41E88E04C
:105920000E94D41E88E00E94D41E84EC0E94BF1EF8
:1059300085E10E94D41E83E00E94D41E83E00E9471
:10594000D41E81E00E94D41E86EC0E94BF1E82E01D
:105950000E94D41E88EC0E94BF1E8CE00E94D41EC0
:1059600085E00E94D41E8AE00E94D41E8BE60E942D
:10597000D41E84E00E94D41E86E00E94D41E85E1DD
:105980000E94D41E80E10E94D41E80E00E94D41E9A
:1059900080E60E94D41E86E30E94BF1E8AE00E9419
:1059A000D41E8CE00E94BF1E85E50E94D41E8AE3AF
:1059B0000E94BF1E85E50E94D41E88E30E94BF1E80
:1059C00080ED0E94BF1E87E00E94D41E87E00E94E7
:1059D000D41E84E10E94D41E82EA0E94D41E81ED6E
:1059E0000E94BF1E83E00E94D41E8AE50E94D41E3E
:1059F00080E10E94D41E82ED0E94BF1E83E00E94BF
:105A0000D41E84E00E94D41E84E00E94D41E81E152
:105A10000E94BF1E66E970E080E090E00E94FC09F1
:105A20008AE20E94BF1E80E00E94D41E80E00E9495
:105A3000D41E81E00E94D41E8FED0E94D41E8BE202
:105A40000E94BF1E80E00E94D41E80E00E94D41EEF
:105A500081E00E94D41E8FE30E94D41E64E670E0B1
:105A600080E090E00E94FC0989E20E94BF1E6EE186
:105A700070E080E090E00E94FC098CE20E94BF1E72
:105A80006EE170E080E090E0D5C181E10E94BF1E30
:105A900062E370E080E090E00E94FC0982EF0E94E7
:105AA000BF1E8CE10E94D41E83EA0E94D41E82E3B2
:105AB0000E94D41E82E00E94D41E82EB0E94D41E5B
:105AC00082E10E94D41E8FEF0E94D41E82E10E94C8
:105AD000D41E80E00E94D41E81EF0E94BF1E86E388
