:1000000036C7000065C7000063C7000061C7000075
:100010005FC700005DC700005BC7000059C7000054
:1000200057C7000055C7000053C7000051C7000064
:100030004FC700004DC700004BC7000049C7000074
:1000400047C7000045C7000043C7000041C7000084
:100050003FC700003DC700003BC700000C94F50FF0
:1000600037C700000C94CC080C94A30831C70000DB
:100070002FC700002DC700002BC7000029C70000B4
:1000800027C7000025C7000023C7000021C70000C4
:100090001FC700001DC700001BC7000019C70000D4
:1000A00017C7000015C7000013C7000011C70000E4
:1000B0000FC700000DC700000BC7000009C70000F4
:1000C00007C7000005C7000003C7000001C7000004
:1000D000FFC60000FDC60000FBC60000F9C6000018
:1000E000F7C60000EF20912E94219421DF22912E5B
:1000F0002125E723E724912EFA258F268A278A27B0
:10010000EF20332B912EEF2004275E28FD21F828C5
:10011000A929332B8C2ABF2BBA2CC52DDA2D3724D5
:1001200031093409230927092B096B0938093C09CE
:10013000420946094A095009540958096B095E09E0
:10014000620966094219FB19591959196E19FB19E7
:100150002919DD198C19FB1996199619AA19AA19CA
:100160004219DD19FB1942199619DD195919B819E7
:10017000DD19DD19DD19DD19DD19CD19DD19DD19DF
:100180001010205F000000000000000000000000D0
:10019000000000000000000000000000000000005F
:1001A000000000000000000007000F800F800F809B
:1001B0000F800F8007000700000000000700070005
:1001C0000700000000000E380E380E380E380630DA
:1001D000000000000000000000000000000000001F
:1001E0000000000000000C300C300C307FFE7FFE61
:1001F0000C300C300C300C307FFE7FFE0C300C309D
:100200000C3000000000024002400FF81FF81A40B6
:100210001A401FF00FF8025802581FF81FF0024052
:10022000024000000000000000000E100E300E70B2
:1002300000E001C0038007000E700C700870000021
:1002400000000000000000000F00198019801980D4
:100250000F000F080F9819F818F018E019F00F9810
:1002600000000000000000000700070007000E006B
:10027000000000000000000000000000000000007E
:10028000000000000000000000F001C00380070033
:100290000E000E000E000E000700038001C000F0EB
:1002A00000000000000000000F00038001C000E01B
:1002B000007000700070007000E001C003800F004B
:1002C000000000000000000001801188099007E094
:1002D00007E03FFC3FFC07E007E009901188018040
:1002E000000000000000000000000000018001800C
:1002F00001800FF00FF001800180018000000000FC
:1003000000000000000000000000000000000000ED
:1003100000000000000000000000070007000700C8
:100320000E000000000000000000000000000000BF
:1003300000001FF81FF8000000000000000000008F
:1003400000000000000000000000000000000000AD
:100350000000000000000000000007000700070088
:10036000000000000000000000020006000E001C5B
:100370000038007000E001C0038007000E001C0080
:1003800000000000000000000FF01C381C781CF872
:100390001CF81DB81DB81F381F381E381C380FF048
:1003A00000000000000000000180018003801F8029
:1003B0001F800380038003800380038003801FF07D
:1003C00000000000000000000FE01C701C38003826
:1003D000007000E001C0038007000E381C381FF8D1
:1003E00000000000000000000FE01C701C38003806
:1003F000007003C003C0007000381C381C700FE090
:10040000000000000000000000E001E003E006E062
:100410000CE018E01FF81FF800E000E000E003F82F
:1004200000000000000000001FF81C001C001C0061
:100430001C001FE01FF0007800381C381C700FE013
:10044000000000000000000003E007000E001C0098
:100450001C001FF01FF81C381C381C381C380FF00B
:1004600000000000000000001FFC1C1C1C1C1C1CC9
:10047000001C0038007000E001C00380038003808E
:1004800000000000000000000FF01C381C381C3871
:100490001F3807E007E01CF81C381C381C380FF028
:1004A00000000000000000000FF01C381C381C3851
:1004B0001C381FF80FF800380038007000E007C043
:1004C0000000000000000000000000000380038026
:1004D0000380000000000380038003800000000010
:1004E0000000000000000000000000000380038006
:1004F00003800000000003800380038007000000E9
:10050000000000000000007000E001C00380070050
:100510000E001C001C000E000700038001C000E05C
:1005200000700000000000000000000000003FFC20
:100530003FFC000000003FFC3FFC0000000000000A
:100540000000000000001C000E000700038001C036
:1005500000E00070007000E001C0038007000E00A2
:100560001C000000000003C00FF01E78183800388F
:10057000007000E001C001C00000000001C001C027
:1005800001C0000000000FF81C1C1C1C1C1C1C1CC3
:100590001CFC1CFC1CFC1CFC1C001C001C001FF098
:1005A00007F800000000000003C007E00E701C38D0
:1005B0001C381C381C381FF81C381C381C381C38D8
:1005C00000000000000000001FF00E380E380E384A
:1005D0000E380FF00FF00E380E380E380E381FF0B0
:1005E000000000000000000007F00E381C381C005E
:1005F0001C001C001C001C001C001C380E3807F0DE
:1006000000000000000000001FE00E700E380E38E1
:100610000E380E380E380E380E380E380E701FE0B9
:1006200000000000000000001FF80E180E080E0069
:100630000E300FF00FF00E300E000E080E181FF8DF
:1006400000000000000000001FF80E180E080E0049
:100650000E300FF00FF00E300E000E000E001F00D7
:10066000000000000000000007F00E381C381C38A5
:100670001C001C001C001CF81C381C380E3807F825
:1006800000000000000000001C701C701C701C703A
:100690001C701FF01FF01C701C701C701C701C70F4
:1006A00000000000000000000FE0038003800380D2
:1006B00003800380038003800380038003800FE0B6
:1006C000000000000000000001FC007000700070DD
:1006D00000700070007038703870387038700FE03B
:1006E00000000000000000001E380E380E700EE002
:1006F0000FC00F800F800FC00EE00E700E381E3836
:1007000000000000000000001F000E000E000E00A0
:100710000E000E000E000E000E080E180E381FF808
:1007200000000000000000001C1C1E3C1F7C1FFC81
:100730001FFC1DDC1C9C1C1C1C1C1C1C1C1C1C1CD5
:1007400000000000000000001C1C1C1C1E1C1F1CC4
:100750001F9C1DDC1CFC1C7C1C3C1C1C1C1C1C1C35
:10076000000000000000000003E007F00E381C1C31
:100770001C1C1C1C1C1C1C1C1C1C0E3807F003E041
:1007800000000000000000001FF00E380E380E3888
:100790000E380FF00FF00E000E000E000E001F00BE
:1007A000000000000000000003E00F780E381C1C61
:1007B0001C1C1C1C1C1C1C7C1CFC0FF80FF800389B
:1007C00000FC0000000000001FF00E380E380E384C
:1007D0000E380FF00FF00E700E380E380E381E382F
:1007E00000000000000000000FF01C381C381C380E
:1007F0001C000FE007F000381C381C381C380FF0C4
:1008000000000000000000001FFC19CC11C401C052
:1008100001C001C001C001C001C001C001C007F09A
:1008200000000000000000001C701C701C701C7098
:100830001C701C701C701C701C701C701C700FE0F5
:1008400000000000000000001C701C701C701C7078
:100850001C701C701C701C701C700EE007C00380A4
:1008600000000000000000001C1C1C1C1C1C1C1CA8
:100870001C1C1C9C1C9C1C9C0FF80FF8077007701C
:1008800000000000000000001C701C701C700EE0D6
:1008900007C00380038007C00EE01C701C701C7032
:1008A00000000000000000001C701C701C701C7018
:1008B0001C700EE007C003800380038003800FE0FC
:1008C00000000000000000001FF81C3818381070ED
:1008D00000E001C0038007000E081C181C381FF838
:1008E000000000000000000007F0070007000700FC
:1008F000070007000700070007000700070007F0D0
:100900000000000000000000100018001C000E0095
:100910000700038001C000E000700038001C0007E1
:10092000000000000000000007F000700070007080
:10093000007000700070007000700070007007F0B0
:10094000000000000000018003C007E00E701C38AA
:100950000000000000000000000000000000000097
:100960000000000000000000000000000000000087
:100970000000000000000000000000000000000077
:100980007FFF7FFF000000001C001C000700070025
:100990000000000000000000000000000000000057
:1009A0000000000000000000000000000000000047
:1009B0000FE0007000700FF01C701C701C700FD8DE
:1009C00000000000000000001E000E000E000E00DF
:1009D0000FF00E380E380E380E380E380E381BF069
:1009E0000000000000000000000000000000000007
:1009F0000FE01C701C701C001C001C701C700FE0B1
:100A0000000000000000000000F80070007000709E
:100A10000FF01C701C701C701C701C701C700FD8A8
:100A200000000000000000000000000000000000C6
:100A30000FE01C701C701FF01C001C701C700FE07D
:100A4000000000000000000003E0077007700700CE
:100A500007001FE01FE007000700070007001FC096
:100A60000000000000000000000000000000000086
:100A70000FD81C701C701C701C700FF007F00070F9
:100A80001C700FE0000000001E000E000E000E00A3
:100A90000EF00F380F380E380E380E380E381E385C
:100AA000000000000000000001C001C001C0000003
:100AB0000FC001C001C001C001C001C001C00FF8DA
:100AC00000000000000000000070007000700000D6
:100AD00003F00070007000700070007000701C70F7
:100AE0000CF007E0000000001E000E000E000E00DB
:100AF0000E380E700EE00FC00EE00E700E381E386D
:100B000000000000000000000FC001C001C001C0D3
:100B100001C001C001C001C001C001C001C00FF887
:100B200000000000000000000000000000000000C5
:100B30001FF81C9C1C9C1C9C1C9C1C9C1C9C1C9C96
:100B400000000000000000000000000000000000A5
:100B50001FE01C701C701C701C701C701C701C70C2
:100B60000000000000000000000000000000000085
:100B70000FE01C701C701C701C701C701C700FE04F
:100B80000000000000000000000000000000000065
:100B90001BF00E380E380E380E380E380FF00E00DF
:100BA0000E001F0000000000000000000000000018
:100BB0001FB038E038E038E038E038E01FE000E00F
:100BC00000E001F000000000000000000000000054
:100BD0001EF00FF80F380E000E000E000E001F0062
:100BE0000000000000000000000000000000000005
:100BF0000FE01C301C300F8003E0187018700FE0FD
:100C000000000000000000000000010003000700D9
:100C10001FF007000700070007000770077003E0D8
:100C200000000000000000000000000000000000C4
:100C30001C701C701C701C701C701C701C700FD8F9
:100C400000000000000000000000000000000000A4
:100C50001C701C701C701C701C700EE007C00380A0
:100C60000000000000000000000000000000000084
:100C70001C1C1C1C1C1C1C9C1C9C0FF80770077067
:100C80000000000000000000000000000000000064
:100C90001CE01CE00FC0078007800FC01CE01CE0B8
:100CA0000000000000000000000000000000000044
:100CB0000E380E380E380E380E3807F003E000E01C
:100CC00001C01F80000000000000000000000000C4
:100CD0001FE018E011C0038007000E201C601FE019
:100CE000000000000000000001F803800380038082
:100CF00007001C001C00070003800380038001F82C
:100D000000000000000001C001C001C001C001C01E
:100D100001C001C001C001C001C001C001C001C0CB
:100D200001C00000000000001F8001C001C001C020
:100D300000E00038003800E001C001C001C01F80A1
:100D400000000000000000001F1C3B9C39DC38F84C
:100D50000000000000000000000000000000000093
:100D60000000000000002100240027002A002D00C0
:100D70003000330001010000040107010A010000F6
:100D80000A0B02090C0D0E08070304010000000005
:100D90000000000000000000000000000000000053
:100DA0000000000000000000000012111000000010
:100DB0000000000000000000000000000000000033
:100DC0000000000001021020200808102040102020
:100DD00040800201020108040201010204081020FF
:100DE00040808040201008040201800402018040FD
:100DF0002010080402010804020101020408102066
:100E000040800102040810204080000022002500DC
:100E100028002B002E0031003400020100000501E3
:100E200008010B0105050505070508080808020269
:100E300002020A0A08080404040401010101010174
:100E400001010303030303030303040707070C0C57
:100E50000C0C0C0C0C0C020202020606060606061E
:100E600006060B0B0B0B0B0B0B0B41323232112412
:100E70001FBECFEFD1E2DEBFCDBF00E00CBF12E05E
:100E8000A0E0B2E0E6E2F0E700E00BBF02C00790AE
:100E90000D92AC39B107D9F726E0ACE9B2E001C058
:100EA0001D92A233B207E1F717E0C6E3D7E000E0F6
:100EB00006C021970109802FFE010E94BD35C53370
:100EC000D10780E00807A9F70E94B81F0C940238E8
:100ED00097C8FC01538D448D252F30E0842F90E07E
:100EE000821B930B541710F0CF9608950197089525
:100EF000FC01918D828D981761F0828DDF01A80F22
:100F0000B11D5D968C91928D9F5F9F73928F90E043
:100F100008958FEF9FEF0895FC01918D828D9817B2
:100F200031F0828DE80FF11D858D90E008958FEFEF
:100F30009FEF0895FC01918D228D892F90E0805CB8
:100F40009F4F821B91098F739927089583EB94E03B
:100F5000F1DF21E0892B09F420E0822F0895FC01C4
:100F6000848DDF01A80FB11DA35ABF4F2C91848D32
:100F700090E001968F739927848FA689B7892C9367
:100F8000A089B1898C9180648C93938D848D981302
:100F900006C00288F389E02D80818F7D80830895CB
:100FA000EF92FF920F931F93CF93DF93EC0181E0B9
:100FB000888F9B8D8C8D981305C0E889F989808175
:100FC00085FD23C0F62E0B8D10E00F5F1F4F0F73B2
:100FD0001127E02E8C8DE8120BC00FB607FCFACF5C
:100FE000E889F989808185FFF5CFCE01B8DFF2CF9E
:100FF0008B8DFE01E80FF11DE35AFF4FF0820B8F3E
:10100000EA89FB898081806207C0EE89FF8960835D
:10101000E889F98980818064808381E090E0DF91B4
:10102000CF911F910F91FF90EF900895CF93DF9391
:10103000EC01888D8823C1F0EA89FB89808185FDD8
:1010400005C0A889B9898C9186FD0EC00FB607FC32
:10105000F5CF808185FFF2CFA889B9898C9185FF72
:10106000EDCFCE017CDFE8CFDF91CF91089580E016
:1010700090E0892B19F06ADF811125C080E090E0B3
:10108000892B41F080E090E0892B21F00E94000044
:1010900081111CC080E090E0892B41F080E090E05D
:1010A000892B21F00E940000811113C080E090E0A4
:1010B000892BA1F080E090E0892B81F00E94000054
:1010C00081110AC008950E940000D8CF0E9400003C
:1010D000E1CF0E940000EACF0C94000008953FB7D2
:1010E000F8948091AF049091B004A091B104B091B4
:1010F000B20426B5A89B05C02F3F19F00196A11D8B
:10110000B11D3FBFBA2FA92F982F8827820F911D9D
:10111000A11DB11DBC01CD0142E0660F771F881FE4
:10112000991F4A95D1F708958EBD00000DB407FEB2
:10113000FDCF8EB508958FEFF7CF089580E090E052
:1011400008950E94D6371F920F920FB60F92112466
:101150000BB60F922F933F934F935F936F937F93B1
:101160008F939F93AF93BF93EF93FF9383EB94E0A1
:10117000F6DEFF91EF91BF91AF919F918F917F919B
:101180006F915F914F913F912F910F900BBE0F90F8
:101190000FBE0F901F9018951F920F920FB60F92CF
:1011A00011240BB60F922F938F939F93EF93FF937E
:1011B000E091C304F091C4048081E091C904F091EE
:1011C000CA0482FD12C090818091CC048F5F8F731E
:1011D0002091CD04821751F0E091CC04F0E0ED5461
:1011E000FB4F958F8093CC0401C08081FF91EF91DC
:1011F0009F918F912F910F900BBE0F900FBE0F906C
:101200001F901895362F90E0FC01E258F24F449160
:10121000FC01EC53F24F2491FC01EC5DF14F9491F1
:10122000992309F46BC0442309F455C050E0FA0136
:101230003197E231F10508F04EC08827E057FF4FA3
:101240008F4F0C94BD35809180008F7707C08091BF
:1012500080008F7D03C080918000877F8093800015
:101260003AC084B58F7702C084B58F7D84BD33C00A
:101270008091B0008F7703C08091B0008F7D809304
:10128000B00029C0809190008F7707C080919000B6
:101290008F7D03C080919000877F809390001BC05A
:1012A0008091A0008F7707C08091A0008F7D03C040
:1012B0008091A000877F8093A0000DC080912001C5
:1012C0008F7707C0809120018F7D03C0809120011E
:1012D000877F80932001E92FF0E0EE0FFF1FE65F8C
:1012E000F14FA591B4918FB7F894EC91311103C0EF
:1012F00020952E2301C02E2B2C938FBF089561E0E3
:10130000FC0184817FDF8091A20281111092A202F0
:101310000895CF93DF93EC018E81882379F08F813C
:1013200098859C012F5F3F4F38872F8382309240F2
:1013300010F401DFF4CFCE01E2DF1E82DF91CF9106
:101340000895CF93DF9390E0FC01EC53F24F24918A
:10135000FC01EC5DF14F8491882361F190E0880FEE
:10136000991FFC01EC59F24FC591D491FC01E65F45
:10137000F14FA591B491611109C09FB7F89488818C
:10138000209582238883EC912E230BC0623061F478
:101390009FB7F8943881822F809583238883EC91BE
:1013A0002E2B2C939FBF06C08FB7F894E8812E2B6D
:1013B00028838FBFDF91CF910895863308F086533D
:1013C00090917B00282F2870977F922B90937B0021
:1013D0008770806480937C0080917A008064809321
:1013E0007A0080917A0086FDFCCF80917800209170
:1013F000790090E0922B08958F929F92AF92BF92C6
:10140000CF92DF92EF92FF926B017C0168DE4B017D
:101410005C01C114D104E104F104E9F060DEDC01F7
:10142000CB0188199909AA09BB09883E9340A105F7
:10143000B10578F321E0C21AD108E108F10888EE7D
:10144000880E83E0981EA11CB11CC114D104E104D4
:10145000F10421F7DECFFF90EF90DF90CF90BF90A7
:10146000AF909F908F9008952FB7F8946091AB0440
:101470007091AC048091AD049091AE042FBF08959B
:101480000F931F93CF93DF93EB01EEDF8B0153DEBE
:101490008F3F41F0E9DF601B710B6C177D07B8F3DC
:1014A00080E001C081E0DF91CF911F910F910895FD
:1014B000CF92DF92FF920F931F93CF93DF9300D0D1
:1014C0001F92CDB7DEB76C01F62E29833A834B838A
:1014D0005C831FDF8091A20229813A814B815C816C
:1014E000811109C081E08093A202909198058091BA
:1014F00099059CBD8DBD60E0F601848129833A8306
:101500004B835C837FDE6CE271E0C601B9DF8F2D17
:1015100080640ADE08E110E05C814B813A81298118
:10152000DA01C901002E04C0B695A7959795879555
:101530000A94D2F729833A834B835C83F5DD085004
:10154000110929813A814B815C81083FFFEF1F0718
:1015500039F7FF2029F088E0F81204C087E803C0BB
:1015600085E901C08FEFE0DD10E0E5DDF60182875F
:1015700087FF04C01F3F11F01F5FF7CF0F900F9040
:101580000F900F90DF91CF911F910F91FF90DF90FF
:10159000CF900895EF92FF920F931F93CF93DF9315
:1015A000EC017901411551056105710511F482E1E4
:1015B00034C08B85833039F089E0440F551F661F96
:1015C000771F8A95D1F79A01AB0168E1CE0170DFF0
:1015D000882311F084E021C08EEFA6DD87018EEF15
:1015E000F81AF80181918F019FDD0E151F05C9F7CB
:1015F0008FEF9ADD8FEF98DD9EDD8A878F718530C2
:1016000029F081E18D83CE017ADE08C068E572E0C1
:10161000CE0136DF811106C085E18D83CE016FDEFC
:1016200080E010C020E030E0A9016DE0CE0140DF95
:10163000811103C080DD882311F084E1EECFCE015B
:101640005EDE81E0DF91CF911F910F91FF90EF90CF
:101650000895CF93DF938091A502882389F1C091EB
:10166000A302D091A4024091020250910302609122
:101670000402709105022AEA32E0CE018BDF81116B
:1016800002C080E01EC04091A6025091A702609166
:10169000A8027091A902411551056105710571F00B
:1016A0002AEA32E0CE0176DF882359F31092A602AF
:1016B0001092A7021092A8021092A9021092A502FD
:1016C00081E0DF91CF910895BF92CF92DF92EF92A8
:1016D000FF920F931F93CF93DF936B017C01B42E86
:1016E0008091020290910302A0910402B091050240
:1016F0008C159D05AE05BF0509F46DC0AADF8823D2
:1017000009F470C0C091A302D091A4028E818823F5
:1017100069F088819981AA81BB81C816D906EA0639
:10172000FB0621F48F819885892B89F1C882D982A3
:10173000EA82FB828B85A7019601833039F089E02C
:10174000220F331F441F551F8A95D1F761E1CE0147
:10175000AFDE882319F083E08D8331C085DE8B01F5
:10176000EADC8A878F3F41F47FDE601B710B6D32AC
:101770007140B0F38FE003C08E3F29F08DE08D8380
:10178000CE01BDDD1CC018861F8281E08E830AEA6F
:1017900012E0D1DCF80181938F01F4E00A3A1F07CF
:1017A000C1F78F8198859E5F98878F832985222333
:1017B00019F08115924038F0CE01ABDD04C0CE01A6
:1017C0009EDD80E00FC0C0920202D0920302E09240
:1017D0000402F09205028091A502482F4B29409304
:1017E000A50281E0DF91CF911F910F91FF90EF90C3
:1017F000DF90CF90BF9008954F925F926F927F924B
:101800008F929F92AF92BF92CF92DF92EF92FF9210
:101810000F931F93CF93DF93EC016A017B012801A3
:101820003901423051056105710510F480E072C044
:1018300089859A85AB85BC850196A11DB11D84174C
:101840009507A607B70790F38B889C88AD88BE885C
:101850008F89803129F4BB27AF2D9E2D8D2D09C096
:10186000DB01CA0147E0B695A795979587954A95FC
:10187000D1F7880E991EAA1EBB1E8091020290917C
:101880000302A0910402B091050288169906AA06E7
:10189000BB0679F48F89803199F4DD24EE24FF248E
:1018A000C601880F991FFC01E655FD4F5182408209
:1018B00018C040E0C501B40107DF8111EBCFB6CFFE
:1018C000E894C7F8DD24EE24FF24C601880F991F91
:1018D000880F991FFC01E655FD4F408251826282BC
:1018E00073828091A50281608093A5028A898230EB
:1018F00080F08D819E81AF81B885880E991EAA1EC9
:10190000BB1E8092A6029092A702A092A802B0925B
:10191000A90281E0DF91CF911F910F91FF90EF908D
:10192000DF90CF90BF90AF909F908F907F906F90FF
:101930005F904F9008958F929F92AF92BF92CF92F7
:10194000DF92EF92FF920F931F93CF93DF93FC01EF
:1019500081859285A385B4850196A11DB11D84174B
:101960009507A607B70710F480E05BC083899489C8
:10197000A589B689C789C03129F4852E962EA72E50
:10198000BB2409C04A015B01C7E0B694A7949794B1
:101990008794CA95D1F7E9016A017B018F01BC01E7
:1019A000CD01680D791D8A1D9B1D809002029090CB
:1019B0000302A0900402B0900502681579058A051B
:1019C0009B0599F4F80187898031A1F4B701A6013C
:1019D000552766277727440F551FFA01E655FD4F17
:1019E00080819181A0E0B0E017C040E06DDE811100
:1019F000E9CFBACFB701A6014F77552766277727DA
:101A0000440F551F440F551FFA01E655FD4F8081C5
:101A10009181A281B381BF7088839983AA83BB839C
:101A200081E0DF91CF911F910F91FF90EF90DF90B8
:101A3000CF90BF90AF909F908F9008953F924F921C
:101A40005F926F927F928F929F92AF92BF92CF924E
:101A5000DF92EF92FF920F931F93CF93DF93CDB757
:101A6000DEB72C970FB6F894DEBF0FBECDBF5C017A
:101A7000DC015B968D909C905C971696CD90DD90E6
:101A8000ED90FC901997C114D104E104F10439F0F0
:101A9000BFEFCB1ADB0AEB0AFB0A312C07C0F401BB
:101AA000C080D180E280F38033243394F4018185B7
:101AB0009285A385B4859C01AD012F5F3F4F4F4FA9
:101AC0005F4F29873A874B875C87260137011D8244
:101AD0001E821F821886F40181859285A385B485B4
:101AE0002D813E814F815885281739074A075B07AA
:101AF00008F060C089859A85AB85BC858C159D05ED
:101B0000AE05BF0550F482E0C82ED12CE12CF12C9B
:101B100092E0492E512C612C712C9E012F5F3F4F7A
:101B2000B701A601C40107DF882309F443C08981F6
:101B30009A81AB81BC81892B8A2B8B2B41F02601AA
:101B400037019FEF491A590A690A790A05C0C41476
:101B5000D504E604F70491F02D813E814F8158852C
:101B60002F5F3F4F4F4F5F4F2D833E834F835887EB
:101B70003FEFC31AD30AE30AF30AADCF0FEF1FEF0B
:101B80002FEF3FE0B301A201C40136DE882391F0BC
:101B9000D50116964D915D916D917C9119974115E6
:101BA00051056105710541F093018201C40124DEF4
:101BB000811102C080E02AC0D50116964D925D9237
:101BC0006D927C921997332051F0D301C201019696
:101BD000A11DB11DF40180839183A283B383F5011C
:101BE0008789908DA18DB28D892B8A2B8B2B69F4DF
:101BF000D50157964D925D926D927C925A971496AC
:101C00008C911497806814968C9381E02C960FB673
:101C1000F894DEBF0FBECDBFDF91CF911F910F9122
:101C2000FF90EF90DF90CF90BF90AF909F908F90FC
:101C30007F906F905F904F903F9008954F925F928A
:101C40006F927F928F929F92AF92BF92EF92FF928C
:101C50000F931F93CF93DF9300D01F921F92CDB7A6
:101C6000DEB78C016D83DC0115968C911597813060
:101C700009F056C014968C9181FF52C059C0038C54
:101C8000F48DE02D258530E0275F3F4F2A013B0191
:101C9000B1E04B1A510861087108022E04C0769415
:101CA0006794579447940A94D2F7D501C4010197D9
:101CB000A109B10904C0B695A795979587952A956E
:101CC000D2F784159505A605B70508F06FC0F80191
:101CD0004789508D618D728D4683578360877187E8
:101CE0002C013D017801E6E0EE0EF11CD801411413
:101CF00051046104710409F463C016964D915D911D
:101D00006D917C91199797015B968D919C915C9751
:101D100012DEB1E04B1A5108610871088111E6CF5B
:101D200081E090E0F8019383828380E090E049C1F4
:101D300082FF0EC0F80142855385648575858388CE
:101D40009488A588B688481559056A057B05F1F47D
:101D5000D8011A964D915D916D917C911D975B967E
:101D60008D919C915C97FC0174807A944A015B018F
:101D700029E0B694A794979487942A95D1F7782070
:101D80007A01F1E0FF22772011F162C08114910401
:101D9000A104B10409F073CF168217821086118650
:101DA000F8011286138614861586D2CF452B462B52
:101DB000472B09F48CCF84199509A609B70990CF50
:101DC0001A968D929D92AD92BC921D97C1CFE1144F
:101DD000F10409F03DC0F8014681578160857185A5
:101DE000411551056105710549F48789908DA18DD3
:101DF000B28D0097A105B10531F520C09E012F5F7E
:101E00003F4F99DD882309F490CF89819A81AB8176
:101E1000BC81F801238D348DF9012789203129F007
:101E200048EF5FEF6FEF7FE004C048EF5FEF60E0E7
:101E300070E084179507A607B70728F0C801FEDDF4
:101E4000811106C06DCFF80186839783A087B18783
:101E5000D8015B96ED91FC915C9716968D909D90C4
:101E6000AD90BC901997B2E08B1A9108A108B10807
:101E7000058404C0880C991CAA1CBB1C0A94D2F7C8
:101E800086859785A089B189880E991EAA1EBB1EDA
:101E9000870C911CA11CB11CE114F10401F5F8019F
:101EA000428553856485758583899489A589B6891A
:101EB000481759076A077B0790F0CBDB882309F4A2
:101EC0002FCF8092020290920302A0920402B0925D
:101ED00005028091A50281608093A50207C041E0C0
:101EE000C501B401F1DB882309F41ACFF701E655E7
:101EF000FD4F8D818083F80182859385A485B5850A
:101F00000196A11DB11D82879387A487B587438958
:101F1000548965897689481759076A077B0738F419
:101F2000838B948BA58BB68B848180688483D80146
:101F300014968C9183FD03C081E090E042C0F801CB
:101F40009581992309F4ECCE87FF37C066857785A4
:101F50008089918941E0B8DB882309F4E1CED8017A
:101F60005296EC91B0E2EB9F90011124D901A65555
:101F7000BD4F109709F4D4CEF8018581823050F41A
:101F800043895489658976895C964D935D936D93F9
:101F90007C935F97F8018789908DA18DB28DF901AF
:101FA000E655FD4F938F828FB58BA48BD801149685
:101FB0008C9114978F7714968C934BDB8111BCCF47
:101FC000AFCE0F900F900F900F900F90DF91CF91A9
:101FD0001F910F91FF90EF90BF90AF909F908F90C7
:101FE0007F906F905F904F9008951F920F920FB661
:101FF0000F9211242F933F938F939F93AF93BF938F
:102000008091AB049091AC04A091AD04B091AE046A
:102010003091AA0423E0230F2D3720F40196A11D4F
:10202000B11D05C026E8230F0296A11DB11D209306
:10203000AA048093AB049093AC04A093AD04B09336
:10204000AE048091AF049091B004A091B104B0911E
:10205000B2040196A11DB11D8093AF049093B0040A
:10206000A093B104B093B204BF91AF919F918F91AF
:102070003F912F910F900FBE0F901F901895CF9307
:10208000DF938BE392E00E940F1D81113AC0DEECDA
:10209000D093B405C9E7C093B50568E270E080E06D
:1020A00090E0F0D564E670E08CE390E0EBD564EB73
:1020B00070E088E790E0E6D5D093B605C093B70509
:1020C0001092E40588EF8093B4051092B50544EDB5
:1020D00050E06CE070E083E892E00E94191A44ED51
:1020E00050E068E470E08AE892E00E94191A44ED3A
:1020F00050E06DE770E081E992E0DF91CF910C94C0
:10210000191A1092B6051092B7051092E4051092B4
:10211000B4051092B50520EF30E044EB50E068ECD8
:1021200070E080E090E0DF91CF911AC6CF9387E70F
:1021300092E00E940F1D882341F1CFEFC093B405B8
:10214000C093B5051092B6051092B7051092E4053C
:1021500046E450E060E070E085E992E00E94191AE0
:1021600088EF8093B4051092B505609100027091DC
:102170000102072E000C880B990B0E94721CC09361
:10218000B405C093B505CF9108958FEF8093B40542
:102190008093B5051092B6051092B7051092E4052C
:1021A00046E450E060E070E085E992E00E94191A90
:1021B0006091000270910102072E000C880B990BB0
:1021C000CF910C94721CCF92DF92EF92FF920F93FB
:1021D0001F93CF93DF936C017A018B01C0E0D0E0B5
:1021E000CE15DF0589F0D8016D918D01D601ED91F5
:1021F000FC910190F081E02DC6011995892B11F415
:102200007E0102C02196ECCFC701DF91CF911F91D3
:102210000F91FF90EF90DF90CF9008958F929F9253
:10222000AF92BF92CF92DF92EF92FF926A017B0151
:1022300082B9CB01BA0120E130E040E050E00E94D9
:10224000763449015A0180E090E0DC018815990557
:10225000AA05BB050CF064C2E091C605F091C70564
:1022600030812091D305209523232083E091C6055A
:10227000F091C70530812091D305232B2083E09175
:10228000C605F091C70530812091D3052095232301
:102290002083E091C605F091C70530812091D305D8
:1022A000232B2083E091C605F091C7053081209152
:1022B000D305209523232083E091C605F091C7051F
:1022C00030812091D305232B2083E091C605F09126
:1022D000C70530812091D305209523232083E091E9
:1022E000C605F091C70530812091D305232B2083AB
:1022F000E091C605F091C70530812091D305209566
:1023000023232083E091C605F091C70530812091F9
:10231000D305232B2083E091C605F091C7053081BA
:102320002091D305209523232083E091C605F091C9
:10233000C70530812091D305232B2083E091C6056A
:10234000F091C70530812091D30520952323208368
:10235000E091C605F091C70530812091D305232B6C
:102360002083E091C605F091C70530812091D30507
:10237000209523232083E091C605F091C705308185
:102380002091D305232B2083E091C605F091C7054A
:1023900030812091D305209523232083E091C60529
:1023A000F091C70530812091D305232B2083E09144
:1023B000C605F091C70530812091D30520952323D0
:1023C0002083E091C605F091C70530812091D305A7
:1023D000232B2083E091C605F091C7053081209121
:1023E000D305209523232083E091C605F091C705EE
:1023F00030812091D305232B2083E091C605F091F5
:10240000C70530812091D305209523232083E091B7
:10241000C605F091C70530812091D305232B208379
:10242000E091C605F091C70530812091D305209534
:1024300023232083E091C605F091C70530812091C8
:10244000D305232B2083E091C605F091C705308189
:102450002091D305209523232083E091C605F09198
:10246000C70530812091D305232B2083E091C60539
:10247000F091C70530812091D30520952323208337
:10248000E091C605F091C70530812091D305232B3B
:102490002083E091C605F091C70530812091D305D6
:1024A000209523232083E091C605F091C705308154
:1024B0002091D305232B2083E091C605F091C70519
:1024C00030812091D305209523232083E091C605F8
:1024D000F091C70530812091D305232B2083E09113
:1024E000C605F091C70530812091D305209523239F
:1024F0002083E091C605F091C70530812091D30576
:10250000232B2083E091C605F091C70530812091EF
:10251000D305209523232083E091C605F091C705BC
:1025200030812091D305232B2083E091C605F091C3
:10253000C70530812091D305209523232083E09186
:10254000C605F091C70530812091D305232B208348
:10255000E091C605F091C70530812091D305209503
:1025600023232083E091C605F091C7053081209197
:10257000D305232B2083E091C605F091C705308158
:102580002091D305209523232083E091C605F09167
:10259000C70530812091D305232B2083E091C60508
:1025A000F091C70530812091D30520952323208306
:1025B000E091C605F091C70530812091D305232B0A
:1025C0002083E091C605F091C70530812091D305A5
:1025D000209523232083E091C605F091C705308123
:1025E0002091D305232B2083E091C605F091C705E8
:1025F00030812091D305209523232083E091C605C7
:10260000F091C70530812091D305232B2083E091E1
:10261000C605F091C70530812091D305209523236D
:102620002083E091C605F091C70530812091D30544
:10263000232B2083E091C605F091C70530812091BE
:10264000D305209523232083E091C605F091C7058B
:1026500030812091D305232B2083E091C605F09192
:10266000C70530812091D305209523232083E09155
:10267000C605F091C70530812091D305232B208317
:10268000E091C605F091C70530812091D3052095D2
:1026900023232083E091C605F091C7053081209166
:1026A000D305232B2083E091C605F091C705308127
:1026B0002091D305209523232083E091C605F09136
:1026C000C70530812091D305232B2083E091C605D7
:1026D000F091C70540813091D30530953423308384
:1026E000E091C605F091C70520813091D305322BCA
:1026F0003083E091C605F091C70540813091D30544
:10270000309534233083E091C605F091C7052081D0
:102710003091D305322B30830196A11DB11D96CD8A
:10272000D701C6018F709927AA27BB27892B8A2B2F
:102730008B2BE1F1C701B60120E130E040E050E031
:102740000E947634C12CD12C76016C157D058E0546
:102750009F0564F1E091C605F091C7053081209195
:10276000D305209523232083E091C605F091C7056A
:1027700030812091D305232B2083E091C605F09171
:10278000C70530812091D305209523232083E09134
:10279000C605F091C70530812091D305232B2083F6
:1027A0002FEFC21AD20AE20AF20ACFCFFF90EF90BF
:1027B000DF90CF90BF90AF909F908F9008958F92B1
:1027C0009F92AF92BF92CF92DF92EF92FF926901F8
:1027D0007A0182B968B9CA01B90120E130E040E06C
:1027E00050E00E94763449015A0180E090E0DC011B
:1027F00088159905AA05BB050CF034C1E091C60502
:10280000F091C70530812091D305209523232083A3
:10281000E091C605F091C70530812091D305232BA7
:102820002083E091C605F091C70530812091D30542
:10283000209523232083E091C605F091C7053081C0
:102840002091D305232B2083E091C605F091C70585
:1028500030812091D305209523232083E091C60564
:10286000F091C70530812091D305232B2083E0917F
:10287000C605F091C70530812091D305209523230B
:102880002083E091C605F091C70530812091D305E2
:10289000232B2083E091C605F091C705308120915C
:1028A000D305209523232083E091C605F091C70529
:1028B00030812091D305232B2083E091C605F09130
:1028C000C70530812091D305209523232083E091F3
:1028D000C605F091C70530812091D305232B2083B5
:1028E000E091C605F091C70530812091D305209570
:1028F00023232083E091C605F091C7053081209104
:10290000D305232B2083E091C605F091C7053081C4
:102910002091D305209523232083E091C605F091D3
:10292000C70530812091D305232B2083E091C60574
:10293000F091C70530812091D30520952323208372
:10294000E091C605F091C70530812091D305232B76
:102950002083E091C605F091C70530812091D30511
:10296000209523232083E091C605F091C70530818F
:102970002091D305232B2083E091C605F091C70554
:1029800030812091D305209523232083E091C60533
:10299000F091C70530812091D305232B2083E0914E
:1029A000C605F091C70530812091D30520952323DA
:1029B0002083E091C605F091C70530812091D305B1
:1029C000232B2083E091C605F091C705308120912B
:1029D000D305209523232083E091C605F091C705F8
:1029E00030812091D305232B2083E091C605F091FF
:1029F000C70530812091D305209523232083E091C2
:102A0000C605F091C70530812091D305232B208383
:102A1000E091C605F091C70540813091D30530950E
:102A200034233083E091C605F091C70520813091B1
:102A3000D305322B3083E091C605F091C705408164
:102A40003091D305309534233083E091C605F09161
:102A5000C70520813091D305322B30830196A11D0B
:102A6000B11DC6CED701C6018F709927AA27BB27F3
:102A7000892B8A2B8B2B49F1C701B60120E130E06D
:102A800040E050E00E947634C12CD12C76016C15C8
:102A90007D058E059F05CCF0E091C605F091C70538
:102AA00030812091D305209523232083E091C60512
:102AB000F091C70530812091D305232B20832FEF80
:102AC000C21AD20AE20AF20AE2CFFF90EF90DF9038
:102AD000CF90BF90AF909F908F9008950F931F93CA
:102AE000CF93DF93EA0157FF05C0840F951FD1955F
:102AF000C195D109E091C805F091C9054081309197
:102B0000D405309534233083AC014C0F5D1F9B01FD
:102B10006DD38091C2058031A9F4E091C405F09194
:102B2000C50590818091D205892B80839E01DD0FA0
:102B3000440B550B6091B50570E08091B40590E0B1
:102B40003EDE27C08830C1F49091B4058091B50570
:102B5000981312C0E091C405F091C5059081809151
:102B6000D205892B8083AE01DD0F660B770B809138
:102B7000B40590E053DB0DC000E010E06091B505B6
:102B80008091B4050E94761F0F5F1F4FC017D107B9
:102B9000ACF7E091C805F091C90590818091D4050A
:102BA000892B8083DF91CF911F910F912DC40F93BB
:102BB0001F93CF93DF93FC01EA0157FF05C0640F19
:102BC000751FD195C195D109A091C805B091C905CE
:102BD0002C919091D405909592239C939B012C0F5E
:102BE0003D1FAF01CF0102D38091C2058031A9F40E
:102BF000E091C405F091C50590818091D205892BA3
:102C000080839E01DD0F440B550B6091B50570E08C
:102C10008091B40590E0D3DD27C08830C1F4909155
:102C2000B4058091B505981312C0E091C405F091E8
:102C3000C50590818091D205892B8083AE01DD0F7F
:102C4000660B770B8091B40590E0E8DA0DC000E0E8
:102C500010E06091B5058091B4050E94761F0F5F6A
:102C60001F4FC017D107ACF7E091C805F091C90517
:102C700090818091D405892B8083DF91CF911F9122
:102C80000F91C2C36F927F928F929F92AF92BF9229
:102C9000CF92DF92EF92FF920F931F93CF93DF9328
:102CA0008C01681779072CF4982F812F8B01692FDD
:102CB000782FEB01C01BD10BC530D1050CF441C0FE
:102CC000E12CF12C3E0184E0681A7108680182E071
:102CD000C80ED11C5E0182E0A81AB10848018FEF2E
:102CE000881A980AE114F10471F081E0E816F10401
:102CF000A1F4A50169EC70E0C401F0DEA5016FEE5E
:102D000070E0C40116C0A30168EC70E0C601E6DE05
:102D1000A30160EF70E0C6010CC0AE01B7016853BB
:102D20007F4FC801DBDE60EF70E06E197F09AE01F6
:102D3000C801D4DE8FEFE81AF80A85E1E816F1043D
:102D400089F6DF91CF911F910F91FF90EF90DF9067
:102D5000CF90BF90AF909F908F907F906F9008958D
:102D60008F929F92AF92BF92CF92DF92EF92FF929B
:102D70000F931F93CF93DF937C016B01EA018901CD
:102D8000481759072CF4982F8F2D7A01C92FD82F67
:102D90000C151D052CF49C2D8D2D6801092F182F65
:102DA0008091C205803109F03EC0E091C805F091E4
:102DB000C90590818091D4058095892380839801ED
:102DC000AE01B601C70112D2E091C405F091C5056C
:102DD00090818091D205892B8083CE19DF09CE01A5
:102DE000DD0FAA0BBB0B9C01AD012F5F3F4F4F4F77
:102DF0005F4FB8016C197D09CB01770FAA0BBB0B94
:102E0000BC01CD016F5F7F4F8F4F9F4F0E944534B4
:102E10009B01AC01E091B5056E2F70E08091B40587
:102E200090E0CDDC42C0883009F049C09091B405F3
:102E30008091B505981343C0E091C805F091C9058C
:102E400090818091D4058095892380839801AE017B
:102E5000B601C701CBD1E091C405F091C5059081C1
:102E60008091D205892B8083CE19DF09CE01DD0F39
:102E7000AA0BBB0B9C01AD012F5F3F4F4F4F5F4F24
:102E8000B8016C197D09CB01770FAA0BBB0BBC01F4
:102E9000CD016F5F7F4F8F4F9F4F0E944534AB0135
:102EA000BC018091B40590E0B9D9E091C805F091DA
:102EB000C90590818091D405892B808345C080917C
:102EC000B805882379F05E01AE18BF08B7FE03C0CD
:102ED0008FEFA81AB80AB594A794812C912C0C19DD
:102EE0001D091FC0C8018C199D0997FD01964C0151
:102EF00095948794A12CB12CCE19DF098A149B04D8
:102F00001CF1B5016C0D7D1DAE01C701E7DDB801F7
:102F10006A197B09AE01C701E1DD8FEFA81AB80A73
:102F2000EDCFA814B90484F0A801B601C4018E0D38
:102F30009F1D3DDEA801B601CE018819990937DE33
:102F40008FEF881A980AEDCFDF91CF911F910F91E3
:102F5000FF90EF90DF90CF90BF90AF909F908F90B9
:102F60000895E3EBF4E0A089B18982E08C93A48515
:102F7000B5851C92A685B7858FEC8C93108EA4899D
:102F8000B58986E08C93A289B3898C9180618C93FA
:102F9000A289B3898C9188608C93A289B3898C9122
:102FA00080688C930288F389E02D80818F7D8083F7
:102FB0000895CF93DF93BC0183EB94E0C4D7EC0179
:102FC00069E372E083EB94E0BED78C0F9D1FDF9125
:102FD000CF910895CF92DF92EF92FF920F931F93BC
:102FE000CF93DF93CDB7DEB7CDB6DEB6FC0104815B
:102FF000158198012F5F3F4F4DB75EB7421B530BB2
:103000000FB6F8945EBF0FBE4DBFEDB7FEB7319659
:103010007F01232B81F0309771F00115110551F0DC
:10302000FC0160817181A801C7010E94F337F7019B
:10303000E00FF11F108244E650E060E070E0C7014D
:10304000F8D10FB6F894DEBE0FBECDBEDF91CF91A2
:103050001F910F91FF90EF90DF90CF900895EF9226
:10306000FF920F931F93CF93DF93EC017B018A01B3
:1030700088819981009729F02A813B81241735079F
:10308000F8F4B8016F5F7F4F0E94F236009759F055
:10309000998388831B830A832C813D81232B81F4B0
:1030A000FC0110820DC088819981009711F00E9467
:1030B0005A36198218821D821C821B821A8207C00E
:1030C0001D830C83B701888199810E94EC37CE0162
:1030D000DF91CF911F910F91FF90EF900895FC0128
:1030E0001182108213821282158214826115710579
:1030F00049F0FB0101900020E9F73197AF01461B31
:10310000570BADCF08954F925F926F927F92EF92DF
:10311000FF920F931F93CF93DF93CDB7DEB7A197A5
:103120000FB6F894DEBF0FBECDBF7C01FA01CB0114
:1031300019A2223008F42AE08E010F5D1F4F422EA3
:10314000512C612C712CBF01A30192010E945434B7
:10315000F901CA01015011096A3014F4605D01C01F
:10316000695CD8016C93232B242B252B61F7B801C4
:10317000C701E9D6A1960FB6F894DEBF0FBECDBF4A
:10318000DF91CF911F910F91FF90EF907F906F9003
:103190005F904F900895CF92DF92EF92FF92CF937E
:1031A000DF936B017C01E091B304F091B4040190D2
:1031B000F081E02D6DE283EB94E01995EC0144275A
:1031C0005527BA014C195D096E097F092AE083EB86
:1031D00094E099DF8C0F9D1FDF91CF91FF90EF90CE
:1031E000DF90CF900895682F892F80C6CF92DF920D
:1031F000EF92FF920F931F93CF93DF938C01F62EE4
:10320000E72EEA01D22EC32E8091B805813089F4D1
:103210008091BD059091BE059C01201B310B841B44
:10322000950BCD2DDC2DD22EC32E062F172FF82E69
:10323000E92EE091C1058E2F90E0FC013297EE312E
:10324000F10508F0D8C08827EE55FF4F8F4F0C943A
:10325000BD35612F70E082E065D6B80183E062D6AB
:103260006D2F70E084E05ED6BE0185E05BD66E2DEA
:1032700070E086E057D66F2D7E2D87E053D66C2DFB
:1032800070E044C07C2F6627600F711F84E44AD62B
:103290006F2D7E2D85E446D66D2D7C2D86E442D69D
:1032A000B8018EE43FD66F2D7E2D8FE43BD682E2AF
:1032B00099C0B80180E236D66F2D7E2D81E232D6DC
:1032C000B80180E52FD66F2D7E2D82E52BD6BE016D
:1032D00081E528D66D2D7C2D83E5E8CF60E070E098
:1032E00082E020D6B80183E01DD660E070E084E083
:1032F00019D6BE0185E016D660E070E086E012D6F1
:103300006F2D7E2D87E00ED660E070E088E00AD653
:103310006D2D7C2D89E0CACF8AE2BED5802FD1D514
:103320008C2FCFD58BE2B8D58F2D58C08AE2B4D57B
:103330008E2DC7D58F2DC5D58C2DC3D58D2DC1D53F
:103340008BE2AAD5812FBDD5802FBBD58D2FB9D5C6
:103350008C2F46C07C2F6627602B712B86E4E2D52C
:103360006D2D7C2D87E4DED56F2D7E2D88E40DC07C
:10337000BE0186E3D7D5B80187E3D4D56D2D7C2D6A
:1033800088E3D0D56F2D7E2D89E3CCD5B80180E2BE
:10339000C9D56F2D7E2D81E289CF6F2D7E2D82E0E4
:1033A000C1D5B80183E0BED56D2D7C2D86E0BAD5A0
:1033B000BE0187E0B7D58FE015C08AE26DD5812FB9
:1033C00080D5802F7ED58D2F7CD58C2F7AD58BE222
:1033D00063D58E2D76D58F2D74D58C2D72D58D2DF0
:1033E00070D58CE2DF91CF911F910F91FF90EF90FC
:1033F000DF90CF9051C5DF91CF911F910F91FF903A
:10340000EF90DF90CF9008952091B8058091BD0591
:103410009091BE054091B9055091BA05211102C0A5
:103420009C0102C09A01AC0160E070E080E090E095
:10343000DDCE2F923F924F925F926F927F928F924A
:103440009F92AF92BF92CF92DF92EF92FF920F9333
:103450001F93CF93DF93CDB7DEB72C970FB6F894B9
:10346000DEBF0FBECDBF8C017C876B871A01FC01CC
:1034700001900020E9F731979F01281B390B3C830D
:103480002B838091B805811132C06F307742A1F44F
:103490006091B9057091BA056F5F7F4F2091E0058B
:1034A0004B815C81249FC001259F900D1124DB017D
:1034B000A81BB90BBC87AB87EB85FC85EE30F742C8
:1034C00009F059C08091B9059091BA05A091BB054A
:1034D000B091BC050196A11DB11D2091E0054B8165
:1034E0005C81249F6001259FD00C112432C08B8504
:1034F0009C858F309742A1F46091BD057091BE0507
:103500006F5F7F4F2091E005EB81FC812E9FC00112
:103510002F9F900D11249B01281B390B3C872B8773
:103520004B855C854E30574231F58091BD059091B9
:10353000BE05A091BF05B091C0050196A11DB11DAA
:103540002091E005EB81FC812E9F60012F9FD00C24
:1035500011240D2C000CEE08FF08BC01CD016C19E4
:103560007D098E099F0922E030E040E050E00E9492
:1035700076343C872B8718870F831E821D82ED814E
:10358000FE812B813C81E217F3070CF092C1809100
:10359000E0052D813E81829F2001839F500C1124E4
:1035A0004B855C85440E551EAF81B8850D91B8875B
:1035B000AF83E091C805F091C90590818091D40551
:1035C0008095892380832091E4058091E005909186
:1035D000E10510E02111F7C02091B805211176C056
:1035E0009101290F311D21503109A201480F511DB0
:1035F00041505109B101C201F9DD8091E005869584
:10360000869586959091E1052091E205021B1109AE
:10361000899FC0011124089F7001099FF00C189F19
:10362000F00C1124B4E0EB0EF11CA12CB12C809114
:10363000E0058695869586959091E105899FC00164
:103640001124A816B90688F5E091DE05F091DF0592
:10365000EE0DFF1DE491F7E0CF2ED12C0E2F10E0E0
:10366000C8010C2C02C0959587950A94E2F780FF5B
:1036700008C08091B40590E0982F88272091B50567
:1036800007C08091B60590E0982F88272091B70554
:10369000822BA9DDE1E0CE1AD10810F72FEFE21A54
:1036A000F20A3FEFA31AB30AC2CFE091C805F09126
:1036B000C90590818091D405892B8083A5DE4D8139
:1036C0005E814F5F5F4F5E834D8359CF86958695B0
:1036D00086952091E205021B1109899FC0011124E2
:1036E000089F6001099FD00C189FD00C112454E052
:1036F000C50ED11CA12CB12C2091E005622F66953E
:10370000669566958091E105689FC0011124A81611
:10371000B90658F670E0C5010E94A935620D731D07
:10372000A201420F511D415051099B01C2015EDDB2
:10373000E090E005E694E694E694F12C460181E001
:10374000881A9108E114F10499F1E091DE05F091F5
:10375000DF05C4018E0D9F1DE80FF91FE491612C58
:10376000712C0E2F10E0C801062C02C0959587958C
:103770000A94E2F780FF08C08091B40590E0982F8A
:1037800088272091B50507C08091B60590E0982F55
:1037900088272091B705822B26DD9FEF691A790AC9
:1037A000A8E06A167104F9F6B1E0EB1AF108CACF85
:1037B0008091E00586958695869590E0C80ED91E85
:1037C000A80EB91E99CF8695869586952091E2051B
:1037D000021B1109899FC0011124089F3001099F14
:1037E000700C189F700C1124E4E06E0E711C8101A6
:1037F0008091E10590E098012219330928173907D3
:1038000008F053CF812C912CC12CD12CD8011196CA
:10381000BA87A9878091E00586958695869590E080
:10382000C816D9060CF040C0E091DE05F091DF0526
:10383000C601860D971DE80FF91FE4917201E80C8F
:10384000F91C37E0A32EB12C2E2F30E03A832983C8
:1038500089819A810A2C02C0959587950A94E2F78E
:1038600080FF11C029853A85A7014F5F5F4FB801DE
:10387000C701BCDC8091B40590E0982F8827209187
:10388000B505822BB0DC31E0A31AB1084FEFE41A82
:10389000F40A5FEFA516B506D9F68FEFC81AD80A55
:1038A00098E0890E911CB6CF680E791E0F5F1F4FEE
:1038B0009FCF2C960FB6F894DEBF0FBECDBFDF9121
:1038C000CF911F910F91FF90EF90DF90CF90BF901D
:1038D000AF909F908F907F906F905F904F903F90B0
:1038E0002F9008952F923F924F925F927F928F92E6
:1038F0009F92AF92BF92CF92DF92EF92FF920F937F
:103900001F93CF93DF93CDB7DEB7E4970FB6F8944C
:10391000DEBF0FBECDBF6B017C0161157105810556
:10392000910521F480E389831A825AC097FF0BC066
:10393000F094E094D094C094C11CD11CE11CF11C03
:103940007724739401C0712C8E01045E1F4F4801CF
:103950008AE0282E312C412C512CC701B601A2013E
:1039600091010E94763420E3260FF40121934F0148
:103970005F01A01AB10AA7019601261B370B480B5D
:10398000590BCA01B901A20191010E947634690163
:103990007A01232B242B252B01F7F801EA0DFB1DBF
:1039A0001082772011F08DE28983E72DF0E0C501C8
:1039B0008E0F9F1FD801AA0DBB1D41E050E04C0F98
:1039C0005D1FE40FF51FA017B10719F02E91219389
:1039D000FACFE1E0F0E0EC0FFD1FE80FF91F1082D5
:1039E00046E450E064E670E0CE01019622DDE49604
:1039F0000FB6F894DEBF0FBECDBFDF91CF911F9100
:103A00000F91FF90EF90DF90CF90BF90AF909F907D
:103A10008F907F905F904F903F902F900895FC0182
:103A20008091B2059091B305892B21F421E0309764
:103A300049F413C08091AE059091AF05309731F4F1
:103A400021E0FC018081882341F006C0BF010E9473
:103A5000E33721E0892B09F020E0822F08954830D8
:103A600009F448C118F4413041F00895403109F497
:103A700057C1413109F468C108959091C30594304C
:103A800019F5E091CC05F091CD059091D6058130E6
:103A900019F48081982B03C080819095982390839E
:103AA000E091CE05F091CF0590818091D70580956A
:103AB00089238083E091CE05F091CF05908180919C
:103AC000D705892B80830FC0E091C405F091C5050F
:103AD0009091D205813019F48081982B03C08081A8
:103AE000909598239083E091CC05F091CD0580913D
:103AF000D605908167FF02C0892B02C0809589237B
:103B00008083E091CE05F091CF0590818091D7051B
:103B1000809589238083E091CE05F091CF05908137
:103B20008091D705892B8083E091CC05F091CD055C
:103B30008091D605908166FF02C0892B02C08095D6
:103B400089238083E091CE05F091CF05908180910B
:103B5000D705809589238083E091CE05F091CF052C
:103B600090818091D705892B8083E091CC05F091DD
:103B7000CD058091D605908165FF02C0892B02C0DA
:103B8000809589238083E091CE05F091CF059081C7
:103B90008091D705809589238083E091CE05F091AF
:103BA000CF0590818091D705892B8083E091CC054A
:103BB000F091CD058091D605908164FF02C0892BDC
:103BC00002C0809589238083E091CE05F091CF05D6
:103BD00090818091D705809589238083E091CE05DF
:103BE000F091CF0590818091D705892B8083E0915A
:103BF000CC05F091CD058091D605908163FF02C080
:103C0000892B02C0809589238083E091CE05F091B5
:103C1000CF0590818091D705809589238083E0919D
:103C2000CE05F091CF0590818091D705892B8083B7
:103C3000E091CC05F091CD058091D605908162FF91
:103C400002C0892B02C0809589238083E091CE0534
:103C5000F091CF0590818091D7058095892380834D
:103C6000E091CE05F091CF0590818091D705892B09
:103C70008083E091CC05F091CD058091D6059081AF
:103C800061FF02C0892B02C0809589238083E09167
:103C9000CE05F091CF0590818091D705809589233D
:103CA0008083E091CE05F091CF0590818091D7057A
:103CB000892B8083E091CC05F091CD058091D605CC
:103CC000908160FF02C0892B02C080958923808388
:103CD000E091CE05F091CF0590818091D705809538
:103CE00089238083E091CE05F091CF05908180916A
:103CF000D705CFC082B9E091C605F091C705908184
:103D00008091D305809589238083E091C605F09149
:103D1000C70590818091D305892B808362B902C049
:103D200082B968B9E091C605F091C705908180918C
:103D3000D305809589238083E091C605F091C7055E
:103D400090818091D305A5C0A59824B3982F907138
:103D5000990F922B94BB90910201977E9093020150
:103D600090910201282F082E000C330B207C332762
:103D700043E0359527954A95E1F7292B20930201D9
:103D80009EB1947C9EB92EB1382F3C70330F330F07
:103D9000982F9370390F8072082E000C990B95950F
:103DA000879595958795830F822B8EB9E091D005E5
:103DB000F091D10590818091D805809589238083E9
:103DC000E091D005F091D10590818091D805892BA3
:103DD0008083E091D005F091D10590818091D80544
:103DE000809589238083E091C805F091C905908171
:103DF0008091D405809589238083A59894B3862FDC
:103E00008071880F892B84BB80910201877E80930B
:103E1000020120910201862F062E000C990B807C56
:103E2000992773E0959587957A95E1F7822B809392
:103E300002018EB1847C8EB98EB1962F9C70990F41
:103E4000990F262F2370920F6072062E000C770BAD
:103E50007595679575956795690F682B6EB9E091B3
:103E6000C605F091C70590818091D305809589237F
:103E70008083E091C605F091C70590818091D305BC
:103E8000892B8083E091C805F091C90590818091CC
:103E9000D405892B80830895682F8091C2058130D5
:103EA00069F0E091C405F091C50520819091D2059B
:103EB0009095922390834091C20501C041E080E03B
:103EC000CECD682F8091C205813069F0E091C405A4
:103ED000F091C50580819091D205982B90834091F7
:103EE000C20580E002C041E081E0B9CDCF9390915E
:103EF000C205913061F0E091C405F091C5052081C3
:103F00009091D205922B90834091C20509C0C62F93
:103F1000682F41E081E0A3DD4091C2056C2F81E074
:103F2000CF919DCDCF93DF931F921F92CDB7DEB778
:103F300069837A83B1DF69817A81872F0F900F902F
:103F4000DF91CF91D3CF6115710579F0FB0101901D
:103F50000020E9F73197AF01461B570BDC01ED91CB
:103F6000FC910280F381E02D199480E090E00895A7
:103F7000CF93DF93CDB7DEB728970FB6F894DEBFA7
:103F80000FBECDBF789484B5826084BD84B5816056
:103F900084BD85B5826085BD85B5816085BD809114
:103FA0006E00816080936E0010928100809181008C
:103FB0008260809381008091810081608093810084
:103FC000809180008160809380008091B100846046
:103FD0008093B1008091B00081608093B0008091A7
:103FE0009100826080939100809191008160809324
:103FF0009100809190008160809390008091A10059
:1040000082608093A1008091A10081608093A100D3
:104010008091A00081608093A00080912101826046
:104020008093210180912101816080932101809101
:10403000200181608093200180917A0084608093C8
:104040007A0080917A00826080937A0080917A0071
:10405000816080937A0080917A00806880937A00F2
:104060001092C10010929405109295051092960539
:104070001092970510925205109253051092540514
:104080001092550568EB7BE080E090E00E94FC090F
:1040900083EB94E090939305809392050E94B1176F
:1040A0000E94340A6093520570935305809354051F
:1040B000909355056AE272E0809192059091930584
:1040C00042DF6AE070E080E090E00E94FC0911E0CD
:1040D000109366050E94B1171093B80561E08091B6
:1040E000D9050E94A10961E08091DA050E94A10929
:1040F00061E08091DB050E94A1098091DC058F3F82
:1041000019F061E00E94A1098091C205813131F06E
:10411000813049F48091C305853029F461E08091B4
:10412000DD050E94A1098091C205813079F08131BD
:1041300031F09FEF91B9803149F497B907C088E118
:104140008093010180E283BB8BE38DB9E091CA05C6
:10415000F091CB0590818091D505892B808365E016
:1041600070E080E090E00E94FC09E091CA05F091C7
:10417000CB0590818091D5058095892380836FE060
:1041800070E080E090E00E94FC09E091CA05F091A7
:10419000CB0590818091D505892B80836FE070E0FD
:1041A00080E090E00E94FC09E091C805F091C9050B
:1041B00090818091D405809589238083E091C10509
:1041C0008E2F90E0FC013297EE31F10510F00C9447
:1041D000912E8827EE58FF4F8F4F0C94BD3561E02C
:1041E00070E080E09FDE64EA78EA83E09BDE60E0D6
:1041F00070E08CE097DE6CE078E08DE093DE60E0CC
:104200007BE28EE08FDE67EB70E08EE18BDE6FE3AA
:104210007BE281E087DE60E076E082E083DE60E0E2
:1042200070E080E17FDE60E770E681E17BDE60E0E8
:1042300070E085E077DE60E070E086E073DE6CE1E0
:104240007FEE86E16FDE63E070E087E16BDE63E3C3
:1042500072E087E067DE60E070E08BE063DE60E0E4
:1042600070E08FE05FDE60E070E081E45BDE60E0E4
:1042700070E082E457DE60E070E088E453DE6FE3D4
:1042800071E089E44FDE60E070E08AE44BDE60E0DC
:1042900070E08BE447DE60E07FEE84E443DE60E0C4
:1042A00070E085E43FDE6FE371E086E43BDE67E0CB
:1042B00077E080E337DE64E072E081E333DE64E0E0
:1042C00072E082E32FDE62E075E083E32BDE67E0DD
:1042D00075E084E327DE64E072E085E323DE64E0DA
:1042E00072E086E31FDE62E075E087E31BDE62E0DA
:1042F00073E08AE317DE62E073E08BE313DE60E0D5
:1043000070E083E20FDE60E070E084E20BDE60E0EC
:1043100070E885E207DE60E070E08FE403DE60E0D5
:1043200070E08EE40C94A62960EF78E785EEFADD64
:1043300060E071E081E0F6DD60E072E082E0F2DDF5
:1043400060E370E183E0EEDD60E070E084E0EADDF0
:1043500067E072E088E0E6DD60E070E089E0E2DDE1
:1043600060E070E08AE0DEDD60E070E08CE0DADDE5
:1043700060E070E08DE0D6DD60E070E08FE0D2DDDF
:1043800060E070E080E1CEDD67E070E081E1CADDF1
:1043900060E070E082E1C6DD60E070E083E1C2DDF4
:1043A00061E070E087E0BEDD68EC70E080E090E006
:1043B0000E94FC0960E976E180E1B4DD67E272E029
:1043C00081E1B0DD62E370E080E090E00E94FC09F2
:1043D0006DE070E082E1A6DD62E370E080E090E0F5
:1043E0000E94FC0960E072E183E19CDD6AE070E01C
:1043F00089E298DD6DE070E068C060EF78E785EEF7
:1044000091DD60E071E081E08DDD60E077E082E0E9
:1044100089DD60E370E183E085DD60E070E084E0E9
:1044200081DD67E072E088E07DDD60E070E089E0DA
:1044300079DD60E070E08AE075DD60E070E08CE0DE
:1044400071DD60E070E08DE06DDD60E070E08FE0D8
:1044500069DD60E070E080E165DD67E070E081E1EA
:1044600061DD60E070E082E15DDD60E070E083E1ED
:1044700059DD61E070E087E055DD68EC70E080E0D8
:1044800090E00E94FC0960E975E180E14BDD67E2A4
:1044900072E081E147DD62E370E080E090E00E943D
:1044A000FC096CE970E082E13DDD62E370E080E0F0
:1044B00090E00E94FC0960E079E183E133DD63E292
:1044C00070E089E22FDD6EE070E08BE22BDD62E3CD
:1044D00070E080E090E00E94FC0960E070E080E223
:1044E00021DD60E070E081E21DDD60E070E080E3EE
:1044F00019DD64E074E081E315DD63E070E082E3E0
:1045000011DD65E074E085E30DDD68E078E086E3C9
:1045100009DD67E074E087E305DD63E073E088E3CD
:1045200001DD67E077E089E3FDDC64E075E08CE3C2
:10453000F9DC68E078E08DE3F5DC60E070E080E5D0
:10454000F1DC6FEE70E081E5EDDC60E070E082E5CB
:10455000E9DC6FE371E083E5E5DC60E077EA80E6C3
:10456000E1DC61E070E081E6DDDC60E070E08AE6DD
:10457000D9DC60E070E080E8D5DC60E070E081E8E4
:10458000D1DC60E070E082E8CDDC60E070E083E8E0
:10459000C9DC60E070E084E8C5DC60E070E085E8DC
:1045A000C1DC60E170E080E9BDDC60E070E082E9E0
:1045B000B9DC63E371E087E0B5DC0C94912E64E82C
:1045C00070E086E2AFDC68E270E080E090E00E949C
:1045D000FC0968EB70E086E2A5DC68E270E080E050
:1045E00090E00E94FC096CEB70E086E29BDC64E1E9
:1045F00070E080E090E00E94FC0960E070E080E6FE
:1046000091DC66E070E081E68DDC60E070E082E6DF
:1046100089DC68EC70E083E685DC64E170E080E0D2
:1046200090E00E94FC0960E770E083E77BDC60E0DB
:1046300070E080E477DC60E470E081E473DC65E4E2
:1046400070E082E46FDC61E070E083E46BDC60E6E4
:1046500070E084E467DC65E070E085E463DC6CE0D6
:1046600070E086E45FDC61ED70E087E45BDC65E0D0
:1046700070E088E457DC65E770E080E553DC61E0DA
:1046800070E081E54FDC67E670E082E54BDC64E1D9
:1046900070E083E547DC62EF70E084E543DC67E0CF
:1046A00070E085E53FDC63E070E086E53BDC69E4D3
:1046B00070E087E537DC64E170E080E090E00E9424
:1046C000FC0963E070E08FE12DDC60E070E080E2E7
:1046D00029DC64E270E084E225DC64E370E085E2DA
:1046E00021DC6FE270E083E21DDC64E170E080E0D9
:1046F00090E00E94FC0964E470E088E113DC61E072
:1047000070E081E20FDC60E070E081E00BDC63E0F0
:1047100070E08CE107DC66E070E089E103DC64E1D5
:1047200070E080E090E00E94FC0964E870E086E2BE
:10473000F9DB68E270E080E090E00E94FC0968EB41
:1047400070E086E2EFDB68E270E080E090E00E94DB
:10475000FC096CEB70E086E2E5DB64E170E080E090
:1047600090E00E94FC0960E070E082E0DBDB60E04A
:1047700070E083E0D7DB60E070E084E0D3DB6FEAD9
:1047800070E085E0CFDB60E070E086E0CBDB60E0EE
:1047900070E087E0C7DB60E070E088E0C3DB6BEDD2
:1047A00070E089E0BFDB64E170E080E090E00E94AF
:1047B000FC0968E070E086E1B5DB65E070E087E168
:1047C000B1DB81E269DB82E267DB0C94912E81E14F
:1047D00063DB6CE070E080E090E00E94FC0981EB1C
:1047E0005BDB81E06EDB8CE26CDB8DE26ADB82EB13
:1047F00053DB81E066DB8CE264DB8DE262DB83EB22
:104800004BDB81E05EDB8CE25CDB8DE25ADB81E03E
:1048100058DB8CE256DB8DE254DB84EB3DDB87E03A
:1048200050DB80EC39DB82EA4CDB82E04ADB84E857
:1048300048DB81EC31DB85EC44DB82EC2DDB8AE06C
:1048400040DB80E03EDB83EC27DB8AE83ADB8AE270
:1048500038DB84EC21DB8AE834DB8EEE32DB85EC5E
:104860001BDB8EE02EDB86E317DB88EC4FC081E19B
:1048700013DB6CE070E080E090E00E94FC0981EBCB
:104880000BDB81E01EDB8CE21CDB8DE21ADB82EBB2
:1048900003DB81E016DB8CE214DB8DE212DB83EBC1
:1048A000FBDA81E00EDB8CE20CDB8DE20ADB81E0DF
:1048B00008DB8CE206DB8DE204DB84EBEDDA87E0DB
:1048C00000DB80ECE9DA82EAFCDA82E0FADA84E8FA
:1048D000F8DA81ECE1DA85ECF4DA82ECDDDA8AE010
:1048E000F0DA80E0EEDA83ECD7DA8AE8EADA8AE214
:1048F000E8DA84ECD1DA8AE8E4DA8EEEE2DA85EC02
:10490000CBDA8EE0DEDA86E3C7DA80ECDADA80EE44
:10491000C3DA8FE0D6DA8AE1D4DA8FE0D2DA88E13E
:10492000D0DA8FE2CEDA88E2CCDA80E2CADA82E24A
:10493000C8DA8FE1C6DA8BE1C4DA83E2C2DA87E350
:10494000C0DA80E0BEDA87E0BCDA82E0BADA80E181
:10495000B8DA81EEA1DA8FE0B4DA8BE1B2DA8FE077
:10496000B0DA87E1AEDA83E3ACDA8CE2AADA89E284
:10497000A8DA8EE2A6DA80E3A4DA80E3A2DA89E399
:10498000A0DA8FE39EDA80E09CDA87E09ADA83E0AF
:1049900098DA80E196DA8AE27FDA80E092DA80E0E3
:1049A00090DA80E08EDA8FE78CDA8BE275DA80E0DD
:1049B00088DA80E086DA80E084DA8FE982DA80EFD4
:1049C0006BDA81E07EDA86EF67DA80E09BC581E012
:1049D00063DA85E261DA80E474DA81E15DDA6AE063
:1049E00070E080E090E00E94FC0980E255DA88E304
:1049F00053DA89E251DA83E14FDA86E34DDA80E671
:104A000060DA8AE349DA85E05CDA8AE245DA80E056
:104A100058DA8FE756DA84EB3FDA83E052DA88E03F
:104A200050DA8BE04EDA8EE04CDA8AEB35DA87E04A
:104A300048DA8DE046DA8BE22FDA80E042DA8FE75F
:104A40006CC183E829DA82E03CDA85E825DA83E084
:104A500038DA8BE821DA81E034DA8CE81DDA83E990
:104A600030DA81E919DA81E02CDA83E815DA80E0BE
:104A700028DA8EE311DA80EB24DA8FE30DDA83E0B3
:104A800020DA80E409DA80E11CDA81E405DA86E5DF
:104A900018DA82E401DA83E114DA83E4FDD986E4EA
:104AA00010DA84E4F9D983E20CDA85E4F5D986E7F3
:104AB00008DA86E4F1D980E004DA87E4EDD98EE5FE
:104AC00000DA88E4E9D98FE4FCD989E4E5D980E407
:104AD000F8D987E1E1D981E9F4D98BE2DDD989EF11
:104AE000F0D96AE070E080E090E00E94FC098BE180
:104AF000D3D984E1E6D98AE1CFD981E1E2D98CE149
:104B0000CBD986E0DED98FE1C7D982E4DAD964E176
:104B100070E080E090E00E94FC0989E1BDD98AE064
:104B2000D0D989E1B9D98AE1CCD968E270E080E0D6
:104B300090E00E94FC0989E1AFD982E1C2D968E224
:104B400070E080E090E00E94FC098EE1A5D987E248
:104B5000B8D964E670E080E090E00E94FC0984E24D
:104B60009BD980E6AED98DE397D980E4AAD984E3B6
:104B700093D988E3A6D985E38FD988E3A2D984E2C3
:104B80008BD988E39ED968E270E080E090E00E94D3
:104B9000FC0984E281D98CE394D986E17DD98CE14A
:104BA00090D981E079D986E08CD985E575D980E006
:104BB00088D982E071D980E084D983E06DD980E022
:104BC00080D984E069D980E07CD985E065D98FEE11
:104BD00078D986E061D980E074D987E05DD980E03A
:104BE00070D988E059D981E06CD989E055D98FE82E
:104BF00068D9E9CD82EE50D983E263D982E061D9E8
:104C000084E55FD980EE48D981E05BD96AE070E045
:104C100080E090E00E94FC0980EE3ED983E051D90B
:104C20006AE070E080E090E00E94FC0981E034D905
:104C300064E670E080E090E00E94FC0986EE2CD9EA
:104C400081E03FD98FE13DD98FEF3BD980EB24D96B
:104C500080E237D980E035D981E033D98FED31D981
:104C600081E02FD98FE02DD980E02BD984EB14D9A6
:104C700082E027D983E125D980E023D988E021D9B2
:104C80008BE21FD980E01DD982E01BD980E019D9C1
:104C900086EB02D981E015D980E213D980E011D9E1
:104CA00084E00FD98CE00DD980E00BD982E009D9DE
:104CB0008AEBF2D88FE005D988EBEED887E001D9EE
:104CC00081E0FFD886E3E8D882E2FBD880EFE4D821
:104CD00083E0F7D861E070E080E090E00E94FC099A
:104CE0002FE031E04FED51E060E070E080E090E0D7
:104CF0000E94F61889E2D0D88EEBCED886E0E1D8B3
:104D000080EFDFD881E0DDD880EFDBD880E0D9D834
:104D100080E0D7D880EDC0D88DE0D3D833C782EEFD
:104D2000BBD88EE1CED882E0CCD884E5CAD880EE5C
:104D3000B3D881E0C6D86AE070E080E090E00E94DD
:104D4000FC0980EEA9D883E0BCD86AE070E080E07E
:104D500090E00E94FC0981E09FD864E670E080E06A
:104D600090E00E94FC0986EE97D883E0AAD88FEFE6
:104D7000A8D88FEFA6D880EB8FD884E2A2D880E0A5
:104D8000A0D883E09ED88FE19CD881E09AD88FED9F
:104D900098D880E096D884EB7FD883E092D880EAD8
:104DA00090D880E08ED88EE28CD880E38AD880E0DC
:104DB00088D88FE086D880E084D886EB6DD882E0F2
:104DC00080D88DE07ED880E07CD880E17AD880E100
:104DD00078D880E076D888E074D88AEB5DD88FE008
:104DE00070D888EB59D887E06CD881E06AD886E320
:104DF00053D882E266D880EF4FD883E062D861E072
:104E000070E080E090E07FC082EE46D883E259D81F
:104E100082E057D884E055D880EE3ED881E051D862
:104E20006AE070E080E090E00E94FC0980EE34D8F7
:104E300083E047D86AE070E080E090E00E94FC09DF
:104E400081E02AD864E670E080E090E00E94FC09EE
:104E500086EE22D884E035D883E933D880EE31D885
:104E600080EB1AD880E02DD880E02BD883E029D8B9
:104E70008FE127D881E025D88FED23D880E021D895
:104E800084EB0AD883E01DD880EA1BD880E019D8CB
:104E90008EE217D880E315D880E013D88FE011D8C0
:104EA00080E00FD886EB0E944C1F82E00AD88DE08C
:104EB00008D880E006D880E104D880E102D880E0FC
:104EC00000D888E00E94611F8AEB0E944C1F85E099
:104ED0000E94611F88EB0E944C1F87E00E94611FA7
:104EE00081E00E94611F86E30E944C1F82E20E94C3
:104EF000611F80EF0E944C1F83E00E94611F6AE0E7
:104F000070E080E090E00E94FC092FED31E04FE17D
:104F100053E0EACE64E070E281E104D860E07CEC2A
:104F200083E100D860E076E285E10E94921F6AE2A8
:104F300075E284E10E94921F63E370E082E10E94C7
:104F4000921F64E07CEC83E10E94921F66E07CEC9F
:104F500083E10E94921F6FE47CEC83E10E94921F28
:104F60006FE477E683E10E94921F63E070E281E1E3
:104F70000E94921F69E076E280E30E94921F6CE239
:104F800074E281E30E94921F63E27FE182E30E9468
:104F9000921F65E274E283E30E94921F66E272E26E
:104FA00084E30E94921F63E275E285E30E94921FF0
:104FB0006AE17CE186E30E94921F6DE173E187E381
:104FC0000E94921F61E17BE088E30E94921F60E1F2
:104FD00072E189E30E94921F65E173E18AE30E9416
:104FE000921F69E176E38BE30E94921F60E07DE00F
:104FF0008CE30E94921F6DE070E08DE30E94921F8F
:1050000067E070E086E10E94921F63E170E082E059
:105010000E94921F63E070E083E00E94921F67E2AB
:1050200071E081E00E94921F63E073E088E00E94DB
:10503000921F6BE070E08AE00E94921F63E070E0D4
:105040008BE00E94921F60E070E08CE00E94921F53
:1050500060E070E081E40E94921F60E070E080E513
:105060000E94921F65E070E080E60E94921F6BE054
:1050700070E080E70E94921F60E070E081E70E948C
:10508000921F60E070E088E70E94921F60E070E08D
:105090008AE70E94921F67E070E089E70E94921FF2
:1050A00061E570E087E00E94921F63E570E087E0B1
:1050B0000E94921F60E070E089E748C181E10E9490
:1050C0004C1F64E170E080E090E00E94FC0980EDFC
:1050D0000E944C1F87E00E94611F82E40E94611FB2
:1050E00088E10E94611F81ED0E944C1F80E00E94B8
:1050F000611F87E00E94611F80E10E94611F82EDB5
:105100000E944C1F81E00E94611F82E00E94611F8B
:1051100080EC0E944C1F80E10E94611F8BE30E9483
:10512000611F80E00E94611F82E00E94611F81E197
:105130000E94611F85EC0E944C1F83E00E94611F4A
:1051400088EC0E944C1F80E00E94611F82E30E9455
:10515000611F86E30E94611F85E40E94611F86E053
:105160000E94611F86E10E94611F87E30E94611F08
:1051700085E70E94611F87E70E94611F84E50E9406
:10518000611F8CE00E94611F80E00E94611F86E326
:105190000E944C1F8AE00E94611F8AE30E944C1FFC
:1051A00085E50E94611F8AE20E944C1F80E00E94F8
:1051B000611F80E00E94611F81E00E94611F8FE3F8
:1051C0000E94611F8BE20E944C1F80E00E94611FC1
:1051D00080E00E94611F81E00E94611F80EE0E94BA
:1051E000611F68E770E080E090E00E94FC0992C1D6
:1051F0006AE170E081E10E94921F61E271E382E165
:105200000E94921F6CE670E083E10E94921F69E4A5
:1052100072E484E10E94921F60E078E080E10E94E5
:10522000921F6AE070E080E090E00E94FC096AE171
:1052300071E081E10E94921F6AE070E080E090E0FE
:105240000E94FC096AE173E081E10E94921F6AE01A
:1052500070E080E090E00E94FC096AE177E081E183
:105260000E94921F6AE070E080E090E00E94FC09DA
:105270006AE17FE081E10E94921F6AE070E080E0D5
:1052800090E00E94FC096AE37FE081E10E94921FA6
:105290006EE170E080E090E00E94FC096CE171E05A
:1052A00081E00E94921F60E071E082E00E94921F04
:1052B00060E370E183E00E94921F60E070E087E0AD
:1052C0000E94921F68E078E088E00E94921F60E0F0
:1052D00071E18BE00E94921F60E070E08CE00E9420
:1052E000921F61E074E18FE00E94921F60E070E025
:1052F00085E10E94921F60E070E080E20E94921FB0
:1053000060E070E081E20E94921F6FEA70E086E345
:105310000E94921F60E070E087E30E94921F6BED95
:1053200070E088E30E94921F60E070E089E30E94D1
:10533000921F61E07BE08FE00E94921F66E170E0C7
:1053400087E00E94921F67E170E087E00E94921F51
:105350003ACA81E10E944C1F68E770E080E090E06B
:105360000E94FC0981EB0E944C1F85E00E94611F96
:105370008CE30E94611F8CE30E94611F82EB0E94FC
:105380004C1F85E00E94611F8CE30E94611F8CE32B
:105390000E94611F83EB0E944C1F85E00E94611FE9
:1053A0008CE30E94611F8CE30E94611F85E00E94D4
:1053B000611F8CE30E94611F8CE30E94611F84EBDC
:1053C0000E944C1F83E00E94611F80EC0E944C1FD2
:1053D00088E20E94611F88E00E94611F84E00E94B1
:1053E000611F81EC0E944C1F80EC0E94611F82ECC7
:1053F0000E944C1F8DE00E94611F80E00E94611F8F
:1054000083EC0E944C1F8DE80E94611F8AE20E947B
:10541000611F84EC0E944C1F8DE80E94611F8EEE7C
:105420000E94611F85EC0E944C1F8AE10E94611F4F
:1054300086E30E944C1F80EC0E94611F80EE0E9458
:105440004C1F83E00E94611F82E20E94611F87E07F
:105450000E94611F8AE00E94611F8EE20E94611F0C
:1054600080E30E94611F85E20E94611F8AE20E9420
:10547000611F88E20E94611F86E20E94611F8EE226
:105480000E94611F8AE30E94611F80E00E94611FE9
:1054900081E00E94611F83E00E94611F83E10E94FE
:1054A000611F81EE0E944C1F84E00E94611F86E113
:1054B0000E94611F86E00E94611F8DE00E94611FB3
:1054C0008DE20E94611F86E20E94611F83E20E94BA
:1054D000611F87E20E94611F87E20E94611F85E2CF
:1054E0000E94611F8DE20E94611F8BE30E94611F79
:1054F00080E00E94611F81E00E94611F84E00E94A1
:10550000611F83E10E94611F8AE30E944C1F85E0B6
:105510000E94611F89E258C981E10E944C1F64E129
:1055200070E080E090E00E94FC0988E20E944C1F3D
:1055300065E070E080E090E00E94FC098FEC0E9442
:105540004C1F80E00E94611F83E80E94611F80E37E
:105550000E94611F8DEE0E944C1F84E60E94611F15
:1055600083E00E94611F82E10E94611F81E80E9426
:10557000611F88EE0E944C1F85E80E94611F81E038
:105580000E94611F89E70E94611F8BEC0E944C1FE3
:1055900089E30E94611F8CE20E94611F80E00E94EB
:1055A000611F84E30E94611F82E00E94611F87EFF8
:1055B0000E944C1F80E20E94611F8AEE0E944C1FD5
:1055C00080E00E94611F80E00E94611F80EC0E94C9
:1055D0004C1F86E20E94611F81EC0E944C1F81E1FA
:1055E0000E94611F85EC0E944C1F85E30E94611F91
:1055F0008EE30E94611F87EC0E944C1F8EEB0E947D
:10560000611F81EB0E944C1F80E00E94611F8BE1B3
:105610000E94611F86EB0E944C1F8AE00E94611F5E
:1056200082E80E94611F87E20E94611F80E00E9461
:10563000611F87EB0E944C1F87E00E94611F8AE375
:105640000E944C1F85E50E94611F86E30E944C1F4B
:1056500088E40E94611F89E20E944C1F65E070E0AF
:1056600080E090E05CC38BEC0E944C1F89E30E94B9
:10567000611F8CE20E94611F80E00E94611F84E331
:105680000E94611F82E00E94611F8FEC0E944C1FEC
:1056900080E00E94611F81EC0E94611F80E30E94F4
:1056A000611F88EE0E944C1F85E80E94611F80E008
:1056B0000E94611F88E70E94611F8AEE0E944C1FB2
:1056C00080E00E94611F80E00E94611F8DEE0E94B9
:1056D0004C1F84E60E94611F83E00E94611F82E1EB
:1056E0000E94611F81E80E94611F87EF0E944C1F8A
:1056F00080E20E94611F80EC0E944C1F83E20E94A6
:10570000611F81EC0E944C1F80E10E94611F85ECAB
:105710000E944C1F8EE30E94611F88E20E94611F5D
:1057200087EC0E944C1F86E80E94611F86E30E945E
:105730004C1F88E40E94611F8AE30E944C1F85E58C
:105740000E94611F81EB0E944C1F80E00E94611F3C
:1057500088E10E94611F86EB0E944C1F88E00E9436
:10576000611F82E80E94611F87E20E94611F81E140
:105770000E944C1F68E770E080E090E0FEC180EB83
:105780000E944C1F8EE10E94611F80EB0E944C1F03
:1057900080E00E94611F83EB0E944C1F82E00E9408
:1057A000611F80E00E94611F80E00E94611F80E114
:1057B0000E94611F84EB0E944C1F80E00E94611FC9
:1057C00080EC0E944C1F83E00E94611F8BE30E94CB
:1057D000611F80E00E94611F80E00E94611F80E0E5
:1057E0000E94611F81E00E94611F80E00E94611F92
:1057F00083E40E94611F81EC0E944C1F88E00E949C
:10580000611F85E10E94611F88E00E94611F88E09E
:105810000E94611F84EC0E944C1F85E10E94611F61
:1058200083E00E94611F83E00E94611F81E00E946B
:10583000611F86EC0E944C1F82E00E94611F88EC71
:105840000E944C1F8CE00E94611F85E00E94611F36
:105850008AE00E94611F8BE60E94611F84E00E9423
:10586000611F86E00E94611F85E10E94611F80E147
:105870000E94611F80E00E94611F80E60E94611FFC
:1058800086E30E944C1F8AE00E94611F8CE00E9408
:105890004C1F85E50E94611F8AE30E944C1F85E52D
:1058A0000E94611F88E30E944C1F80ED0E944C1FE4
:1058B00087E00E94611F87E00E94611F84E10E94CF
:1058C000611F82EA0E94611F81ED0E944C1F83E0EC
:1058D0000E94611F8AE50E94611F80E10E94611F92
:1058E00082ED0E944C1F83E00E94611F84E00E94B1
:1058F000611F84E00E94611F81E10E944C1F66E9E4
:1059000070E080E090E00E94FC098AE20E944C1F57
:1059100080E00E94611F80E00E94611F81E00E9480
:10592000611F8FED0E94611F8BE20E944C1F80E07F
:105930000E94611F80E00E94611F81E00E94611F40
:105940008FE30E94611F64E670E080E090E00E94B7
:10595000FC0989E20E944C1F6EE170E080E090E05B
:105960000E94FC098CE20E944C1F6EE170E080E016
:1059700090E0D5C181E10E944C1F62E370E080E0BD
:1059800090E00E94FC0982EF0E944C1F8CE10E9473
:10599000611F83EA0E94611F82E30E94611F82E00F
:1059A0000E94611F82EB0E94611F82E10E94611FC1
:1059B0008FEF0E94611F82E10E94611F80E00E94C0
:1059C000611F81EF0E944C1F86E30E94611F84EAE1
:1059D0000E94611F88EF0E944C1F81E20E94611F9C
:1059E00084E00E94611F89EF0E944C1F80E00E94AA
:1059F000611F88E00E94611F80EC0E944C1F8DE0B7
:105A00000E94611F8DE00E94611F81EC0E944C1F6B
:105A100083E40E94611F80E00E94611F82EC0E946B
:105A20004C1F80E00E94611F85EC0E944C1F80E0AB
:105A30000E94611F88E40E94611F86EB0E944C1F38
:105A400080E00E94611F82E20E94611F8BE30E943E
:105A5000611F80EE0E944C1F8FE00E94611F84E254
:105A60000E94611F8CE10E94611F8AE00E94611FF9
:105A70008FE00E94611F88E00E94611F83E40E9402
:105A8000611F88E80E94611F82E30E94611F8FE00E
:105A90000E94611F80E10E94611F86E00E94611FD9
:105AA0008FE00E94611F87E00E94611F80E00E94DA
:105AB000611F81EE0E944C1F8FE00E94611F88E3EE
:105AC0000E94611F80E30E94611F89E00E94611FA4
:105AD0008FE00E94611F8FE00E94611F8EE40E9490
