:1000000036C7000065C7000063C7000061C7000075
:100010005FC700005DC700005BC7000059C7000054
:1000200057C7000055C7000053C7000051C7000064
:100030004FC700004DC700004BC7000049C7000074
:1000400047C7000045C7000043C7000041C7000084
:100050003FC700003DC700003BC700000C943413AD
:1000600037C700000C94EE110C94C51131C7000085
:100070002FC700002DC700002BC7000029C70000B4
:1000800027C7000025C7000023C7000021C70000C4
:100090001FC700001DC700001BC7000019C70000D4
:1000A00017C7000015C7000013C7000011C70000E4
:1000B0000FC700000DC700000BC7000009C70000F4
:1000C00007C7000005C7000003C7000001C7000004
:1000D000FFC60000FDC60000FBC60000F9C6000018
:1000E000F7C60000BD21F43062226222AD23F43055
:1000F0009B26D0244826F430CE279C28EA29EA29DA
:10010000BD21962DF430BD214029C02ACB225A2B87
:100110000B2C962DEF2C222E1D2F28303D30442500
:1001200053125612451249124D128D125A125E1276
:10013000641268126C12721276127A128D12801288
:10014000841288127E1C371D951C951CAA1C371D15
:10015000651C191DC81C371DD21CD21CE61CE61CD0
:100160007E1C191D371D7E1CD21C191D951CF41CEC
:10017000191D191D191D191D191D091D191D191DDF
:100180001010205F000000000000000000000000D0
:10019000000000000000000000000000000000005F
:1001A000000000000000000007000F800F800F809B
:1001B0000F800F8007000700000000000700070005
:1001C0000700000000000E380E380E380E380630DA
:1001D000000000000000000000000000000000001F
:1001E0000000000000000C300C300C307FFE7FFE61
:1001F0000C300C300C300C307FFE7FFE0C300C309D
:100200000C3000000000024002400FF81FF81A40B6
:100210001A401FF00FF8025802581FF81FF0024052
:10022000024000000000000000000E100E300E70B2
:1002300000E001C0038007000E700C700870000021
:1002400000000000000000000F00198019801980D4
:100250000F000F080F9819F818F018E019F00F9810
:1002600000000000000000000700070007000E006B
:10027000000000000000000000000000000000007E
:10028000000000000000000000F001C00380070033
:100290000E000E000E000E000700038001C000F0EB
:1002A00000000000000000000F00038001C000E01B
:1002B000007000700070007000E001C003800F004B
:1002C000000000000000000001801188099007E094
:1002D00007E03FFC3FFC07E007E009901188018040
:1002E000000000000000000000000000018001800C
:1002F00001800FF00FF001800180018000000000FC
:1003000000000000000000000000000000000000ED
:1003100000000000000000000000070007000700C8
:100320000E000000000000000000000000000000BF
:1003300000001FF81FF8000000000000000000008F
:1003400000000000000000000000000000000000AD
:100350000000000000000000000007000700070088
:10036000000000000000000000020006000E001C5B
:100370000038007000E001C0038007000E001C0080
:1003800000000000000000000FF01C381C781CF872
:100390001CF81DB81DB81F381F381E381C380FF048
:1003A00000000000000000000180018003801F8029
:1003B0001F800380038003800380038003801FF07D
:1003C00000000000000000000FE01C701C38003826
:1003D000007000E001C0038007000E381C381FF8D1
:1003E00000000000000000000FE01C701C38003806
:1003F000007003C003C0007000381C381C700FE090
:10040000000000000000000000E001E003E006E062
:100410000CE018E01FF81FF800E000E000E003F82F
:1004200000000000000000001FF81C001C001C0061
:100430001C001FE01FF0007800381C381C700FE013
:10044000000000000000000003E007000E001C0098
:100450001C001FF01FF81C381C381C381C380FF00B
:1004600000000000000000001FFC1C1C1C1C1C1CC9
:10047000001C0038007000E001C00380038003808E
:1004800000000000000000000FF01C381C381C3871
:100490001F3807E007E01CF81C381C381C380FF028
:1004A00000000000000000000FF01C381C381C3851
:1004B0001C381FF80FF800380038007000E007C043
:1004C0000000000000000000000000000380038026
:1004D0000380000000000380038003800000000010
:1004E0000000000000000000000000000380038006
:1004F00003800000000003800380038007000000E9
:10050000000000000000007000E001C00380070050
:100510000E001C001C000E000700038001C000E05C
:1005200000700000000000000000000000003FFC20
:100530003FFC000000003FFC3FFC0000000000000A
:100540000000000000001C000E000700038001C036
:1005500000E00070007000E001C0038007000E00A2
:100560001C000000000003C00FF01E78183800388F
:10057000007000E001C001C00000000001C001C027
:1005800001C0000000000FF81C1C1C1C1C1C1C1CC3
:100590001CFC1CFC1CFC1CFC1C001C001C001FF098
:1005A00007F800000000000003C007E00E701C38D0
:1005B0001C381C381C381FF81C381C381C381C38D8
:1005C00000000000000000001FF00E380E380E384A
:1005D0000E380FF00FF00E380E380E380E381FF0B0
:1005E000000000000000000007F00E381C381C005E
:1005F0001C001C001C001C001C001C380E3807F0DE
:1006000000000000000000001FE00E700E380E38E1
:100610000E380E380E380E380E380E380E701FE0B9
:1006200000000000000000001FF80E180E080E0069
:100630000E300FF00FF00E300E000E080E181FF8DF
:1006400000000000000000001FF80E180E080E0049
:100650000E300FF00FF00E300E000E000E001F00D7
:10066000000000000000000007F00E381C381C38A5
:100670001C001C001C001CF81C381C380E3807F825
:1006800000000000000000001C701C701C701C703A
:100690001C701FF01FF01C701C701C701C701C70F4
:1006A00000000000000000000FE0038003800380D2
:1006B00003800380038003800380038003800FE0B6
:1006C000000000000000000001FC007000700070DD
:1006D00000700070007038703870387038700FE03B
:1006E00000000000000000001E380E380E700EE002
:1006F0000FC00F800F800FC00EE00E700E381E3836
:1007000000000000000000001F000E000E000E00A0
:100710000E000E000E000E000E080E180E381FF808
:1007200000000000000000001C1C1E3C1F7C1FFC81
:100730001FFC1DDC1C9C1C1C1C1C1C1C1C1C1C1CD5
:1007400000000000000000001C1C1C1C1E1C1F1CC4
:100750001F9C1DDC1CFC1C7C1C3C1C1C1C1C1C1C35
:10076000000000000000000003E007F00E381C1C31
:100770001C1C1C1C1C1C1C1C1C1C0E3807F003E041
:1007800000000000000000001FF00E380E380E3888
:100790000E380FF00FF00E000E000E000E001F00BE
:1007A000000000000000000003E00F780E381C1C61
:1007B0001C1C1C1C1C1C1C7C1CFC0FF80FF800389B
:1007C00000FC0000000000001FF00E380E380E384C
:1007D0000E380FF00FF00E700E380E380E381E382F
:1007E00000000000000000000FF01C381C381C380E
:1007F0001C000FE007F000381C381C381C380FF0C4
:1008000000000000000000001FFC19CC11C401C052
:1008100001C001C001C001C001C001C001C007F09A
:1008200000000000000000001C701C701C701C7098
:100830001C701C701C701C701C701C701C700FE0F5
:1008400000000000000000001C701C701C701C7078
:100850001C701C701C701C701C700EE007C00380A4
:1008600000000000000000001C1C1C1C1C1C1C1CA8
:100870001C1C1C9C1C9C1C9C0FF80FF8077007701C
:1008800000000000000000001C701C701C700EE0D6
:1008900007C00380038007C00EE01C701C701C7032
:1008A00000000000000000001C701C701C701C7018
:1008B0001C700EE007C003800380038003800FE0FC
:1008C00000000000000000001FF81C3818381070ED
:1008D00000E001C0038007000E081C181C381FF838
:1008E000000000000000000007F0070007000700FC
:1008F000070007000700070007000700070007F0D0
:100900000000000000000000100018001C000E0095
:100910000700038001C000E000700038001C0007E1
:10092000000000000000000007F000700070007080
:10093000007000700070007000700070007007F0B0
:10094000000000000000018003C007E00E701C38AA
:100950000000000000000000000000000000000097
:100960000000000000000000000000000000000087
:100970000000000000000000000000000000000077
:100980007FFF7FFF000000001C001C000700070025
:100990000000000000000000000000000000000057
:1009A0000000000000000000000000000000000047
:1009B0000FE0007000700FF01C701C701C700FD8DE
:1009C00000000000000000001E000E000E000E00DF
:1009D0000FF00E380E380E380E380E380E381BF069
:1009E0000000000000000000000000000000000007
:1009F0000FE01C701C701C001C001C701C700FE0B1
:100A0000000000000000000000F80070007000709E
:100A10000FF01C701C701C701C701C701C700FD8A8
:100A200000000000000000000000000000000000C6
:100A30000FE01C701C701FF01C001C701C700FE07D
:100A4000000000000000000003E0077007700700CE
:100A500007001FE01FE007000700070007001FC096
:100A60000000000000000000000000000000000086
:100A70000FD81C701C701C701C700FF007F00070F9
:100A80001C700FE0000000001E000E000E000E00A3
:100A90000EF00F380F380E380E380E380E381E385C
:100AA000000000000000000001C001C001C0000003
:100AB0000FC001C001C001C001C001C001C00FF8DA
:100AC00000000000000000000070007000700000D6
:100AD00003F00070007000700070007000701C70F7
:100AE0000CF007E0000000001E000E000E000E00DB
:100AF0000E380E700EE00FC00EE00E700E381E386D
:100B000000000000000000000FC001C001C001C0D3
:100B100001C001C001C001C001C001C001C00FF887
:100B200000000000000000000000000000000000C5
:100B30001FF81C9C1C9C1C9C1C9C1C9C1C9C1C9C96
:100B400000000000000000000000000000000000A5
:100B50001FE01C701C701C701C701C701C701C70C2
:100B60000000000000000000000000000000000085
:100B70000FE01C701C701C701C701C701C700FE04F
:100B80000000000000000000000000000000000065
:100B90001BF00E380E380E380E380E380FF00E00DF
:100BA0000E001F0000000000000000000000000018
:100BB0001FB038E038E038E038E038E01FE000E00F
:100BC00000E001F000000000000000000000000054
:100BD0001EF00FF80F380E000E000E000E001F0062
:100BE0000000000000000000000000000000000005
:100BF0000FE01C301C300F8003E0187018700FE0FD
:100C000000000000000000000000010003000700D9
:100C10001FF007000700070007000770077003E0D8
:100C200000000000000000000000000000000000C4
:100C30001C701C701C701C701C701C701C700FD8F9
:100C400000000000000000000000000000000000A4
:100C50001C701C701C701C701C700EE007C00380A0
:100C60000000000000000000000000000000000084
:100C70001C1C1C1C1C1C1C9C1C9C0FF80770077067
:100C80000000000000000000000000000000000064
:100C90001CE01CE00FC0078007800FC01CE01CE0B8
:100CA0000000000000000000000000000000000044
:100CB0000E380E380E380E380E3807F003E000E01C
:100CC00001C01F80000000000000000000000000C4
:100CD0001FE018E011C0038007000E201C601FE019
:100CE000000000000000000001F803800380038082
:100CF00007001C001C00070003800380038001F82C
:100D000000000000000001C001C001C001C001C01E
:100D100001C001C001C001C001C001C001C001C0CB
:100D200001C00000000000001F8001C001C001C020
:100D300000E00038003800E001C001C001C01F80A1
:100D400000000000000000001F1C3B9C39DC38F84C
:100D50000000000000000000000000000000000093
:100D60000000000000002100240027002A002D00C0
:100D70003000330001010000040107010A010000F6
:100D80000A0B02090C0D0E08070304010000000005
:100D90000000000000000000000000000000000053
:100DA0000000000000000000000012111000000010
:100DB0000000000000000000000000000000000033
:100DC0000000000001021020200808102040102020
:100DD00040800201020108040201010204081020FF
:100DE00040808040201008040201800402018040FD
:100DF0002010080402010804020101020408102066
:100E000040800102040810204080000022002500DC
:100E100028002B002E0031003400020100000501E3
:100E200008010B0105050505070508080808020269
:100E300002020A0A08080404040401010101010174
:100E400001010303030303030303040707070C0C57
:100E50000C0C0C0C0C0C020202020606060606061E
:100E600006060B0B0B0B0B0B0B0B72355A351124B3
:100E70001FBECFEFD1E2DEBFCDBF00E00CBF12E05E
:100E8000A0E0B2E0ECE3F7E700E00BBF02C00790A0
:100E90000D92AA3EB107D9F729E0AAEEB2E001C04F
:100EA0001D92A132B207E1F717E0C6E3D7E000E0F8
:100EB00006C021970109802FFE010E944839C533E1
:100EC000D10780E00807A9F70E943A200C948D3BD7
:100ED00097C8682F892F0C94051C2091C805809114
:100EE000CD059091CE054091C9055091CA052111BB
:100EF00002C09C0102C09A01AC0160E070E080E099
:100F000090E00C94321C8F929F92AF92BF92CF923E
:100F1000DF92EF92FF926A017B0182B9CB01BA01A5
:100F200020E130E040E050E00E94D03749015A0112
:100F300080E090E0DC0188159905AA05BB050CF05E
:100F400064C2E091D605F091D70530812091E30588
:100F5000209523232083E091D605F091D705308199
:100F60002091E305232B2083E091D605F091D7054E
:100F700030812091E305209523232083E091D6053D
:100F8000F091D70530812091E305232B2083E09158
:100F9000D605F091D70530812091E30520952323D4
:100FA0002083E091D605F091D70530812091E305AB
:100FB000232B2083E091D605F091D7053081209135
:100FC000E305209523232083E091D605F091D705F2
:100FD00030812091E305232B2083E091D605F09109
:100FE000D70530812091E305209523232083E091CC
:100FF000D605F091D70530812091E305232B20837E
:10100000E091D605F091D70530812091E305209538
:1010100023232083E091D605F091D70530812091DC
:10102000E305232B2083E091D605F091D70530818D
:101030002091E305209523232083E091D605F091AC
:10104000D70530812091E305232B2083E091D6053D
:10105000F091D70530812091E3052095232320834B
:10106000E091D605F091D70530812091E305232B3F
:101070002083E091D605F091D70530812091E305DA
:10108000209523232083E091D605F091D705308168
:101090002091E305232B2083E091D605F091D7051D
:1010A00030812091E305209523232083E091D6050C
:1010B000F091D70530812091E305232B2083E09127
:1010C000D605F091D70530812091E30520952323A3
:1010D0002083E091D605F091D70530812091E3057A
:1010E000232B2083E091D605F091D7053081209104
:1010F000E305209523232083E091D605F091D705C1
:1011000030812091E305232B2083E091D605F091D7
:10111000D70530812091E305209523232083E0919A
:10112000D605F091D70530812091E305232B20834C
:10113000E091D605F091D70530812091E305209507
:1011400023232083E091D605F091D70530812091AB
:10115000E305232B2083E091D605F091D70530815C
:101160002091E305209523232083E091D605F0917B
:10117000D70530812091E305232B2083E091D6050C
:10118000F091D70530812091E3052095232320831A
:10119000E091D605F091D70530812091E305232B0E
:1011A0002083E091D605F091D70530812091E305A9
:1011B000209523232083E091D605F091D705308137
:1011C0002091E305232B2083E091D605F091D705EC
:1011D00030812091E305209523232083E091D605DB
:1011E000F091D70530812091E305232B2083E091F6
:1011F000D605F091D70530812091E3052095232372
:101200002083E091D605F091D70530812091E30548
:10121000232B2083E091D605F091D70530812091D2
:10122000E305209523232083E091D605F091D7058F
:1012300030812091E305232B2083E091D605F091A6
:10124000D70530812091E305209523232083E09169
:10125000D605F091D70530812091E305232B20831B
:10126000E091D605F091D70530812091E3052095D6
:1012700023232083E091D605F091D705308120917A
:10128000E305232B2083E091D605F091D70530812B
:101290002091E305209523232083E091D605F0914A
:1012A000D70530812091E305232B2083E091D605DB
:1012B000F091D70530812091E305209523232083E9
:1012C000E091D605F091D70530812091E305232BDD
:1012D0002083E091D605F091D70530812091E30578
:1012E000209523232083E091D605F091D705308106
:1012F0002091E305232B2083E091D605F091D705BB
:1013000030812091E305209523232083E091D605A9
:10131000F091D70530812091E305232B2083E091C4
:10132000D605F091D70530812091E3052095232340
:101330002083E091D605F091D70530812091E30517
:10134000232B2083E091D605F091D70530812091A1
:10135000E305209523232083E091D605F091D7055E
:1013600030812091E305232B2083E091D605F09175
:10137000D70530812091E305209523232083E09138
:10138000D605F091D70530812091E305232B2083EA
:10139000E091D605F091D70530812091E3052095A5
:1013A00023232083E091D605F091D7053081209149
:1013B000E305232B2083E091D605F091D7054081EA
:1013C0003091E305309534233083E091D605F091D8
:1013D000D70520813091E305322B3083E091D6058B
:1013E000F091D70540813091E30530953423308367
:1013F000E091D605F091D70520813091E305322B9D
:1014000030830196A11DB11D96CDD701C6018F7005
:101410009927AA27BB27892B8A2B8B2BE1F1C701A0
:10142000B60120E130E040E050E00E94D037C12C0E
:10143000D12C76016C157D058E059F0564F1E09138
:10144000D605F091D70530812091E305209523231F
:101450002083E091D605F091D70530812091E305F6
:10146000232B2083E091D605F091D7053081209180
:10147000E305209523232083E091D605F091D7053D
:1014800030812091E305232B20832FEFC21AD20A4B
:10149000E20AF20ACFCFFF90EF90DF90CF90BF909B
:1014A000AF909F908F9008958F929F92AF92BF922E
:1014B000CF92DF92EF92FF9269017A0182B968B907
:1014C000CA01B90120E130E040E050E00E94D0378D
:1014D00049015A0180E090E0DC0188159905AA05D0
:1014E000BB050CF034C1E091D605F091D7053081F1
:1014F0002091E305209523232083E091D605F091E8
:10150000D70530812091E305232B2083E091D60578
:10151000F091D70530812091E30520952323208386
:10152000E091D605F091D70530812091E305232B7A
:101530002083E091D605F091D70530812091E30515
:10154000209523232083E091D605F091D7053081A3
:101550002091E305232B2083E091D605F091D70558
:1015600030812091E305209523232083E091D60547
:10157000F091D70530812091E305232B2083E09162
:10158000D605F091D70530812091E30520952323DE
:101590002083E091D605F091D70530812091E305B5
:1015A000232B2083E091D605F091D705308120913F
:1015B000E305209523232083E091D605F091D705FC
:1015C00030812091E305232B2083E091D605F09113
:1015D000D70530812091E305209523232083E091D6
:1015E000D605F091D70530812091E305232B208388
:1015F000E091D605F091D70530812091E305209543
:1016000023232083E091D605F091D70530812091E6
:10161000E305232B2083E091D605F091D705308197
:101620002091E305209523232083E091D605F091B6
:10163000D70530812091E305232B2083E091D60547
:10164000F091D70530812091E30520952323208355
:10165000E091D605F091D70530812091E305232B49
:101660002083E091D605F091D70530812091E305E4
:10167000209523232083E091D605F091D705308172
:101680002091E305232B2083E091D605F091D70527
:1016900030812091E305209523232083E091D60516
:1016A000F091D70530812091E305232B2083E09131
:1016B000D605F091D70530812091E30520952323AD
:1016C0002083E091D605F091D70530812091E30584
:1016D000232B2083E091D605F091D705308120910E
:1016E000E305209523232083E091D605F091D705CB
:1016F00030812091E305232B2083E091D605F091E2
:10170000D70540813091E305309534233083E09153
:10171000D605F091D70520813091E305322B308337
:10172000E091D605F091D70540813091E3053095E1
:1017300034233083E091D605F091D7052081309194
:10174000E305322B30830196A11DB11DC6CED70112
:10175000C6018F709927AA27BB27892B8A2B8B2B31
:1017600049F1C701B60120E130E040E050E00E94BD
:10177000D037C12CD12C76016C157D058E059F05C7
:10178000CCF0E091D605F091D70530812091E305AA
:10179000209523232083E091D605F091D705308151
:1017A0002091E305232B20832FEFC21AD20AE20AED
:1017B000F20AE2CFFF90EF90DF90CF90BF90AF9012
:1017C0009F908F9008950F931F93CF93DF93EA011B
:1017D00057FF05C0840F951FD195C195D109E091A0
:1017E000D805F091D90540813091E4053095342336
:1017F0003083AC014C0F5D1F9B010E94321C809115
:10180000D2058031A9F4E091D405F091D5059081FD
:101810008091E205892B80839E01DD0F440B550BDF
:101820006091C50570E08091C40590E03DDE27C061
:101830008830C1F49091C4058091C505981312C0F9
:10184000E091D405F091D50590818091E205892B36
:101850008083AE01DD0F660B770B8091C40590E0AD
:1018600052DB0DC000E010E06091C5058091C40519
:101870000E94051C0F5F1F4FC017D107ACF7E09106
:10188000D805F091D90590818091E405892B80835A
:10189000DF91CF911F910F9120CB6F927F928F920A
:1018A0009F92AF92BF92CF92DF92EF92FF920F93EF
:1018B0001F93CF93DF938C01681779072CF4982F2F
:1018C000812F8B01692F782FEB01C01BD10BC53005
:1018D000D1050CF441C0E12CF12C3E0184E0681AE2
:1018E0007108680182E0C80ED11C5E0182E0A81A6E
:1018F000B10848018FEF881A980AE114F10471F0D9
:1019000081E0E816F104A1F4A50169EC70E0C401DE
:101910005ADFA5016FEE70E0C40116C0A30168ECA8
:1019200070E0C60150DFA30160EF70E0C6010CC09B
:10193000AE01B70168537F4FC80145DF60EF70E02B
:101940006E197F09AE01C8013EDF8FEFE81AF80A71
:1019500085E1E816F10489F6DF91CF911F910F918F
:10196000FF90EF90DF90CF90BF90AF909F908F90BF
:101970007F906F9008952F923F924F925F926F9257
:101980007F928F929F92AF92BF92CF92DF92EF920F
:10199000FF920F931F93CF93DF93CDB7DEB72C97B2
:1019A0000FB6F894DEBF0FBECDBF8C017C876B876E
:1019B0001A01FC0101900020E9F731979F01281BD3
:1019C000390B3C832B838091C805811132C06F3065
:1019D0007742A1F46091C9057091CA056F5F7F4F8E
:1019E0002091F0054B815C81249FC001259F900DC3
:1019F0001124DB01A81BB90BBC87AB87EB85FC85E9
:101A0000EE30F74209F059C08091C9059091CA059E
:101A1000A091CB05B091CC050196A11DB11D2091DF
:101A2000F0054B815C81249F6001259FD00C11241F
:101A300032C08B859C858F309742A1F46091CD0593
:101A40007091CE056F5F7F4F2091F005EB81FC8197
:101A50002E9FC0012F9F900D11249B01281B390B35
:101A60003C872B874B855C854E30574231F5809102
:101A7000CD059091CE05A091CF05B091D0050196EE
:101A8000A11DB11D2091F005EB81FC812E9F60010D
:101A90002F9FD00C11240D2C000CEE08FF08BC0168
:101AA000CD016C197D098E099F0922E030E040E0EC
:101AB00050E00E94D0373C872B8718870F831E8207
:101AC0001D82ED81FE812B813C81E217F3070CF032
:101AD00095C18091F0052D813E81829F2001839FD9
:101AE000500C11244B855C85440E551EAF81B88582
:101AF0000D91B887AF83E091D805F091D905908119
:101B00008091E4058095892380832091F40580915C
:101B1000F0059091F10510E02111F9C02091C80560
:101B2000211177C09101290F311D21503109A201E6
:101B3000480F511D41505109B101C2010E94321C90
:101B40008091F0058695869586959091F105209176
:101B5000F205021B1109899FC0011124089F700121
:101B6000099FF00C189FF00C1124B4E0EB0EF11C4F
:101B7000A12CB12C8091F005869586958695909143
:101B8000F105899FC0011124A816B90688F5E091D6
:101B9000EE05F091EF05EE0DFF1DE491F7E0CF2E7D
:101BA000D12C0E2F10E0C8010C2C02C09595879502
:101BB0000A94E2F780FF08C08091C40590E0982F56
:101BC00088272091C50507C08091C60590E0982F11
:101BD00088272091C705822B7CD9E1E0CE1AD10855
:101BE00010F72FEFE21AF20A3FEFA31AB30AC2CF9F
:101BF000E091D805F091D90590818091E405892B79
:101C000080836BD94D815E814F5F5F4F5E834D83D3
:101C100058CF8695869586952091F205021B11096D
:101C2000899FC0011124089F6001099FD00C189F53
:101C3000D00C112454E0C50ED11CA12CB12C209144
:101C4000F005622F6695669566958091F105689F0F
:101C5000C0011124A816B90658F670E0C5010E940B
:101C60003439620D731DA201420F511D41505109BB
:101C70009B01C2010E94321CE090F005E694E694BC
:101C8000E694F12C460181E0881A9108E114F104F0
:101C900099F1E091EE05F091EF05C4018E0D9F1DC5
:101CA000E80FF91FE491612C712C0E2F10E0C80190
:101CB000062C02C0959587950A94E2F780FF08C02C
:101CC0008091C40590E0982F88272091C50507C012
:101CD0008091C60590E0982F88272091C705822B18
:101CE000F8D89FEF691A790AA8E06A167104F9F624
:101CF000B1E0EB1AF108CACF8091F0058695869580
:101D0000869590E0C80ED91EA80EB91E98CF86956C
:101D1000869586952091F205021B1109899FC001C5
:101D20001124089F3001099F700C189F700C11241A
:101D3000E4E06E0E711C81018091F10590E0980144
:101D4000221933092817390708F052CF812C912C1A
:101D5000C12CD12CD8011196BA87A9878091F005A2
:101D600086958695869590E0C816D9060CF041C0F8
:101D7000E091EE05F091EF05C601860D971DE80F85
:101D8000F91FE4917201E80CF91C37E0A32EB12C85
:101D90002E2F30E03A83298389819A810A2C02C050
:101DA000959587950A94E2F780FF12C029853A85B8
:101DB000A7014F5F5F4FB801C7010E94321C80919D
:101DC000C40590E0982F88272091C505822B81D8E3
:101DD00031E0A31AB1084FEFE41AF40A5FEFA51639
:101DE000B506D1F68FEFC81AD80A98E0890E911C73
:101DF000B5CF680E791E0F5F1F4F9ECF2C960FB682
:101E0000F894DEBF0FBECDBFDF91CF911F910F9130
:101E1000FF90EF90DF90CF90BF90AF909F908F900A
:101E20007F906F905F904F903F902F9008950F9309
:101E30001F93CF93DF93FC01EA0157FF05C0640FA6
:101E4000751FD195C195D109A091D805B091D9053B
:101E50002C919091E405909592239C939B012C0FDB
:101E60003D1FAF01CF010E94321C8091D20580310D
:101E7000A9F4E091D405F091D50590818091E20517
:101E8000892B80839E01DD0F440B550B6091C505A6
:101E900070E08091C40590E007DB27C08830C1F472
:101EA0009091C4058091C505981312C0E091D405A6
:101EB000F091D50590818091E205892B8083AE0158
:101EC000DD0F660B770B8091C40590E01CD80DC028
:101ED00000E010E06091C5058091C4050E94051CDA
:101EE0000F5F1F4FC017D107ACF7E091D805F091F5
:101EF000D90590818091E405892B8083DF91CF9172
:101F00001F910F910C946D07FC018091C205909177
:101F1000C305892B21F421E0309749F413C0809147
:101F2000BE059091BF05309731F421E0FC0180811E
:101F3000882341F006C0BF010E946E3B21E0892B3F
:101F400009F020E0822F08958F929F92AF92BF9266
:101F5000CF92DF92EF92FF920F931F93CF93DF9375
:101F6000CDB7DEB75B014A01CDB6DEB6FC01048118
:101F7000158198012F5F3F4F4DB75EB7421B530B42
:101F80000FB6F8945EBF0FBE4DBFEDB7FEB73196EA
:101F90007F01232B81F0309771F00115110551F06D
:101FA000FC0160817181A801C7010E947E3BF7019D
:101FB000E00FF11F1082A401B501C701DCDC0FB6F0
:101FC000F894DEBE0FBECDBEDF91CF911F910F9171
:101FD000FF90EF90DF90CF90BF90AF909F908F9049
:101FE0000895009769F0FC0101900020E9F731970E
:101FF000AF01481B590BBC018BE095E00C945D1FB1
:1020000080E090E008958F929F92AF92BF920F93DD
:102010001F93CF93DF93CDB7DEB7A1970FB6F89498
:10202000DEBF0FBECDBF19A2423008F44AE08E01D8
:102030000F5D1F4F842E912CA12CB12CA501940172
:102040000E94F637E62FB901CA0101501109EA30A2
:1020500014F4E05D01C0E95CD801EC93232B242B40
:10206000252B61F7C801BDDFA1960FB6F894DEBF3E
:102070000FBECDBFDF91CF911F910F91BF90AF9059
:102080009F908F900895CF92DF92EF92FF92CF931F
:10209000DF936B017C01E0910B05F0910C05019041
:1020A000F081E02D6DE28BE095E01995EC0166275B
:1020B0007727CB016C197D098E099F094AE0A3DFC0
:1020C0008C0F9D1FDF91CF91FF90EF90DF90CF900D
:1020D0000895CF93DF9385DFEC0181E892E081DF03
:1020E0008C0F9D1FDF91CF910895CF93DF93EC016B
:1020F0006115710559F0FB0101900020E9F7319756
:10210000AF01461B570B0E94C11F02C00E94AF1FA8
:10211000CE01DF91CF910895FC01538D448D252F81
:1021200030E0842F90E0821B930B541710F0CF9671
:10213000089501970895FC01918D828D981761F0A3
:10214000828DDF01A80FB11D5D968C91928D9F5FEE
:102150009F73928F90E008958FEF9FEF0895FC0199
:10216000918D828D981731F0828DE80FF11D858D4C
:1021700090E008958FEF9FEF0895FC01918D228DDF
:10218000892F90E0805C9F4F821B91098F73992764
:1021900008958BE095E0F1DF21E0892B09F420E040
:1021A000822F0895FC01848DDF01A80FB11DA35A71
:1021B000BF4F2C91848D90E001968F739927848F67
:1021C000A689B7892C93A089B1898C9180648C935E
:1021D000938D848D981306C00288F389E02D808149
:1021E0008F7D80830895EF92FF920F931F93CF937B
:1021F000DF93EC0181E0888F9B8D8C8D981305C057
:10220000E889F989808185FD23C0F62E0B8D10E0C9
:102210000F5F1F4F0F731127E02E8C8DE8120BC03C
:102220000FB607FCFACFE889F989808185FFF5CFE1
:10223000CE01B8DFF2CF8B8DFE01E80FF11DE35A1E
:10224000FF4FF0820B8FEA89FB898081806207C093
:10225000EE89FF896083E889F989808180648083C1
:1022600081E090E0DF91CF911F910F91FF90EF906F
:102270000895CF93DF93EC01888D8823C1F0EA891C
:10228000FB89808185FD05C0A889B9898C9186FD6F
:102290000EC00FB607FCF5CF808185FFF2CFA8896D
:1022A000B9898C9185FFEDCFCE017CDFE8CFDF913E
:1022B000CF91089580E090E0892B19F06ADF8111B9
:1022C00025C080E090E0892B41F080E090E0892BF0
:1022D00021F00E94000081111CC080E090E0892B59
:1022E00041F080E090E0892B21F00E9400008111F4
:1022F00013C080E090E0892BA1F080E090E0892B72
:1023000081F00E94000081110AC008950E9400001F
:10231000D8CF0E940000E1CF0E940000EACF0C94C9
:10232000000008953FB7F894809106059091070545
:10233000A0910805B091090526B5A89B05C02F3FBF
:1023400019F00196A11DB11D3FBFBA2FA92F982FDB
:102350008827820F911DA11DB11DBC01CD0142E056
:10236000660F771F881F991F4A95D1F708952FB7D9
:10237000F894609102057091030580910405909195
:1023800005052FBF08950E94613B1F920F920FB663
:102390000F9211240BB60F922F933F934F935F939D
:1023A0006F937F938F939F93AF93BF93EF93FF931D
:1023B0008BE095E0F7DEFF91EF91BF91AF919F9198
:1023C0008F917F916F915F914F913F912F910F90DE
:1023D0000BBE0F900FBE0F901F9018951F920F927B
:1023E0000FB60F9211240BB60F922F938F939F93DA
:1023F000EF93FF93E0911B05F0911C058081E09124
:102400002105F091220582FD12C090818091240562
:102410008F5F8F7320912505821751F0E09124057D
:10242000F0E0E55FFA4F958F8093240501C080812D
:10243000FF91EF919F918F912F910F900BBE0F9075
:102440000FBE0F901F901895362F90E0FC01E258B8
:10245000F24F4491FC01EC53F24F2491FC01EC5DEE
:10246000F14F9491992309F46BC0442309F455C0AA
:1024700050E0FA013197E231F10508F04EC08827AB
:10248000E057FF4F8F4F0C944839809180008F7731
:1024900007C0809180008F7D03C080918000877F7E
:1024A000809380003AC084B58F7702C084B58F7D59
:1024B00084BD33C08091B0008F7703C08091B0009D
:1024C0008F7D8093B00029C0809190008F7707C0E6
:1024D000809190008F7D03C080919000877F8093D2
:1024E00090001BC08091A0008F7707C08091A00052
:1024F0008F7D03C08091A000877F8093A0000DC0D6
:10250000809120018F7707C0809120018F7D03C0CB
:1025100080912001877F80932001E92FF0E0EE0F6A
:10252000FF1FE65FF14FA591B4918FB7F894EC913E
:10253000311103C020952E2301C02E2B2C938FBF69
:102540000895CF93DF9390E0FC01EC53F24F249178
:10255000FC01EC5DF14F8491882361F190E0880FDC
:10256000991FFC01EC59F24FC591D491FC01E65F33
:10257000F14FA591B491611109C09FB7F89488817A
:10258000209582238883EC912E230BC0623061F466
:102590009FB7F8943881822F809583238883EC91AC
:1025A0002E2B2C939FBF06C08FB7F894E8812E2B5B
:1025B00028838FBFDF91CF910895863308F086532B
:1025C00090917B00282F2870977F922B90937B000F
:1025D0008770806480937C0080917A00806480930F
:1025E0007A0080917A0086FDFCCF8091780020915E
:1025F000790090E0922B08958F929F92AF92BF92B4
:10260000CF92DF92EF92FF926B017C018BDE4B0148
:102610005C01C114D104E104F104E9F083DEDC01C2
:10262000CB0188199909AA09BB09883E9340A105E5
:10263000B10578F321E0C21AD108E108F10888EE6B
:10264000880E83E0981EA11CB11CC114D104E104C2
:10265000F10421F7DECFFF90EF90DF90CF90BF9095
:10266000AF909F908F9008951F920F920FB60F9288
:1026700011242F933F938F939F93AF93BF93809198
:10268000020590910305A0910405B09105053091D4
:10269000010523E0230F2D3720F40196A11DB11D64
:1026A00005C026E8230F0296A11DB11D2093010548
:1026B0008093020590930305A0930405B09305054C
:1026C0008091060590910705A0910805B091090534
:1026D0000196A11DB11D8093060590930705A09357
:1026E0000805B0930905BF91AF919F918F913F91DC
:1026F0002F910F900FBE0F901F9018950F931F935F
:10270000CF93DF93EB0133DE8B01C9D58F3F41F0CF
:102710002EDE601B710B6C177D07B8F380E001C0E3
:1027200081E0DF91CF911F910F910895EF92FF9279
:102730000F931F93CF93DF93EC017901411551055E
:102740006105710511F482E134C08B85833039F065
:1027500089E0440F551F661F771F8A95D1F79A01AC
:10276000AB0168E1CE019DD5882311F084E021C042
:102770008EEF8ED587018EEFF81AF80181918F01C7
:1027800087D50E151F05C9F78FEF82D58FEF80D53E
:1027900086D58A878F71853029F081E18D83CE01BE
:1027A0006DD508C068E572E0CE01A8DF811106C0D2
:1027B00085E18D83CE0162D580E010C020E030E05D
:1027C000A9016DE0CE016DD5811103C068D58823C4
:1027D00011F084E1EECFCE0151D581E0DF91CF91B0
:1027E0001F910F91FF90EF900895CF93DF93809109
:1027F000FC02882389F1C091FA02D091FB0240913A
:10280000000250910102609102027091030221E0E6
:1028100033E0CE018BDF811102C080E01EC0409109
:10282000FD025091FE026091FF027091000341157C
:1028300051056105710571F021E033E0CE0176DFCD
:10284000882359F31092FD021092FE021092FF02AB
:10285000109200031092FC0281E0DF91CF91089565
:10286000CF93DF93EC018E81882379F08F81988557
:102870009C012F5F3F4F38872F838230924010F4A6
:102880000ED5F4CFCE01FAD41E82DF91CF910895F8
:10289000BF92CF92DF92EF92FF920F931F93CF934D
:1028A000DF936B017C01B42E8091000290910102B4
:1028B000A0910202B09103028C159D05AE05BF05E3
:1028C00009F46DC092DF882309F470C0C091FA0248
:1028D000D091FB028E81882369F088819981AA8139
:1028E000BB81C816D906EA06FB0621F48F819885BC
:1028F000892B89F1C882D982EA82FB828B85A70164
:102900009601833039F089E0220F331F441F551F91
:102910008A95D1F761E1CE01C4D4882319F083E010
:102920008D8331C024DD8B01BAD48A878F3F41F477
:102930001EDD601B710B6D327140B0F38FE003C080
:102940008E3F29F08DE08D83CE0198D41CC018866F
:102950001F8281E08E8301E013E0A1D4F80181930E
:102960008F01F5E001301F07C1F78F8198859E5FC9
:1029700098878F832985222319F08115924038F09A
:10298000CE016EDF04C0CE0179D480E00FC0C092CA
:102990000002D0920102E0920202F09203028091C2
:1029A000FC02482F4B294093FC0281E0DF91CF913C
:1029B0001F910F91FF90EF90DF90CF90BF900895FF
:1029C0004F925F926F927F928F929F92AF92BF923F
:1029D000CF92DF92EF92FF920F931F93CF93DF93EB
:1029E000EC016A017B012801390142305105610582
:1029F000710510F480E072C089859A85AB85BC852D
:102A00000196A11DB11D84179507A607B70790F37E
:102A10008B889C88AD88BE888F89803129F4BB273C
:102A2000AF2D9E2D8D2D09C0DB01CA0147E0B69563
:102A3000A795979587954A95D1F7880E991EAA1E56
:102A4000BB1E8091000290910102A0910202B09100
:102A5000030288169906AA06BB0679F48F8980318D
:102A600099F4DD24EE24FF24C601880F991FFC0190
:102A7000EF5FFC4F5182408218C040E0C501B401B5
:102A800007DF8111EBCFB6CFE894C7F8DD24EE2441
:102A9000FF24C601880F991F880F991FFC01EF5F63
:102AA000FC4F40825182628273828091FC0281607D
:102AB0008093FC028A89823080F08D819E81AF8173
:102AC000B885880E991EAA1EBB1E8092FD029092A8
:102AD000FE02A092FF02B092000381E0DF91CF914D
:102AE0001F910F91FF90EF90DF90CF90BF90AF902C
:102AF0009F908F907F906F905F904F9008958F92EE
:102B00009F92AF92BF92CF92DF92EF92FF920F937C
:102B10001F93CF93DF93FC0181859285A385B485B4
:102B20000196A11DB11D84179507A607B70710F4DC
:102B300080E05BC083899489A589B689C789C03143
:102B400029F4852E962EA72EBB2409C04A015B01CD
:102B5000C7E0B694A79497948794CA95D1F7E901F2
:102B60006A017B018F01BC01CD01680D791D8A1DB1
:102B70009B1D8090000290900102A0900202B090F4
:102B80000302681579058A059B0599F4F801878980
:102B90008031A1F4B701A601552766277727440F96
:102BA000551FFA01EF5FFC4F80819181A0E0B0E0FA
:102BB00017C040E06DDE8111E9CFBACFB701A601A1
:102BC0004F77552766277727440F551F440F551F0A
:102BD000FA01EF5FFC4F80819181A281B381BF70C8
:102BE00088839983AA83BB8381E0DF91CF911F9172
:102BF0000F91FF90EF90DF90CF90BF90AF909F909C
:102C00008F9008953F924F925F926F927F928F9232
:102C10009F92AF92BF92CF92DF92EF92FF920F936B
:102C20001F93CF93DF93CDB7DEB72C970FB6F894F1
:102C3000DEBF0FBECDBF5C01DC015B968D909C902A
:102C40005C971696CD90DD90ED90FC901997C1148D
:102C5000D104E104F10439F0BFEFCB1ADB0AEB0A2F
:102C6000FB0A312C07C0F401C080D180E280F380E0
:102C700033243394F40181859285A385B4859C0126
:102C8000AD012F5F3F4F4F4F5F4F29873A874B87EB
:102C90005C87260137011D821E821F821886F4017F
:102CA00081859285A385B4852D813E814F8158858C
:102CB000281739074A075B0708F060C089859A859D
:102CC000AB85BC858C159D05AE05BF0550F482E033
:102CD000C82ED12CE12CF12C92E0492E512C612CE4
:102CE000712C9E012F5F3F4FB701A601C40107DF82
:102CF000882309F443C089819A81AB81BC81892BE7
:102D00008A2B8B2B41F0260137019FEF491A590A74
:102D1000690A790A05C0C414D504E604F70491F0E1
:102D20002D813E814F8158852F5F3F4F4F4F5F4F21
:102D30002D833E834F8358873FEFC31AD30AE30A9C
:102D4000F30AADCF0FEF1FEF2FEF3FE0B301A2016A
:102D5000C40136DE882391F0D50116964D915D9120
:102D60006D917C911997411551056105710541F0EF
:102D700093018201C40124DE811102C080E02AC0D7
:102D8000D50116964D925D926D927C9219973320E3
:102D900051F0D301C2010196A11DB11DF401808340
:102DA0009183A283B383F5018789908DA18DB28D24
:102DB000892B8A2B8B2B69F4D50157964D925D9206
:102DC0006D927C925A9714968C9114978068149601
:102DD0008C9381E02C960FB6F894DEBF0FBECDBF6A
:102DE000DF91CF911F910F91FF90EF90DF90CF90E7
:102DF000BF90AF909F908F907F906F905F904F901B
:102E00003F9008954F925F926F927F928F929F9220
:102E1000AF92BF92EF92FF920F931F93CF93DF93E6
:102E200000D01F921F92CDB7DEB78C016D83DC01FD
:102E300015968C911597813009F056C014968C9197
:102E400081FF52C059C0038CF48DE02D258530E000
:102E5000275F3F4F2A013B01B1E04B1A510861083F
:102E60007108022E04C076946794579447940A948C
:102E7000D2F7D501C4010197A109B10904C0B695E3
:102E8000A795979587952A95D2F784159505A60558
:102E9000B70508F06FC0F8014789508D618D728DBC
:102EA00046835783608771872C013D017801E6E0F6
:102EB000EE0EF11CD801411451046104710409F4AF
:102EC00063C016964D915D916D917C911997970114
:102ED0005B968D919C915C9712DEB1E04B1A510884
:102EE000610871088111E6CF81E090E0F8019383D9
:102EF000828380E090E049C182FF0EC0F8014285E4
:102F000053856485758583889488A588B688481517
:102F100059056A057B05F1F4D8011A964D915D912A
:102F20006D917C911D975B968D919C915C97FC01B6
:102F300074807A944A015B0129E0B694A79497942F
:102F400087942A95D1F778207A01F1E0FF22772043
:102F500011F162C081149104A104B10409F073CF8E
:102F60001682178210861186F8011286138614863F
:102F70001586D2CF452B462B472B09F48CCF8419CD
:102F80009509A609B70990CF1A968D929D92AD9298
:102F9000BC921D97C1CFE114F10409F03DC0F801C6
:102FA000468157816085718541155105610571051F
:102FB00049F48789908DA18DB28D0097A105B10547
:102FC00031F520C09E012F5F3F4F99DD882309F422
:102FD00090CF89819A81AB81BC81F801238D348D9A
:102FE000F9012789203129F048EF5FEF6FEF7FE08B
:102FF00004C048EF5FEF60E070E084179507A60714
:10300000B70728F0C801FEDD811106C06DCFF801B9
:1030100086839783A087B187D8015B96ED91FC9159
:103020005C9716968D909D90AD90BC901997B2E0EC
:103030008B1A9108A108B108058404C0880C991C5A
:10304000AA1CBB1C0A94D2F786859785A089B189F2
:10305000880E991EAA1EBB1E870C911CA11CB11CB8
:10306000E114F10401F5F801428553856485758505
:1030700083899489A589B689481759076A077B0708
:1030800090F0B3DB882309F42FCF80920002909256
:103090000102A0920202B09203028091FC028160C0
:1030A0008093FC0207C041E0C501B401F1DB882335
:1030B00009F41ACFF701EF5FFC4F8D818083F8018F
:1030C00082859385A485B5850196A11DB11D828752
:1030D0009387A487B587438954896589768948177A
:1030E00059076A077B0738F4838B948BA58BB68BC3
:1030F000848180688483D80114968C9183FD03C0F9
:1031000081E090E042C0F8019581992309F4ECCE6A
:1031100087FF37C0668577858089918941E0B8DB74
:10312000882309F4E1CED8015296EC91B0E2EB9FEE
:1031300090011124D901AF5FBC4F109709F4D4CE90
:10314000F8018581823050F44389548965897689F4
:103150005C964D935D936D937C935F97F80187899F
:10316000908DA18DB28DF901EF5FFC4F938F828F0F
:10317000B58BA48BD80114968C9114978F771496E5
:103180008C9333DB8111BCCFAFCE0F900F900F909B
:103190000F900F90DF91CF911F910F91FF90EF90C3
:1031A000BF90AF909F908F907F906F905F904F9067
:1031B0000895089580E090E00895CF92DF92EF9215
:1031C000FF920F931F93CF93DF93CDB7DEB72C976A
:1031D0000FB6F894DEBF0FBECDBF7C018B014AE075
:1031E00009D70A3011050CF039C04AE0B801CE0108
:1031F000079600D764EE72E0CE01019627D72B85A3
:103200003C85CF80D8840D811E81C114D10411F179
:103210002115310599F0020F131FB801CE01019657
:1032200077D68823B9F029813A818D819E81B601B4
:10323000820F931F0E94773B1E830D83BE016F5F39
:103240007F4FC701BDD6CE010196CFD6CE010796DE
:10325000CCD604C0CE01019682D6F0CFC7012C9601
:103260000FB6F894DEBF0FBECDBFDF91CF911F9197
:103270000F91FF90EF90DF90CF90089561E0FC01F7
:103280008481E2D880910A05811110920A0508957F
:103290008EBD00000DB407FEFDCF8EB508958FEFF3
:1032A000F7CFCF92DF92FF920F931F93CF93DF93CD
:1032B00000D01F92CDB7DEB76C01F62E29833A837A
:1032C0004B835C83CDDA80910A0529813A814B8159
:1032D0005C81811109C081E080930A059091A80565
:1032E0008091A9059CBD8DBD60E0F6018481298394
:1032F0003A834B835C83A8D86CE271E0C601FED9A7
:103300008F2D8064C5DF08E110E05C814B813A813C
:103310002981DA01C901002E04C0B695A7959795B9
:1033200087950A94D2F729833A834B835C83B0DF75
:103330000850110929813A814B815C81083FFFEFD8
:103340001F0739F7FF2029F088E0F81204C087E84A
:1033500003C085E901C08FEF9BDF10E0A0DFF6011D
:10336000828787FF04C01F3F11F01F5FF7CF0F90C8
:103370000F900F900F90DF91CF911F910F91FF90C1
:10338000DF90CF9008950F931F93CF93DF9383E83F
:1033900092E00E94840F81113FC0DEECD093C405FF
:1033A000C9E7C093C50568E270E080E090E00E9444
:1033B0004D0C64E670E08CE390E00E944D0C64EBF1
:1033C00070E088E790E00E944D0CD093C605C09352
:1033D000C7051092F40588EF8093C4051092C505C7
:1033E00044ED50E06CE070E088EB92E00E94BB0C92
:1033F00044ED50E068E470E081EC92E00E94BB0C88
:1034000044ED50E06DE770E088EC92E0DF91CF9101
:103410001F910F910C94BB0C1092C6051092C7051A
:103420001092F4051092C4051092C5058091D20542
:10343000803149F5E091D805F091D90590818091CE
:10344000E40580958923808320EF30E044EB50E051
:1034500068EC70E080E090E005D2E091D405F09156
:10346000D50590818091E205892B80836091C50507
:1034700070E08091C4052DEF3CE140E050E090E029
:103480000E94540A27C0883079F5E091D805F09160
:10349000D90590818091E40580958923808320EF70
:1034A00030E044EB50E068EC70E080E090E0DAD18E
:1034B000E091D405F091D50590818091E205892BAA
:1034C00080838091C4054DEF5CE160E070E090E0A6
:1034D0000E948307E091D805F091D90590818091F1
:1034E000E405892B808335C08091C805811119C0FE
:1034F000C8ECD0E008EB11E044EB50E0BE0180E006
:1035000090E00E94E30BB8016C1B7D0B44EB50E094
:1035100080E090E00E94E30B2196CD3DD10561F75C
:1035200018C0C0E0D0E004EB10E048E250E068ECE6
:1035300070E0CE010E94170F48E250E068EC70E0A6
:10354000C8018C1B9D0B0E94170F2196CB35D1050E
:1035500061F7DF91CF911F910F910895CF93DF9382
:1035600000D000D0CDB7DEB78AEB92E00E94840F86
:10357000811118C182EA92E00E94840F8823A9F089
:103580001092C6051092C7051092F40588EF80933B
:10359000C4051092C5056091F0027091F102CE0150
:1035A00001960BDE48E250E035C084E992E00E94CB
:1035B000840F8823A9F01092C6051092C7051092B7
:1035C000F40588EF8093C4051092C5056091F2025E
:1035D0007091F302CE010196F0DD48E250E037C071
:1035E0008BE892E00E94840F8823B9F01092C60500
:1035F0001092C7051092F40588EF8093C4051092CD
:10360000C5056091EA027091EB02CE010196D5DD0D
:103610004AE050E060E070E03AC083E992E00E9446
:10362000840F8823B9F01092C6051092C705109236
:10363000F40588EF8093C4051092C5056091EC02F3
:103640007091ED02CE010196B8DD4AE050E062E3F0
:1036500070E01DC08BE992E00E94840F882321F165
:103660001092C6051092C7051092F40588EF80935A
:10367000C4051092C5056091EE027091EF024AE018
:10368000CE010196B7D44AE050E062E670E0CE0188
:1036900001960E94A40FCE010196A7D48FEF8093CC
:1036A000C4058093C5057EC08FEF8093C4058093C9
:1036B000C5051092C6051092C7051092F4056091D9
:1036C000EA027091EB02CE01019677DD4AE050E00C
:1036D00060E070E0CE0101960E94A40FCE01019639
:1036E00084D44AE050E061E270E086EE92E00E940D
:1036F000BB0C6091EC027091ED02CE0101965DDD94
:103700004AE050E062E370E0CE0101960E94A40F0F
:10371000CE0101966AD44AE050E063E570E086EE9F
:1037200092E00E94BB0C6091EE027091EF024AE0C1
:10373000CE0101965FD44AE050E062E670E0CE012F
:1037400001960E94A40FCE0101964FD46091F00221
:103750007091F102CE01019630DD48E250E060E068
:1037600070E0CE0101960E94A40FCE0101963DD4D7
:1037700048E250E061E270E088EE92E00E94BB0C0B
:103780006091F2027091F302CE01019616DD48E2DB
:1037900050E062E370E0CE0101960E94A40FCE01DA
:1037A000019623D426960FB6F894DEBF0FBECDBF88
:1037B000DF91CF910895682F8091D205813069F013
:1037C000E091D405F091D50520819091E205909586
:1037D000922390834091D20501C041E080E050C126
:1037E000682F8091D205813069F0E091D405F09185
:1037F000D50580819091E205982B90834091D20568
:1038000080E002C041E081E03BC1CF939091D205BE
:10381000913061F0E091D405F091D505208190912F
:10382000E205922B90834091D20509C0C62F682FE4
:1038300041E081E025D14091D2056C2F81E0CF910C
:103840001FC1CF93DF931F921F92CDB7DEB769835D
:103850007A83B1DF69817A81872F0F900F90DF9192
:10386000CF91D3CFCF92DF92EF92FF920F931F931E
:10387000CF93DF938C01F62EE72EEA01D22EC32ED2
:103880008091C805813089F48091CD059091CE0555
:103890009C01201B310B841B950BCD2DDC2DD22ED2
:1038A000C32E062F172FF82EE92EE091D1058E2F6B
:1038B00090E0FC013297EE31F10508F0D8C088277E
:1038C000EE55FF4F8F4F0C944839612F70E082E026
:1038D000B8DFB80183E0B5DF6D2F70E084E0B1DFC1
:1038E000BE0185E0AEDF6E2D70E086E0AADF6F2DB1
:1038F0007E2D87E0A6DF6C2D70E044C07C2F66270C
:10390000600F711F84E49DDF6F2D7E2D85E499DFAC
:103910006D2D7C2D86E495DFB8018EE492DF6F2D4E
:103920007E2D8FE48EDF82E299C0B80180E289DFCC
:103930006F2D7E2D81E285DFB80180E582DF6F2D5E
:103940007E2D82E57EDFBE0181E57BDF6D2D7C2D46
:1039500083E5E8CF60E070E082E073DFB80183E0E8
:1039600070DF60E070E084E06CDFBE0185E069DF5D
:1039700060E070E086E065DF6F2D7E2D87E061DF1F
:1039800060E070E088E05DDF6D2D7C2D89E0CACFBE
:103990008AE211DF802F24DF8C2F22DF8BE20BDF06
:1039A0008F2D58C08AE207DF8E2D1ADF8F2D18DF8A
:1039B0008C2D16DF8D2D14DF8BE2FDDE812F10DFC5
:1039C000802F0EDF8D2F0CDF8C2F46C07C2F6627BB
:1039D000602B712B86E435DF6D2D7C2D87E431DF84
:1039E0006F2D7E2D88E40DC0BE0186E32ADFB8016D
:1039F00087E327DF6D2D7C2D88E323DF6F2D7E2D60
:103A000089E31FDFB80180E21CDF6F2D7E2D81E28C
:103A100089CF6F2D7E2D82E014DFB80183E011DFA6
:103A20006D2D7C2D86E00DDFBE0187E00ADF8FE083
:103A300015C08AE2C0DE812FD3DE802FD1DE8D2F2C
:103A4000CFDE8C2FCDDE8BE2B6DE8E2DC9DE8F2D44
:103A5000C7DE8C2DC5DE8D2DC3DE8CE2DF91CF91CC
:103A60001F910F91FF90EF90DF90CF90A4CEDF9148
:103A7000CF911F910F91FF90EF90DF90CF9008951D
:103A8000483009F448C118F4413041F008954031FC
:103A900009F457C1413109F468C108959091D305E3
:103AA000943019F5E091DC05F091DD059091E60583
:103AB000813019F48081982B03C0808190959823E0
:103AC0009083E091DE05F091DF0590818091E7051C
:103AD000809589238083E091DE05F091DF05908158
:103AE0008091E705892B80830FC0E091D405F09188
:103AF000D5059091E205813019F48081982B03C09F
:103B00008081909598239083E091DC05F091DD050C
:103B10008091E605908167FF02C0892B02C08095E5
:103B200089238083E091DE05F091DF05908180910B
:103B3000E705809589238083E091DE05F091DF051C
:103B400090818091E705892B8083E091DC05F091DD
:103B5000DD058091E605908166FF02C0892B02C0D9
:103B6000809589238083E091DE05F091DF059081C7
:103B70008091E705809589238083E091DE05F091AF
:103B8000DF0590818091E705892B8083E091DC053A
:103B9000F091DD058091E605908165FF02C0892BDB
:103BA00002C0809589238083E091DE05F091DF05D6
:103BB00090818091E705809589238083E091DE05DF
:103BC000F091DF0590818091E705892B8083E0915A
:103BD000DC05F091DD058091E605908164FF02C06F
:103BE000892B02C0809589238083E091DE05F091C6
:103BF000DF0590818091E705809589238083E0919E
:103C0000DE05F091DF0590818091E705892B8083A7
:103C1000E091DC05F091DD058091E605908163FF80
:103C200002C0892B02C0809589238083E091DE0544
:103C3000F091DF0590818091E7058095892380834D
:103C4000E091DE05F091DF0590818091E705892BF9
:103C50008083E091DC05F091DD058091E60590819F
:103C600062FF02C0892B02C0809589238083E09186
:103C7000DE05F091DF0590818091E705809589232D
:103C80008083E091DE05F091DF0590818091E7056A
:103C9000892B8083E091DC05F091DD058091E605BC
:103CA000908161FF02C0892B02C0809589238083A7
:103CB000E091DE05F091DF0590818091E705809528
:103CC00089238083E091DE05F091DF05908180916A
:103CD000E705892B8083E091DC05F091DD0580917B
:103CE000E605908160FF02C0892B02C08095892380
:103CF0008083E091DE05F091DF0590818091E705FA
:103D0000809589238083E091DE05F091DF05908125
:103D10008091E705CFC082B9E091D605F091D70533
:103D200090818091E305809589238083E091D60579
:103D3000F091D70590818091E305892B808362B94A
:103D400002C082B968B9E091D605F091D70590819B
:103D50008091E305809589238083E091D605F091D9
:103D6000D70590818091E305A5C0A59824B3982F2D
:103D70009071990F922B94BB90910201977E909332
:103D8000020190910201282F082E000C330B207C99
:103D9000332743E0359527954A95E1F7292B209362
:103DA00002019EB1947C9EB92EB1382F3C70330F26
:103DB000330F982F9370390F8072082E000C990BD7
:103DC0009595879595958795830F822B8EB9E09170
:103DD000E005F091E10590818091E80580958923C7
:103DE0008083E091E005F091E10590818091E80504
:103DF000892B8083E091E005F091E105908180912D
:103E0000E805809589238083E091D805F091D90554
:103E100090818091E405809589238083A59894B34F
:103E2000862F8071880F892B84BB80910201877E49
:103E30008093020120910201862F062E000C990B1F
:103E4000807C992773E0959587957A95E1F7822B89
:103E5000809302018EB1847C8EB98EB1962F9C70B6
:103E6000990F990F262F2370920F6072062E000C67
:103E7000770B7595679575956795690F682B6EB982
:103E8000E091D605F091D70590818091E30580956A
:103E900089238083E091D605F091D70590818091A8
:103EA000E305892B8083E091D805F091D9059081B5
:103EB0008091E405892B80830895CF92DF92EF9261
:103EC000FF920F931F93CF93DF936C017A018B01C5
:103ED000C0E0D0E0CE15DF0589F0D8016D918D01ED
:103EE000D601ED91FC910190F081E02DC60119956C
:103EF000892B11F47E0102C02196ECCFC701DF911E
:103F0000CF911F910F91FF90EF90DF90CF90089588
:103F10000F931F93CF93DF93EC01888199810097D2
:103F200029F02A813B812617370788F48B016F5FC0
:103F30007F4F0E947D3A009761F0998388831B83AD
:103F40000A832C813D81232B11F4FC01108281E036
:103F500001C080E0DF91CF911F910F910895CF9321
:103F6000DF93EC0188819981009711F00E94E53977
:103F7000198218821D821C821B821A82DF91CF91C6
:103F80000895EF92FF920F931F93CF93DF93EC016D
:103F90007B018A01BA01BCDF811103C0CE01DFDFE2
:103FA00007C01D830C83B701888199810E94773BEC
:103FB000CE01DF91CF911F910F91FF90EF90089567
:103FC000CF93DF93EC01FB018617970751F06081D7
:103FD00071816115710521F044815581D2DF01C0E5
:103FE000BEDFCE01DF91CF910895FC0180819181E8
:103FF0000C94E5390F931F93CF93DF93CDB7DEB7C2
:1040000062970FB6F894DEBF0FBECDBF8C01CB0117
:10401000F80111821082138212821582148250E0FC
:10402000BE016F5F7F4F0E94A236BE016F5F7F4F60
:10403000C8010E94751062960FB6F894DEBF0FBEDD
:10404000CDBFDF91CF911F910F910895FC01118297
:10405000108213821282158214826115710549F053
:10406000FB0101900020E9F73197AF01461B570B88
:1040700088CF0895CF93DF93CDB7DEB728970FB6DB
:10408000F894DEBF0FBECDBF789484B5826084BD46
:1040900084B5816084BD85B5826085BD85B581604C
:1040A00085BD80916E00816080936E0010928100CA
:1040B0008091810082608093810080918100816085
:1040C0008093810080918000816080938000809146
:1040D000B10084608093B1008091B00081608093D2
:1040E000B000809191008260809391008091910056
:1040F0008160809391008091900081608093900016
:104100008091A10082608093A1008091A1008160D4
:104110008093A1008091A00081608093A000809195
:10412000210182608093210180912101816080932F
:1041300021018091200181608093200180917A008B
:10414000846080937A0080917A00826080937A0004
:1041500080917A00816080937A0080917A008068F3
:1041600080937A001092C100E0911B05F0911C052C
:1041700082E08083E0911705F09118051082E091AC
:104180001905F0911A058FEC808310922305E091B8
:104190001F05F091200586E08083E0911D05F091D8
:1041A0001E05808180618083E0911D05F0911E05D0
:1041B000808188608083E0911D05F0911E058081DB
:1041C00080688083E0911D05F0911E0580818F7DC0
:1041D000808380E190E09093F1028093F00285E289
:1041E00090E09093F3028093F2028BE090E0909342
:1041F000EB028093EA0286E090E09093ED028093D8
:10420000EC0281EE97E09093EF028093EE0268E576
:1042100072E085EF95E00E9475101092FB051092F8
:1042200001061092000685E090E0909305068093C9
:10423000040682E090E09093FD058093FC058DE0FC
:1042400090E09093FF058093FE0590930306809382
:10425000020662E672E08AEE96E00E947510109205
:10426000F0066CE672E08FED97E00E9475101092F8
:10427000E50781E08093C80561E08091E9050E942F
:10428000A11261E08091EA050E94A11261E0809193
:10429000EB050E94A1128091EC058F3F19F061E0BF
:1042A0000E94A1128091D205813131F0813049F410
:1042B0008091D305853029F461E08091ED050E945D
:1042C000A1128091D205813079F0813131F09FEFD8
:1042D00091B9803149F497B907C088E18093010111
:1042E00080E283BB8BE38DB9E091DA05F091DB05C9
:1042F00090818091E505892B808365E070E080E006
:1043000090E00E94FC12E091DA05F091DB059081CB
:104310008091E5058095892380836FE070E080E0DF
:1043200090E00E94FC12E091DA05F091DB059081AB
:104330008091E505892B80836FE070E080E090E05C
:104340000E94FC12E091D805F091D90590818091EE
:10435000E405809589238083E091D1058E2F90E03C
:10436000FC013297EE31F10510F00C94F4308827FF
:10437000EE58FF4F8F4F0C94483961E070E080E0B9
:1043800060DA64EA78EA83E05CDA60E070E08CE0AE
:1043900058DA6CE078E08DE054DA60E07BE28EE0A1
:1043A00050DA67EB70E08EE14CDA6FE37BE281E09C
:1043B00048DA60E076E082E044DA60E070E080E1D4
:1043C00040DA60E770E681E13CDA60E070E085E0C9
:1043D00038DA60E070E086E034DA6CE17FEE86E1A6
:1043E00030DA63E070E087E12CDA63E372E087E0C3
:1043F00028DA60E070E08BE024DA60E070E08FE0C3
:1044000020DA60E070E081E41CDA60E070E082E4D1
:1044100018DA60E070E088E414DA6FE371E089E4B0
:1044200010DA60E070E08AE40CDA60E070E08BE4BF
:1044300008DA60E07FEE84E404DA60E070E085E4AE
:1044400000DA6FE371E086E4FCD967E077E080E3AF
:10445000F8D964E072E081E3F4D964E072E082E3C9
:10446000F0D962E075E083E3ECD967E075E084E3BE
:10447000E8D964E072E085E3E4D964E072E086E3C1
:10448000E0D962E075E087E3DCD962E073E08AE3BB
:10449000D8D962E073E08BE3D4D960E070E083E2C6
:1044A000D0D960E070E084E2CCD960E070E885E2C9
:1044B000C8D960E070E08FE4C4D960E070E08EE4B9
:1044C0000C94082C60EF78E785EEBBD960E071E0D2
:1044D00081E0B7D960E072E082E0B3D960E370E1D7
:1044E00083E0AFD960E070E084E0ABD967E072E0D0
:1044F00088E0A7D960E070E089E0A3D960E070E0CF
:104500008AE09FD960E070E08CE09BD960E070E0C9
:104510008DE097D960E070E08FE093D960E070E0C3
:1045200080E18FD967E070E081E18BD960E070E0D5
:1045300082E187D960E070E083E183D961E070E0D7
:1045400087E07FD968EC70E080E090E00E94FC1288
:1045500060E976E180E175D967E272E081E171D9C5
:1045600062E370E080E090E00E94FC126DE070E099
:1045700082E167D962E370E080E090E00E94FC1283
:1045800060E072E183E15DD96AE070E089E259D9C7
:104590006DE070E068C060EF78E785EE52D960E0CA
:1045A00071E081E04ED960E077E082E04AD960E3D3
:1045B00070E183E046D960E070E084E042D967E0D2
:1045C00072E088E03ED960E070E089E03AD960E0CE
:1045D00070E08AE036D960E070E08CE032D960E0CB
:1045E00070E08DE02ED960E070E08FE02AD960E0C5
:1045F00070E080E126D967E070E081E122D960E0D7
:1046000070E082E11ED960E070E083E11AD961E0D8
:1046100070E087E016D968EC70E080E090E00E94DE
:10462000FC1260E975E180E10CD967E272E081E19A
:1046300008D962E370E080E090E00E94FC126CE92F
:1046400070E082E1FED862E370E080E090E00E94DA
:10465000FC1260E079E183E1F4D863E270E089E282
:10466000F0D86EE070E08BE2ECD862E370E080E0BE
:1046700090E00E94FC1260E070E080E2E2D860E02E
:1046800070E081E2DED860E070E080E3DAD864E0D8
:1046900074E081E3D6D863E070E082E3D2D865E0CD
:1046A00074E085E3CED868E078E086E3CAD867E0B6
:1046B00074E087E3C6D863E073E088E3C2D867E0BC
:1046C00077E089E3BED864E075E08CE3BAD868E0AF
:1046D00078E08DE3B6D860E070E080E5B2D86FEEA8
:1046E00070E081E5AED860E070E082E5AAD86FE3C3
:1046F00071E083E5A6D860E077EA80E6A2D861E0C1
:1047000070E081E69ED860E070E08AE69AD860E0CA
:1047100070E080E896D860E070E081E892D860E0D0
:1047200070E082E88ED860E070E083E88AD860E0CC
:1047300070E084E886D860E070E085E882D860E1C7
:1047400070E080E97ED860E070E082E97AD863E3C7
:1047500071E087E076D80C94F43064E870E086E28B
:1047600070D868E270E080E090E00E94FC1268EB94
:1047700070E086E266D868E270E080E090E00E9437
:10478000FC126CEB70E086E25CD864E170E080E0E3
:1047900090E00E94FC1260E070E080E652D866E093
:1047A00070E081E64ED860E070E082E64AD868ECBE
:1047B00070E083E646D864E170E080E090E00E941B
:1047C000FC1260E770E083E73CD860E070E080E4D2
:1047D00038D860E470E081E434D865E470E082E4C5
:1047E00030D861E070E083E42CD860E670E084E4C7
:1047F00028D865E070E085E424D86CE070E086E4B9
:1048000020D861ED70E087E41CD865E070E088E4B2
:1048100018D865E770E080E514D861E070E081E5C4
:1048200010D867E670E082E50CD864E170E083E5BB
:1048300008D862EF70E084E504D867E070E085E5B1
:1048400000D863E070E086E50E94211C69E470E016
:1048500087E50E94211C64E170E080E090E00E9406
:10486000FC1263E070E08FE10E94211C60E070E0C8
:1048700080E20E94211C64E270E084E20E94211C1C
:1048800064E370E085E20E94211C6FE270E083E245
:104890000E94211C64E170E080E090E00E94FC1224
:1048A00064E470E088E10E94211C61E070E081E234
:1048B0000E94211C60E070E081E00E94211C63E006
:1048C00070E08CE10E94211C66E070E089E10E94AA
:1048D000211C64E170E080E090E00E94FC1264E83A
:1048E00070E086E20E94211C68E270E080E090E0C7
:1048F0000E94FC1268EB70E086E20E94211C68E2D4
:1049000070E080E090E00E94FC126CEB70E086E2C8
:104910000E94211C64E170E080E090E00E94FC12A3
:1049200060E070E082E00E94211C60E070E083E0C3
:104930000E94211C60E070E084E00E94211C6FEA6C
:1049400070E085E00E94211C60E070E086E00E943B
:10495000211C60E070E087E00E94211C60E070E0B4
:1049600088E00E94211C6BED70E089E00E94211C10
:1049700064E170E080E090E00E94FC1268E070E08A
:1049800086E10E94211C65E070E087E10E94211C05
:1049900081E20E94DB1B82E20E94DB1B0C94F4305C
:1049A00081E10E94DB1B6CE070E080E090E00E94FF
:1049B000FC1281EB0E94DB1B81E00E94F01B8CE269
:1049C0000E94F01B8DE20E94F01B82EB0E94DB1B19
:1049D00081E00E94F01B8CE20E94F01B8DE20E949D
:1049E000F01B83EB0E94DB1B81E00E94F01B8CE23A
:1049F0000E94F01B8DE20E94F01B81E00E94F01BE0
:104A00008CE20E94F01B8DE20E94F01B84EB0E945E
:104A1000DB1B87E00E94F01B80EC0E94DB1B82EA1C
:104A20000E94F01B82E00E94F01B84E80E94F01BB1
:104A300081EC0E94DB1B85EC0E94F01B82EC0E9443
:104A4000DB1B8AE00E94F01B80E00E94F01B83ECDD
:104A50000E94DB1B8AE80E94F01B8AE20E94F01B86
:104A600084EC0E94DB1B8AE80E94F01B8EEE0E9401
:104A7000F01B85EC0E94DB1B8EE00E94F01B86E39E
:104A80000E94DB1B88EC73C081E10E94DB1B6CE0A1
:104A900070E080E090E00E94FC1281EB0E94DB1B42
:104AA00081E00E94F01B8CE20E94F01B8DE20E94CC
:104AB000F01B82EB0E94DB1B81E00E94F01B8CE26A
:104AC0000E94F01B8DE20E94F01B83EB0E94DB1B17
:104AD00081E00E94F01B8CE20E94F01B8DE20E949C
:104AE000F01B81E00E94F01B8CE20E94F01B8DE223
:104AF0000E94F01B84EB0E94DB1B87E00E94F01BEE
:104B000080EC0E94DB1B82EA0E94F01B82E00E9484
:104B1000F01B84E80E94F01B81EC0E94DB1B85ECFB
:104B20000E94F01B82EC0E94DB1B8AE00E94F01BBB
:104B300080E00E94F01B83EC0E94DB1B8AE80E944D
:104B4000F01B8AE20E94F01B84EC0E94DB1B8AE8C7
:104B50000E94F01B8EEE0E94F01B85EC0E94DB1B76
:104B60008EE00E94F01B86E30E94DB1B80EC0E941B
:104B7000F01B80EE0E94DB1B8FE00E94F01B8AE19D
:104B80000E94F01B8FE00E94F01B88E10E94F01B46
:104B90008FE20E94F01B88E20E94F01B80E20E94DC
:104BA000F01B82E20E94F01B8FE10E94F01B8BE160
:104BB0000E94F01B83E20E94F01B87E30E94F01B1F
:104BC00080E00E94F01B87E00E94F01B82E00E94C0
:104BD000F01B80E10E94F01B81EE0E94DB1B8FE046
:104BE0000E94F01B8BE10E94F01B8FE00E94F01BE3
:104BF00087E10E94F01B83E30E94F01B8CE20E947D
:104C0000F01B89E20E94F01B8EE20E94F01B80E301
:104C10000E94F01B80E30E94F01B89E30E94F01BBE
:104C20008FE30E94F01B80E00E94F01B87E00E944F
:104C3000F01B83E00E94F01B80E10E94F01B8AE2DF
:104C40000E94DB1B80E00E94F01B80E00E94F01BB2
:104C500080E00E94F01B8FE70E94F01B8BE20E9415
:104C6000DB1B80E00E94F01B80E00E94F01B80E0D4
:104C70000E94F01B8FE90E94F01B80EF0E94DB1B5B
:104C800081E00E94F01B86EF0E94DB1B80E09CC647
:104C900081E00E94DB1B85E20E94DB1B80E40E9416
:104CA000F01B81E10E94DB1B6AE070E080E090E095
:104CB0000E94FC1280E20E94DB1B88E30E94DB1B47
:104CC00089E20E94DB1B83E10E94DB1B86E30E94DA
:104CD000DB1B80E60E94F01B8AE30E94DB1B85E061
:104CE0000E94F01B8AE20E94DB1B80E00E94F01B06
:104CF0008FE70E94F01B84EB0E94DB1B83E00E9485
:104D0000F01B88E00E94F01B8BE00E94F01B8EE0FD
:104D10000E94F01B8AEB0E94DB1B87E00E94F01BC5
:104D20008DE00E94F01B8BE20E94DB1B80E00E9462
:104D3000F01B8FE7FEC183E80E94DB1B82E00E942C
:104D4000F01B85E80E94DB1B83E00E94F01B8BE8D0
:104D50000E94DB1B81E00E94F01B8CE80E94DB1BA1
:104D600083E90E94F01B81E90E94DB1B81E00E9425
:104D7000F01B83E80E94DB1B80E00E94F01B8EE3A7
:104D80000E94DB1B80EB0E94F01B8FE30E94DB1B69
:104D900083E00E94F01B80E40E94DB1B80E10E9404
:104DA000F01B81E40E94DB1B86E50E94F01B82E47D
:104DB0000E94DB1B83E10E94F01B83E40E94DB1B4B
:104DC00086E40E94F01B84E40E94DB1B83E20E94C5
:104DD000F01B85E40E94DB1B86E70E94F01B86E443
:104DE0000E94DB1B80E00E94F01B87E40E94DB1B1B
:104DF0008EE50E94F01B88E40E94DB1B8FE40E947A
:104E0000F01B89E40E94DB1B80E40E94F01B87E119
:104E10000E94DB1B81E90E94F01B8BE20E94DB1BDE
:104E200089EF0E94F01B6AE070E080E090E00E9451
:104E3000FC128BE10E94DB1B84E10E94F01B8AE1E3
:104E40000E94DB1B81E10E94F01B8CE10E94DB1BB6
:104E500086E00E94F01B8FE10E94DB1B82E40E942F
:104E6000F01B64E170E080E090E00E94FC1289E1B8
:104E70000E94DB1B8AE00E94F01B89E10E94DB1B81
:104E80008AE10E94F01B68E270E080E090E00E94FE
:104E9000FC1289E10E94DB1B82E10E94F01B68E2A8
:104EA00070E080E090E00E94FC128EE10E94DB1B2B
:104EB00087E20E94F01B64E670E080E090E00E94D0
:104EC000FC1284E20E94DB1B80E60E94F01B8DE353
:104ED0000E94DB1B80E40E94F01B84E30E94DB1B2A
:104EE00088E30E94F01B85E30E94DB1B88E30E949D
:104EF000F01B84E20E94DB1B88E30E94F01B68E247
:104F000070E080E090E00E94FC1284E20E94DB1BD3
:104F10008CE30E94F01B86E10E94DB1B8CE10E9467
:104F2000F01B81E00E94DB1B86E00E94F01B85E500
:104F30000E94DB1B80E00E94F01B82E00E94DB1BD2
:104F400080E00E94F01B83E00E94DB1B80E00E9457
:104F5000F01B84E00E94DB1B80E00E94F01B85E0D8
:104F60000E94DB1B8FEE0E94F01B86E00E94DB1B81
:104F700080E00E94F01B87E00E94DB1B80E00E9423
:104F8000F01B88E00E94DB1B81E00E94F01B89E09F
:104F90000E94DB1B8FE80E94F01BFDCC82EE0E947A
:104FA000DB1B83E20E94F01B82E00E94F01B84E581
:104FB0000E94F01B80EE0E94DB1B81E00E94F01B30
:104FC0006AE070E080E090E00E94FC1280EE0E94B7
:104FD000DB1B83E00E94F01B6AE070E080E090E061
:104FE0000E94FC1281E00E94DB1B64E670E080E01E
:104FF00090E00E94FC1286EE0E94DB1B81E00E9482
:10500000F01B8FE10E94F01B8FEF0E94F01B80EBE2
:105010000E94DB1B80E20E94F01B80E00E94F01BDC
:1050200081E00E94F01B8FED0E94F01B81E00E9446
:10503000F01B8FE00E94F01B80E00E94F01B84EBCD
:105040000E94DB1B82E00E94F01B83E10E94F01BA8
:1050500080E00E94F01B88E00E94F01B8BE20E941F
:10506000F01B80E00E94F01B82E00E94F01B80E0B9
:105070000E94F01B86EB0E94DB1B81E00E94F01B6C
:1050800080E20E94F01B80E00E94F01B84E00E94FE
:10509000F01B8CE00E94F01B80E00E94F01B82E07D
:1050A0000E94F01B8AEB0E94DB1B8FE00E94F01B2A
:1050B00088EB0E94DB1B87E00E94F01B81E00E94CE
:1050C000F01B86E30E94DB1B82E20E94F01B80EF54
:1050D0000E94DB1B83E00E94F01B61E070E080E037
:1050E00090E00E94FC122FE031E04FED51E060E0D3
:1050F00070E080E090E00E94321C89E20E94DB1B9D
:105100008EEB0E94DB1B86E00E94F01B80EF0E946A
:10511000F01B81E00E94F01B80EF0E94F01B80E0FA
:105120000E94F01B80E00E94F01B80ED0E94DB1BC0
:105130008DE00E94F01B89C782EE0E94DB1B8EE18E
:105140000E94F01B82E00E94F01B84E50E94F01B8D
:1051500080EE0E94DB1B81E00E94F01B6AE070E0A1
:1051600080E090E00E94FC1280EE0E94DB1B83E056
:105170000E94F01B6AE070E080E090E00E94FC1268
:1051800081E00E94DB1B64E670E080E090E00E941A
:10519000FC1286EE0E94DB1B83E00E94F01B8FEF67
:1051A0000E94F01B8FEF0E94F01B80EB0E94DB1B24
:1051B00084E20E94F01B80E00E94F01B83E00E94CA
:1051C000F01B8FE10E94F01B81E00E94F01B8FED2D
:1051D0000E94F01B80E00E94F01B84EB0E94DB1B0E
:1051E00083E00E94F01B80EA0E94F01B80E00E9496
:1051F000F01B8EE20E94F01B80E30E94F01B80E017
:105200000E94F01B8FE00E94F01B80E00E94F01BC8
:1052100086EB0E94DB1B82E00E94F01B8DE00E9467
:10522000F01B80E00E94F01B80E10E94F01B80E1F7
:105230000E94F01B80E00E94F01B88E00E94F01B9F
:105240008AEB0E94DB1B8FE00E94F01B88EB0E9420
:10525000DB1B87E00E94F01B81E00E94F01B86E3CD
:105260000E94DB1B82E20E94F01B80EF0E94DB1B8E
:1052700083E00E94F01B61E070E080E090E0A3C05A
:1052800082EE0E94DB1B83E20E94F01B82E00E9400
:10529000F01B84E00E94F01B80EE0E94DB1B81E08B
:1052A0000E94F01B6AE070E080E090E00E94FC1237
:1052B00080EE0E94DB1B83E00E94F01B6AE070E03E
:1052C00080E090E00E94FC1281E00E94DB1B64E61B
:1052D00070E080E090E00E94FC1286EE0E94DB1BF2
:1052E00084E00E94F01B83E90E94F01B80EE0E9484
:1052F000F01B80EB0E94DB1B80E00E94F01B80E033
:105300000E94F01B83E00E94F01B8FE10E94F01BC3
:1053100081E00E94F01B8FED0E94F01B80E00E9454
:10532000F01B84EB0E94DB1B83E00E94F01B80EAF1
:105330000E94F01B80E00E94F01B8EE20E94F01B96
:1053400080E30E94F01B80E00E94F01B8FE00E942F
:10535000F01B80E00E94F01B86EB0E94DB1B82E0CA
:105360000E94F01B8DE00E94F01B80E00E94F01B69
:1053700080E10E94F01B80E10E94F01B80E00E940F
:10538000F01B88E00E94F01B8AEB0E94DB1B85E08B
:105390000E94F01B88EB0E94DB1B87E00E94F01B41
:1053A00081E00E94F01B86E30E94DB1B82E20E94E8
:1053B000F01B80EF0E94DB1B83E00E94F01B6AE081
:1053C00070E080E090E00E94FC122FED31E04FE1B0
:1053D00053E08DCE64E070E281E10E94211C60E028
:1053E0007CEC83E10E94211C60E076E285E10E9472
:1053F000211C6AE275E284E10E94211C63E370E0F3
:1054000082E10E94211C64E07CEC83E10E94211C6B
:1054100066E07CEC83E10E94211C6FE47CEC83E17C
:105420000E94211C6FE477E683E10E94211C63E067
:1054300070E281E10E94211C69E076E280E30E9433
:10544000211C6CE274E281E30E94211C63E27FE193
:1054500082E30E94211C65E274E283E30E94211C26
:1054600066E272E284E30E94211C63E275E285E356
:105470000E94211C6AE17CE186E30E94211C6DE10F
:1054800073E187E30E94211C61E17BE088E30E94D5
:10549000211C60E172E189E30E94211C65E173E156
:1054A0008AE30E94211C69E176E38BE30E94211CC0
:1054B00060E07DE08CE30E94211C6DE070E08DE3F4
:1054C0000E94211C67E070E086E10E94211C63E1DC
:1054D00070E082E00E94211C63E070E083E00E94A3
:1054E000211C67E271E081E00E94211C63E073E00F
:1054F00088E00E94211C6BE070E08AE00E94211C81
:1055000063E070E08BE00E94211C60E070E08CE0C2
:105510000E94211C60E070E081E40E94211C60E098
:1055200070E080E50E94211C65E070E080E60E944A
:10553000211C6BE070E080E70E94211C60E070E0BD
:1055400081E70E94211C60E070E088E70E94211C36
:1055500060E070E08AE70E94211C67E070E089E764
:105560000E94211C61E570E087E00E94211C63E538
:1055700070E087E00E94211C60E070E089E748C18C
:1055800081E10E94DB1B64E170E080E090E00E941A
:10559000FC1280ED0E94DB1B87E00E94F01B82E47E
:1055A0000E94F01B88E10E94F01B81ED0E94DB1B32
:1055B00080E00E94F01B87E00E94F01B80E10E94C7
:1055C000F01B82ED0E94DB1B81E00E94F01B82E059
:1055D0000E94F01B80EC0E94DB1B80E10E94F01B0C
:1055E0008BE30E94F01B80E00E94F01B82E00E948F
:1055F000F01B81E10E94F01B85EC0E94DB1B83E025
:105600000E94F01B88EC0E94DB1B80E00E94F01BD4
:1056100082E30E94F01B86E30E94F01B85E40E9457
:10562000F01B86E00E94F01B86E10E94F01B87E3DE
:105630000E94F01B85E70E94F01B87E70E94F01B89
:1056400084E50E94F01B8CE00E94F01B80E00E9429
:10565000F01B86E30E94DB1B8AE00E94F01B8AE3BA
:105660000E94DB1B85E50E94F01B8AE20E94DB1B87
:1056700080E00E94F01B80E00E94F01B81E00E940D
:10568000F01B8FE30E94F01B8BE20E94DB1B80E08B
:105690000E94F01B80E00E94F01B81E00E94F01B42
:1056A00080EE0E94F01B68E770E080E090E00E94CE
:1056B000FC1292C16AE170E081E10E94211C61E26A
:1056C00071E382E10E94211C6CE670E083E10E949C
:1056D000211C69E472E484E10E94211C60E078E00E
:1056E00080E10E94211C6AE070E080E090E00E946E
:1056F000FC126AE171E081E10E94211C6AE070E025
:1057000080E090E00E94FC126AE173E081E10E9477
:10571000211C6AE070E080E090E00E94FC126AE1E7
:1057200077E081E10E94211C6AE070E080E090E077
:105730000E94FC126AE17FE081E10E94211C6AE084
:1057400070E080E090E00E94FC126AE37FE081E17B
:105750000E94211C6EE170E080E090E00E94FC124B
:105760006CE171E081E00E94211C60E071E082E068
:105770000E94211C60E370E183E00E94211C60E034
:1057800070E087E00E94211C68E078E088E00E94D9
:10579000211C60E071E18BE00E94211C60E070E060
:1057A0008CE00E94211C61E074E18FE00E94211CCA
:1057B00060E070E085E10E94211C60E070E080E222
:1057C0000E94211C60E070E081E20E94211C6FEACF
:1057D00070E086E30E94211C60E070E087E30E9495
:1057E000211C6BED70E088E30E94211C60E070E0FA
:1057F00089E30E94211C61E07BE08FE00E94211C74
:1058000066E170E087E00E94211C67E170E087E0BC
:105810000E94211CC0C881E10E94DB1B68E770E088
:1058200080E090E00E94FC1281EB0E94DB1B85E08F
:105830000E94F01B8CE30E94F01B8CE30E94F01B83
:1058400082EB0E94DB1B85E00E94F01B8CE30E9430
:10585000F01B8CE30E94F01B83EB0E94DB1B85E0B6
:105860000E94F01B8CE30E94F01B8CE30E94F01B53
:1058700085E00E94F01B8CE30E94F01B8CE30E94E9
:10588000F01B84EB0E94DB1B83E00E94F01B80EC8A
:105890000E94DB1B88E20E94F01B88E00E94F01B44
:1058A00084E00E94F01B81EC0E94DB1B80EC0E94D4
:1058B000F01B82EC0E94DB1B8DE00E94F01B80E05D
:1058C0000E94F01B83EC0E94DB1B8DE80E94F01B02
:1058D0008AE20E94F01B84EC0E94DB1B8DE80E9490
:1058E000F01B8EEE0E94F01B85EC0E94DB1B8AE110
:1058F0000E94F01B86E30E94DB1B80EC0E94F01BE1
:1059000080EE0E94DB1B83E00E94F01B82E20E947B
:10591000F01B87E00E94F01B8AE00E94F01B8EE2E1
:105920000E94F01B80E30E94F01B85E20E94F01BA6
:105930008AE20E94F01B88E20E94F01B86E20E942D
:10594000F01B8EE20E94F01B8AE30E94F01B80E0B5
:105950000E94F01B81E00E94F01B83E00E94F01B7C
:1059600083E10E94F01B81EE0E94DB1B84E00E9419
:10597000F01B86E10E94F01B86E00E94F01B8DE088
:105980000E94F01B8DE20E94F01B86E20E94F01B39
:1059900083E20E94F01B87E20E94F01B87E20E94D4
:1059A000F01B85E20E94F01B8DE20E94F01B8BE34E
:1059B0000E94F01B80E00E94F01B81E00E94F01B1F
:1059C00084E00E94F01B83E10E94F01B8AE30E94A6
:1059D000DB1B85E00E94F01B89E20C94CC2481E162
:1059E0000E94DB1B64E170E080E090E00E94FC120A
:1059F00088E20E94DB1B65E070E080E090E00E949E
:105A0000FC128FEC0E94DB1B80E00E94F01B83E8FD
:105A10000E94F01B80E30E94F01B8DEE0E94DB1BB6
:105A200084E60E94F01B83E00E94F01B82E10E944A
:105A3000F01B81E80E94F01B88EE0E94DB1B85E8CA
:105A40000E94F01B81E00E94F01B89E70E94F01B7E
:105A50008BEC0E94DB1B89E30E94F01B8CE20E940E
:105A6000F01B80E00E94F01B84E30E94F01B82E0A8
:105A70000E94F01B87EF0E94DB1B80E20E94F01B5C
:105A80008AEE0E94DB1B80E00E94F01B80E00E94F7
:105A9000F01B80EC0E94DB1B86E20E94F01B81EC75
:105AA0000E94DB1B81E10E94F01B85EC0E94DB1B46
:105AB00085E30E94F01B8EE30E94F01B87EC0E949E
:105AC000DB1B8EEB0E94F01B81EB0E94DB1B80E056
:105AD0000E94F01B8BE10E94F01B86EB0E94DB1BF7
