:10000000FAC0000028C1000026C1000024C1000081
:1000100022C1000020C100001EC100001CC1000060
:100020001AC1000018C1000016C1000014C1000070
:1000300012C1000010C100000EC100000CC1000080
:100040000AC1000008C1000006C1000004C1000090
:1000500002C1000000C10000FEC0000033C5000066
:10006000FAC00000F9C40000CEC40000F4C00000D3
:10007000F2C00000F0C00000EEC00000ECC00000C4
:10008000EAC00000E8C00000E6C00000E4C00000D4
:10009000E2C00000E0C00000DEC000005DC500005E
:1000A000DAC00000D8C00000D6C00000D4C00000F4
:1000B000D2C00000D0C00000CEC00000CCC0000004
:1000C000CAC00000C8C00000C6C00000C4C0000014
:1000D000C2C00000C0C00000BEC00000BCC0000024
:1000E000BAC0000081018401730177017B01BB016B
:1000F00088018C01920196019A01A001A401A80136
:10010000BB01AE01B201B6010000220025002800AB
:100110002B002E003100340002010000050108010F
:100120000B0105050505070508080808020202027B
:100130000A0A080804040404010101010101010183
:100140000303030303030303040707070C0C0C0C4E
:100150000C0C0C0C02020202060606060606060637
:100160000B0B0B0B0B0B0B0B0102102020080810C4
:100170002040102040800201020108040201010217
:1001800004081020408080402010080402018004F0
:10019000020180402010080402010804020101024B
:1001A0000408102040800102040810204080000054
:1001B0000A0B02090C0D0E080703040100000000E1
:1001C000000000000000000000000000000000002F
:1001D00000000000000000000000121110000000EC
:1001E000000000000000000000000000000000000F
:1001F00000000000DD0611241FBECFEFD1E2DEBFFC
:10020000CDBF00E00CBF12E0A0E0B2E0E4EFF2E10D
:1002100000E00BBF02C007900D92A837B107D9F7D5
:1002200024E0A8E7B2E001C01D92AF32B207E1F7C7
:1002300010E0CBEFD0E000E006C021970109802F4D
:10024000FE010E944A09CA3FD10780E00807A9F7CA
:10025000FCD50C947809D4CEEAE7F3E0A089B18903
:1002600082E08C93A485B5851C92A685B7858FEC1A
:100270008C93108EA489B58986E08C93A289B3896A
:100280008C9180618C93A289B3898C9188608C93C6
:10029000A289B3898C9180688C930288F389E02DC0
:1002A00080818F7D8083089590E0FC01E255FE4FB0
:1002B0004491FC01E859FE4F2491FC01EE5DFE4F94
:1002C0009491992309F465C0442309F454C050E083
:1002D000FA013197E231F10508F04DC08827EE5858
:1002E000FF4F8F4FD7C7809180008F7707C08091D5
:1002F00080008F7D03C080918000877F8093800085
:100300003AC084B58F7702C084B58F7D84BD33C079
:100310008091B0008F7703C08091B0008F7D809373
:10032000B00029C0809190008F7707C08091900025
:100330008F7D03C080919000877F809390001BC0C9
:100340008091A0008F7707C08091A0008F7D03C0AF
:100350008091A000877F8093A0000DC08091200134
:100360008F7707C0809120018F7D03C0809120018D
:10037000877F80932001E92FF0E0EE0FFF1FE85FF9
:10038000FE4FA591B4918FB7F894EC912E2B2C933E
:100390008FBF0895CF92DF92EF92FF920F931F933A
:1003A000CF93DF936C017A018B01C0E0D0E0CE15D2
:1003B000DF0589F0D8016D918D01D601ED91FC9199
:1003C0000190F081E02DC6011995892B11F47E0171
:1003D00002C02196ECCFC701DF91CF911F910F9101
:1003E000FF90EF90DF90CF900895FC01918D828D6A
:1003F000981761F0828DDF01A80FB11D5D968C9179
:10040000928D9F5F9F73928F90E008958FEF9FEF83
:100410000895FC01918D828D981731F0828DE80F3F
:10042000F11D858D90E008958FEF9FEF0895FC01F9
:10043000918D228D892F90E0805C9F4F821B9109C6
:100440008F73992708958AE793E0F1DF21E0892BE4
:1004500009F420E0822F0895FC01848DDF01A80FAC
:10046000B11DA35ABF4F2C91848D90E001968F73DC
:100470009927848FA689B7892C93A089B1898C91FB
:1004800080648C93938D848D981306C00288F389C1
:10049000E02D80818F7D80830895EF92FF920F93EE
:1004A0001F93CF93DF93EC0181E0888F9B8D8C8D20
:1004B000981305C0E889F989808185FD23C0F62E4F
:1004C0000B8D10E00F5F1F4F0F731127E02E8C8DE7
:1004D000E8120BC00FB607FCFACFE889F9898081D2
:1004E00085FFF5CFCE01B8DFF2CF8B8DFE01E80F8F
:1004F000F11DE35AFF4FF0820B8FEA89FB8980815F
:10050000806207C0EE89FF896083E889F98980816C
:100510008064808381E090E0DF91CF911F910F9103
:10052000FF90EF900895CF93DF93EC01888D88239F
:10053000C1F0EA89FB89808185FD05C0A889B98958
:100540008C9186FD0EC00FB607FCF5CF808185FF2C
:10055000F2CFA889B9898C9185FFEDCFCE017CDFE0
:10056000E8CFDF91CF91089580E090E0892B19F0DA
:100570006ADF811125C080E090E0892B41F080E0A6
:1005800090E0892B21F00E94000081111CC080E0C6
:1005900090E0892B41F080E090E0892B21F00E94CF
:1005A0000000811113C080E090E0892BA1F080E071
:1005B00090E0892B81F00E94000081110AC008950B
:1005C0000E940000D8CF0E940000E1CF0E940000EE
:1005D000EACF0C94000008953FB7F8948091060389
:1005E00090910703A0910803B091090326B5A89B39
:1005F00005C02F3F19F00196A11DB11D3FBFBA2FB5
:10060000A92F982F8827820F911DA11DB11DBC0114
:10061000CD0142E0660F771F881F991F4A95D1F7D9
:1006200008958F929F92AF92BF92CF92DF92EF92F6
:10063000FF926B017C01D0DF4B015C01C114D1043E
:10064000E104F104E9F0C8DFDC01CB018819990964
:10065000AA09BB09883E9340A105B10578F321E0C2
:10066000C21AD108E108F10888EE880E83E0981ECE
:10067000A11CB11CC114D104E104F10421F7DECFA7
:10068000FF90EF90DF90CF90BF90AF909F908F90B2
:10069000089585ED8093BC008091BC0084FDFCCF63
:1006A00010921003089540919A02262F30E0240FF3
:1006B000311D21323105DCF4209110032430C9F4BE
:1006C000FC0180E090E0861758F430919A02219165
:1006D000DC01A858BD4FA30FB11D2C930196F3CF99
:1006E00080919A02680F60939A0280E0089581E0F9
:1006F000089582E00895089581E090E03091140318
:1007000020911303321710F480E090E091958195C9
:10071000910908958091140390911303891730F47F
:100720008F5F8093140380E090E008958FEF9FEF38
:1007300008958091130390E020911403821B910986
:100740000895CF92DF92EF92FF920F931F93CF9372
:10075000DF937C01262F972F8A018091E302882363
:1007600091F0C62FD72F6E01C40ED51ECC15DD0516
:1007700069F06991D701ED91FC910190F081E02D34
:10078000C7011995F3CF642F822F8DDFC801DF9148
:10079000CF911F910F91FF90EF90DF90CF90089530
:1007A000CF93DF931F92CDB7DEB769832091E30229
:1007B0002223D1F020911103203240F021E030E0DB
:1007C000FC013383228380E090E014C08091120307
:1007D000E82FF0E0EC51FD4F998190838F5F80937B
:1007E00012038093110304C061E0CE0101965BDF28
:1007F00081E090E00F90DF91CF910895CF93FC01BD
:10080000C48121E02093E302C093040310921203F9
:10081000109211038385682B87E194E0C1DF8091FA
:100820001103813208F046C0909110039111FCCF62
:1008300092E09093100391E090930F039FEF9093B9
:10084000E2021092E1028093E002A4EEB2E020EC1A
:1008500032E0F9019E2F921B981718F49D91919305
:10086000F9CF1092BF028091BF02CC0FC82BC0936A
:10087000BF0280910E03813061F410920E038091CB
:10088000BF028093BB008091BC0083FDF8CF85EC54
:1008900001C085EE8093BC00809110038230E1F3AB
:1008A0008091E2028F3F31F08091E202803211F0BC
:1008B0008091E20210921203109211031092E3024F
:1008C000CF9108950F931F93CF938C01C62F96DF7E
:1008D0006C2F6460C80192DF6C2F6B7FC8018EDFC4
:1008E00083EC90E00197F1F7CF911F910F9108955C
:1008F000FF920F931F93CF93DF931F92CDB7DEB775
:100900008C01F62E962F907F692F642BC8014983A6
:10091000D9DF80E1F89EB00111244981642BC80120
:100920000F90DF91CF911F910F91FF90CBCF40E0BF
:1009300061E0DEDF8BE39FE10197F1F7089541E08D
:10094000D7DF81E090E008956115710579F0FB0132
:1009500001900020E9F73197AF01461B570BDC01EE
:10096000ED91FC910280F381E02D199480E090E0FC
:1009700008950F931F93CF93DF93EC01E5DF8C0174
:100980006AE472E0CE01E0DF800F911FDF91CF912A
:100990001F910F9108950F931F93CF93DF938C01B5
:1009A000CAE5D3E02A8D3B8DC90101969B8F8A8FC2
:1009B000220F331FF901E459FC4F0190F081E02D23
:1009C0001187008768E272E08C8D9D8DBDDFB801D4
:1009D0008C8D9D8DCEDF60E372E08C8D9D8DB4DFBC
:1009E000EA8DFB8DEE0FFF1FE659FC4F0190F08161
:1009F000E02D608571858C8D9D8DDF91CF911F914C
:100A00000F91B7CF4FD41F920F920FB60F921124B0
:100A10000BB60F922F933F934F935F936F937F93F8
:100A20008F939F93AF93BF93EF93FF938AE793E0E6
:100A300013DDFF91EF91BF91AF919F918F917F91C6
:100A40006F915F914F913F912F910F900BBE0F903F
:100A50000FBE0F901F9018951F920F920FB60F9216
:100A600011240BB60F922F938F939F93EF93FF93C5
:100A7000E0918A03F0918B038081E0919003F091E3
:100A8000910382FD12C09081809193038F5F8F73D9
:100A900020919403821751F0E0919303F0E0E6581F
:100AA000FC4F958F8093930301C08081FF91EF915C
:100AB0009F918F912F910F900BBE0F900FBE0F90B3
:100AC0001F9018951F920F920FB60F9211242F931B
:100AD0003F938F939F93AF93BF9380910A0390911D
:100AE0000B03A0910C03B0910D033091050323E09B
:100AF000230F2D3720F40196A11DB11D05C026E856
:100B0000230F0296A11DB11D2093050380930A03B4
:100B100090930B03A0930C03B0930D0380910603F5
:100B200090910703A0910803B09109030196A11DBC
:100B3000B11D8093060390930703A0930803B0931D
:100B40000903BF91AF919F918F913F912F910F908A
:100B50000FBE0F901F9018951F920F920FB60F9215
:100B600011240BB60F922F933F934F935F936F9384
:100B70007F938F939F93AF93BF93EF93FF93809156
:100B8000B900887F803609F49CC068F5883209F482
:100B90005BC090F4803109F454C038F4882309F420
:100BA000F6C0883009F44DC0F5C0883109F44CC056
:100BB000803209F45DC0EEC0803409F468C048F4A6
:100BC000803309F455C0883309F0E4C08093E20211
:100BD000D8C0803509F44FC0883509F45DC0883429
:100BE00009F0D8C0D6C0883909F4C7C0A8F488373E
:100BF00009F467C038F4883609F463C0803709F413
:100C000060C0C8C0883809F4B8C0803909F45FC032
:100C1000803809F0BFC05BC0803B09F486C038F45F
:100C2000803A09F466C0883A09F47FC0B3C0803CBA
:100C300009F4A7C0883C09F4A4C0883B09F48AC021
:100C4000A9C08091BF0210C09091E1028091E002A2
:100C5000981770F5E091E10281E08E0F8093E10238
:100C6000F0E0E054FD4F80818093BB0085EC86C0AE
:100C70008093E2028EC0E091E10281E08E0F8093CA
:100C8000E1028091BB00F0E0E054FD4F8083909141
:100C9000E1028091E0026EC0E091E10281E08E0FFE
:100CA0008093E1028091BB00F0E0E054FD4F80832F
:100CB00080910F0381116DC081E080930E0384EA5F
:100CC00061C083E0809310031092BE02CFCF809169
:100CD000BE02803208F051C0E091BE0281E08E0F6A
:100CE0008093BE028091BB00F0E0E256FD4F80830E
:100CF000BDCF85EC8093BC00109210038091BE02A2
:100D0000803230F4E091BE02F0E0E256FD4F1082F6
:100D10006091BE0270E0E0919C02F0919D028EE92C
:100D200092E019951092BE0235C084E080931003C2
:100D300010929B0210929A02E0919802F09199020F
:100D4000199580919A02811105C081E080939A02E1
:100D500010927802E0919B0281E08E0F80939B02BB
:100D6000F0E0E858FD4F80818093BB0090919B029A
:100D700080919A02981708F479CF85E88093BC0097
:100D800009C085EC8093BC001092100303C0109240
:100D9000E2027FDCFF91EF91BF91AF919F918F9124
:100DA0007F916F915F914F913F912F910F900BBE6B
:100DB0000F900FBE0F901F901895EAE7F3E0138293
:100DC000128288EE93E0A0E0B0E084839583A6834E
:100DD000B78324E032E03183208325EC30E035878F
:100DE000248724EC30E03787268720EC30E0318BF5
:100DF000208B21EC30E0338B228B22EC30E0358BE2
:100E0000248B26EC30E0378B268B118E128E138EBE
:100E1000148EE7E1F4E01382128284839583A68323
:100E2000B78384E192E091838083E3E2F4E013826C
:100E3000128284E292E09183808387E2848384E15A
:100E4000818784E0828713860895CF93DF93CDB79F
:100E5000DEB7A1970FB6F894DEBF0FBECDBF789472
:100E600084B5826084BD84B5816084BD85B58260AF
:100E700085BD85B5816085BD80916E008160809360
:100E80006E001092810080918100826080938100C9
:100E900080918100816080938100809180008160D9
:100EA000809380008091B10084608093B100809134
:100EB000B00081608093B000809191008260809347
:100EC00091008091910081608093910080919000C9
:100ED0008160809390008091A10082608093A10046
:100EE0008091A10081608093A1008091A000816029
:100EF0008093A000809121018260809321018091E4
:100F00002101816080932101809120018160809383
:100F1000200180917A00846080937A0080917A0029
:100F2000826080937A0080917A00816080937A0059
:100F300080917A00806880937A001092C1001092AC
:100F400056031092570310925803109259031092AF
:100F5000240310922503109226031092270360EDBC
:100F600077E080E090E05DDB8AE793E090935503C3
:100F70008093540371D92FB7F89480910A0390910C
:100F80000B03A0910C03B0910D032FBF40912403DC
:100F9000509125036091260370912703841B950BC4
:100FA000A60BB70BC297A105B10530F463E070E062
:100FB00080E090E036DBDFCF2FB7F89480910A0312
:100FC00090910B03A0910C03B0910D032FBF809360
:100FD000240390932503A0932603B09327036BE388
:100FE00072E08091540390915503AEDC6AE070E0AA
:100FF00080E090E016DB11E0109328038CE090E095
:10100000909322038093210327D98FEF9FEF909332
:101010007503809374038AE793E09093770380933A
:10102000760383E294E0909379038093780310929F
:1010300014031092130310921203109211031092D2
:10104000100310930F0310920E0384E12DD985E154
:101050002BD98091B9008E7F8093B9008091B9001F
:101060008D7F8093B90088E48093B80085E48093F5
:10107000BC001092280480912D04823018F098E072
:101080009093280480932B0462E370E080E090E06A
:10109000C8DA60912E0483E294E0B0DB68EE73E07E
:1010A00080E090E0BEDA60E383E294E00BDC0BE4E6
:1010B00016E4C8010197F1F760E383E294E002DCF3
:1010C000C8010197F1F760E383E294E0FBDB83E57D
:1010D00092E00197F1F760E283E294E0F3DB609144
:1010E0002804606240E083E294E002DC84E08093C4
:1010F000290440E06CE083E294E0FADB83E294E0D0
:1011000016DC82E080932A0440E066E083E294E00B
:10111000EFDB40E062E083E294E0EADB8BE39FE117
:101120000197F1F7809178039091790328E0DC0131
:101130001B962C9360E062DB6DE472E08091760395
:101140009091770316DC8091780390917903EFDB1F
:1011500040E060E88091780390917903C9DB6DE409
:1011600072E08091780390917903EEDB22E532E022
:101170003093200320931F0310921E0310921D032F
:101180008BE592E090931C0380931B0341E050E0B9
:1011900050931A03409319033093180320931703B5
:1011A0009093160380931503C901F5DB8091150315
:1011B00090911603F0DB8AE0482E512C612C712CA3
:1011C00068EE73E080E090E02CDA66E672E08091F1
:1011D000760390917703CDDB80917803909179032A
:1011E000A6DB0AE613E0C12CD12C76016DE672E095
:1011F0008091760390917703A7DB8090760390909F
:10120000770319A2A7019601FE01B1965F01CA01F9
:10121000B901A30192014AD0605DD5016E935D01D1
:10122000211531054105510591F7BD01C4018CDB44
:101230006AE472E0C40188DB61E772E080917603C2
:101240009091770381DB5801D801ED91FD918D01DB
:101250006085718580917603909177038ADBD50153
:10126000ED91FC910680F781E02D62817381809180
:1012700078039091790368DBBFEFCB1ADB0AEB0AA6
:10128000FB0AE6E0CE16D104E104F10409F0AECF8A
:101290006BD996CFEE0FFF1F881F8BBF0790F6917B
:1012A000E02D199481E090E0F89422C0A1E21A2E7A
:1012B000AA1BBB1BFD010DC0AA1FBB1FEE1FFF1FFA
:1012C000A217B307E407F50720F0A21BB30BE40B4A
:1012D000F50B661F771F881F991F1A9469F7609591
:1012E0007095809590959B01AC01BD01CF0108954B
:0412F000F894FFCFA0
:1012F400000000004D02CA011702F5010902930221
:1013040000000000D003A10399038A037C037B033C
:10131400000000009F04CA016172726976612000B6
:101324006D656D6F72697A7A612000564D4450562E
:101334005F317C315F564D4450560D0A00494E4989
:10134400540031323A31332E35350032372D3131B4
:101354002D323031360044454255472000766172C3
:081364000076616C65200000B9
:00000001FF
