:10000000FAC0000028C1000026C1000024C1000081
:1000100022C1000020C100001EC100001CC1000060
:100020001AC1000018C1000016C1000014C1000070
:1000300012C1000010C100000EC100000CC1000080
:100040000AC1000008C1000006C1000004C1000090
:1000500002C1000000C10000FEC00000E2C50000B7
:10006000FAC00000A8C500007DC50000F4C0000073
:10007000F2C00000F0C00000EEC00000ECC00000C4
:10008000EAC00000E8C00000E6C00000E4C00000D4
:10009000E2C00000E0C00000DEC000000CC60000AE
:1000A000DAC00000D8C00000D6C00000D4C00000F4
:1000B000D2C00000D0C00000CEC00000CCC0000004
:1000C000CAC00000C8C00000C6C00000C4C0000014
:1000D000C2C00000C0C00000BEC00000BCC0000024
:1000E000BAC0000082018501740178017C01BC0165
:1000F00089018D01930197019B01A101A501A9012E
:10010000BC01AF01B301B7010000220025002800A7
:100110002B002E003100340002010000050108010F
:100120000B0105050505070508080808020202027B
:100130000A0A080804040404010101010101010183
:100140000303030303030303040707070C0C0C0C4E
:100150000C0C0C0C02020202060606060606060637
:100160000B0B0B0B0B0B0B0B0102102020080810C4
:100170002040102040800201020108040201010217
:1001800004081020408080402010080402018004F0
:10019000020180402010080402010804020101024B
:1001A0000408102040800102040810204080000054
:1001B0000A0B02090C0D0E080703040100000000E1
:1001C000000000000000000000000000000000002F
:1001D00000000000000000000000121110000000EC
:1001E000000000000000000000000000000000000F
:1001F000000000008C0711241FBECFEFD1E2DEBF4C
:10020000CDBF00E00CBF12E0A0E0B2E0E2E2F5E119
:1002100000E00BBF02C007900D92AC34B107D9F7D4
:1002200028E0ACE4B2E001C01D92AD3AB207E1F7BC
:1002300010E0CBEFD0E000E006C021970109802F4D
:10024000FE010E945A0ACA3FD10780E00807A9F7B9
:10025000BBD60C948F0AD4CEEEE2F3E0A089B1892C
:1002600082E08C93A485B5851C92A685B7858FEC1A
:100270008C93108EA489B58986E08C93A289B3896A
:100280008C9180618C93A289B3898C9188608C93C6
:10029000A289B3898C9180688C930288F389E02DC0
:1002A00080818F7D8083089590E0FC01E255FE4FB0
:1002B0004491FC01E859FE4F2491FC01EE5DFE4F94
:1002C0009491992309F466C0442309F455C050E081
:1002D000FA013197E231F10508F04EC08827EE5857
:1002E000FF4F8F4F0C945A0A809180008F7707C080
:1002F000809180008F7D03C080918000877F8093F4
:1003000080003AC084B58F7702C084B58F7D84BDEC
:1003100033C08091B0008F7703C08091B0008F7D93
:100320008093B00029C0809190008F7707C08091A2
:1003300090008F7D03C080919000877F8093900014
:100340001BC08091A0008F7707C08091A0008F7D97
:1003500003C08091A000877F8093A0000DC0809192
:1003600020018F7707C0809120018F7D03C080918D
:100370002001877F80932001E92FF0E0EE0FFF1F1F
:10038000E85FFE4FA591B4918FB7F894EC912E2BB6
:100390002C938FBF0895CF92DF92EF92FF920F932D
:1003A0001F93CF93DF936C017A018B01C0E0D0E003
:1003B000CE15DF0589F0D8016D918D01D601ED9143
:1003C000FC910190F081E02DC6011995892B11F463
:1003D0007E0102C02196ECCFC701DF91CF911F9122
:1003E0000F91FF90EF90DF90CF900895FC01918DD9
:1003F000828D981761F0828DDF01A80FB11D5D9687
:100400008C91928D9F5F9F73928F90E008958FEFF4
:100410009FEF0895FC01918D828D981731F0828DA8
:10042000E80FF11D858D90E008958FEF9FEF0895FF
:10043000FC01918D228D892F90E0805C9F4F821B63
:1004400091098F73992708958EE293E0F1DF21E0FF
:10045000892B09F420E0822F0895FC01848DDF01AF
:10046000A80FB11DA35ABF4F2C91848D90E0019627
:100470008F739927848FA689B7892C93A089B18916
:100480008C9180648C93938D848D981306C0028820
:10049000F389E02D80818F7D80830895EF92FF9214
:1004A0000F931F93CF93DF93EC0181E0888F9B8D97
:1004B0008C8D981305C0E889F989808185FD23C05A
:1004C000F62E0B8D10E00F5F1F4F0F731127E02EDC
:1004D0008C8DE8120BC00FB607FCFACFE889F989BA
:1004E000808185FFF5CFCE01B8DFF2CF8B8DFE0185
:1004F000E80FF11DE35AFF4FF0820B8FEA89FB8969
:100500008081806207C0EE89FF896083E889F9896C
:1005100080818064808381E090E0DF91CF911F91A2
:100520000F91FF90EF900895CF93DF93EC01888DAA
:100530008823C1F0EA89FB89808185FD05C0A889EF
:10054000B9898C9186FD0EC00FB607FCF5CF80816E
:1005500085FFF2CFA889B9898C9185FFEDCFCE01B7
:100560007CDFE8CFDF91CF91089580E090E0892B88
:1005700019F06ADF811125C080E090E0892B41F0FD
:1005800080E090E0892B21F00E94000081111CC0C6
:1005900080E090E0892B41F080E090E0892B21F011
:1005A0000E940000811113C080E090E0892BA1F02F
:1005B00080E090E0892B81F00E94000081110AC048
:1005C00008950E940000D8CF0E940000E1CF0E9451
:1005D0000000EACF0C94000008953FB7F894809192
:1005E000DA029091DB02A091DC02B091DD0226B527
:1005F000A89B05C02F3F19F00196A11DB11D3FBF5B
:10060000BA2FA92F982F8827820F911DA11DB11DE8
:10061000BC01CD0142E0660F771F881F991F4A95E4
:10062000D1F708958F929F92AF92BF92CF92DF92AF
:10063000EF92FF926B017C01D0DF4B015C01C11492
:10064000D104E104F104E9F0C8DFDC01CB01881931
:100650009909AA09BB09883E9340A105B10578F321
:1006600021E0C21AD108E108F10888EE880E83E083
:10067000981EA11CB11CC114D104E104F10421F79E
:10068000DECFFF90EF90DF90CF90BF90AF909F9024
:100690008F90089585ED8093BC008091BC0084FD0F
:1006A000FCCF1092E402089540916E02262F30E0B4
:1006B000240F311D21323105DCF42091E402243075
:1006C000C9F4FC0180E090E0861758F430916E0286
:1006D0002191DC01A45BBD4FA30FB11D2C930196AA
:1006E000F3CF80916E02680F60936E0280E00895F0
:1006F00081E0089582E00895089581E090E03091CE
:10070000E8022091E702321710F480E090E0919522
:100710008195910908958091E8029091E7028917E7
:1007200030F48F5F8093E80280E090E008958FEFCF
:100730009FEF08958091E70290E02091E802821BEC
:1007400091090895CF92DF92EF92FF920F931F933A
:10075000CF93DF937C01262F972F8A018091B702D8
:10076000882391F0C62FD72F6E01C40ED51ECC154D
:10077000DD0569F06991D701ED91FC910190F0815F
:10078000E02DC7011995F3CF642F822F8DDFC801AB
:10079000DF91CF911F910F91FF90EF90DF90CF905D
:1007A0000895CF93DF931F92CDB7DEB76983209171
:1007B000B7022223D1F02091E502203240F021E05F
:1007C00030E0FC013383228380E090E014C080910C
:1007D000E602E82FF0E0E854FD4F998190838F5FA7
:1007E0008093E6028093E50204C061E0CE010196A9
:1007F0005BDF81E090E00F90DF91CF910895CF9380
:10080000FC01C48121E02093B702C093D80210926A
:10081000E6021092E5028385682B8BEC93E0C1DF42
:100820008091E502813208F046C09091E402911176
:10083000FCCF92E09093E40291E09093E3029FEF6B
:100840009093B6021092B5028093B402A8EBB2E086
:1008500024E932E0F9019E2F921B981718F49D911C
:100860009193F9CF1092930280919302CC0FC82BF1
:10087000C09393028091E202813061F41092E2020F
:10088000809193028093BB008091BC0083FDF8CFE0
:1008900085EC01C085EE8093BC008091E40282303B
:1008A000E1F38091B6028F3F31F08091B602803241
:1008B00011F08091B6021092E6021092E5021092B9
:1008C000B702CF9108950F931F93CF938C01C62F3A
:1008D00096DF6C2F6460C80192DF6C2F6B7FC801BC
:1008E0008EDF83EC90E00197F1F7CF911F910F918C
:1008F0000895FF920F931F93CF93DF931F92CDB76D
:10090000DEB78C01F62E962F907F692F642BC801DD
:100910004983D9DF80E1F89EB00111244981642B1D
:10092000C8010F90DF91CF911F910F91FF90CBCF16
:1009300041E0DFDF81E090E008956115710579F015
:10094000FB0101900020E9F73197AF01461B570BDF
:10095000DC01ED91FC910280F381E02D199480E09F
:1009600090E008954F925F926F927F92EF92FF9284
:100970000F931F93CF93DF93CDB7DEB7A1970FB639
:10098000F894DEBF0FBECDBF7C01FA01CB0119A2E6
:10099000223008F42AE08E010F5D1F4F422E512CA9
:1009A000612C712CBF01A301920197D5F901CA01F5
:1009B000015011096A3014F4605D01C0695CD8010E
:1009C0006C93232B242B252B69F7B801C701B5DFC6
:1009D000A1960FB6F894DEBF0FBECDBFDF91CF91C9
:1009E0001F910F91FF90EF907F906F905F904F90CD
:1009F0000895CF92DF92EF92FF920F931F93CF93C0
:100A0000DF93EC016A017B01E881F9810190F081BB
:100A1000E02D6DE219958C0144275527BA014C1938
:100A20005D096E097F092AE0CE019CDF800F911FCE
:100A3000DF91CF911F910F91FF90EF90DF90CF90BA
:100A40000895DF92EF92FF920F931F93CF93DF935E
:100A5000CDB7DEB728970FB6F894DEBF0FBECDBF77
:100A600040E061E080919F089091A00842DF8BE315
:100A70009FE10197F1F70FEE13E0E12CF12C88E0F4
:100A8000D82E8091070590910805E816F9060CF01C
:100A90003FC0F8019689608D20919F083091A00891
:100AA000E0E0F2E0DE0111968D2D01900D928A9525
:100AB000E1F7F9018085891710F49FEF980FFE0187
:100AC0003196E90FF11DE90FF11D9081690F606802
:100AD00040E0C9010EDFF8014489558980919F08E3
:100AE0009091A008052E000C660B770B77FF02C0D3
:100AF00080DF02C02AE036DFB80180919F08909124
:100B0000A0081BDFFFEFEF1AFF0A045E1F4FB9CFEB
:100B100028960FB6F894DEBF0FBECDBFDF91CF9100
:100B20001F910F91FF90EF90DF900895CF93DF9387
:100B3000AC01990F660B770B77FF04C08EE293E050
:100B400058DF04C02AE08EE293E00CDFEC016FE393
:100B500072E08EE293E0F1DE8C0F9D1FDF91CF916A
:100B60000895B0D41F920F920FB60F9211240BB6B6
:100B70000F922F933F934F935F936F937F938F9336
:100B80009F93AF93BF93EF93FF938EE293E065DC67
:100B9000FF91EF91BF91AF919F918F917F916F9155
:100BA0005F914F913F912F910F900BBE0F900FBE11
:100BB0000F901F9018951F920F920FB60F9211244D
:100BC0000BB60F922F938F939F93EF93FF93E09128
:100BD0003E03F0913F038081E0914403F09145038F
:100BE00082FD12C09081809147038F5F8F732091A7
:100BF0004803821751F0E0914703F0E0E25DFC4FBB
:100C0000958F8093470301C08081FF91EF919F9161
:100C10008F912F910F900BBE0F900FBE0F901F90D2
:100C200018951F920F920FB60F9211242F933F9396
:100C30008F939F93AF93BF938091DE029091DF02D9
:100C4000A091E002B091E1023091D90223E0230F9C
:100C50002D3720F40196A11DB11D05C026E8230FF4
:100C60000296A11DB11D2093D9028093DE029093BC
:100C7000DF02A093E002B093E1028091DA0290914A
:100C8000DB02A091DC02B091DD020196A11DB11D35
:100C90008093DA029093DB02A093DC02B093DD0232
:100CA000BF91AF919F918F913F912F910F900FBE68
:100CB0000F901F9018951F920F920FB60F9211244C
:100CC0000BB60F922F933F934F935F936F937F9346
:100CD0008F939F93AF93BF93EF93FF938091B9004E
:100CE000887F803609F49CC068F5883209F45BC0BF
:100CF00090F4803109F454C038F4882309F4F6C024
:100D0000883009F44DC0F5C0883109F44CC08032F8
:100D100009F45DC0EEC0803409F468C048F4803343
:100D200009F455C0883309F0E4C08093B602D8C0F6
:100D3000803509F44FC0883509F45DC0883409F066
:100D4000D8C0D6C0883909F4C7C0A8F4883709F4D8
:100D500067C038F4883609F463C0803709F460C08E
:100D6000C8C0883809F4B8C0803909F45FC0803839
:100D700009F0BFC05BC0803B09F486C038F4803AFC
:100D800009F466C0883A09F47FC0B3C0803C09F416
:100D9000A7C0883C09F4A4C0883B09F48AC0A9C054
:100DA0008091930210C09091B5028091B40298177F
:100DB00070F5E091B50281E08E0F8093B502F0E00E
:100DC000EC56FD4F80818093BB0085EC86C08093FC
:100DD000B6028EC0E091B50281E08E0F8093B5021D
:100DE0008091BB00F0E0EC56FD4F80839091B502FE
:100DF0008091B4026EC0E091B50281E08E0F8093C5
:100E0000B5028091BB00F0E0EC56FD4F80838091ED
:100E1000E30281116DC081E08093E20284EA61C047
:100E200083E08093E40210929202CFCF80919202ED
:100E3000803208F051C0E091920281E08E0F8093E1
:100E400092028091BB00F0E0EE58FD4F8083BDCF51
:100E500085EC8093BC001092E40280919202803273
:100E600030F4E0919202F0E0EE58FD4F1082609174
:100E7000920270E0E0917002F091710282E792E0DC
:100E800019951092920235C084E08093E40210928A
:100E90006F0210926E02E0916C02F0916D02199552
:100EA00080916E02811105C081E080936E021092E4
:100EB0004C02E0916F0281E08E0F80936F02F0E0B0
:100EC000E45BFD4F80818093BB0090916F02809125
:100ED0006E02981708F479CF85E88093BC0009C0AA
:100EE00085EC8093BC001092E40203C01092B6021D
:100EF000D1DBFF91EF91BF91AF919F918F917F9146
:100F00006F915F914F913F912F910F900BBE0F907A
:100F10000FBE0F901F901895EEE2F3E0138212823D
:100F200088EE93E0A0E0B0E084839583A683B78346
:100F30002CE032E03183208325EC30E035872487B4
:100F400024EC30E03787268720EC30E0318B208B93
:100F500021EC30E0338B228B22EC30E0358B248B7C
:100F600026EC30E0378B268B118E128E138E148E6A
:100F7000EBECF3E01382128284839583A683B7831C
:100F80008CE192E091838083E1EAF8E0138212829F
:100F90008CE292E09183808387E2848384E181877D
:100FA00084E082871386109208051092070510923C
:100FB0003A061092390610926C0710926B07109245
:100FC0009E0810929D080895789484B5826084BD2F
:100FD00084B5816084BD85B5826085BD85B581603D
:100FE00085BD80916E00816080936E0010928100BB
:100FF0008091810082608093810080918100816076
:101000008093810080918000816080938000809136
:10101000B10084608093B1008091B00081608093C2
:10102000B000809191008260809391008091910046
:101030008160809391008091900081608093900006
:101040008091A10082608093A1008091A1008160C5
:101050008093A1008091A00081608093A000809186
:101060002101826080932101809121018160809320
:1010700021018091200181608093200180917A007C
:10108000846080937A0080917A00826080937A00F5
:1010900080917A00816080937A0080917A008068E4
:1010A00080937A001092C1001092280310922903B5
:1010B00010922A0310922B031092F6021092F7025C
:1010C0001092F8021092F90260ED77E080E090E073
:1010D000A9DA8EE293E09093270380932603BCD88D
:1010E0002FB7F8948091DE029091DF02A091E00288
:1010F000B091E1022FBF4091F6025091F70260914A
:10110000F8027091F902841B950BA60BB70BC297DE
:10111000A105B10530F463E070E080E090E082DA90
:10112000DFCF2FB7F8948091DE029091DF02A0917B
:10113000E002B091E1022FBF8093F6029093F70294
:10114000A093F802B093F90260E372E08091260365
:1011500090912703F2DB6AE070E080E090E062DAD1
:10116000772473947092FA0287E1C82ED12CD09222
:101170002D03C0922C0388E190E09093F4028093B9
:10118000F30289E190E09093F2028093F10201E092
:1011900010E01093F0020093EF0282E090E0909351
:1011A000EE028093ED0280E190E09093EC02809358
:1011B000EB0282E492E09093EA028093E9021092BB
:1011C000D8031092D70367E472E089ED93E07ED1F3
:1011D0002091070530910805C901019690930805F3
:1011E00080930705CCE1C29FC001C39F900D1124DD
:1011F000AC0149525C4F7A01FA01378B268B61E4CE
:1012000072E081519C4F62D1F70111AA10AA17A672
:1012100016A62091070530910805C9010196909303
:10122000080580930705C29FC001C39F900D11243C
:10123000AC0149525C4F7A01FA01378B268B61E48D
:1012400072E081519C4F42D193E0892E912CF7019D
:1012500091AA80AA17A616A6209107053091080525
:10126000C90101969093080580930705C29FC001AC
:10127000C39F900D1124AC0149525C4F7A01FA01D1
:10128000378B268B61E472E081519C4F1FD126E0A1
:10129000A22EB12CF701B1AAA0AA17A616A62091DA
:1012A000070530910805C9010196909308058093C0
:1012B0000705C29FC001C39F900D1124AC01495284
:1012C0005C4F7A01FA01378B268B61E472E0815121
:1012D0009C4FFCD0F70111AA10AA17A706A72091CE
:1012E000070530910805C901019690930805809380
:1012F0000705C29FC001C39F900D1124AC01495244
:101300005C4F7A01FA01378B268B61E472E08151E0
:101310009C4FDCD0F70191AA80AA17A706A72091BD
:10132000070530910805C90101969093080580933F
:101330000705C29FC001C39F900D1124EC01C95243
:10134000DC4F3F8B2E8B61E472E081519C4FBED00D
:10135000B9AAA8AA1FA70EA7D0920404C09203049A
:1013600081EA98E09093A00880939F081092E80289
:101370001092E7021092E6021092E5021092E40247
:101380007092E3021092E20284E10E94540185E12E
:101390000E9454018091B9008E7F8093B9008091A2
:1013A000B9008D7F8093B90088E48093B80085E40C
:1013B0008093BC001092A6088091AB08823018F090
:1013C00098E09093A6088093A90862E370E080E01B
:1013D00090E028D96091AC0881EA98E010DA68EED4
:1013E00073E080E090E01ED960E381EA98E06BDA78
:1013F000CBE4D6E4CE010197F1F760E381EA98E00F
:1014000062DA2197F1F760E381EA98E05CDA83E53C
:1014100092E00197F1F760E281EA98E054DA609196
:10142000A608606240E081EA98E063DA84E0809395
:10143000A70840E06CE081EA98E05BDA40E061E018
:1014400081EA98E056DACBE3DFE1CE010197F1F7CC
:1014500082E08093A80840E066E081EA98E049DAFB
:1014600040E062E081EA98E044DA2197F1F7809168
:101470009F089091A00828E0FC01238760E0BFD975
:10148000E0DA0E942C0180912C0390912D034EDB19
:1014900068EE73E080E090E0C5D880912C039091D5
:1014A0002D03019690932D0380932C033FDBC9DA23
:1014B0005CD8EECFEE0FFF1F881F8BBF0790F69111
:1014C000E02D199481E090E0F89429C0FB01DC0143
:1014D00001900D920020E1F70895A1E21A2EAA1BB7
:1014E000BB1BFD010DC0AA1FBB1FEE1FFF1FA217D4
:1014F000B307E407F50720F0A21BB30BE40BF50BD1
:10150000661F771F881F991F1A9469F76095709559
:10151000809590959B01AC01BD01CF010895F89491
:02152000FFCFFB
:101522000000400014005400000000004E02CB01F5
:101532001802F6010A02940200000000D103A2037D
:101542009A038B037D037C03000000009804CB0107
:10155200564D4450565F317C315F564D4450560DC6
:0C1562000A006369616F00526F6F740033
:00000001FF
